{
	"contracts/HW4/11_BirthdayGift.sol": {
		"BirthdayGift": {
			"abi": [
				{
					"inputs": [],
					"stateMutability": "nonpayable",
					"type": "constructor"
				},
				{
					"anonymous": false,
					"inputs": [
						{
							"indexed": true,
							"internalType": "address",
							"name": "owner",
							"type": "address"
						},
						{
							"indexed": false,
							"internalType": "uint256",
							"name": "amount",
							"type": "uint256"
						},
						{
							"indexed": false,
							"internalType": "uint256",
							"name": "sharePerGrandchild",
							"type": "uint256"
						}
					],
					"name": "Deposited",
					"type": "event"
				},
				{
					"anonymous": false,
					"inputs": [
						{
							"indexed": true,
							"internalType": "address",
							"name": "grandchild",
							"type": "address"
						},
						{
							"indexed": false,
							"internalType": "uint16",
							"name": "year",
							"type": "uint16"
						},
						{
							"indexed": false,
							"internalType": "uint8",
							"name": "month",
							"type": "uint8"
						},
						{
							"indexed": false,
							"internalType": "uint8",
							"name": "day",
							"type": "uint8"
						},
						{
							"indexed": false,
							"internalType": "uint256",
							"name": "birthdayTimestamp",
							"type": "uint256"
						}
					],
					"name": "GrandchildAdded",
					"type": "event"
				},
				{
					"anonymous": false,
					"inputs": [
						{
							"indexed": true,
							"internalType": "address",
							"name": "grandchild",
							"type": "address"
						},
						{
							"indexed": false,
							"internalType": "uint256",
							"name": "amount",
							"type": "uint256"
						}
					],
					"name": "Withdrawn",
					"type": "event"
				},
				{
					"inputs": [
						{
							"internalType": "address",
							"name": "grandchild",
							"type": "address"
						},
						{
							"internalType": "uint16",
							"name": "year",
							"type": "uint16"
						},
						{
							"internalType": "uint8",
							"name": "month",
							"type": "uint8"
						},
						{
							"internalType": "uint8",
							"name": "day",
							"type": "uint8"
						}
					],
					"name": "addGrandchild",
					"outputs": [],
					"stateMutability": "nonpayable",
					"type": "function"
				},
				{
					"inputs": [
						{
							"internalType": "address",
							"name": "grandchild",
							"type": "address"
						}
					],
					"name": "canWithdraw",
					"outputs": [
						{
							"internalType": "bool",
							"name": "",
							"type": "bool"
						}
					],
					"stateMutability": "view",
					"type": "function"
				},
				{
					"inputs": [
						{
							"internalType": "uint16",
							"name": "year",
							"type": "uint16"
						},
						{
							"internalType": "uint8",
							"name": "month",
							"type": "uint8"
						},
						{
							"internalType": "uint8",
							"name": "day",
							"type": "uint8"
						}
					],
					"name": "dateToTimestamp",
					"outputs": [
						{
							"internalType": "uint256",
							"name": "",
							"type": "uint256"
						}
					],
					"stateMutability": "pure",
					"type": "function"
				},
				{
					"inputs": [
						{
							"internalType": "address",
							"name": "grandchild",
							"type": "address"
						}
					],
					"name": "daysUntilBirthday",
					"outputs": [
						{
							"internalType": "uint256",
							"name": "",
							"type": "uint256"
						}
					],
					"stateMutability": "view",
					"type": "function"
				},
				{
					"inputs": [],
					"name": "deposit",
					"outputs": [],
					"stateMutability": "payable",
					"type": "function"
				},
				{
					"inputs": [],
					"name": "deposited",
					"outputs": [
						{
							"internalType": "bool",
							"name": "",
							"type": "bool"
						}
					],
					"stateMutability": "view",
					"type": "function"
				},
				{
					"inputs": [],
					"name": "getGrandchildren",
					"outputs": [
						{
							"components": [
								{
									"internalType": "address",
									"name": "addr",
									"type": "address"
								},
								{
									"internalType": "uint256",
									"name": "birthdayTimestamp",
									"type": "uint256"
								},
								{
									"internalType": "bool",
									"name": "withdrawn",
									"type": "bool"
								}
							],
							"internalType": "struct BirthdayGift.Grandchild[]",
							"name": "",
							"type": "tuple[]"
						}
					],
					"stateMutability": "view",
					"type": "function"
				},
				{
					"inputs": [],
					"name": "getShare",
					"outputs": [
						{
							"internalType": "uint256",
							"name": "",
							"type": "uint256"
						}
					],
					"stateMutability": "view",
					"type": "function"
				},
				{
					"inputs": [
						{
							"internalType": "uint256",
							"name": "",
							"type": "uint256"
						}
					],
					"name": "grandchildren",
					"outputs": [
						{
							"internalType": "address",
							"name": "addr",
							"type": "address"
						},
						{
							"internalType": "uint256",
							"name": "birthdayTimestamp",
							"type": "uint256"
						},
						{
							"internalType": "bool",
							"name": "withdrawn",
							"type": "bool"
						}
					],
					"stateMutability": "view",
					"type": "function"
				},
				{
					"inputs": [],
					"name": "owner",
					"outputs": [
						{
							"internalType": "address",
							"name": "",
							"type": "address"
						}
					],
					"stateMutability": "view",
					"type": "function"
				},
				{
					"inputs": [],
					"name": "totalDeposited",
					"outputs": [
						{
							"internalType": "uint256",
							"name": "",
							"type": "uint256"
						}
					],
					"stateMutability": "view",
					"type": "function"
				},
				{
					"inputs": [],
					"name": "withdraw",
					"outputs": [],
					"stateMutability": "nonpayable",
					"type": "function"
				}
			],
			"devdoc": {
				"details": "Бабуся вносить ETH, який ділиться порівну між онуками.      Онуки додаються по одному через addGrandchild() з людиночитаємою датою.      Кожен онук може зняти свою частку у день народження або після нього.",
				"kind": "dev",
				"methods": {
					"addGrandchild(address,uint16,uint8,uint8)": {
						"params": {
							"day": "День 1–31",
							"grandchild": "Адреса онука",
							"month": "Місяць 1–12",
							"year": "Рік дня народження (наприклад 2025)"
						}
					},
					"dateToTimestamp(uint16,uint8,uint8)": {
						"details": "Алгоритм BokkyPooBah — перевірений стандарт для Solidity",
						"params": {
							"day": "День 1–31",
							"month": "Місяць 1–12",
							"year": "Рік (наприклад 2025)"
						},
						"returns": {
							"_0": "Unix-timestamp о опівночі UTC для вказаної дати"
						}
					}
				},
				"title": "BirthdayGift",
				"version": 1
			},
			"evm": {
				"assembly": "    /* \"contracts/HW4/11_BirthdayGift.sol\":465:6474  contract BirthdayGift {... */\n  mstore(0x40, 0x80)\n    /* \"contracts/HW4/11_BirthdayGift.sol\":1459:1508  constructor() {... */\n  callvalue\n  dup1\n  iszero\n  tag_1\n  jumpi\n  revert(0x00, 0x00)\ntag_1:\n  pop\n    /* \"contracts/HW4/11_BirthdayGift.sol\":1491:1501  msg.sender */\n  caller\n    /* \"contracts/HW4/11_BirthdayGift.sol\":1483:1488  owner */\n  0x00\n  0x00\n    /* \"contracts/HW4/11_BirthdayGift.sol\":1483:1501  owner = msg.sender */\n  0x0100\n  exp\n  dup2\n  sload\n  dup2\n  0xffffffffffffffffffffffffffffffffffffffff\n  mul\n  not\n  and\n  swap1\n  dup4\n  0xffffffffffffffffffffffffffffffffffffffff\n  and\n  mul\n  or\n  swap1\n  sstore\n  pop\n    /* \"contracts/HW4/11_BirthdayGift.sol\":465:6474  contract BirthdayGift {... */\n  dataSize(sub_0)\n  dup1\n  dataOffset(sub_0)\n  0x00\n  codecopy\n  0x00\n  return\nstop\n\nsub_0: assembly {\n        /* \"contracts/HW4/11_BirthdayGift.sol\":465:6474  contract BirthdayGift {... */\n      mstore(0x40, 0x80)\n      jumpi(tag_1, lt(calldatasize, 0x04))\n      shr(0xe0, calldataload(0x00))\n      dup1\n      0x8da5cb5b\n      gt\n      tag_14\n      jumpi\n      dup1\n      0x8da5cb5b\n      eq\n      tag_8\n      jumpi\n      dup1\n      0xa3ea2f52\n      eq\n      tag_9\n      jumpi\n      dup1\n      0xd0e30db0\n      eq\n      tag_10\n      jumpi\n      dup1\n      0xe66050b3\n      eq\n      tag_11\n      jumpi\n      dup1\n      0xeef49ee3\n      eq\n      tag_12\n      jumpi\n      dup1\n      0xff50abdc\n      eq\n      tag_13\n      jumpi\n      jump(tag_1)\n    tag_14:\n      dup1\n      0x19262d30\n      eq\n      tag_2\n      jumpi\n      dup1\n      0x1ebfa358\n      eq\n      tag_3\n      jumpi\n      dup1\n      0x3ccfd60b\n      eq\n      tag_4\n      jumpi\n      dup1\n      0x4746eb7c\n      eq\n      tag_5\n      jumpi\n      dup1\n      0x73c17446\n      eq\n      tag_6\n      jumpi\n      dup1\n      0x75298734\n      eq\n      tag_7\n      jumpi\n    tag_1:\n      revert(0x00, 0x00)\n        /* \"contracts/HW4/11_BirthdayGift.sol\":5246:5552  function canWithdraw(address grandchild) external view returns (bool) {... */\n    tag_2:\n      callvalue\n      dup1\n      iszero\n      tag_15\n      jumpi\n      revert(0x00, 0x00)\n    tag_15:\n      pop\n      tag_16\n      0x04\n      dup1\n      calldatasize\n      sub\n      dup2\n      add\n      swap1\n      tag_17\n      swap2\n      swap1\n      tag_18\n      jump\t// in\n    tag_17:\n      tag_19\n      jump\t// in\n    tag_16:\n      mload(0x40)\n      tag_20\n      swap2\n      swap1\n      tag_21\n      jump\t// in\n    tag_20:\n      mload(0x40)\n      dup1\n      swap2\n      sub\n      swap1\n      return\n        /* \"contracts/HW4/11_BirthdayGift.sol\":1925:2674  function dateToTimestamp(... */\n    tag_3:\n      callvalue\n      dup1\n      iszero\n      tag_22\n      jumpi\n      revert(0x00, 0x00)\n    tag_22:\n      pop\n      tag_23\n      0x04\n      dup1\n      calldatasize\n      sub\n      dup2\n      add\n      swap1\n      tag_24\n      swap2\n      swap1\n      tag_25\n      jump\t// in\n    tag_24:\n      tag_26\n      jump\t// in\n    tag_23:\n      mload(0x40)\n      tag_27\n      swap2\n      swap1\n      tag_28\n      jump\t// in\n    tag_27:\n      mload(0x40)\n      dup1\n      swap2\n      sub\n      swap1\n      return\n        /* \"contracts/HW4/11_BirthdayGift.sol\":4503:5128  function withdraw() external onlyGrandchild {... */\n    tag_4:\n      callvalue\n      dup1\n      iszero\n      tag_29\n      jumpi\n      revert(0x00, 0x00)\n    tag_29:\n      pop\n      tag_30\n      tag_31\n      jump\t// in\n    tag_30:\n      stop\n        /* \"contracts/HW4/11_BirthdayGift.sol\":694:727  Grandchild[] public grandchildren */\n    tag_5:\n      callvalue\n      dup1\n      iszero\n      tag_32\n      jumpi\n      revert(0x00, 0x00)\n    tag_32:\n      pop\n      tag_33\n      0x04\n      dup1\n      calldatasize\n      sub\n      dup2\n      add\n      swap1\n      tag_34\n      swap2\n      swap1\n      tag_35\n      jump\t// in\n    tag_34:\n      tag_36\n      jump\t// in\n    tag_33:\n      mload(0x40)\n      tag_37\n      swap4\n      swap3\n      swap2\n      swap1\n      tag_38\n      jump\t// in\n    tag_37:\n      mload(0x40)\n      dup1\n      swap2\n      sub\n      swap1\n      return\n        /* \"contracts/HW4/11_BirthdayGift.sol\":5685:6056  function daysUntilBirthday(address grandchild) external view returns (uint256) {... */\n    tag_6:\n      callvalue\n      dup1\n      iszero\n      tag_39\n      jumpi\n      revert(0x00, 0x00)\n    tag_39:\n      pop\n      tag_40\n      0x04\n      dup1\n      calldatasize\n      sub\n      dup2\n      add\n      swap1\n      tag_41\n      swap2\n      swap1\n      tag_18\n      jump\t// in\n    tag_41:\n      tag_42\n      jump\t// in\n    tag_40:\n      mload(0x40)\n      tag_43\n      swap2\n      swap1\n      tag_28\n      jump\t// in\n    tag_43:\n      mload(0x40)\n      dup1\n      swap2\n      sub\n      swap1\n      return\n        /* \"contracts/HW4/11_BirthdayGift.sol\":6144:6306  function getShare() external view returns (uint256) {... */\n    tag_7:\n      callvalue\n      dup1\n      iszero\n      tag_44\n      jumpi\n      revert(0x00, 0x00)\n    tag_44:\n      pop\n      tag_45\n      tag_46\n      jump\t// in\n    tag_45:\n      mload(0x40)\n      tag_47\n      swap2\n      swap1\n      tag_28\n      jump\t// in\n    tag_47:\n      mload(0x40)\n      dup1\n      swap2\n      sub\n      swap1\n      return\n        /* \"contracts/HW4/11_BirthdayGift.sol\":493:513  address public owner */\n    tag_8:\n      callvalue\n      dup1\n      iszero\n      tag_48\n      jumpi\n      revert(0x00, 0x00)\n    tag_48:\n      pop\n      tag_49\n      tag_50\n      jump\t// in\n    tag_49:\n      mload(0x40)\n      tag_51\n      swap2\n      swap1\n      tag_52\n      jump\t// in\n    tag_51:\n      mload(0x40)\n      dup1\n      swap2\n      sub\n      swap1\n      return\n        /* \"contracts/HW4/11_BirthdayGift.sol\":3025:3688  function addGrandchild(... */\n    tag_9:\n      callvalue\n      dup1\n      iszero\n      tag_53\n      jumpi\n      revert(0x00, 0x00)\n    tag_53:\n      pop\n      tag_54\n      0x04\n      dup1\n      calldatasize\n      sub\n      dup2\n      add\n      swap1\n      tag_55\n      swap2\n      swap1\n      tag_56\n      jump\t// in\n    tag_55:\n      tag_57\n      jump\t// in\n    tag_54:\n      stop\n        /* \"contracts/HW4/11_BirthdayGift.sol\":3822:4387  function deposit() external payable onlyOwner {... */\n    tag_10:\n      tag_58\n      tag_59\n      jump\t// in\n    tag_58:\n      stop\n        /* \"contracts/HW4/11_BirthdayGift.sol\":6363:6472  function getGrandchildren() external view returns (Grandchild[] memory) {... */\n    tag_11:\n      callvalue\n      dup1\n      iszero\n      tag_60\n      jumpi\n      revert(0x00, 0x00)\n    tag_60:\n      pop\n      tag_61\n      tag_62\n      jump\t// in\n    tag_61:\n      mload(0x40)\n      tag_63\n      swap2\n      swap1\n      tag_64\n      jump\t// in\n    tag_63:\n      mload(0x40)\n      dup1\n      swap2\n      sub\n      swap1\n      return\n        /* \"contracts/HW4/11_BirthdayGift.sol\":554:575  bool public deposited */\n    tag_12:\n      callvalue\n      dup1\n      iszero\n      tag_65\n      jumpi\n      revert(0x00, 0x00)\n    tag_65:\n      pop\n      tag_66\n      tag_67\n      jump\t// in\n    tag_66:\n      mload(0x40)\n      tag_68\n      swap2\n      swap1\n      tag_21\n      jump\t// in\n    tag_68:\n      mload(0x40)\n      dup1\n      swap2\n      sub\n      swap1\n      return\n        /* \"contracts/HW4/11_BirthdayGift.sol\":519:548  uint256 public totalDeposited */\n    tag_13:\n      callvalue\n      dup1\n      iszero\n      tag_69\n      jumpi\n      revert(0x00, 0x00)\n    tag_69:\n      pop\n      tag_70\n      tag_71\n      jump\t// in\n    tag_70:\n      mload(0x40)\n      tag_72\n      swap2\n      swap1\n      tag_28\n      jump\t// in\n    tag_72:\n      mload(0x40)\n      dup1\n      swap2\n      sub\n      swap1\n      return\n        /* \"contracts/HW4/11_BirthdayGift.sol\":5246:5552  function canWithdraw(address grandchild) external view returns (bool) {... */\n    tag_19:\n        /* \"contracts/HW4/11_BirthdayGift.sol\":5310:5314  bool */\n      0x00\n        /* \"contracts/HW4/11_BirthdayGift.sol\":5326:5337  uint256 idx */\n      0x00\n        /* \"contracts/HW4/11_BirthdayGift.sol\":5340:5355  grandchildIndex */\n      0x04\n        /* \"contracts/HW4/11_BirthdayGift.sol\":5340:5367  grandchildIndex[grandchild] */\n      0x00\n        /* \"contracts/HW4/11_BirthdayGift.sol\":5356:5366  grandchild */\n      dup5\n        /* \"contracts/HW4/11_BirthdayGift.sol\":5340:5367  grandchildIndex[grandchild] */\n      0xffffffffffffffffffffffffffffffffffffffff\n      and\n      0xffffffffffffffffffffffffffffffffffffffff\n      and\n      dup2\n      mstore\n      0x20\n      add\n      swap1\n      dup2\n      mstore\n      0x20\n      add\n      0x00\n      keccak256\n      sload\n        /* \"contracts/HW4/11_BirthdayGift.sol\":5326:5367  uint256 idx = grandchildIndex[grandchild] */\n      swap1\n      pop\n        /* \"contracts/HW4/11_BirthdayGift.sol\":5388:5389  0 */\n      0x00\n        /* \"contracts/HW4/11_BirthdayGift.sol\":5381:5384  idx */\n      dup2\n        /* \"contracts/HW4/11_BirthdayGift.sol\":5381:5389  idx == 0 */\n      sub\n        /* \"contracts/HW4/11_BirthdayGift.sol\":5377:5403  if (idx == 0) return false */\n      tag_74\n      jumpi\n        /* \"contracts/HW4/11_BirthdayGift.sol\":5398:5403  false */\n      0x00\n        /* \"contracts/HW4/11_BirthdayGift.sol\":5391:5403  return false */\n      swap2\n      pop\n      pop\n      jump(tag_73)\n        /* \"contracts/HW4/11_BirthdayGift.sol\":5377:5403  if (idx == 0) return false */\n    tag_74:\n        /* \"contracts/HW4/11_BirthdayGift.sol\":5413:5434  Grandchild storage gc */\n      0x00\n        /* \"contracts/HW4/11_BirthdayGift.sol\":5437:5450  grandchildren */\n      0x03\n        /* \"contracts/HW4/11_BirthdayGift.sol\":5457:5458  1 */\n      0x01\n        /* \"contracts/HW4/11_BirthdayGift.sol\":5451:5454  idx */\n      dup4\n        /* \"contracts/HW4/11_BirthdayGift.sol\":5451:5458  idx - 1 */\n      tag_75\n      swap2\n      swap1\n      tag_76\n      jump\t// in\n    tag_75:\n        /* \"contracts/HW4/11_BirthdayGift.sol\":5437:5459  grandchildren[idx - 1] */\n      dup2\n      sload\n      dup2\n      lt\n      tag_77\n      jumpi\n      tag_78\n      tag_79\n      jump\t// in\n    tag_78:\n    tag_77:\n      swap1\n      0x00\n      mstore\n      keccak256(0x00, 0x20)\n      swap1\n      0x03\n      mul\n      add\n        /* \"contracts/HW4/11_BirthdayGift.sol\":5413:5459  Grandchild storage gc = grandchildren[idx - 1] */\n      swap1\n      pop\n        /* \"contracts/HW4/11_BirthdayGift.sol\":5476:5485  deposited */\n      0x02\n      0x00\n      swap1\n      sload\n      swap1\n      0x0100\n      exp\n      swap1\n      div\n      0xff\n      and\n        /* \"contracts/HW4/11_BirthdayGift.sol\":5476:5502  deposited && !gc.withdrawn */\n      dup1\n      iszero\n      tag_81\n      jumpi\n      pop\n        /* \"contracts/HW4/11_BirthdayGift.sol\":5490:5492  gc */\n      dup1\n        /* \"contracts/HW4/11_BirthdayGift.sol\":5490:5502  gc.withdrawn */\n      0x02\n      add\n      0x00\n      swap1\n      sload\n      swap1\n      0x0100\n      exp\n      swap1\n      div\n      0xff\n      and\n        /* \"contracts/HW4/11_BirthdayGift.sol\":5489:5502  !gc.withdrawn */\n      iszero\n        /* \"contracts/HW4/11_BirthdayGift.sol\":5476:5502  deposited && !gc.withdrawn */\n    tag_81:\n        /* \"contracts/HW4/11_BirthdayGift.sol\":5476:5545  deposited && !gc.withdrawn && block.timestamp >= gc.birthdayTimestamp */\n      dup1\n      iszero\n      tag_82\n      jumpi\n      pop\n        /* \"contracts/HW4/11_BirthdayGift.sol\":5525:5527  gc */\n      dup1\n        /* \"contracts/HW4/11_BirthdayGift.sol\":5525:5545  gc.birthdayTimestamp */\n      0x01\n      add\n      sload\n        /* \"contracts/HW4/11_BirthdayGift.sol\":5506:5521  block.timestamp */\n      timestamp\n        /* \"contracts/HW4/11_BirthdayGift.sol\":5506:5545  block.timestamp >= gc.birthdayTimestamp */\n      lt\n      iszero\n        /* \"contracts/HW4/11_BirthdayGift.sol\":5476:5545  deposited && !gc.withdrawn && block.timestamp >= gc.birthdayTimestamp */\n    tag_82:\n        /* \"contracts/HW4/11_BirthdayGift.sol\":5469:5545  return deposited && !gc.withdrawn && block.timestamp >= gc.birthdayTimestamp */\n      swap3\n      pop\n      pop\n      pop\n        /* \"contracts/HW4/11_BirthdayGift.sol\":5246:5552  function canWithdraw(address grandchild) external view returns (bool) {... */\n    tag_73:\n      swap2\n      swap1\n      pop\n      jump\t// out\n        /* \"contracts/HW4/11_BirthdayGift.sol\":1925:2674  function dateToTimestamp(... */\n    tag_26:\n        /* \"contracts/HW4/11_BirthdayGift.sol\":2038:2045  uint256 */\n      0x00\n        /* \"contracts/HW4/11_BirthdayGift.sol\":2073:2077  1970 */\n      0x07b2\n        /* \"contracts/HW4/11_BirthdayGift.sol\":2065:2069  year */\n      dup5\n        /* \"contracts/HW4/11_BirthdayGift.sol\":2065:2077  year >= 1970 */\n      0xffff\n      and\n      lt\n      iszero\n        /* \"contracts/HW4/11_BirthdayGift.sol\":2057:2116  require(year >= 1970, \"BirthdayGift: year must be >= 1970\") */\n      tag_84\n      jumpi\n      mload(0x40)\n      0x08c379a000000000000000000000000000000000000000000000000000000000\n      dup2\n      mstore\n      0x04\n      add\n      tag_85\n      swap1\n      tag_86\n      jump\t// in\n    tag_85:\n      mload(0x40)\n      dup1\n      swap2\n      sub\n      swap1\n      revert\n    tag_84:\n        /* \"contracts/HW4/11_BirthdayGift.sol\":2143:2144  1 */\n      0x01\n        /* \"contracts/HW4/11_BirthdayGift.sol\":2134:2139  month */\n      dup4\n        /* \"contracts/HW4/11_BirthdayGift.sol\":2134:2144  month >= 1 */\n      0xff\n      and\n      lt\n      iszero\n        /* \"contracts/HW4/11_BirthdayGift.sol\":2134:2159  month >= 1 && month <= 12 */\n      dup1\n      iszero\n      tag_87\n      jumpi\n      pop\n        /* \"contracts/HW4/11_BirthdayGift.sol\":2157:2159  12 */\n      0x0c\n        /* \"contracts/HW4/11_BirthdayGift.sol\":2148:2153  month */\n      dup4\n        /* \"contracts/HW4/11_BirthdayGift.sol\":2148:2159  month <= 12 */\n      0xff\n      and\n      gt\n      iszero\n        /* \"contracts/HW4/11_BirthdayGift.sol\":2134:2159  month >= 1 && month <= 12 */\n    tag_87:\n        /* \"contracts/HW4/11_BirthdayGift.sol\":2126:2191  require(month >= 1 && month <= 12, \"BirthdayGift: invalid month\") */\n      tag_88\n      jumpi\n      mload(0x40)\n      0x08c379a000000000000000000000000000000000000000000000000000000000\n      dup2\n      mstore\n      0x04\n      add\n      tag_89\n      swap1\n      tag_90\n      jump\t// in\n    tag_89:\n      mload(0x40)\n      dup1\n      swap2\n      sub\n      swap1\n      revert\n    tag_88:\n        /* \"contracts/HW4/11_BirthdayGift.sol\":2216:2217  1 */\n      0x01\n        /* \"contracts/HW4/11_BirthdayGift.sol\":2209:2212  day */\n      dup3\n        /* \"contracts/HW4/11_BirthdayGift.sol\":2209:2217  day >= 1 */\n      0xff\n      and\n      lt\n      iszero\n        /* \"contracts/HW4/11_BirthdayGift.sol\":2209:2230  day >= 1 && day <= 31 */\n      dup1\n      iszero\n      tag_91\n      jumpi\n      pop\n        /* \"contracts/HW4/11_BirthdayGift.sol\":2228:2230  31 */\n      0x1f\n        /* \"contracts/HW4/11_BirthdayGift.sol\":2221:2224  day */\n      dup3\n        /* \"contracts/HW4/11_BirthdayGift.sol\":2221:2230  day <= 31 */\n      0xff\n      and\n      gt\n      iszero\n        /* \"contracts/HW4/11_BirthdayGift.sol\":2209:2230  day >= 1 && day <= 31 */\n    tag_91:\n        /* \"contracts/HW4/11_BirthdayGift.sol\":2201:2260  require(day >= 1 && day <= 31, \"BirthdayGift: invalid day\") */\n      tag_92\n      jumpi\n      mload(0x40)\n      0x08c379a000000000000000000000000000000000000000000000000000000000\n      dup2\n      mstore\n      0x04\n      add\n      tag_93\n      swap1\n      tag_94\n      jump\t// in\n    tag_93:\n      mload(0x40)\n      dup1\n      swap2\n      sub\n      swap1\n      revert\n    tag_92:\n        /* \"contracts/HW4/11_BirthdayGift.sol\":2271:2279  int256 y */\n      0x00\n        /* \"contracts/HW4/11_BirthdayGift.sol\":2297:2301  year */\n      dup5\n        /* \"contracts/HW4/11_BirthdayGift.sol\":2289:2302  uint256(year) */\n      0xffff\n      and\n        /* \"contracts/HW4/11_BirthdayGift.sol\":2271:2303  int256 y = int256(uint256(year)) */\n      swap1\n      pop\n        /* \"contracts/HW4/11_BirthdayGift.sol\":2313:2321  int256 m */\n      0x00\n        /* \"contracts/HW4/11_BirthdayGift.sol\":2339:2344  month */\n      dup5\n        /* \"contracts/HW4/11_BirthdayGift.sol\":2331:2345  uint256(month) */\n      0xff\n      and\n        /* \"contracts/HW4/11_BirthdayGift.sol\":2313:2346  int256 m = int256(uint256(month)) */\n      swap1\n      pop\n        /* \"contracts/HW4/11_BirthdayGift.sol\":2356:2364  int256 d */\n      0x00\n        /* \"contracts/HW4/11_BirthdayGift.sol\":2382:2385  day */\n      dup5\n        /* \"contracts/HW4/11_BirthdayGift.sol\":2374:2386  uint256(day) */\n      0xff\n      and\n        /* \"contracts/HW4/11_BirthdayGift.sol\":2356:2387  int256 d = int256(uint256(day)) */\n      swap1\n      pop\n        /* \"contracts/HW4/11_BirthdayGift.sol\":2398:2410  int256 days_ */\n      0x00\n        /* \"contracts/HW4/11_BirthdayGift.sol\":2620:2627  2440588 */\n      0x253d8c\n        /* \"contracts/HW4/11_BirthdayGift.sol\":2604:2605  4 */\n      0x04\n        /* \"contracts/HW4/11_BirthdayGift.sol\":2596:2599  100 */\n      0x64\n        /* \"contracts/HW4/11_BirthdayGift.sol\":2590:2592  12 */\n      0x0c\n        /* \"contracts/HW4/11_BirthdayGift.sol\":2584:2586  14 */\n      0x0e\n        /* \"contracts/HW4/11_BirthdayGift.sol\":2580:2581  m */\n      dup8\n        /* \"contracts/HW4/11_BirthdayGift.sol\":2580:2586  m - 14 */\n      tag_95\n      swap2\n      swap1\n      tag_96\n      jump\t// in\n    tag_95:\n        /* \"contracts/HW4/11_BirthdayGift.sol\":2579:2592  (m - 14) / 12 */\n      tag_97\n      swap2\n      swap1\n      tag_98\n      jump\t// in\n    tag_97:\n        /* \"contracts/HW4/11_BirthdayGift.sol\":2572:2576  4900 */\n      0x1324\n        /* \"contracts/HW4/11_BirthdayGift.sol\":2568:2569  y */\n      dup9\n        /* \"contracts/HW4/11_BirthdayGift.sol\":2568:2576  y + 4900 */\n      tag_99\n      swap2\n      swap1\n      tag_100\n      jump\t// in\n    tag_99:\n        /* \"contracts/HW4/11_BirthdayGift.sol\":2568:2592  y + 4900 + (m - 14) / 12 */\n      tag_101\n      swap2\n      swap1\n      tag_100\n      jump\t// in\n    tag_101:\n        /* \"contracts/HW4/11_BirthdayGift.sol\":2567:2599  (y + 4900 + (m - 14) / 12) / 100 */\n      tag_102\n      swap2\n      swap1\n      tag_98\n      jump\t// in\n    tag_102:\n        /* \"contracts/HW4/11_BirthdayGift.sol\":2562:2563  3 */\n      0x03\n        /* \"contracts/HW4/11_BirthdayGift.sol\":2562:2600  3 * ((y + 4900 + (m - 14) / 12) / 100) */\n      tag_103\n      swap2\n      swap1\n      tag_104\n      jump\t// in\n    tag_103:\n        /* \"contracts/HW4/11_BirthdayGift.sol\":2561:2605  (3 * ((y + 4900 + (m - 14) / 12) / 100)) / 4 */\n      tag_105\n      swap2\n      swap1\n      tag_98\n      jump\t// in\n    tag_105:\n        /* \"contracts/HW4/11_BirthdayGift.sol\":2544:2546  12 */\n      0x0c\n        /* \"contracts/HW4/11_BirthdayGift.sol\":2537:2539  12 */\n      dup1\n        /* \"contracts/HW4/11_BirthdayGift.sol\":2531:2533  12 */\n      0x0c\n        /* \"contracts/HW4/11_BirthdayGift.sol\":2525:2527  14 */\n      0x0e\n        /* \"contracts/HW4/11_BirthdayGift.sol\":2521:2522  m */\n      dup9\n        /* \"contracts/HW4/11_BirthdayGift.sol\":2521:2527  m - 14 */\n      tag_106\n      swap2\n      swap1\n      tag_96\n      jump\t// in\n    tag_106:\n        /* \"contracts/HW4/11_BirthdayGift.sol\":2520:2533  (m - 14) / 12 */\n      tag_107\n      swap2\n      swap1\n      tag_98\n      jump\t// in\n    tag_107:\n        /* \"contracts/HW4/11_BirthdayGift.sol\":2519:2539  ((m - 14) / 12) * 12 */\n      tag_108\n      swap2\n      swap1\n      tag_104\n      jump\t// in\n    tag_108:\n        /* \"contracts/HW4/11_BirthdayGift.sol\":2515:2516  2 */\n      0x02\n        /* \"contracts/HW4/11_BirthdayGift.sol\":2511:2512  m */\n      dup8\n        /* \"contracts/HW4/11_BirthdayGift.sol\":2511:2516  m - 2 */\n      tag_109\n      swap2\n      swap1\n      tag_96\n      jump\t// in\n    tag_109:\n        /* \"contracts/HW4/11_BirthdayGift.sol\":2511:2539  m - 2 - ((m - 14) / 12) * 12 */\n      tag_110\n      swap2\n      swap1\n      tag_96\n      jump\t// in\n    tag_110:\n        /* \"contracts/HW4/11_BirthdayGift.sol\":2504:2507  367 */\n      0x016f\n        /* \"contracts/HW4/11_BirthdayGift.sol\":2504:2540  367 * (m - 2 - ((m - 14) / 12) * 12) */\n      tag_111\n      swap2\n      swap1\n      tag_104\n      jump\t// in\n    tag_111:\n        /* \"contracts/HW4/11_BirthdayGift.sol\":2503:2546  (367 * (m - 2 - ((m - 14) / 12) * 12)) / 12 */\n      tag_112\n      swap2\n      swap1\n      tag_98\n      jump\t// in\n    tag_112:\n        /* \"contracts/HW4/11_BirthdayGift.sol\":2487:2488  4 */\n      0x04\n        /* \"contracts/HW4/11_BirthdayGift.sol\":2480:2482  12 */\n      0x0c\n        /* \"contracts/HW4/11_BirthdayGift.sol\":2474:2476  14 */\n      0x0e\n        /* \"contracts/HW4/11_BirthdayGift.sol\":2470:2471  m */\n      dup9\n        /* \"contracts/HW4/11_BirthdayGift.sol\":2470:2476  m - 14 */\n      tag_113\n      swap2\n      swap1\n      tag_96\n      jump\t// in\n    tag_113:\n        /* \"contracts/HW4/11_BirthdayGift.sol\":2469:2482  (m - 14) / 12 */\n      tag_114\n      swap2\n      swap1\n      tag_98\n      jump\t// in\n    tag_114:\n        /* \"contracts/HW4/11_BirthdayGift.sol\":2462:2466  4800 */\n      0x12c0\n        /* \"contracts/HW4/11_BirthdayGift.sol\":2458:2459  y */\n      dup10\n        /* \"contracts/HW4/11_BirthdayGift.sol\":2458:2466  y + 4800 */\n      tag_115\n      swap2\n      swap1\n      tag_100\n      jump\t// in\n    tag_115:\n        /* \"contracts/HW4/11_BirthdayGift.sol\":2458:2482  y + 4800 + (m - 14) / 12 */\n      tag_116\n      swap2\n      swap1\n      tag_100\n      jump\t// in\n    tag_116:\n        /* \"contracts/HW4/11_BirthdayGift.sol\":2450:2454  1461 */\n      0x05b5\n        /* \"contracts/HW4/11_BirthdayGift.sol\":2450:2483  1461 * (y + 4800 + (m - 14) / 12) */\n      tag_117\n      swap2\n      swap1\n      tag_104\n      jump\t// in\n    tag_117:\n        /* \"contracts/HW4/11_BirthdayGift.sol\":2449:2488  (1461 * (y + 4800 + (m - 14) / 12)) / 4 */\n      tag_118\n      swap2\n      swap1\n      tag_98\n      jump\t// in\n    tag_118:\n        /* \"contracts/HW4/11_BirthdayGift.sol\":2429:2434  32075 */\n      0x7d4b\n        /* \"contracts/HW4/11_BirthdayGift.sol\":2413:2414  d */\n      dup7\n        /* \"contracts/HW4/11_BirthdayGift.sol\":2413:2434  d... */\n      tag_119\n      swap2\n      swap1\n      tag_96\n      jump\t// in\n    tag_119:\n        /* \"contracts/HW4/11_BirthdayGift.sol\":2413:2488  d... */\n      tag_120\n      swap2\n      swap1\n      tag_100\n      jump\t// in\n    tag_120:\n        /* \"contracts/HW4/11_BirthdayGift.sol\":2413:2546  d... */\n      tag_121\n      swap2\n      swap1\n      tag_100\n      jump\t// in\n    tag_121:\n        /* \"contracts/HW4/11_BirthdayGift.sol\":2413:2605  d... */\n      tag_122\n      swap2\n      swap1\n      tag_96\n      jump\t// in\n    tag_122:\n        /* \"contracts/HW4/11_BirthdayGift.sol\":2413:2627  d... */\n      tag_123\n      swap2\n      swap1\n      tag_96\n      jump\t// in\n    tag_123:\n        /* \"contracts/HW4/11_BirthdayGift.sol\":2398:2627  int256 days_ = d... */\n      swap1\n      pop\n        /* \"contracts/HW4/11_BirthdayGift.sol\":2662:2667  86400 */\n      0x015180\n        /* \"contracts/HW4/11_BirthdayGift.sol\":2653:2658  days_ */\n      dup2\n        /* \"contracts/HW4/11_BirthdayGift.sol\":2645:2667  uint256(days_) * 86400 */\n      tag_124\n      swap2\n      swap1\n      tag_125\n      jump\t// in\n    tag_124:\n        /* \"contracts/HW4/11_BirthdayGift.sol\":2638:2667  return uint256(days_) * 86400 */\n      swap5\n      pop\n      pop\n      pop\n      pop\n      pop\n        /* \"contracts/HW4/11_BirthdayGift.sol\":1925:2674  function dateToTimestamp(... */\n      swap4\n      swap3\n      pop\n      pop\n      pop\n      jump\t// out\n        /* \"contracts/HW4/11_BirthdayGift.sol\":4503:5128  function withdraw() external onlyGrandchild {... */\n    tag_31:\n        /* \"contracts/HW4/11_BirthdayGift.sol\":1389:1390  0 */\n      0x00\n        /* \"contracts/HW4/11_BirthdayGift.sol\":1358:1373  grandchildIndex */\n      0x04\n        /* \"contracts/HW4/11_BirthdayGift.sol\":1358:1385  grandchildIndex[msg.sender] */\n      0x00\n        /* \"contracts/HW4/11_BirthdayGift.sol\":1374:1384  msg.sender */\n      caller\n        /* \"contracts/HW4/11_BirthdayGift.sol\":1358:1385  grandchildIndex[msg.sender] */\n      0xffffffffffffffffffffffffffffffffffffffff\n      and\n      0xffffffffffffffffffffffffffffffffffffffff\n      and\n      dup2\n      mstore\n      0x20\n      add\n      swap1\n      dup2\n      mstore\n      0x20\n      add\n      0x00\n      keccak256\n      sload\n        /* \"contracts/HW4/11_BirthdayGift.sol\":1358:1390  grandchildIndex[msg.sender] != 0 */\n      sub\n        /* \"contracts/HW4/11_BirthdayGift.sol\":1350:1435  require(grandchildIndex[msg.sender] != 0, \"BirthdayGift: caller is not a grandchild\") */\n      tag_127\n      jumpi\n      mload(0x40)\n      0x08c379a000000000000000000000000000000000000000000000000000000000\n      dup2\n      mstore\n      0x04\n      add\n      tag_128\n      swap1\n      tag_129\n      jump\t// in\n    tag_128:\n      mload(0x40)\n      dup1\n      swap2\n      sub\n      swap1\n      revert\n    tag_127:\n        /* \"contracts/HW4/11_BirthdayGift.sol\":4565:4574  deposited */\n      0x02\n      0x00\n      swap1\n      sload\n      swap1\n      0x0100\n      exp\n      swap1\n      div\n      0xff\n      and\n        /* \"contracts/HW4/11_BirthdayGift.sol\":4557:4615  require(deposited, \"BirthdayGift: no funds deposited yet\") */\n      tag_131\n      jumpi\n      mload(0x40)\n      0x08c379a000000000000000000000000000000000000000000000000000000000\n      dup2\n      mstore\n      0x04\n      add\n      tag_132\n      swap1\n      tag_133\n      jump\t// in\n    tag_132:\n      mload(0x40)\n      dup1\n      swap2\n      sub\n      swap1\n      revert\n    tag_131:\n        /* \"contracts/HW4/11_BirthdayGift.sol\":4625:4636  uint256 idx */\n      0x00\n        /* \"contracts/HW4/11_BirthdayGift.sol\":4669:4670  1 */\n      0x01\n        /* \"contracts/HW4/11_BirthdayGift.sol\":4639:4654  grandchildIndex */\n      0x04\n        /* \"contracts/HW4/11_BirthdayGift.sol\":4639:4666  grandchildIndex[msg.sender] */\n      0x00\n        /* \"contracts/HW4/11_BirthdayGift.sol\":4655:4665  msg.sender */\n      caller\n        /* \"contracts/HW4/11_BirthdayGift.sol\":4639:4666  grandchildIndex[msg.sender] */\n      0xffffffffffffffffffffffffffffffffffffffff\n      and\n      0xffffffffffffffffffffffffffffffffffffffff\n      and\n      dup2\n      mstore\n      0x20\n      add\n      swap1\n      dup2\n      mstore\n      0x20\n      add\n      0x00\n      keccak256\n      sload\n        /* \"contracts/HW4/11_BirthdayGift.sol\":4639:4670  grandchildIndex[msg.sender] - 1 */\n      tag_134\n      swap2\n      swap1\n      tag_76\n      jump\t// in\n    tag_134:\n        /* \"contracts/HW4/11_BirthdayGift.sol\":4625:4670  uint256 idx = grandchildIndex[msg.sender] - 1 */\n      swap1\n      pop\n        /* \"contracts/HW4/11_BirthdayGift.sol\":4680:4701  Grandchild storage gc */\n      0x00\n        /* \"contracts/HW4/11_BirthdayGift.sol\":4704:4717  grandchildren */\n      0x03\n        /* \"contracts/HW4/11_BirthdayGift.sol\":4718:4721  idx */\n      dup3\n        /* \"contracts/HW4/11_BirthdayGift.sol\":4704:4722  grandchildren[idx] */\n      dup2\n      sload\n      dup2\n      lt\n      tag_135\n      jumpi\n      tag_136\n      tag_79\n      jump\t// in\n    tag_136:\n    tag_135:\n      swap1\n      0x00\n      mstore\n      keccak256(0x00, 0x20)\n      swap1\n      0x03\n      mul\n      add\n        /* \"contracts/HW4/11_BirthdayGift.sol\":4680:4722  Grandchild storage gc = grandchildren[idx] */\n      swap1\n      pop\n        /* \"contracts/HW4/11_BirthdayGift.sol\":4759:4761  gc */\n      dup1\n        /* \"contracts/HW4/11_BirthdayGift.sol\":4759:4779  gc.birthdayTimestamp */\n      0x01\n      add\n      sload\n        /* \"contracts/HW4/11_BirthdayGift.sol\":4740:4755  block.timestamp */\n      timestamp\n        /* \"contracts/HW4/11_BirthdayGift.sol\":4740:4779  block.timestamp >= gc.birthdayTimestamp */\n      lt\n      iszero\n        /* \"contracts/HW4/11_BirthdayGift.sol\":4732:4823  require(block.timestamp >= gc.birthdayTimestamp, \"BirthdayGift: birthday has not come yet\") */\n      tag_138\n      jumpi\n      mload(0x40)\n      0x08c379a000000000000000000000000000000000000000000000000000000000\n      dup2\n      mstore\n      0x04\n      add\n      tag_139\n      swap1\n      tag_140\n      jump\t// in\n    tag_139:\n      mload(0x40)\n      dup1\n      swap2\n      sub\n      swap1\n      revert\n    tag_138:\n        /* \"contracts/HW4/11_BirthdayGift.sol\":4842:4844  gc */\n      dup1\n        /* \"contracts/HW4/11_BirthdayGift.sol\":4842:4854  gc.withdrawn */\n      0x02\n      add\n      0x00\n      swap1\n      sload\n      swap1\n      0x0100\n      exp\n      swap1\n      div\n      0xff\n      and\n        /* \"contracts/HW4/11_BirthdayGift.sol\":4841:4854  !gc.withdrawn */\n      iszero\n        /* \"contracts/HW4/11_BirthdayGift.sol\":4833:4895  require(!gc.withdrawn, \"BirthdayGift: gift already withdrawn\") */\n      tag_141\n      jumpi\n      mload(0x40)\n      0x08c379a000000000000000000000000000000000000000000000000000000000\n      dup2\n      mstore\n      0x04\n      add\n      tag_142\n      swap1\n      tag_143\n      jump\t// in\n    tag_142:\n      mload(0x40)\n      dup1\n      swap2\n      sub\n      swap1\n      revert\n    tag_141:\n        /* \"contracts/HW4/11_BirthdayGift.sol\":4921:4925  true */\n      0x01\n        /* \"contracts/HW4/11_BirthdayGift.sol\":4906:4908  gc */\n      dup2\n        /* \"contracts/HW4/11_BirthdayGift.sol\":4906:4918  gc.withdrawn */\n      0x02\n      add\n      0x00\n        /* \"contracts/HW4/11_BirthdayGift.sol\":4906:4925  gc.withdrawn = true */\n      0x0100\n      exp\n      dup2\n      sload\n      dup2\n      0xff\n      mul\n      not\n      and\n      swap1\n      dup4\n      iszero\n      iszero\n      mul\n      or\n      swap1\n      sstore\n      pop\n        /* \"contracts/HW4/11_BirthdayGift.sol\":4980:4993  uint256 share */\n      0x00\n        /* \"contracts/HW4/11_BirthdayGift.sol\":5013:5026  grandchildren */\n      0x03\n        /* \"contracts/HW4/11_BirthdayGift.sol\":5013:5033  grandchildren.length */\n      dup1\n      sload\n      swap1\n      pop\n        /* \"contracts/HW4/11_BirthdayGift.sol\":4996:5010  totalDeposited */\n      sload(0x01)\n        /* \"contracts/HW4/11_BirthdayGift.sol\":4996:5033  totalDeposited / grandchildren.length */\n      tag_144\n      swap2\n      swap1\n      tag_145\n      jump\t// in\n    tag_144:\n        /* \"contracts/HW4/11_BirthdayGift.sol\":4980:5033  uint256 share = totalDeposited / grandchildren.length */\n      swap1\n      pop\n        /* \"contracts/HW4/11_BirthdayGift.sol\":5058:5068  msg.sender */\n      caller\n        /* \"contracts/HW4/11_BirthdayGift.sol\":5048:5076  Withdrawn(msg.sender, share) */\n      0xffffffffffffffffffffffffffffffffffffffff\n      and\n      0x7084f5476618d8e60b11ef0d7d3f06914655adb8793e28ff7f018d4c76d505d5\n        /* \"contracts/HW4/11_BirthdayGift.sol\":5070:5075  share */\n      dup3\n        /* \"contracts/HW4/11_BirthdayGift.sol\":5048:5076  Withdrawn(msg.sender, share) */\n      mload(0x40)\n      tag_146\n      swap2\n      swap1\n      tag_28\n      jump\t// in\n    tag_146:\n      mload(0x40)\n      dup1\n      swap2\n      sub\n      swap1\n      log2\n        /* \"contracts/HW4/11_BirthdayGift.sol\":5094:5104  msg.sender */\n      caller\n        /* \"contracts/HW4/11_BirthdayGift.sol\":5086:5114  payable(msg.sender).transfer */\n      0xffffffffffffffffffffffffffffffffffffffff\n      and\n        /* \"contracts/HW4/11_BirthdayGift.sol\":5086:5121  payable(msg.sender).transfer(share) */\n      0x08fc\n        /* \"contracts/HW4/11_BirthdayGift.sol\":5115:5120  share */\n      dup3\n        /* \"contracts/HW4/11_BirthdayGift.sol\":5086:5121  payable(msg.sender).transfer(share) */\n      swap1\n      dup2\n      iszero\n      mul\n      swap1\n      mload(0x40)\n      0x00\n      mload(0x40)\n      dup1\n      dup4\n      sub\n      dup2\n      dup6\n      dup9\n      dup9\n      call\n      swap4\n      pop\n      pop\n      pop\n      pop\n      iszero\n      dup1\n      iszero\n      tag_148\n      jumpi\n      returndatacopy(0x00, 0x00, returndatasize)\n      revert(0x00, returndatasize)\n    tag_148:\n      pop\n        /* \"contracts/HW4/11_BirthdayGift.sol\":4547:5128  {... */\n      pop\n      pop\n      pop\n        /* \"contracts/HW4/11_BirthdayGift.sol\":4503:5128  function withdraw() external onlyGrandchild {... */\n      jump\t// out\n        /* \"contracts/HW4/11_BirthdayGift.sol\":694:727  Grandchild[] public grandchildren */\n    tag_36:\n      0x03\n      dup2\n      dup2\n      sload\n      dup2\n      lt\n      tag_149\n      jumpi\n      0x00\n      dup1\n      revert\n    tag_149:\n      swap1\n      0x00\n      mstore\n      keccak256(0x00, 0x20)\n      swap1\n      0x03\n      mul\n      add\n      0x00\n      swap2\n      pop\n      swap1\n      pop\n      dup1\n      0x00\n      add\n      0x00\n      swap1\n      sload\n      swap1\n      0x0100\n      exp\n      swap1\n      div\n      0xffffffffffffffffffffffffffffffffffffffff\n      and\n      swap1\n      dup1\n      0x01\n      add\n      sload\n      swap1\n      dup1\n      0x02\n      add\n      0x00\n      swap1\n      sload\n      swap1\n      0x0100\n      exp\n      swap1\n      div\n      0xff\n      and\n      swap1\n      pop\n      dup4\n      jump\t// out\n        /* \"contracts/HW4/11_BirthdayGift.sol\":5685:6056  function daysUntilBirthday(address grandchild) external view returns (uint256) {... */\n    tag_42:\n        /* \"contracts/HW4/11_BirthdayGift.sol\":5755:5762  uint256 */\n      0x00\n        /* \"contracts/HW4/11_BirthdayGift.sol\":5774:5785  uint256 idx */\n      0x00\n        /* \"contracts/HW4/11_BirthdayGift.sol\":5788:5803  grandchildIndex */\n      0x04\n        /* \"contracts/HW4/11_BirthdayGift.sol\":5788:5815  grandchildIndex[grandchild] */\n      0x00\n        /* \"contracts/HW4/11_BirthdayGift.sol\":5804:5814  grandchild */\n      dup5\n        /* \"contracts/HW4/11_BirthdayGift.sol\":5788:5815  grandchildIndex[grandchild] */\n      0xffffffffffffffffffffffffffffffffffffffff\n      and\n      0xffffffffffffffffffffffffffffffffffffffff\n      and\n      dup2\n      mstore\n      0x20\n      add\n      swap1\n      dup2\n      mstore\n      0x20\n      add\n      0x00\n      keccak256\n      sload\n        /* \"contracts/HW4/11_BirthdayGift.sol\":5774:5815  uint256 idx = grandchildIndex[grandchild] */\n      swap1\n      pop\n        /* \"contracts/HW4/11_BirthdayGift.sol\":5840:5841  0 */\n      0x00\n        /* \"contracts/HW4/11_BirthdayGift.sol\":5833:5836  idx */\n      dup2\n        /* \"contracts/HW4/11_BirthdayGift.sol\":5833:5841  idx != 0 */\n      sub\n        /* \"contracts/HW4/11_BirthdayGift.sol\":5825:5876  require(idx != 0, \"BirthdayGift: not a grandchild\") */\n      tag_152\n      jumpi\n      mload(0x40)\n      0x08c379a000000000000000000000000000000000000000000000000000000000\n      dup2\n      mstore\n      0x04\n      add\n      tag_153\n      swap1\n      tag_154\n      jump\t// in\n    tag_153:\n      mload(0x40)\n      dup1\n      swap2\n      sub\n      swap1\n      revert\n    tag_152:\n        /* \"contracts/HW4/11_BirthdayGift.sol\":5886:5902  uint256 birthday */\n      0x00\n        /* \"contracts/HW4/11_BirthdayGift.sol\":5905:5918  grandchildren */\n      0x03\n        /* \"contracts/HW4/11_BirthdayGift.sol\":5925:5926  1 */\n      0x01\n        /* \"contracts/HW4/11_BirthdayGift.sol\":5919:5922  idx */\n      dup4\n        /* \"contracts/HW4/11_BirthdayGift.sol\":5919:5926  idx - 1 */\n      tag_155\n      swap2\n      swap1\n      tag_76\n      jump\t// in\n    tag_155:\n        /* \"contracts/HW4/11_BirthdayGift.sol\":5905:5927  grandchildren[idx - 1] */\n      dup2\n      sload\n      dup2\n      lt\n      tag_156\n      jumpi\n      tag_157\n      tag_79\n      jump\t// in\n    tag_157:\n    tag_156:\n      swap1\n      0x00\n      mstore\n      keccak256(0x00, 0x20)\n      swap1\n      0x03\n      mul\n      add\n        /* \"contracts/HW4/11_BirthdayGift.sol\":5905:5945  grandchildren[idx - 1].birthdayTimestamp */\n      0x01\n      add\n      sload\n        /* \"contracts/HW4/11_BirthdayGift.sol\":5886:5945  uint256 birthday = grandchildren[idx - 1].birthdayTimestamp */\n      swap1\n      pop\n        /* \"contracts/HW4/11_BirthdayGift.sol\":5978:5986  birthday */\n      dup1\n        /* \"contracts/HW4/11_BirthdayGift.sol\":5959:5974  block.timestamp */\n      timestamp\n        /* \"contracts/HW4/11_BirthdayGift.sol\":5959:5986  block.timestamp >= birthday */\n      lt\n        /* \"contracts/HW4/11_BirthdayGift.sol\":5955:5996  if (block.timestamp >= birthday) return 0 */\n      tag_159\n      jumpi\n        /* \"contracts/HW4/11_BirthdayGift.sol\":5995:5996  0 */\n      0x00\n        /* \"contracts/HW4/11_BirthdayGift.sol\":5988:5996  return 0 */\n      swap3\n      pop\n      pop\n      pop\n      jump(tag_151)\n        /* \"contracts/HW4/11_BirthdayGift.sol\":5955:5996  if (block.timestamp >= birthday) return 0 */\n    tag_159:\n        /* \"contracts/HW4/11_BirthdayGift.sol\":6044:6049  86400 */\n      0x015180\n        /* \"contracts/HW4/11_BirthdayGift.sol\":6025:6040  block.timestamp */\n      timestamp\n        /* \"contracts/HW4/11_BirthdayGift.sol\":6014:6022  birthday */\n      dup3\n        /* \"contracts/HW4/11_BirthdayGift.sol\":6014:6040  birthday - block.timestamp */\n      tag_160\n      swap2\n      swap1\n      tag_76\n      jump\t// in\n    tag_160:\n        /* \"contracts/HW4/11_BirthdayGift.sol\":6013:6049  (birthday - block.timestamp) / 86400 */\n      tag_161\n      swap2\n      swap1\n      tag_145\n      jump\t// in\n    tag_161:\n        /* \"contracts/HW4/11_BirthdayGift.sol\":6006:6049  return (birthday - block.timestamp) / 86400 */\n      swap3\n      pop\n      pop\n      pop\n        /* \"contracts/HW4/11_BirthdayGift.sol\":5685:6056  function daysUntilBirthday(address grandchild) external view returns (uint256) {... */\n    tag_151:\n      swap2\n      swap1\n      pop\n      jump\t// out\n        /* \"contracts/HW4/11_BirthdayGift.sol\":6144:6306  function getShare() external view returns (uint256) {... */\n    tag_46:\n        /* \"contracts/HW4/11_BirthdayGift.sol\":6187:6194  uint256 */\n      0x00\n        /* \"contracts/HW4/11_BirthdayGift.sol\":6234:6235  0 */\n      0x00\n        /* \"contracts/HW4/11_BirthdayGift.sol\":6210:6223  grandchildren */\n      0x03\n        /* \"contracts/HW4/11_BirthdayGift.sol\":6210:6230  grandchildren.length */\n      dup1\n      sload\n      swap1\n      pop\n        /* \"contracts/HW4/11_BirthdayGift.sol\":6210:6235  grandchildren.length == 0 */\n      sub\n        /* \"contracts/HW4/11_BirthdayGift.sol\":6206:6245  if (grandchildren.length == 0) return 0 */\n      tag_163\n      jumpi\n        /* \"contracts/HW4/11_BirthdayGift.sol\":6244:6245  0 */\n      0x00\n        /* \"contracts/HW4/11_BirthdayGift.sol\":6237:6245  return 0 */\n      swap1\n      pop\n      jump(tag_162)\n        /* \"contracts/HW4/11_BirthdayGift.sol\":6206:6245  if (grandchildren.length == 0) return 0 */\n    tag_163:\n        /* \"contracts/HW4/11_BirthdayGift.sol\":6279:6292  grandchildren */\n      0x03\n        /* \"contracts/HW4/11_BirthdayGift.sol\":6279:6299  grandchildren.length */\n      dup1\n      sload\n      swap1\n      pop\n        /* \"contracts/HW4/11_BirthdayGift.sol\":6262:6276  totalDeposited */\n      sload(0x01)\n        /* \"contracts/HW4/11_BirthdayGift.sol\":6262:6299  totalDeposited / grandchildren.length */\n      tag_164\n      swap2\n      swap1\n      tag_145\n      jump\t// in\n    tag_164:\n        /* \"contracts/HW4/11_BirthdayGift.sol\":6255:6299  return totalDeposited / grandchildren.length */\n      swap1\n      pop\n        /* \"contracts/HW4/11_BirthdayGift.sol\":6144:6306  function getShare() external view returns (uint256) {... */\n    tag_162:\n      swap1\n      jump\t// out\n        /* \"contracts/HW4/11_BirthdayGift.sol\":493:513  address public owner */\n    tag_50:\n      0x00\n      0x00\n      swap1\n      sload\n      swap1\n      0x0100\n      exp\n      swap1\n      div\n      0xffffffffffffffffffffffffffffffffffffffff\n      and\n      dup2\n      jump\t// out\n        /* \"contracts/HW4/11_BirthdayGift.sol\":3025:3688  function addGrandchild(... */\n    tag_57:\n        /* \"contracts/HW4/11_BirthdayGift.sol\":1247:1252  owner */\n      0x00\n      0x00\n      swap1\n      sload\n      swap1\n      0x0100\n      exp\n      swap1\n      div\n      0xffffffffffffffffffffffffffffffffffffffff\n      and\n        /* \"contracts/HW4/11_BirthdayGift.sol\":1233:1252  msg.sender == owner */\n      0xffffffffffffffffffffffffffffffffffffffff\n      and\n        /* \"contracts/HW4/11_BirthdayGift.sol\":1233:1243  msg.sender */\n      caller\n        /* \"contracts/HW4/11_BirthdayGift.sol\":1233:1252  msg.sender == owner */\n      0xffffffffffffffffffffffffffffffffffffffff\n      and\n      eq\n        /* \"contracts/HW4/11_BirthdayGift.sol\":1225:1290  require(msg.sender == owner, \"BirthdayGift: caller is not owner\") */\n      tag_166\n      jumpi\n      mload(0x40)\n      0x08c379a000000000000000000000000000000000000000000000000000000000\n      dup2\n      mstore\n      0x04\n      add\n      tag_167\n      swap1\n      tag_168\n      jump\t// in\n    tag_167:\n      mload(0x40)\n      dup1\n      swap2\n      sub\n      swap1\n      revert\n    tag_166:\n        /* \"contracts/HW4/11_BirthdayGift.sol\":3181:3190  deposited */\n      0x02\n      0x00\n      swap1\n      sload\n      swap1\n      0x0100\n      exp\n      swap1\n      div\n      0xff\n      and\n        /* \"contracts/HW4/11_BirthdayGift.sol\":3180:3190  !deposited */\n      iszero\n        /* \"contracts/HW4/11_BirthdayGift.sol\":3172:3244  require(!deposited, \"BirthdayGift: cannot add grandchild after deposit\") */\n      tag_170\n      jumpi\n      mload(0x40)\n      0x08c379a000000000000000000000000000000000000000000000000000000000\n      dup2\n      mstore\n      0x04\n      add\n      tag_171\n      swap1\n      tag_172\n      jump\t// in\n    tag_171:\n      mload(0x40)\n      dup1\n      swap2\n      sub\n      swap1\n      revert\n    tag_170:\n        /* \"contracts/HW4/11_BirthdayGift.sol\":3284:3285  0 */\n      0x00\n        /* \"contracts/HW4/11_BirthdayGift.sol\":3262:3286  grandchild != address(0) */\n      0xffffffffffffffffffffffffffffffffffffffff\n      and\n        /* \"contracts/HW4/11_BirthdayGift.sol\":3262:3272  grandchild */\n      dup5\n        /* \"contracts/HW4/11_BirthdayGift.sol\":3262:3286  grandchild != address(0) */\n      0xffffffffffffffffffffffffffffffffffffffff\n      and\n      sub\n        /* \"contracts/HW4/11_BirthdayGift.sol\":3254:3317  require(grandchild != address(0), \"BirthdayGift: zero address\") */\n      tag_173\n      jumpi\n      mload(0x40)\n      0x08c379a000000000000000000000000000000000000000000000000000000000\n      dup2\n      mstore\n      0x04\n      add\n      tag_174\n      swap1\n      tag_175\n      jump\t// in\n    tag_174:\n      mload(0x40)\n      dup1\n      swap2\n      sub\n      swap1\n      revert\n    tag_173:\n        /* \"contracts/HW4/11_BirthdayGift.sol\":3366:3367  0 */\n      0x00\n        /* \"contracts/HW4/11_BirthdayGift.sol\":3335:3350  grandchildIndex */\n      0x04\n        /* \"contracts/HW4/11_BirthdayGift.sol\":3335:3362  grandchildIndex[grandchild] */\n      0x00\n        /* \"contracts/HW4/11_BirthdayGift.sol\":3351:3361  grandchild */\n      dup7\n        /* \"contracts/HW4/11_BirthdayGift.sol\":3335:3362  grandchildIndex[grandchild] */\n      0xffffffffffffffffffffffffffffffffffffffff\n      and\n      0xffffffffffffffffffffffffffffffffffffffff\n      and\n      dup2\n      mstore\n      0x20\n      add\n      swap1\n      dup2\n      mstore\n      0x20\n      add\n      0x00\n      keccak256\n      sload\n        /* \"contracts/HW4/11_BirthdayGift.sol\":3335:3367  grandchildIndex[grandchild] == 0 */\n      eq\n        /* \"contracts/HW4/11_BirthdayGift.sol\":3327:3399  require(grandchildIndex[grandchild] == 0, \"BirthdayGift: already added\") */\n      tag_176\n      jumpi\n      mload(0x40)\n      0x08c379a000000000000000000000000000000000000000000000000000000000\n      dup2\n      mstore\n      0x04\n      add\n      tag_177\n      swap1\n      tag_178\n      jump\t// in\n    tag_177:\n      mload(0x40)\n      dup1\n      swap2\n      sub\n      swap1\n      revert\n    tag_176:\n        /* \"contracts/HW4/11_BirthdayGift.sol\":3410:3420  uint256 ts */\n      0x00\n        /* \"contracts/HW4/11_BirthdayGift.sol\":3423:3456  dateToTimestamp(year, month, day) */\n      tag_179\n        /* \"contracts/HW4/11_BirthdayGift.sol\":3439:3443  year */\n      dup5\n        /* \"contracts/HW4/11_BirthdayGift.sol\":3445:3450  month */\n      dup5\n        /* \"contracts/HW4/11_BirthdayGift.sol\":3452:3455  day */\n      dup5\n        /* \"contracts/HW4/11_BirthdayGift.sol\":3423:3438  dateToTimestamp */\n      tag_26\n        /* \"contracts/HW4/11_BirthdayGift.sol\":3423:3456  dateToTimestamp(year, month, day) */\n      jump\t// in\n    tag_179:\n        /* \"contracts/HW4/11_BirthdayGift.sol\":3410:3456  uint256 ts = dateToTimestamp(year, month, day) */\n      swap1\n      pop\n        /* \"contracts/HW4/11_BirthdayGift.sol\":3466:3479  grandchildren */\n      0x03\n        /* \"contracts/HW4/11_BirthdayGift.sol\":3485:3556  Grandchild({addr: grandchild, birthdayTimestamp: ts, withdrawn: false}) */\n      mload(0x40)\n      dup1\n      0x60\n      add\n      0x40\n      mstore\n      dup1\n        /* \"contracts/HW4/11_BirthdayGift.sol\":3503:3513  grandchild */\n      dup8\n        /* \"contracts/HW4/11_BirthdayGift.sol\":3485:3556  Grandchild({addr: grandchild, birthdayTimestamp: ts, withdrawn: false}) */\n      0xffffffffffffffffffffffffffffffffffffffff\n      and\n      dup2\n      mstore\n      0x20\n      add\n        /* \"contracts/HW4/11_BirthdayGift.sol\":3534:3536  ts */\n      dup4\n        /* \"contracts/HW4/11_BirthdayGift.sol\":3485:3556  Grandchild({addr: grandchild, birthdayTimestamp: ts, withdrawn: false}) */\n      dup2\n      mstore\n      0x20\n      add\n        /* \"contracts/HW4/11_BirthdayGift.sol\":3549:3554  false */\n      0x00\n        /* \"contracts/HW4/11_BirthdayGift.sol\":3485:3556  Grandchild({addr: grandchild, birthdayTimestamp: ts, withdrawn: false}) */\n      iszero\n      iszero\n      dup2\n      mstore\n      pop\n        /* \"contracts/HW4/11_BirthdayGift.sol\":3466:3557  grandchildren.push(Grandchild({addr: grandchild, birthdayTimestamp: ts, withdrawn: false})) */\n      swap1\n      dup1\n      0x01\n      dup2\n      sload\n      add\n      dup1\n      dup3\n      sstore\n      dup1\n      swap2\n      pop\n      pop\n      0x01\n      swap1\n      sub\n      swap1\n      0x00\n      mstore\n      keccak256(0x00, 0x20)\n      swap1\n      0x03\n      mul\n      add\n      0x00\n      swap1\n      swap2\n      swap1\n      swap2\n      swap1\n      swap2\n      pop\n      0x00\n      dup3\n      add\n      mload\n      dup2\n      0x00\n      add\n      exp(0x0100, 0x00)\n      dup2\n      sload\n      dup2\n      0xffffffffffffffffffffffffffffffffffffffff\n      mul\n      not\n      and\n      swap1\n      dup4\n      0xffffffffffffffffffffffffffffffffffffffff\n      and\n      mul\n      or\n      swap1\n      sstore\n      pop\n      0x20\n      dup3\n      add\n      mload\n      dup2\n      0x01\n      add\n      sstore\n      0x40\n      dup3\n      add\n      mload\n      dup2\n      0x02\n      add\n      exp(0x0100, 0x00)\n      dup2\n      sload\n      dup2\n      0xff\n      mul\n      not\n      and\n      swap1\n      dup4\n      iszero\n      iszero\n      mul\n      or\n      swap1\n      sstore\n      pop\n      pop\n      pop\n        /* \"contracts/HW4/11_BirthdayGift.sol\":3597:3610  grandchildren */\n      0x03\n        /* \"contracts/HW4/11_BirthdayGift.sol\":3597:3617  grandchildren.length */\n      dup1\n      sload\n      swap1\n      pop\n        /* \"contracts/HW4/11_BirthdayGift.sol\":3567:3582  grandchildIndex */\n      0x04\n        /* \"contracts/HW4/11_BirthdayGift.sol\":3567:3594  grandchildIndex[grandchild] */\n      0x00\n        /* \"contracts/HW4/11_BirthdayGift.sol\":3583:3593  grandchild */\n      dup8\n        /* \"contracts/HW4/11_BirthdayGift.sol\":3567:3594  grandchildIndex[grandchild] */\n      0xffffffffffffffffffffffffffffffffffffffff\n      and\n      0xffffffffffffffffffffffffffffffffffffffff\n      and\n      dup2\n      mstore\n      0x20\n      add\n      swap1\n      dup2\n      mstore\n      0x20\n      add\n      0x00\n      keccak256\n        /* \"contracts/HW4/11_BirthdayGift.sol\":3567:3617  grandchildIndex[grandchild] = grandchildren.length */\n      dup2\n      swap1\n      sstore\n      pop\n        /* \"contracts/HW4/11_BirthdayGift.sol\":3648:3658  grandchild */\n      dup5\n        /* \"contracts/HW4/11_BirthdayGift.sol\":3632:3681  GrandchildAdded(grandchild, year, month, day, ts) */\n      0xffffffffffffffffffffffffffffffffffffffff\n      and\n      0x752f214416f79597e6deaffdad6b387948a4b6cc453f8d806265f76c47038d1b\n        /* \"contracts/HW4/11_BirthdayGift.sol\":3660:3664  year */\n      dup6\n        /* \"contracts/HW4/11_BirthdayGift.sol\":3666:3671  month */\n      dup6\n        /* \"contracts/HW4/11_BirthdayGift.sol\":3673:3676  day */\n      dup6\n        /* \"contracts/HW4/11_BirthdayGift.sol\":3678:3680  ts */\n      dup6\n        /* \"contracts/HW4/11_BirthdayGift.sol\":3632:3681  GrandchildAdded(grandchild, year, month, day, ts) */\n      mload(0x40)\n      tag_181\n      swap5\n      swap4\n      swap3\n      swap2\n      swap1\n      tag_182\n      jump\t// in\n    tag_181:\n      mload(0x40)\n      dup1\n      swap2\n      sub\n      swap1\n      log2\n        /* \"contracts/HW4/11_BirthdayGift.sol\":3162:3688  {... */\n      pop\n        /* \"contracts/HW4/11_BirthdayGift.sol\":3025:3688  function addGrandchild(... */\n      pop\n      pop\n      pop\n      pop\n      jump\t// out\n        /* \"contracts/HW4/11_BirthdayGift.sol\":3822:4387  function deposit() external payable onlyOwner {... */\n    tag_59:\n        /* \"contracts/HW4/11_BirthdayGift.sol\":1247:1252  owner */\n      0x00\n      0x00\n      swap1\n      sload\n      swap1\n      0x0100\n      exp\n      swap1\n      div\n      0xffffffffffffffffffffffffffffffffffffffff\n      and\n        /* \"contracts/HW4/11_BirthdayGift.sol\":1233:1252  msg.sender == owner */\n      0xffffffffffffffffffffffffffffffffffffffff\n      and\n        /* \"contracts/HW4/11_BirthdayGift.sol\":1233:1243  msg.sender */\n      caller\n        /* \"contracts/HW4/11_BirthdayGift.sol\":1233:1252  msg.sender == owner */\n      0xffffffffffffffffffffffffffffffffffffffff\n      and\n      eq\n        /* \"contracts/HW4/11_BirthdayGift.sol\":1225:1290  require(msg.sender == owner, \"BirthdayGift: caller is not owner\") */\n      tag_184\n      jumpi\n      mload(0x40)\n      0x08c379a000000000000000000000000000000000000000000000000000000000\n      dup2\n      mstore\n      0x04\n      add\n      tag_185\n      swap1\n      tag_168\n      jump\t// in\n    tag_185:\n      mload(0x40)\n      dup1\n      swap2\n      sub\n      swap1\n      revert\n    tag_184:\n        /* \"contracts/HW4/11_BirthdayGift.sol\":3887:3896  deposited */\n      0x02\n      0x00\n      swap1\n      sload\n      swap1\n      0x0100\n      exp\n      swap1\n      div\n      0xff\n      and\n        /* \"contracts/HW4/11_BirthdayGift.sol\":3886:3896  !deposited */\n      iszero\n        /* \"contracts/HW4/11_BirthdayGift.sol\":3878:3932  require(!deposited, \"BirthdayGift: already deposited\") */\n      tag_187\n      jumpi\n      mload(0x40)\n      0x08c379a000000000000000000000000000000000000000000000000000000000\n      dup2\n      mstore\n      0x04\n      add\n      tag_188\n      swap1\n      tag_189\n      jump\t// in\n    tag_188:\n      mload(0x40)\n      dup1\n      swap2\n      sub\n      swap1\n      revert\n    tag_187:\n        /* \"contracts/HW4/11_BirthdayGift.sol\":3973:3974  0 */\n      0x00\n        /* \"contracts/HW4/11_BirthdayGift.sol\":3950:3963  grandchildren */\n      0x03\n        /* \"contracts/HW4/11_BirthdayGift.sol\":3950:3970  grandchildren.length */\n      dup1\n      sload\n      swap1\n      pop\n        /* \"contracts/HW4/11_BirthdayGift.sol\":3950:3974  grandchildren.length > 0 */\n      gt\n        /* \"contracts/HW4/11_BirthdayGift.sol\":3942:4019  require(grandchildren.length > 0, \"BirthdayGift: no grandchildren added yet\") */\n      tag_190\n      jumpi\n      mload(0x40)\n      0x08c379a000000000000000000000000000000000000000000000000000000000\n      dup2\n      mstore\n      0x04\n      add\n      tag_191\n      swap1\n      tag_192\n      jump\t// in\n    tag_191:\n      mload(0x40)\n      dup1\n      swap2\n      sub\n      swap1\n      revert\n    tag_190:\n        /* \"contracts/HW4/11_BirthdayGift.sol\":4049:4050  0 */\n      0x00\n        /* \"contracts/HW4/11_BirthdayGift.sol\":4037:4046  msg.value */\n      callvalue\n        /* \"contracts/HW4/11_BirthdayGift.sol\":4037:4050  msg.value > 0 */\n      gt\n        /* \"contracts/HW4/11_BirthdayGift.sol\":4029:4109  require(msg.value > 0, \"BirthdayGift: deposit amount must be greater than zero\") */\n      tag_193\n      jumpi\n      mload(0x40)\n      0x08c379a000000000000000000000000000000000000000000000000000000000\n      dup2\n      mstore\n      0x04\n      add\n      tag_194\n      swap1\n      tag_195\n      jump\t// in\n    tag_194:\n      mload(0x40)\n      dup1\n      swap2\n      sub\n      swap1\n      revert\n    tag_193:\n        /* \"contracts/HW4/11_BirthdayGift.sol\":4140:4153  grandchildren */\n      0x03\n        /* \"contracts/HW4/11_BirthdayGift.sol\":4140:4160  grandchildren.length */\n      dup1\n      sload\n      swap1\n      pop\n        /* \"contracts/HW4/11_BirthdayGift.sol\":4127:4136  msg.value */\n      callvalue\n        /* \"contracts/HW4/11_BirthdayGift.sol\":4127:4160  msg.value >= grandchildren.length */\n      lt\n      iszero\n        /* \"contracts/HW4/11_BirthdayGift.sol\":4119:4205  require(msg.value >= grandchildren.length, \"BirthdayGift: deposit too small to split\") */\n      tag_196\n      jumpi\n      mload(0x40)\n      0x08c379a000000000000000000000000000000000000000000000000000000000\n      dup2\n      mstore\n      0x04\n      add\n      tag_197\n      swap1\n      tag_198\n      jump\t// in\n    tag_197:\n      mload(0x40)\n      dup1\n      swap2\n      sub\n      swap1\n      revert\n    tag_196:\n        /* \"contracts/HW4/11_BirthdayGift.sol\":4233:4242  msg.value */\n      callvalue\n        /* \"contracts/HW4/11_BirthdayGift.sol\":4216:4230  totalDeposited */\n      0x01\n        /* \"contracts/HW4/11_BirthdayGift.sol\":4216:4242  totalDeposited = msg.value */\n      dup2\n      swap1\n      sstore\n      pop\n        /* \"contracts/HW4/11_BirthdayGift.sol\":4264:4268  true */\n      0x01\n        /* \"contracts/HW4/11_BirthdayGift.sol\":4252:4261  deposited */\n      0x02\n      0x00\n        /* \"contracts/HW4/11_BirthdayGift.sol\":4252:4268  deposited = true */\n      0x0100\n      exp\n      dup2\n      sload\n      dup2\n      0xff\n      mul\n      not\n      and\n      swap1\n      dup4\n      iszero\n      iszero\n      mul\n      or\n      swap1\n      sstore\n      pop\n        /* \"contracts/HW4/11_BirthdayGift.sol\":4278:4291  uint256 share */\n      0x00\n        /* \"contracts/HW4/11_BirthdayGift.sol\":4306:4319  grandchildren */\n      0x03\n        /* \"contracts/HW4/11_BirthdayGift.sol\":4306:4326  grandchildren.length */\n      dup1\n      sload\n      swap1\n      pop\n        /* \"contracts/HW4/11_BirthdayGift.sol\":4294:4303  msg.value */\n      callvalue\n        /* \"contracts/HW4/11_BirthdayGift.sol\":4294:4326  msg.value / grandchildren.length */\n      tag_199\n      swap2\n      swap1\n      tag_145\n      jump\t// in\n    tag_199:\n        /* \"contracts/HW4/11_BirthdayGift.sol\":4278:4326  uint256 share = msg.value / grandchildren.length */\n      swap1\n      pop\n        /* \"contracts/HW4/11_BirthdayGift.sol\":4351:4361  msg.sender */\n      caller\n        /* \"contracts/HW4/11_BirthdayGift.sol\":4341:4380  Deposited(msg.sender, msg.value, share) */\n      0xffffffffffffffffffffffffffffffffffffffff\n      and\n      0x73a19dd210f1a7f902193214c0ee91dd35ee5b4d920cba8d519eca65a7b488ca\n        /* \"contracts/HW4/11_BirthdayGift.sol\":4363:4372  msg.value */\n      callvalue\n        /* \"contracts/HW4/11_BirthdayGift.sol\":4374:4379  share */\n      dup4\n        /* \"contracts/HW4/11_BirthdayGift.sol\":4341:4380  Deposited(msg.sender, msg.value, share) */\n      mload(0x40)\n      tag_200\n      swap3\n      swap2\n      swap1\n      tag_201\n      jump\t// in\n    tag_200:\n      mload(0x40)\n      dup1\n      swap2\n      sub\n      swap1\n      log2\n        /* \"contracts/HW4/11_BirthdayGift.sol\":3868:4387  {... */\n      pop\n        /* \"contracts/HW4/11_BirthdayGift.sol\":3822:4387  function deposit() external payable onlyOwner {... */\n      jump\t// out\n        /* \"contracts/HW4/11_BirthdayGift.sol\":6363:6472  function getGrandchildren() external view returns (Grandchild[] memory) {... */\n    tag_62:\n        /* \"contracts/HW4/11_BirthdayGift.sol\":6414:6433  Grandchild[] memory */\n      0x60\n        /* \"contracts/HW4/11_BirthdayGift.sol\":6452:6465  grandchildren */\n      0x03\n        /* \"contracts/HW4/11_BirthdayGift.sol\":6445:6465  return grandchildren */\n      dup1\n      sload\n      dup1\n      0x20\n      mul\n      0x20\n      add\n      mload(0x40)\n      swap1\n      dup2\n      add\n      0x40\n      mstore\n      dup1\n      swap3\n      swap2\n      swap1\n      dup2\n      dup2\n      mstore\n      0x20\n      add\n      0x00\n      swap1\n    tag_203:\n      dup3\n      dup3\n      lt\n      iszero\n      tag_204\n      jumpi\n      dup4\n      dup3\n      swap1\n      0x00\n      mstore\n      keccak256(0x00, 0x20)\n      swap1\n      0x03\n      mul\n      add\n      mload(0x40)\n      dup1\n      0x60\n      add\n      0x40\n      mstore\n      swap1\n      dup2\n      0x00\n      dup3\n      add\n      0x00\n      swap1\n      sload\n      swap1\n      0x0100\n      exp\n      swap1\n      div\n      0xffffffffffffffffffffffffffffffffffffffff\n      and\n      0xffffffffffffffffffffffffffffffffffffffff\n      and\n      0xffffffffffffffffffffffffffffffffffffffff\n      and\n      dup2\n      mstore\n      0x20\n      add\n      0x01\n      dup3\n      add\n      sload\n      dup2\n      mstore\n      0x20\n      add\n      0x02\n      dup3\n      add\n      0x00\n      swap1\n      sload\n      swap1\n      0x0100\n      exp\n      swap1\n      div\n      0xff\n      and\n      iszero\n      iszero\n      iszero\n      iszero\n      dup2\n      mstore\n      pop\n      pop\n      dup2\n      mstore\n      0x20\n      add\n      swap1\n      0x01\n      add\n      swap1\n      jump(tag_203)\n    tag_204:\n      pop\n      pop\n      pop\n      pop\n      swap1\n      pop\n        /* \"contracts/HW4/11_BirthdayGift.sol\":6363:6472  function getGrandchildren() external view returns (Grandchild[] memory) {... */\n      swap1\n      jump\t// out\n        /* \"contracts/HW4/11_BirthdayGift.sol\":554:575  bool public deposited */\n    tag_67:\n      0x02\n      0x00\n      swap1\n      sload\n      swap1\n      0x0100\n      exp\n      swap1\n      div\n      0xff\n      and\n      dup2\n      jump\t// out\n        /* \"contracts/HW4/11_BirthdayGift.sol\":519:548  uint256 public totalDeposited */\n    tag_71:\n      sload(0x01)\n      dup2\n      jump\t// out\n        /* \"#utility.yul\":88:205   */\n    tag_207:\n        /* \"#utility.yul\":197:198   */\n      0x00\n        /* \"#utility.yul\":194:195   */\n      0x00\n        /* \"#utility.yul\":187:199   */\n      revert\n        /* \"#utility.yul\":334:460   */\n    tag_209:\n        /* \"#utility.yul\":371:378   */\n      0x00\n        /* \"#utility.yul\":411:453   */\n      0xffffffffffffffffffffffffffffffffffffffff\n        /* \"#utility.yul\":404:409   */\n      dup3\n        /* \"#utility.yul\":400:454   */\n      and\n        /* \"#utility.yul\":389:454   */\n      swap1\n      pop\n        /* \"#utility.yul\":334:460   */\n      swap2\n      swap1\n      pop\n      jump\t// out\n        /* \"#utility.yul\":466:562   */\n    tag_210:\n        /* \"#utility.yul\":503:510   */\n      0x00\n        /* \"#utility.yul\":532:556   */\n      tag_280\n        /* \"#utility.yul\":550:555   */\n      dup3\n        /* \"#utility.yul\":532:556   */\n      tag_209\n      jump\t// in\n    tag_280:\n        /* \"#utility.yul\":521:556   */\n      swap1\n      pop\n        /* \"#utility.yul\":466:562   */\n      swap2\n      swap1\n      pop\n      jump\t// out\n        /* \"#utility.yul\":568:690   */\n    tag_211:\n        /* \"#utility.yul\":641:665   */\n      tag_282\n        /* \"#utility.yul\":659:664   */\n      dup2\n        /* \"#utility.yul\":641:665   */\n      tag_210\n      jump\t// in\n    tag_282:\n        /* \"#utility.yul\":634:639   */\n      dup2\n        /* \"#utility.yul\":631:666   */\n      eq\n        /* \"#utility.yul\":621:684   */\n      tag_283\n      jumpi\n        /* \"#utility.yul\":680:681   */\n      0x00\n        /* \"#utility.yul\":677:678   */\n      0x00\n        /* \"#utility.yul\":670:682   */\n      revert\n        /* \"#utility.yul\":621:684   */\n    tag_283:\n        /* \"#utility.yul\":568:690   */\n      pop\n      jump\t// out\n        /* \"#utility.yul\":696:835   */\n    tag_212:\n        /* \"#utility.yul\":742:747   */\n      0x00\n        /* \"#utility.yul\":780:786   */\n      dup2\n        /* \"#utility.yul\":767:787   */\n      calldataload\n        /* \"#utility.yul\":758:787   */\n      swap1\n      pop\n        /* \"#utility.yul\":796:829   */\n      tag_285\n        /* \"#utility.yul\":823:828   */\n      dup2\n        /* \"#utility.yul\":796:829   */\n      tag_211\n      jump\t// in\n    tag_285:\n        /* \"#utility.yul\":696:835   */\n      swap3\n      swap2\n      pop\n      pop\n      jump\t// out\n        /* \"#utility.yul\":841:1170   */\n    tag_18:\n        /* \"#utility.yul\":900:906   */\n      0x00\n        /* \"#utility.yul\":949:951   */\n      0x20\n        /* \"#utility.yul\":937:946   */\n      dup3\n        /* \"#utility.yul\":928:935   */\n      dup5\n        /* \"#utility.yul\":924:947   */\n      sub\n        /* \"#utility.yul\":920:952   */\n      slt\n        /* \"#utility.yul\":917:1036   */\n      iszero\n      tag_287\n      jumpi\n        /* \"#utility.yul\":955:1034   */\n      tag_288\n      tag_207\n      jump\t// in\n    tag_288:\n        /* \"#utility.yul\":917:1036   */\n    tag_287:\n        /* \"#utility.yul\":1075:1076   */\n      0x00\n        /* \"#utility.yul\":1100:1153   */\n      tag_289\n        /* \"#utility.yul\":1145:1152   */\n      dup5\n        /* \"#utility.yul\":1136:1142   */\n      dup3\n        /* \"#utility.yul\":1125:1134   */\n      dup6\n        /* \"#utility.yul\":1121:1143   */\n      add\n        /* \"#utility.yul\":1100:1153   */\n      tag_212\n      jump\t// in\n    tag_289:\n        /* \"#utility.yul\":1090:1153   */\n      swap2\n      pop\n        /* \"#utility.yul\":1046:1163   */\n      pop\n        /* \"#utility.yul\":841:1170   */\n      swap3\n      swap2\n      pop\n      pop\n      jump\t// out\n        /* \"#utility.yul\":1176:1266   */\n    tag_213:\n        /* \"#utility.yul\":1210:1217   */\n      0x00\n        /* \"#utility.yul\":1253:1258   */\n      dup2\n        /* \"#utility.yul\":1246:1259   */\n      iszero\n        /* \"#utility.yul\":1239:1260   */\n      iszero\n        /* \"#utility.yul\":1228:1260   */\n      swap1\n      pop\n        /* \"#utility.yul\":1176:1266   */\n      swap2\n      swap1\n      pop\n      jump\t// out\n        /* \"#utility.yul\":1272:1381   */\n    tag_214:\n        /* \"#utility.yul\":1353:1374   */\n      tag_292\n        /* \"#utility.yul\":1368:1373   */\n      dup2\n        /* \"#utility.yul\":1353:1374   */\n      tag_213\n      jump\t// in\n    tag_292:\n        /* \"#utility.yul\":1348:1351   */\n      dup3\n        /* \"#utility.yul\":1341:1375   */\n      mstore\n        /* \"#utility.yul\":1272:1381   */\n      pop\n      pop\n      jump\t// out\n        /* \"#utility.yul\":1387:1597   */\n    tag_21:\n        /* \"#utility.yul\":1474:1478   */\n      0x00\n        /* \"#utility.yul\":1512:1514   */\n      0x20\n        /* \"#utility.yul\":1501:1510   */\n      dup3\n        /* \"#utility.yul\":1497:1515   */\n      add\n        /* \"#utility.yul\":1489:1515   */\n      swap1\n      pop\n        /* \"#utility.yul\":1525:1590   */\n      tag_294\n        /* \"#utility.yul\":1587:1588   */\n      0x00\n        /* \"#utility.yul\":1576:1585   */\n      dup4\n        /* \"#utility.yul\":1572:1589   */\n      add\n        /* \"#utility.yul\":1563:1569   */\n      dup5\n        /* \"#utility.yul\":1525:1590   */\n      tag_214\n      jump\t// in\n    tag_294:\n        /* \"#utility.yul\":1387:1597   */\n      swap3\n      swap2\n      pop\n      pop\n      jump\t// out\n        /* \"#utility.yul\":1603:1692   */\n    tag_215:\n        /* \"#utility.yul\":1639:1646   */\n      0x00\n        /* \"#utility.yul\":1679:1685   */\n      0xffff\n        /* \"#utility.yul\":1672:1677   */\n      dup3\n        /* \"#utility.yul\":1668:1686   */\n      and\n        /* \"#utility.yul\":1657:1686   */\n      swap1\n      pop\n        /* \"#utility.yul\":1603:1692   */\n      swap2\n      swap1\n      pop\n      jump\t// out\n        /* \"#utility.yul\":1698:1818   */\n    tag_216:\n        /* \"#utility.yul\":1770:1793   */\n      tag_297\n        /* \"#utility.yul\":1787:1792   */\n      dup2\n        /* \"#utility.yul\":1770:1793   */\n      tag_215\n      jump\t// in\n    tag_297:\n        /* \"#utility.yul\":1763:1768   */\n      dup2\n        /* \"#utility.yul\":1760:1794   */\n      eq\n        /* \"#utility.yul\":1750:1812   */\n      tag_298\n      jumpi\n        /* \"#utility.yul\":1808:1809   */\n      0x00\n        /* \"#utility.yul\":1805:1806   */\n      0x00\n        /* \"#utility.yul\":1798:1810   */\n      revert\n        /* \"#utility.yul\":1750:1812   */\n    tag_298:\n        /* \"#utility.yul\":1698:1818   */\n      pop\n      jump\t// out\n        /* \"#utility.yul\":1824:1961   */\n    tag_217:\n        /* \"#utility.yul\":1869:1874   */\n      0x00\n        /* \"#utility.yul\":1907:1913   */\n      dup2\n        /* \"#utility.yul\":1894:1914   */\n      calldataload\n        /* \"#utility.yul\":1885:1914   */\n      swap1\n      pop\n        /* \"#utility.yul\":1923:1955   */\n      tag_300\n        /* \"#utility.yul\":1949:1954   */\n      dup2\n        /* \"#utility.yul\":1923:1955   */\n      tag_216\n      jump\t// in\n    tag_300:\n        /* \"#utility.yul\":1824:1961   */\n      swap3\n      swap2\n      pop\n      pop\n      jump\t// out\n        /* \"#utility.yul\":1967:2053   */\n    tag_218:\n        /* \"#utility.yul\":2002:2009   */\n      0x00\n        /* \"#utility.yul\":2042:2046   */\n      0xff\n        /* \"#utility.yul\":2035:2040   */\n      dup3\n        /* \"#utility.yul\":2031:2047   */\n      and\n        /* \"#utility.yul\":2020:2047   */\n      swap1\n      pop\n        /* \"#utility.yul\":1967:2053   */\n      swap2\n      swap1\n      pop\n      jump\t// out\n        /* \"#utility.yul\":2059:2177   */\n    tag_219:\n        /* \"#utility.yul\":2130:2152   */\n      tag_303\n        /* \"#utility.yul\":2146:2151   */\n      dup2\n        /* \"#utility.yul\":2130:2152   */\n      tag_218\n      jump\t// in\n    tag_303:\n        /* \"#utility.yul\":2123:2128   */\n      dup2\n        /* \"#utility.yul\":2120:2153   */\n      eq\n        /* \"#utility.yul\":2110:2171   */\n      tag_304\n      jumpi\n        /* \"#utility.yul\":2167:2168   */\n      0x00\n        /* \"#utility.yul\":2164:2165   */\n      0x00\n        /* \"#utility.yul\":2157:2169   */\n      revert\n        /* \"#utility.yul\":2110:2171   */\n    tag_304:\n        /* \"#utility.yul\":2059:2177   */\n      pop\n      jump\t// out\n        /* \"#utility.yul\":2183:2318   */\n    tag_220:\n        /* \"#utility.yul\":2227:2232   */\n      0x00\n        /* \"#utility.yul\":2265:2271   */\n      dup2\n        /* \"#utility.yul\":2252:2272   */\n      calldataload\n        /* \"#utility.yul\":2243:2272   */\n      swap1\n      pop\n        /* \"#utility.yul\":2281:2312   */\n      tag_306\n        /* \"#utility.yul\":2306:2311   */\n      dup2\n        /* \"#utility.yul\":2281:2312   */\n      tag_219\n      jump\t// in\n    tag_306:\n        /* \"#utility.yul\":2183:2318   */\n      swap3\n      swap2\n      pop\n      pop\n      jump\t// out\n        /* \"#utility.yul\":2324:2933   */\n    tag_25:\n        /* \"#utility.yul\":2396:2402   */\n      0x00\n        /* \"#utility.yul\":2404:2410   */\n      0x00\n        /* \"#utility.yul\":2412:2418   */\n      0x00\n        /* \"#utility.yul\":2461:2463   */\n      0x60\n        /* \"#utility.yul\":2449:2458   */\n      dup5\n        /* \"#utility.yul\":2440:2447   */\n      dup7\n        /* \"#utility.yul\":2436:2459   */\n      sub\n        /* \"#utility.yul\":2432:2464   */\n      slt\n        /* \"#utility.yul\":2429:2548   */\n      iszero\n      tag_308\n      jumpi\n        /* \"#utility.yul\":2467:2546   */\n      tag_309\n      tag_207\n      jump\t// in\n    tag_309:\n        /* \"#utility.yul\":2429:2548   */\n    tag_308:\n        /* \"#utility.yul\":2587:2588   */\n      0x00\n        /* \"#utility.yul\":2612:2664   */\n      tag_310\n        /* \"#utility.yul\":2656:2663   */\n      dup7\n        /* \"#utility.yul\":2647:2653   */\n      dup3\n        /* \"#utility.yul\":2636:2645   */\n      dup8\n        /* \"#utility.yul\":2632:2654   */\n      add\n        /* \"#utility.yul\":2612:2664   */\n      tag_217\n      jump\t// in\n    tag_310:\n        /* \"#utility.yul\":2602:2664   */\n      swap4\n      pop\n        /* \"#utility.yul\":2558:2674   */\n      pop\n        /* \"#utility.yul\":2713:2715   */\n      0x20\n        /* \"#utility.yul\":2739:2790   */\n      tag_311\n        /* \"#utility.yul\":2782:2789   */\n      dup7\n        /* \"#utility.yul\":2773:2779   */\n      dup3\n        /* \"#utility.yul\":2762:2771   */\n      dup8\n        /* \"#utility.yul\":2758:2780   */\n      add\n        /* \"#utility.yul\":2739:2790   */\n      tag_220\n      jump\t// in\n    tag_311:\n        /* \"#utility.yul\":2729:2790   */\n      swap3\n      pop\n        /* \"#utility.yul\":2684:2800   */\n      pop\n        /* \"#utility.yul\":2839:2841   */\n      0x40\n        /* \"#utility.yul\":2865:2916   */\n      tag_312\n        /* \"#utility.yul\":2908:2915   */\n      dup7\n        /* \"#utility.yul\":2899:2905   */\n      dup3\n        /* \"#utility.yul\":2888:2897   */\n      dup8\n        /* \"#utility.yul\":2884:2906   */\n      add\n        /* \"#utility.yul\":2865:2916   */\n      tag_220\n      jump\t// in\n    tag_312:\n        /* \"#utility.yul\":2855:2916   */\n      swap2\n      pop\n        /* \"#utility.yul\":2810:2926   */\n      pop\n        /* \"#utility.yul\":2324:2933   */\n      swap3\n      pop\n      swap3\n      pop\n      swap3\n      jump\t// out\n        /* \"#utility.yul\":2939:3016   */\n    tag_221:\n        /* \"#utility.yul\":2976:2983   */\n      0x00\n        /* \"#utility.yul\":3005:3010   */\n      dup2\n        /* \"#utility.yul\":2994:3010   */\n      swap1\n      pop\n        /* \"#utility.yul\":2939:3016   */\n      swap2\n      swap1\n      pop\n      jump\t// out\n        /* \"#utility.yul\":3022:3140   */\n    tag_222:\n        /* \"#utility.yul\":3109:3133   */\n      tag_315\n        /* \"#utility.yul\":3127:3132   */\n      dup2\n        /* \"#utility.yul\":3109:3133   */\n      tag_221\n      jump\t// in\n    tag_315:\n        /* \"#utility.yul\":3104:3107   */\n      dup3\n        /* \"#utility.yul\":3097:3134   */\n      mstore\n        /* \"#utility.yul\":3022:3140   */\n      pop\n      pop\n      jump\t// out\n        /* \"#utility.yul\":3146:3368   */\n    tag_28:\n        /* \"#utility.yul\":3239:3243   */\n      0x00\n        /* \"#utility.yul\":3277:3279   */\n      0x20\n        /* \"#utility.yul\":3266:3275   */\n      dup3\n        /* \"#utility.yul\":3262:3280   */\n      add\n        /* \"#utility.yul\":3254:3280   */\n      swap1\n      pop\n        /* \"#utility.yul\":3290:3361   */\n      tag_317\n        /* \"#utility.yul\":3358:3359   */\n      0x00\n        /* \"#utility.yul\":3347:3356   */\n      dup4\n        /* \"#utility.yul\":3343:3360   */\n      add\n        /* \"#utility.yul\":3334:3340   */\n      dup5\n        /* \"#utility.yul\":3290:3361   */\n      tag_222\n      jump\t// in\n    tag_317:\n        /* \"#utility.yul\":3146:3368   */\n      swap3\n      swap2\n      pop\n      pop\n      jump\t// out\n        /* \"#utility.yul\":3374:3496   */\n    tag_223:\n        /* \"#utility.yul\":3447:3471   */\n      tag_319\n        /* \"#utility.yul\":3465:3470   */\n      dup2\n        /* \"#utility.yul\":3447:3471   */\n      tag_221\n      jump\t// in\n    tag_319:\n        /* \"#utility.yul\":3440:3445   */\n      dup2\n        /* \"#utility.yul\":3437:3472   */\n      eq\n        /* \"#utility.yul\":3427:3490   */\n      tag_320\n      jumpi\n        /* \"#utility.yul\":3486:3487   */\n      0x00\n        /* \"#utility.yul\":3483:3484   */\n      0x00\n        /* \"#utility.yul\":3476:3488   */\n      revert\n        /* \"#utility.yul\":3427:3490   */\n    tag_320:\n        /* \"#utility.yul\":3374:3496   */\n      pop\n      jump\t// out\n        /* \"#utility.yul\":3502:3641   */\n    tag_224:\n        /* \"#utility.yul\":3548:3553   */\n      0x00\n        /* \"#utility.yul\":3586:3592   */\n      dup2\n        /* \"#utility.yul\":3573:3593   */\n      calldataload\n        /* \"#utility.yul\":3564:3593   */\n      swap1\n      pop\n        /* \"#utility.yul\":3602:3635   */\n      tag_322\n        /* \"#utility.yul\":3629:3634   */\n      dup2\n        /* \"#utility.yul\":3602:3635   */\n      tag_223\n      jump\t// in\n    tag_322:\n        /* \"#utility.yul\":3502:3641   */\n      swap3\n      swap2\n      pop\n      pop\n      jump\t// out\n        /* \"#utility.yul\":3647:3976   */\n    tag_35:\n        /* \"#utility.yul\":3706:3712   */\n      0x00\n        /* \"#utility.yul\":3755:3757   */\n      0x20\n        /* \"#utility.yul\":3743:3752   */\n      dup3\n        /* \"#utility.yul\":3734:3741   */\n      dup5\n        /* \"#utility.yul\":3730:3753   */\n      sub\n        /* \"#utility.yul\":3726:3758   */\n      slt\n        /* \"#utility.yul\":3723:3842   */\n      iszero\n      tag_324\n      jumpi\n        /* \"#utility.yul\":3761:3840   */\n      tag_325\n      tag_207\n      jump\t// in\n    tag_325:\n        /* \"#utility.yul\":3723:3842   */\n    tag_324:\n        /* \"#utility.yul\":3881:3882   */\n      0x00\n        /* \"#utility.yul\":3906:3959   */\n      tag_326\n        /* \"#utility.yul\":3951:3958   */\n      dup5\n        /* \"#utility.yul\":3942:3948   */\n      dup3\n        /* \"#utility.yul\":3931:3940   */\n      dup6\n        /* \"#utility.yul\":3927:3949   */\n      add\n        /* \"#utility.yul\":3906:3959   */\n      tag_224\n      jump\t// in\n    tag_326:\n        /* \"#utility.yul\":3896:3959   */\n      swap2\n      pop\n        /* \"#utility.yul\":3852:3969   */\n      pop\n        /* \"#utility.yul\":3647:3976   */\n      swap3\n      swap2\n      pop\n      pop\n      jump\t// out\n        /* \"#utility.yul\":3982:4100   */\n    tag_225:\n        /* \"#utility.yul\":4069:4093   */\n      tag_328\n        /* \"#utility.yul\":4087:4092   */\n      dup2\n        /* \"#utility.yul\":4069:4093   */\n      tag_210\n      jump\t// in\n    tag_328:\n        /* \"#utility.yul\":4064:4067   */\n      dup3\n        /* \"#utility.yul\":4057:4094   */\n      mstore\n        /* \"#utility.yul\":3982:4100   */\n      pop\n      pop\n      jump\t// out\n        /* \"#utility.yul\":4106:4536   */\n    tag_38:\n        /* \"#utility.yul\":4249:4253   */\n      0x00\n        /* \"#utility.yul\":4287:4289   */\n      0x60\n        /* \"#utility.yul\":4276:4285   */\n      dup3\n        /* \"#utility.yul\":4272:4290   */\n      add\n        /* \"#utility.yul\":4264:4290   */\n      swap1\n      pop\n        /* \"#utility.yul\":4300:4371   */\n      tag_330\n        /* \"#utility.yul\":4368:4369   */\n      0x00\n        /* \"#utility.yul\":4357:4366   */\n      dup4\n        /* \"#utility.yul\":4353:4370   */\n      add\n        /* \"#utility.yul\":4344:4350   */\n      dup7\n        /* \"#utility.yul\":4300:4371   */\n      tag_225\n      jump\t// in\n    tag_330:\n        /* \"#utility.yul\":4381:4453   */\n      tag_331\n        /* \"#utility.yul\":4449:4451   */\n      0x20\n        /* \"#utility.yul\":4438:4447   */\n      dup4\n        /* \"#utility.yul\":4434:4452   */\n      add\n        /* \"#utility.yul\":4425:4431   */\n      dup6\n        /* \"#utility.yul\":4381:4453   */\n      tag_222\n      jump\t// in\n    tag_331:\n        /* \"#utility.yul\":4463:4529   */\n      tag_332\n        /* \"#utility.yul\":4525:4527   */\n      0x40\n        /* \"#utility.yul\":4514:4523   */\n      dup4\n        /* \"#utility.yul\":4510:4528   */\n      add\n        /* \"#utility.yul\":4501:4507   */\n      dup5\n        /* \"#utility.yul\":4463:4529   */\n      tag_214\n      jump\t// in\n    tag_332:\n        /* \"#utility.yul\":4106:4536   */\n      swap5\n      swap4\n      pop\n      pop\n      pop\n      pop\n      jump\t// out\n        /* \"#utility.yul\":4542:4764   */\n    tag_52:\n        /* \"#utility.yul\":4635:4639   */\n      0x00\n        /* \"#utility.yul\":4673:4675   */\n      0x20\n        /* \"#utility.yul\":4662:4671   */\n      dup3\n        /* \"#utility.yul\":4658:4676   */\n      add\n        /* \"#utility.yul\":4650:4676   */\n      swap1\n      pop\n        /* \"#utility.yul\":4686:4757   */\n      tag_334\n        /* \"#utility.yul\":4754:4755   */\n      0x00\n        /* \"#utility.yul\":4743:4752   */\n      dup4\n        /* \"#utility.yul\":4739:4756   */\n      add\n        /* \"#utility.yul\":4730:4736   */\n      dup5\n        /* \"#utility.yul\":4686:4757   */\n      tag_225\n      jump\t// in\n    tag_334:\n        /* \"#utility.yul\":4542:4764   */\n      swap3\n      swap2\n      pop\n      pop\n      jump\t// out\n        /* \"#utility.yul\":4770:5525   */\n    tag_56:\n        /* \"#utility.yul\":4851:4857   */\n      0x00\n        /* \"#utility.yul\":4859:4865   */\n      0x00\n        /* \"#utility.yul\":4867:4873   */\n      0x00\n        /* \"#utility.yul\":4875:4881   */\n      0x00\n        /* \"#utility.yul\":4924:4927   */\n      0x80\n        /* \"#utility.yul\":4912:4921   */\n      dup6\n        /* \"#utility.yul\":4903:4910   */\n      dup8\n        /* \"#utility.yul\":4899:4922   */\n      sub\n        /* \"#utility.yul\":4895:4928   */\n      slt\n        /* \"#utility.yul\":4892:5012   */\n      iszero\n      tag_336\n      jumpi\n        /* \"#utility.yul\":4931:5010   */\n      tag_337\n      tag_207\n      jump\t// in\n    tag_337:\n        /* \"#utility.yul\":4892:5012   */\n    tag_336:\n        /* \"#utility.yul\":5051:5052   */\n      0x00\n        /* \"#utility.yul\":5076:5129   */\n      tag_338\n        /* \"#utility.yul\":5121:5128   */\n      dup8\n        /* \"#utility.yul\":5112:5118   */\n      dup3\n        /* \"#utility.yul\":5101:5110   */\n      dup9\n        /* \"#utility.yul\":5097:5119   */\n      add\n        /* \"#utility.yul\":5076:5129   */\n      tag_212\n      jump\t// in\n    tag_338:\n        /* \"#utility.yul\":5066:5129   */\n      swap5\n      pop\n        /* \"#utility.yul\":5022:5139   */\n      pop\n        /* \"#utility.yul\":5178:5180   */\n      0x20\n        /* \"#utility.yul\":5204:5256   */\n      tag_339\n        /* \"#utility.yul\":5248:5255   */\n      dup8\n        /* \"#utility.yul\":5239:5245   */\n      dup3\n        /* \"#utility.yul\":5228:5237   */\n      dup9\n        /* \"#utility.yul\":5224:5246   */\n      add\n        /* \"#utility.yul\":5204:5256   */\n      tag_217\n      jump\t// in\n    tag_339:\n        /* \"#utility.yul\":5194:5256   */\n      swap4\n      pop\n        /* \"#utility.yul\":5149:5266   */\n      pop\n        /* \"#utility.yul\":5305:5307   */\n      0x40\n        /* \"#utility.yul\":5331:5382   */\n      tag_340\n        /* \"#utility.yul\":5374:5381   */\n      dup8\n        /* \"#utility.yul\":5365:5371   */\n      dup3\n        /* \"#utility.yul\":5354:5363   */\n      dup9\n        /* \"#utility.yul\":5350:5372   */\n      add\n        /* \"#utility.yul\":5331:5382   */\n      tag_220\n      jump\t// in\n    tag_340:\n        /* \"#utility.yul\":5321:5382   */\n      swap3\n      pop\n        /* \"#utility.yul\":5276:5392   */\n      pop\n        /* \"#utility.yul\":5431:5433   */\n      0x60\n        /* \"#utility.yul\":5457:5508   */\n      tag_341\n        /* \"#utility.yul\":5500:5507   */\n      dup8\n        /* \"#utility.yul\":5491:5497   */\n      dup3\n        /* \"#utility.yul\":5480:5489   */\n      dup9\n        /* \"#utility.yul\":5476:5498   */\n      add\n        /* \"#utility.yul\":5457:5508   */\n      tag_220\n      jump\t// in\n    tag_341:\n        /* \"#utility.yul\":5447:5508   */\n      swap2\n      pop\n        /* \"#utility.yul\":5402:5518   */\n      pop\n        /* \"#utility.yul\":4770:5525   */\n      swap3\n      swap6\n      swap2\n      swap5\n      pop\n      swap3\n      pop\n      jump\t// out\n        /* \"#utility.yul\":5531:5671   */\n    tag_226:\n        /* \"#utility.yul\":5624:5630   */\n      0x00\n        /* \"#utility.yul\":5658:5663   */\n      dup2\n        /* \"#utility.yul\":5652:5664   */\n      mload\n        /* \"#utility.yul\":5642:5664   */\n      swap1\n      pop\n        /* \"#utility.yul\":5531:5671   */\n      swap2\n      swap1\n      pop\n      jump\t// out\n        /* \"#utility.yul\":5677:5887   */\n    tag_227:\n        /* \"#utility.yul\":5802:5813   */\n      0x00\n        /* \"#utility.yul\":5836:5842   */\n      dup3\n        /* \"#utility.yul\":5831:5834   */\n      dup3\n        /* \"#utility.yul\":5824:5843   */\n      mstore\n        /* \"#utility.yul\":5876:5880   */\n      0x20\n        /* \"#utility.yul\":5871:5874   */\n      dup3\n        /* \"#utility.yul\":5867:5881   */\n      add\n        /* \"#utility.yul\":5852:5881   */\n      swap1\n      pop\n        /* \"#utility.yul\":5677:5887   */\n      swap3\n      swap2\n      pop\n      pop\n      jump\t// out\n        /* \"#utility.yul\":5893:6051   */\n    tag_228:\n        /* \"#utility.yul\":5986:5990   */\n      0x00\n        /* \"#utility.yul\":6009:6012   */\n      dup2\n        /* \"#utility.yul\":6001:6012   */\n      swap1\n      pop\n        /* \"#utility.yul\":6039:6043   */\n      0x20\n        /* \"#utility.yul\":6034:6037   */\n      dup3\n        /* \"#utility.yul\":6030:6044   */\n      add\n        /* \"#utility.yul\":6022:6044   */\n      swap1\n      pop\n        /* \"#utility.yul\":5893:6051   */\n      swap2\n      swap1\n      pop\n      jump\t// out\n        /* \"#utility.yul\":6057:6165   */\n    tag_229:\n        /* \"#utility.yul\":6134:6158   */\n      tag_346\n        /* \"#utility.yul\":6152:6157   */\n      dup2\n        /* \"#utility.yul\":6134:6158   */\n      tag_210\n      jump\t// in\n    tag_346:\n        /* \"#utility.yul\":6129:6132   */\n      dup3\n        /* \"#utility.yul\":6122:6159   */\n      mstore\n        /* \"#utility.yul\":6057:6165   */\n      pop\n      pop\n      jump\t// out\n        /* \"#utility.yul\":6171:6279   */\n    tag_230:\n        /* \"#utility.yul\":6248:6272   */\n      tag_348\n        /* \"#utility.yul\":6266:6271   */\n      dup2\n        /* \"#utility.yul\":6248:6272   */\n      tag_221\n      jump\t// in\n    tag_348:\n        /* \"#utility.yul\":6243:6246   */\n      dup3\n        /* \"#utility.yul\":6236:6273   */\n      mstore\n        /* \"#utility.yul\":6171:6279   */\n      pop\n      pop\n      jump\t// out\n        /* \"#utility.yul\":6285:6384   */\n    tag_231:\n        /* \"#utility.yul\":6356:6377   */\n      tag_350\n        /* \"#utility.yul\":6371:6376   */\n      dup2\n        /* \"#utility.yul\":6356:6377   */\n      tag_213\n      jump\t// in\n    tag_350:\n        /* \"#utility.yul\":6351:6354   */\n      dup3\n        /* \"#utility.yul\":6344:6378   */\n      mstore\n        /* \"#utility.yul\":6285:6384   */\n      pop\n      pop\n      jump\t// out\n        /* \"#utility.yul\":6462:7147   */\n    tag_232:\n        /* \"#utility.yul\":6601:6605   */\n      0x60\n        /* \"#utility.yul\":6596:6599   */\n      dup3\n        /* \"#utility.yul\":6592:6606   */\n      add\n        /* \"#utility.yul\":6688:6692   */\n      0x00\n        /* \"#utility.yul\":6681:6686   */\n      dup3\n        /* \"#utility.yul\":6677:6693   */\n      add\n        /* \"#utility.yul\":6671:6694   */\n      mload\n        /* \"#utility.yul\":6707:6770   */\n      tag_352\n        /* \"#utility.yul\":6764:6768   */\n      0x00\n        /* \"#utility.yul\":6759:6762   */\n      dup6\n        /* \"#utility.yul\":6755:6769   */\n      add\n        /* \"#utility.yul\":6741:6753   */\n      dup3\n        /* \"#utility.yul\":6707:6770   */\n      tag_229\n      jump\t// in\n    tag_352:\n        /* \"#utility.yul\":6616:6780   */\n      pop\n        /* \"#utility.yul\":6875:6879   */\n      0x20\n        /* \"#utility.yul\":6868:6873   */\n      dup3\n        /* \"#utility.yul\":6864:6880   */\n      add\n        /* \"#utility.yul\":6858:6881   */\n      mload\n        /* \"#utility.yul\":6894:6957   */\n      tag_353\n        /* \"#utility.yul\":6951:6955   */\n      0x20\n        /* \"#utility.yul\":6946:6949   */\n      dup6\n        /* \"#utility.yul\":6942:6956   */\n      add\n        /* \"#utility.yul\":6928:6940   */\n      dup3\n        /* \"#utility.yul\":6894:6957   */\n      tag_230\n      jump\t// in\n    tag_353:\n        /* \"#utility.yul\":6790:6967   */\n      pop\n        /* \"#utility.yul\":7054:7058   */\n      0x40\n        /* \"#utility.yul\":7047:7052   */\n      dup3\n        /* \"#utility.yul\":7043:7059   */\n      add\n        /* \"#utility.yul\":7037:7060   */\n      mload\n        /* \"#utility.yul\":7073:7130   */\n      tag_354\n        /* \"#utility.yul\":7124:7128   */\n      0x40\n        /* \"#utility.yul\":7119:7122   */\n      dup6\n        /* \"#utility.yul\":7115:7129   */\n      add\n        /* \"#utility.yul\":7101:7113   */\n      dup3\n        /* \"#utility.yul\":7073:7130   */\n      tag_231\n      jump\t// in\n    tag_354:\n        /* \"#utility.yul\":6977:7140   */\n      pop\n        /* \"#utility.yul\":6570:7147   */\n      pop\n        /* \"#utility.yul\":6462:7147   */\n      pop\n      pop\n      jump\t// out\n        /* \"#utility.yul\":7153:7436   */\n    tag_233:\n        /* \"#utility.yul\":7274:7284   */\n      0x00\n        /* \"#utility.yul\":7295:7393   */\n      tag_356\n        /* \"#utility.yul\":7389:7392   */\n      dup4\n        /* \"#utility.yul\":7381:7387   */\n      dup4\n        /* \"#utility.yul\":7295:7393   */\n      tag_232\n      jump\t// in\n    tag_356:\n        /* \"#utility.yul\":7425:7429   */\n      0x60\n        /* \"#utility.yul\":7420:7423   */\n      dup4\n        /* \"#utility.yul\":7416:7430   */\n      add\n        /* \"#utility.yul\":7402:7430   */\n      swap1\n      pop\n        /* \"#utility.yul\":7153:7436   */\n      swap3\n      swap2\n      pop\n      pop\n      jump\t// out\n        /* \"#utility.yul\":7442:7581   */\n    tag_234:\n        /* \"#utility.yul\":7538:7542   */\n      0x00\n        /* \"#utility.yul\":7570:7574   */\n      0x20\n        /* \"#utility.yul\":7565:7568   */\n      dup3\n        /* \"#utility.yul\":7561:7575   */\n      add\n        /* \"#utility.yul\":7553:7575   */\n      swap1\n      pop\n        /* \"#utility.yul\":7442:7581   */\n      swap2\n      swap1\n      pop\n      jump\t// out\n        /* \"#utility.yul\":7663:8603   */\n    tag_235:\n        /* \"#utility.yul\":7834:7837   */\n      0x00\n        /* \"#utility.yul\":7863:7943   */\n      tag_359\n        /* \"#utility.yul\":7937:7942   */\n      dup3\n        /* \"#utility.yul\":7863:7943   */\n      tag_226\n      jump\t// in\n    tag_359:\n        /* \"#utility.yul\":7959:8071   */\n      tag_360\n        /* \"#utility.yul\":8064:8070   */\n      dup2\n        /* \"#utility.yul\":8059:8062   */\n      dup6\n        /* \"#utility.yul\":7959:8071   */\n      tag_227\n      jump\t// in\n    tag_360:\n        /* \"#utility.yul\":7952:8071   */\n      swap4\n      pop\n        /* \"#utility.yul\":8095:8177   */\n      tag_361\n        /* \"#utility.yul\":8171:8176   */\n      dup4\n        /* \"#utility.yul\":8095:8177   */\n      tag_228\n      jump\t// in\n    tag_361:\n        /* \"#utility.yul\":8200:8207   */\n      dup1\n        /* \"#utility.yul\":8231:8232   */\n      0x00\n        /* \"#utility.yul\":8216:8578   */\n    tag_362:\n        /* \"#utility.yul\":8241:8247   */\n      dup4\n        /* \"#utility.yul\":8238:8239   */\n      dup2\n        /* \"#utility.yul\":8235:8248   */\n      lt\n        /* \"#utility.yul\":8216:8578   */\n      iszero\n      tag_364\n      jumpi\n        /* \"#utility.yul\":8317:8323   */\n      dup2\n        /* \"#utility.yul\":8311:8324   */\n      mload\n        /* \"#utility.yul\":8344:8459   */\n      tag_365\n        /* \"#utility.yul\":8455:8458   */\n      dup9\n        /* \"#utility.yul\":8440:8453   */\n      dup3\n        /* \"#utility.yul\":8344:8459   */\n      tag_233\n      jump\t// in\n    tag_365:\n        /* \"#utility.yul\":8337:8459   */\n      swap8\n      pop\n        /* \"#utility.yul\":8482:8568   */\n      tag_366\n        /* \"#utility.yul\":8561:8567   */\n      dup4\n        /* \"#utility.yul\":8482:8568   */\n      tag_234\n      jump\t// in\n    tag_366:\n        /* \"#utility.yul\":8472:8568   */\n      swap3\n      pop\n        /* \"#utility.yul\":8276:8578   */\n      pop\n        /* \"#utility.yul\":8263:8264   */\n      0x01\n        /* \"#utility.yul\":8260:8261   */\n      dup2\n        /* \"#utility.yul\":8256:8265   */\n      add\n        /* \"#utility.yul\":8251:8265   */\n      swap1\n      pop\n        /* \"#utility.yul\":8216:8578   */\n      jump(tag_362)\n    tag_364:\n        /* \"#utility.yul\":8220:8234   */\n      pop\n        /* \"#utility.yul\":8594:8597   */\n      dup6\n        /* \"#utility.yul\":8587:8597   */\n      swap4\n      pop\n        /* \"#utility.yul\":7839:8603   */\n      pop\n      pop\n      pop\n        /* \"#utility.yul\":7663:8603   */\n      swap3\n      swap2\n      pop\n      pop\n      jump\t// out\n        /* \"#utility.yul\":8609:9086   */\n    tag_64:\n        /* \"#utility.yul\":8804:8808   */\n      0x00\n        /* \"#utility.yul\":8842:8844   */\n      0x20\n        /* \"#utility.yul\":8831:8840   */\n      dup3\n        /* \"#utility.yul\":8827:8845   */\n      add\n        /* \"#utility.yul\":8819:8845   */\n      swap1\n      pop\n        /* \"#utility.yul\":8891:8900   */\n      dup2\n        /* \"#utility.yul\":8885:8889   */\n      dup2\n        /* \"#utility.yul\":8881:8901   */\n      sub\n        /* \"#utility.yul\":8877:8878   */\n      0x00\n        /* \"#utility.yul\":8866:8875   */\n      dup4\n        /* \"#utility.yul\":8862:8879   */\n      add\n        /* \"#utility.yul\":8855:8902   */\n      mstore\n        /* \"#utility.yul\":8919:9079   */\n      tag_368\n        /* \"#utility.yul\":9074:9078   */\n      dup2\n        /* \"#utility.yul\":9065:9071   */\n      dup5\n        /* \"#utility.yul\":8919:9079   */\n      tag_235\n      jump\t// in\n    tag_368:\n        /* \"#utility.yul\":8911:9079   */\n      swap1\n      pop\n        /* \"#utility.yul\":8609:9086   */\n      swap3\n      swap2\n      pop\n      pop\n      jump\t// out\n        /* \"#utility.yul\":9092:9272   */\n    tag_236:\n        /* \"#utility.yul\":9140:9217   */\n      0x4e487b7100000000000000000000000000000000000000000000000000000000\n        /* \"#utility.yul\":9137:9138   */\n      0x00\n        /* \"#utility.yul\":9130:9218   */\n      mstore\n        /* \"#utility.yul\":9237:9241   */\n      0x11\n        /* \"#utility.yul\":9234:9235   */\n      0x04\n        /* \"#utility.yul\":9227:9242   */\n      mstore\n        /* \"#utility.yul\":9261:9265   */\n      0x24\n        /* \"#utility.yul\":9258:9259   */\n      0x00\n        /* \"#utility.yul\":9251:9266   */\n      revert\n        /* \"#utility.yul\":9278:9472   */\n    tag_76:\n        /* \"#utility.yul\":9318:9322   */\n      0x00\n        /* \"#utility.yul\":9338:9358   */\n      tag_371\n        /* \"#utility.yul\":9356:9357   */\n      dup3\n        /* \"#utility.yul\":9338:9358   */\n      tag_221\n      jump\t// in\n    tag_371:\n        /* \"#utility.yul\":9333:9358   */\n      swap2\n      pop\n        /* \"#utility.yul\":9372:9392   */\n      tag_372\n        /* \"#utility.yul\":9390:9391   */\n      dup4\n        /* \"#utility.yul\":9372:9392   */\n      tag_221\n      jump\t// in\n    tag_372:\n        /* \"#utility.yul\":9367:9392   */\n      swap3\n      pop\n        /* \"#utility.yul\":9416:9417   */\n      dup3\n        /* \"#utility.yul\":9413:9414   */\n      dup3\n        /* \"#utility.yul\":9409:9418   */\n      sub\n        /* \"#utility.yul\":9401:9418   */\n      swap1\n      pop\n        /* \"#utility.yul\":9440:9441   */\n      dup2\n        /* \"#utility.yul\":9434:9438   */\n      dup2\n        /* \"#utility.yul\":9431:9442   */\n      gt\n        /* \"#utility.yul\":9428:9465   */\n      iszero\n      tag_373\n      jumpi\n        /* \"#utility.yul\":9445:9463   */\n      tag_374\n      tag_236\n      jump\t// in\n    tag_374:\n        /* \"#utility.yul\":9428:9465   */\n    tag_373:\n        /* \"#utility.yul\":9278:9472   */\n      swap3\n      swap2\n      pop\n      pop\n      jump\t// out\n        /* \"#utility.yul\":9478:9658   */\n    tag_79:\n        /* \"#utility.yul\":9526:9603   */\n      0x4e487b7100000000000000000000000000000000000000000000000000000000\n        /* \"#utility.yul\":9523:9524   */\n      0x00\n        /* \"#utility.yul\":9516:9604   */\n      mstore\n        /* \"#utility.yul\":9623:9627   */\n      0x32\n        /* \"#utility.yul\":9620:9621   */\n      0x04\n        /* \"#utility.yul\":9613:9628   */\n      mstore\n        /* \"#utility.yul\":9647:9651   */\n      0x24\n        /* \"#utility.yul\":9644:9645   */\n      0x00\n        /* \"#utility.yul\":9637:9652   */\n      revert\n        /* \"#utility.yul\":9664:9833   */\n    tag_237:\n        /* \"#utility.yul\":9748:9759   */\n      0x00\n        /* \"#utility.yul\":9782:9788   */\n      dup3\n        /* \"#utility.yul\":9777:9780   */\n      dup3\n        /* \"#utility.yul\":9770:9789   */\n      mstore\n        /* \"#utility.yul\":9822:9826   */\n      0x20\n        /* \"#utility.yul\":9817:9820   */\n      dup3\n        /* \"#utility.yul\":9813:9827   */\n      add\n        /* \"#utility.yul\":9798:9827   */\n      swap1\n      pop\n        /* \"#utility.yul\":9664:9833   */\n      swap3\n      swap2\n      pop\n      pop\n      jump\t// out\n        /* \"#utility.yul\":9839:10060   */\n    tag_238:\n        /* \"#utility.yul\":9979:10013   */\n      0x4269727468646179476966743a2079656172206d757374206265203e3d203139\n        /* \"#utility.yul\":9975:9976   */\n      0x00\n        /* \"#utility.yul\":9967:9973   */\n      dup3\n        /* \"#utility.yul\":9963:9977   */\n      add\n        /* \"#utility.yul\":9956:10014   */\n      mstore\n        /* \"#utility.yul\":10048:10052   */\n      0x3730000000000000000000000000000000000000000000000000000000000000\n        /* \"#utility.yul\":10043:10045   */\n      0x20\n        /* \"#utility.yul\":10035:10041   */\n      dup3\n        /* \"#utility.yul\":10031:10046   */\n      add\n        /* \"#utility.yul\":10024:10053   */\n      mstore\n        /* \"#utility.yul\":9839:10060   */\n      pop\n      jump\t// out\n        /* \"#utility.yul\":10066:10432   */\n    tag_239:\n        /* \"#utility.yul\":10208:10211   */\n      0x00\n        /* \"#utility.yul\":10229:10296   */\n      tag_379\n        /* \"#utility.yul\":10293:10295   */\n      0x22\n        /* \"#utility.yul\":10288:10291   */\n      dup4\n        /* \"#utility.yul\":10229:10296   */\n      tag_237\n      jump\t// in\n    tag_379:\n        /* \"#utility.yul\":10222:10296   */\n      swap2\n      pop\n        /* \"#utility.yul\":10305:10398   */\n      tag_380\n        /* \"#utility.yul\":10394:10397   */\n      dup3\n        /* \"#utility.yul\":10305:10398   */\n      tag_238\n      jump\t// in\n    tag_380:\n        /* \"#utility.yul\":10423:10425   */\n      0x40\n        /* \"#utility.yul\":10418:10421   */\n      dup3\n        /* \"#utility.yul\":10414:10426   */\n      add\n        /* \"#utility.yul\":10407:10426   */\n      swap1\n      pop\n        /* \"#utility.yul\":10066:10432   */\n      swap2\n      swap1\n      pop\n      jump\t// out\n        /* \"#utility.yul\":10438:10857   */\n    tag_86:\n        /* \"#utility.yul\":10604:10608   */\n      0x00\n        /* \"#utility.yul\":10642:10644   */\n      0x20\n        /* \"#utility.yul\":10631:10640   */\n      dup3\n        /* \"#utility.yul\":10627:10645   */\n      add\n        /* \"#utility.yul\":10619:10645   */\n      swap1\n      pop\n        /* \"#utility.yul\":10691:10700   */\n      dup2\n        /* \"#utility.yul\":10685:10689   */\n      dup2\n        /* \"#utility.yul\":10681:10701   */\n      sub\n        /* \"#utility.yul\":10677:10678   */\n      0x00\n        /* \"#utility.yul\":10666:10675   */\n      dup4\n        /* \"#utility.yul\":10662:10679   */\n      add\n        /* \"#utility.yul\":10655:10702   */\n      mstore\n        /* \"#utility.yul\":10719:10850   */\n      tag_382\n        /* \"#utility.yul\":10845:10849   */\n      dup2\n        /* \"#utility.yul\":10719:10850   */\n      tag_239\n      jump\t// in\n    tag_382:\n        /* \"#utility.yul\":10711:10850   */\n      swap1\n      pop\n        /* \"#utility.yul\":10438:10857   */\n      swap2\n      swap1\n      pop\n      jump\t// out\n        /* \"#utility.yul\":10863:11040   */\n    tag_240:\n        /* \"#utility.yul\":11003:11032   */\n      0x4269727468646179476966743a20696e76616c6964206d6f6e74680000000000\n        /* \"#utility.yul\":10999:11000   */\n      0x00\n        /* \"#utility.yul\":10991:10997   */\n      dup3\n        /* \"#utility.yul\":10987:11001   */\n      add\n        /* \"#utility.yul\":10980:11033   */\n      mstore\n        /* \"#utility.yul\":10863:11040   */\n      pop\n      jump\t// out\n        /* \"#utility.yul\":11046:11412   */\n    tag_241:\n        /* \"#utility.yul\":11188:11191   */\n      0x00\n        /* \"#utility.yul\":11209:11276   */\n      tag_385\n        /* \"#utility.yul\":11273:11275   */\n      0x1b\n        /* \"#utility.yul\":11268:11271   */\n      dup4\n        /* \"#utility.yul\":11209:11276   */\n      tag_237\n      jump\t// in\n    tag_385:\n        /* \"#utility.yul\":11202:11276   */\n      swap2\n      pop\n        /* \"#utility.yul\":11285:11378   */\n      tag_386\n        /* \"#utility.yul\":11374:11377   */\n      dup3\n        /* \"#utility.yul\":11285:11378   */\n      tag_240\n      jump\t// in\n    tag_386:\n        /* \"#utility.yul\":11403:11405   */\n      0x20\n        /* \"#utility.yul\":11398:11401   */\n      dup3\n        /* \"#utility.yul\":11394:11406   */\n      add\n        /* \"#utility.yul\":11387:11406   */\n      swap1\n      pop\n        /* \"#utility.yul\":11046:11412   */\n      swap2\n      swap1\n      pop\n      jump\t// out\n        /* \"#utility.yul\":11418:11837   */\n    tag_90:\n        /* \"#utility.yul\":11584:11588   */\n      0x00\n        /* \"#utility.yul\":11622:11624   */\n      0x20\n        /* \"#utility.yul\":11611:11620   */\n      dup3\n        /* \"#utility.yul\":11607:11625   */\n      add\n        /* \"#utility.yul\":11599:11625   */\n      swap1\n      pop\n        /* \"#utility.yul\":11671:11680   */\n      dup2\n        /* \"#utility.yul\":11665:11669   */\n      dup2\n        /* \"#utility.yul\":11661:11681   */\n      sub\n        /* \"#utility.yul\":11657:11658   */\n      0x00\n        /* \"#utility.yul\":11646:11655   */\n      dup4\n        /* \"#utility.yul\":11642:11659   */\n      add\n        /* \"#utility.yul\":11635:11682   */\n      mstore\n        /* \"#utility.yul\":11699:11830   */\n      tag_388\n        /* \"#utility.yul\":11825:11829   */\n      dup2\n        /* \"#utility.yul\":11699:11830   */\n      tag_241\n      jump\t// in\n    tag_388:\n        /* \"#utility.yul\":11691:11830   */\n      swap1\n      pop\n        /* \"#utility.yul\":11418:11837   */\n      swap2\n      swap1\n      pop\n      jump\t// out\n        /* \"#utility.yul\":11843:12018   */\n    tag_242:\n        /* \"#utility.yul\":11983:12010   */\n      0x4269727468646179476966743a20696e76616c69642064617900000000000000\n        /* \"#utility.yul\":11979:11980   */\n      0x00\n        /* \"#utility.yul\":11971:11977   */\n      dup3\n        /* \"#utility.yul\":11967:11981   */\n      add\n        /* \"#utility.yul\":11960:12011   */\n      mstore\n        /* \"#utility.yul\":11843:12018   */\n      pop\n      jump\t// out\n        /* \"#utility.yul\":12024:12390   */\n    tag_243:\n        /* \"#utility.yul\":12166:12169   */\n      0x00\n        /* \"#utility.yul\":12187:12254   */\n      tag_391\n        /* \"#utility.yul\":12251:12253   */\n      0x19\n        /* \"#utility.yul\":12246:12249   */\n      dup4\n        /* \"#utility.yul\":12187:12254   */\n      tag_237\n      jump\t// in\n    tag_391:\n        /* \"#utility.yul\":12180:12254   */\n      swap2\n      pop\n        /* \"#utility.yul\":12263:12356   */\n      tag_392\n        /* \"#utility.yul\":12352:12355   */\n      dup3\n        /* \"#utility.yul\":12263:12356   */\n      tag_242\n      jump\t// in\n    tag_392:\n        /* \"#utility.yul\":12381:12383   */\n      0x20\n        /* \"#utility.yul\":12376:12379   */\n      dup3\n        /* \"#utility.yul\":12372:12384   */\n      add\n        /* \"#utility.yul\":12365:12384   */\n      swap1\n      pop\n        /* \"#utility.yul\":12024:12390   */\n      swap2\n      swap1\n      pop\n      jump\t// out\n        /* \"#utility.yul\":12396:12815   */\n    tag_94:\n        /* \"#utility.yul\":12562:12566   */\n      0x00\n        /* \"#utility.yul\":12600:12602   */\n      0x20\n        /* \"#utility.yul\":12589:12598   */\n      dup3\n        /* \"#utility.yul\":12585:12603   */\n      add\n        /* \"#utility.yul\":12577:12603   */\n      swap1\n      pop\n        /* \"#utility.yul\":12649:12658   */\n      dup2\n        /* \"#utility.yul\":12643:12647   */\n      dup2\n        /* \"#utility.yul\":12639:12659   */\n      sub\n        /* \"#utility.yul\":12635:12636   */\n      0x00\n        /* \"#utility.yul\":12624:12633   */\n      dup4\n        /* \"#utility.yul\":12620:12637   */\n      add\n        /* \"#utility.yul\":12613:12660   */\n      mstore\n        /* \"#utility.yul\":12677:12808   */\n      tag_394\n        /* \"#utility.yul\":12803:12807   */\n      dup2\n        /* \"#utility.yul\":12677:12808   */\n      tag_243\n      jump\t// in\n    tag_394:\n        /* \"#utility.yul\":12669:12808   */\n      swap1\n      pop\n        /* \"#utility.yul\":12396:12815   */\n      swap2\n      swap1\n      pop\n      jump\t// out\n        /* \"#utility.yul\":12821:12897   */\n    tag_244:\n        /* \"#utility.yul\":12857:12864   */\n      0x00\n        /* \"#utility.yul\":12886:12891   */\n      dup2\n        /* \"#utility.yul\":12875:12891   */\n      swap1\n      pop\n        /* \"#utility.yul\":12821:12897   */\n      swap2\n      swap1\n      pop\n      jump\t// out\n        /* \"#utility.yul\":12903:13275   */\n    tag_96:\n        /* \"#utility.yul\":12942:12946   */\n      0x00\n        /* \"#utility.yul\":12962:12981   */\n      tag_397\n        /* \"#utility.yul\":12979:12980   */\n      dup3\n        /* \"#utility.yul\":12962:12981   */\n      tag_244\n      jump\t// in\n    tag_397:\n        /* \"#utility.yul\":12957:12981   */\n      swap2\n      pop\n        /* \"#utility.yul\":12995:13014   */\n      tag_398\n        /* \"#utility.yul\":13012:13013   */\n      dup4\n        /* \"#utility.yul\":12995:13014   */\n      tag_244\n      jump\t// in\n    tag_398:\n        /* \"#utility.yul\":12990:13014   */\n      swap3\n      pop\n        /* \"#utility.yul\":13038:13039   */\n      dup3\n        /* \"#utility.yul\":13035:13036   */\n      dup3\n        /* \"#utility.yul\":13031:13040   */\n      sub\n        /* \"#utility.yul\":13023:13040   */\n      swap1\n      pop\n        /* \"#utility.yul\":13232:13233   */\n      dup2\n        /* \"#utility.yul\":13226:13230   */\n      dup2\n        /* \"#utility.yul\":13222:13234   */\n      slt\n        /* \"#utility.yul\":13218:13219   */\n      0x00\n        /* \"#utility.yul\":13215:13216   */\n      dup5\n        /* \"#utility.yul\":13211:13220   */\n      slt\n        /* \"#utility.yul\":13207:13235   */\n      and\n        /* \"#utility.yul\":13190:13191   */\n      dup3\n        /* \"#utility.yul\":13184:13188   */\n      dup3\n        /* \"#utility.yul\":13180:13192   */\n      sgt\n        /* \"#utility.yul\":13175:13176   */\n      0x00\n        /* \"#utility.yul\":13172:13173   */\n      dup6\n        /* \"#utility.yul\":13168:13177   */\n      slt\n        /* \"#utility.yul\":13161:13178   */\n      iszero\n        /* \"#utility.yul\":13157:13193   */\n      and\n        /* \"#utility.yul\":13141:13245   */\n      or\n        /* \"#utility.yul\":13138:13268   */\n      iszero\n      tag_399\n      jumpi\n        /* \"#utility.yul\":13248:13266   */\n      tag_400\n      tag_236\n      jump\t// in\n    tag_400:\n        /* \"#utility.yul\":13138:13268   */\n    tag_399:\n        /* \"#utility.yul\":12903:13275   */\n      swap3\n      swap2\n      pop\n      pop\n      jump\t// out\n        /* \"#utility.yul\":13281:13461   */\n    tag_245:\n        /* \"#utility.yul\":13329:13406   */\n      0x4e487b7100000000000000000000000000000000000000000000000000000000\n        /* \"#utility.yul\":13326:13327   */\n      0x00\n        /* \"#utility.yul\":13319:13407   */\n      mstore\n        /* \"#utility.yul\":13426:13430   */\n      0x12\n        /* \"#utility.yul\":13423:13424   */\n      0x04\n        /* \"#utility.yul\":13416:13431   */\n      mstore\n        /* \"#utility.yul\":13450:13454   */\n      0x24\n        /* \"#utility.yul\":13447:13448   */\n      0x00\n        /* \"#utility.yul\":13440:13455   */\n      revert\n        /* \"#utility.yul\":13467:13852   */\n    tag_98:\n        /* \"#utility.yul\":13506:13507   */\n      0x00\n        /* \"#utility.yul\":13523:13542   */\n      tag_403\n        /* \"#utility.yul\":13540:13541   */\n      dup3\n        /* \"#utility.yul\":13523:13542   */\n      tag_244\n      jump\t// in\n    tag_403:\n        /* \"#utility.yul\":13518:13542   */\n      swap2\n      pop\n        /* \"#utility.yul\":13556:13575   */\n      tag_404\n        /* \"#utility.yul\":13573:13574   */\n      dup4\n        /* \"#utility.yul\":13556:13575   */\n      tag_244\n      jump\t// in\n    tag_404:\n        /* \"#utility.yul\":13551:13575   */\n      swap3\n      pop\n        /* \"#utility.yul\":13594:13595   */\n      dup3\n        /* \"#utility.yul\":13584:13619   */\n      tag_405\n      jumpi\n        /* \"#utility.yul\":13599:13617   */\n      tag_406\n      tag_245\n      jump\t// in\n    tag_406:\n        /* \"#utility.yul\":13584:13619   */\n    tag_405:\n        /* \"#utility.yul\":13785:13786   */\n      0x01\n        /* \"#utility.yul\":13782:13783   */\n      0x00\n        /* \"#utility.yul\":13778:13787   */\n      sub\n        /* \"#utility.yul\":13775:13776   */\n      dup4\n        /* \"#utility.yul\":13772:13788   */\n      eq\n        /* \"#utility.yul\":13691:13757   */\n      0x8000000000000000000000000000000000000000000000000000000000000000\n        /* \"#utility.yul\":13688:13689   */\n      dup4\n        /* \"#utility.yul\":13685:13758   */\n      eq\n        /* \"#utility.yul\":13668:13798   */\n      and\n        /* \"#utility.yul\":13665:13821   */\n      iszero\n      tag_407\n      jumpi\n        /* \"#utility.yul\":13801:13819   */\n      tag_408\n      tag_236\n      jump\t// in\n    tag_408:\n        /* \"#utility.yul\":13665:13821   */\n    tag_407:\n        /* \"#utility.yul\":13844:13845   */\n      dup3\n        /* \"#utility.yul\":13841:13842   */\n      dup3\n        /* \"#utility.yul\":13836:13846   */\n      sdiv\n        /* \"#utility.yul\":13831:13846   */\n      swap1\n      pop\n        /* \"#utility.yul\":13467:13852   */\n      swap3\n      swap2\n      pop\n      pop\n      jump\t// out\n        /* \"#utility.yul\":13858:14233   */\n    tag_100:\n        /* \"#utility.yul\":13897:13900   */\n      0x00\n        /* \"#utility.yul\":13916:13935   */\n      tag_410\n        /* \"#utility.yul\":13933:13934   */\n      dup3\n        /* \"#utility.yul\":13916:13935   */\n      tag_244\n      jump\t// in\n    tag_410:\n        /* \"#utility.yul\":13911:13935   */\n      swap2\n      pop\n        /* \"#utility.yul\":13949:13968   */\n      tag_411\n        /* \"#utility.yul\":13966:13967   */\n      dup4\n        /* \"#utility.yul\":13949:13968   */\n      tag_244\n      jump\t// in\n    tag_411:\n        /* \"#utility.yul\":13944:13968   */\n      swap3\n      pop\n        /* \"#utility.yul\":13991:13992   */\n      dup3\n        /* \"#utility.yul\":13988:13989   */\n      dup3\n        /* \"#utility.yul\":13984:13993   */\n      add\n        /* \"#utility.yul\":13977:13993   */\n      swap1\n      pop\n        /* \"#utility.yul\":14189:14190   */\n      dup3\n        /* \"#utility.yul\":14184:14187   */\n      dup2\n        /* \"#utility.yul\":14180:14191   */\n      slt\n        /* \"#utility.yul\":14173:14192   */\n      iszero\n        /* \"#utility.yul\":14169:14170   */\n      0x00\n        /* \"#utility.yul\":14166:14167   */\n      dup4\n        /* \"#utility.yul\":14162:14171   */\n      slt\n        /* \"#utility.yul\":14158:14193   */\n      and\n        /* \"#utility.yul\":14141:14142   */\n      dup4\n        /* \"#utility.yul\":14136:14139   */\n      dup3\n        /* \"#utility.yul\":14132:14143   */\n      slt\n        /* \"#utility.yul\":14127:14128   */\n      0x00\n        /* \"#utility.yul\":14124:14125   */\n      dup5\n        /* \"#utility.yul\":14120:14129   */\n      slt\n        /* \"#utility.yul\":14113:14130   */\n      iszero\n        /* \"#utility.yul\":14109:14144   */\n      and\n        /* \"#utility.yul\":14093:14203   */\n      or\n        /* \"#utility.yul\":14090:14226   */\n      iszero\n      tag_412\n      jumpi\n        /* \"#utility.yul\":14206:14224   */\n      tag_413\n      tag_236\n      jump\t// in\n    tag_413:\n        /* \"#utility.yul\":14090:14226   */\n    tag_412:\n        /* \"#utility.yul\":13858:14233   */\n      swap3\n      swap2\n      pop\n      pop\n      jump\t// out\n        /* \"#utility.yul\":14239:14795   */\n    tag_104:\n        /* \"#utility.yul\":14278:14285   */\n      0x00\n        /* \"#utility.yul\":14301:14320   */\n      tag_415\n        /* \"#utility.yul\":14318:14319   */\n      dup3\n        /* \"#utility.yul\":14301:14320   */\n      tag_244\n      jump\t// in\n    tag_415:\n        /* \"#utility.yul\":14296:14320   */\n      swap2\n      pop\n        /* \"#utility.yul\":14334:14353   */\n      tag_416\n        /* \"#utility.yul\":14351:14352   */\n      dup4\n        /* \"#utility.yul\":14334:14353   */\n      tag_244\n      jump\t// in\n    tag_416:\n        /* \"#utility.yul\":14329:14353   */\n      swap3\n      pop\n        /* \"#utility.yul\":14388:14389   */\n      dup3\n        /* \"#utility.yul\":14385:14386   */\n      dup3\n        /* \"#utility.yul\":14381:14390   */\n      mul\n        /* \"#utility.yul\":14410:14439   */\n      tag_417\n        /* \"#utility.yul\":14427:14438   */\n      dup2\n        /* \"#utility.yul\":14410:14439   */\n      tag_244\n      jump\t// in\n    tag_417:\n        /* \"#utility.yul\":14399:14439   */\n      swap2\n      pop\n        /* \"#utility.yul\":14497:14563   */\n      0x8000000000000000000000000000000000000000000000000000000000000000\n        /* \"#utility.yul\":14494:14495   */\n      dup5\n        /* \"#utility.yul\":14491:14564   */\n      eq\n        /* \"#utility.yul\":14487:14488   */\n      0x00\n        /* \"#utility.yul\":14484:14485   */\n      dup5\n        /* \"#utility.yul\":14480:14489   */\n      slt\n        /* \"#utility.yul\":14476:14565   */\n      and\n        /* \"#utility.yul\":14473:14588   */\n      iszero\n      tag_418\n      jumpi\n        /* \"#utility.yul\":14568:14586   */\n      tag_419\n      tag_236\n      jump\t// in\n    tag_419:\n        /* \"#utility.yul\":14473:14588   */\n    tag_418:\n        /* \"#utility.yul\":14738:14739   */\n      dup3\n        /* \"#utility.yul\":14729:14736   */\n      dup3\n        /* \"#utility.yul\":14724:14740   */\n      sdiv\n        /* \"#utility.yul\":14721:14722   */\n      dup5\n        /* \"#utility.yul\":14718:14741   */\n      eq\n        /* \"#utility.yul\":14698:14699   */\n      dup4\n        /* \"#utility.yul\":14691:14700   */\n      iszero\n        /* \"#utility.yul\":14671:14755   */\n      or\n        /* \"#utility.yul\":14648:14788   */\n      tag_420\n      jumpi\n        /* \"#utility.yul\":14768:14786   */\n      tag_421\n      tag_236\n      jump\t// in\n    tag_421:\n        /* \"#utility.yul\":14648:14788   */\n    tag_420:\n        /* \"#utility.yul\":14286:14795   */\n      pop\n        /* \"#utility.yul\":14239:14795   */\n      swap3\n      swap2\n      pop\n      pop\n      jump\t// out\n        /* \"#utility.yul\":14801:15211   */\n    tag_125:\n        /* \"#utility.yul\":14841:14848   */\n      0x00\n        /* \"#utility.yul\":14864:14884   */\n      tag_423\n        /* \"#utility.yul\":14882:14883   */\n      dup3\n        /* \"#utility.yul\":14864:14884   */\n      tag_221\n      jump\t// in\n    tag_423:\n        /* \"#utility.yul\":14859:14884   */\n      swap2\n      pop\n        /* \"#utility.yul\":14898:14918   */\n      tag_424\n        /* \"#utility.yul\":14916:14917   */\n      dup4\n        /* \"#utility.yul\":14898:14918   */\n      tag_221\n      jump\t// in\n    tag_424:\n        /* \"#utility.yul\":14893:14918   */\n      swap3\n      pop\n        /* \"#utility.yul\":14953:14954   */\n      dup3\n        /* \"#utility.yul\":14950:14951   */\n      dup3\n        /* \"#utility.yul\":14946:14955   */\n      mul\n        /* \"#utility.yul\":14975:15005   */\n      tag_425\n        /* \"#utility.yul\":14993:15004   */\n      dup2\n        /* \"#utility.yul\":14975:15005   */\n      tag_221\n      jump\t// in\n    tag_425:\n        /* \"#utility.yul\":14964:15005   */\n      swap2\n      pop\n        /* \"#utility.yul\":15154:15155   */\n      dup3\n        /* \"#utility.yul\":15145:15152   */\n      dup3\n        /* \"#utility.yul\":15141:15156   */\n      div\n        /* \"#utility.yul\":15138:15139   */\n      dup5\n        /* \"#utility.yul\":15135:15157   */\n      eq\n        /* \"#utility.yul\":15115:15116   */\n      dup4\n        /* \"#utility.yul\":15108:15117   */\n      iszero\n        /* \"#utility.yul\":15088:15171   */\n      or\n        /* \"#utility.yul\":15065:15204   */\n      tag_426\n      jumpi\n        /* \"#utility.yul\":15184:15202   */\n      tag_427\n      tag_236\n      jump\t// in\n    tag_427:\n        /* \"#utility.yul\":15065:15204   */\n    tag_426:\n        /* \"#utility.yul\":14849:15211   */\n      pop\n        /* \"#utility.yul\":14801:15211   */\n      swap3\n      swap2\n      pop\n      pop\n      jump\t// out\n        /* \"#utility.yul\":15217:15444   */\n    tag_246:\n        /* \"#utility.yul\":15357:15391   */\n      0x4269727468646179476966743a2063616c6c6572206973206e6f742061206772\n        /* \"#utility.yul\":15353:15354   */\n      0x00\n        /* \"#utility.yul\":15345:15351   */\n      dup3\n        /* \"#utility.yul\":15341:15355   */\n      add\n        /* \"#utility.yul\":15334:15392   */\n      mstore\n        /* \"#utility.yul\":15426:15436   */\n      0x616e646368696c64000000000000000000000000000000000000000000000000\n        /* \"#utility.yul\":15421:15423   */\n      0x20\n        /* \"#utility.yul\":15413:15419   */\n      dup3\n        /* \"#utility.yul\":15409:15424   */\n      add\n        /* \"#utility.yul\":15402:15437   */\n      mstore\n        /* \"#utility.yul\":15217:15444   */\n      pop\n      jump\t// out\n        /* \"#utility.yul\":15450:15816   */\n    tag_247:\n        /* \"#utility.yul\":15592:15595   */\n      0x00\n        /* \"#utility.yul\":15613:15680   */\n      tag_430\n        /* \"#utility.yul\":15677:15679   */\n      0x28\n        /* \"#utility.yul\":15672:15675   */\n      dup4\n        /* \"#utility.yul\":15613:15680   */\n      tag_237\n      jump\t// in\n    tag_430:\n        /* \"#utility.yul\":15606:15680   */\n      swap2\n      pop\n        /* \"#utility.yul\":15689:15782   */\n      tag_431\n        /* \"#utility.yul\":15778:15781   */\n      dup3\n        /* \"#utility.yul\":15689:15782   */\n      tag_246\n      jump\t// in\n    tag_431:\n        /* \"#utility.yul\":15807:15809   */\n      0x40\n        /* \"#utility.yul\":15802:15805   */\n      dup3\n        /* \"#utility.yul\":15798:15810   */\n      add\n        /* \"#utility.yul\":15791:15810   */\n      swap1\n      pop\n        /* \"#utility.yul\":15450:15816   */\n      swap2\n      swap1\n      pop\n      jump\t// out\n        /* \"#utility.yul\":15822:16241   */\n    tag_129:\n        /* \"#utility.yul\":15988:15992   */\n      0x00\n        /* \"#utility.yul\":16026:16028   */\n      0x20\n        /* \"#utility.yul\":16015:16024   */\n      dup3\n        /* \"#utility.yul\":16011:16029   */\n      add\n        /* \"#utility.yul\":16003:16029   */\n      swap1\n      pop\n        /* \"#utility.yul\":16075:16084   */\n      dup2\n        /* \"#utility.yul\":16069:16073   */\n      dup2\n        /* \"#utility.yul\":16065:16085   */\n      sub\n        /* \"#utility.yul\":16061:16062   */\n      0x00\n        /* \"#utility.yul\":16050:16059   */\n      dup4\n        /* \"#utility.yul\":16046:16063   */\n      add\n        /* \"#utility.yul\":16039:16086   */\n      mstore\n        /* \"#utility.yul\":16103:16234   */\n      tag_433\n        /* \"#utility.yul\":16229:16233   */\n      dup2\n        /* \"#utility.yul\":16103:16234   */\n      tag_247\n      jump\t// in\n    tag_433:\n        /* \"#utility.yul\":16095:16234   */\n      swap1\n      pop\n        /* \"#utility.yul\":15822:16241   */\n      swap2\n      swap1\n      pop\n      jump\t// out\n        /* \"#utility.yul\":16247:16470   */\n    tag_248:\n        /* \"#utility.yul\":16387:16421   */\n      0x4269727468646179476966743a206e6f2066756e6473206465706f7369746564\n        /* \"#utility.yul\":16383:16384   */\n      0x00\n        /* \"#utility.yul\":16375:16381   */\n      dup3\n        /* \"#utility.yul\":16371:16385   */\n      add\n        /* \"#utility.yul\":16364:16422   */\n      mstore\n        /* \"#utility.yul\":16456:16462   */\n      0x2079657400000000000000000000000000000000000000000000000000000000\n        /* \"#utility.yul\":16451:16453   */\n      0x20\n        /* \"#utility.yul\":16443:16449   */\n      dup3\n        /* \"#utility.yul\":16439:16454   */\n      add\n        /* \"#utility.yul\":16432:16463   */\n      mstore\n        /* \"#utility.yul\":16247:16470   */\n      pop\n      jump\t// out\n        /* \"#utility.yul\":16476:16842   */\n    tag_249:\n        /* \"#utility.yul\":16618:16621   */\n      0x00\n        /* \"#utility.yul\":16639:16706   */\n      tag_436\n        /* \"#utility.yul\":16703:16705   */\n      0x24\n        /* \"#utility.yul\":16698:16701   */\n      dup4\n        /* \"#utility.yul\":16639:16706   */\n      tag_237\n      jump\t// in\n    tag_436:\n        /* \"#utility.yul\":16632:16706   */\n      swap2\n      pop\n        /* \"#utility.yul\":16715:16808   */\n      tag_437\n        /* \"#utility.yul\":16804:16807   */\n      dup3\n        /* \"#utility.yul\":16715:16808   */\n      tag_248\n      jump\t// in\n    tag_437:\n        /* \"#utility.yul\":16833:16835   */\n      0x40\n        /* \"#utility.yul\":16828:16831   */\n      dup3\n        /* \"#utility.yul\":16824:16836   */\n      add\n        /* \"#utility.yul\":16817:16836   */\n      swap1\n      pop\n        /* \"#utility.yul\":16476:16842   */\n      swap2\n      swap1\n      pop\n      jump\t// out\n        /* \"#utility.yul\":16848:17267   */\n    tag_133:\n        /* \"#utility.yul\":17014:17018   */\n      0x00\n        /* \"#utility.yul\":17052:17054   */\n      0x20\n        /* \"#utility.yul\":17041:17050   */\n      dup3\n        /* \"#utility.yul\":17037:17055   */\n      add\n        /* \"#utility.yul\":17029:17055   */\n      swap1\n      pop\n        /* \"#utility.yul\":17101:17110   */\n      dup2\n        /* \"#utility.yul\":17095:17099   */\n      dup2\n        /* \"#utility.yul\":17091:17111   */\n      sub\n        /* \"#utility.yul\":17087:17088   */\n      0x00\n        /* \"#utility.yul\":17076:17085   */\n      dup4\n        /* \"#utility.yul\":17072:17089   */\n      add\n        /* \"#utility.yul\":17065:17112   */\n      mstore\n        /* \"#utility.yul\":17129:17260   */\n      tag_439\n        /* \"#utility.yul\":17255:17259   */\n      dup2\n        /* \"#utility.yul\":17129:17260   */\n      tag_249\n      jump\t// in\n    tag_439:\n        /* \"#utility.yul\":17121:17260   */\n      swap1\n      pop\n        /* \"#utility.yul\":16848:17267   */\n      swap2\n      swap1\n      pop\n      jump\t// out\n        /* \"#utility.yul\":17273:17499   */\n    tag_250:\n        /* \"#utility.yul\":17413:17447   */\n      0x4269727468646179476966743a20626972746864617920686173206e6f742063\n        /* \"#utility.yul\":17409:17410   */\n      0x00\n        /* \"#utility.yul\":17401:17407   */\n      dup3\n        /* \"#utility.yul\":17397:17411   */\n      add\n        /* \"#utility.yul\":17390:17448   */\n      mstore\n        /* \"#utility.yul\":17482:17491   */\n      0x6f6d652079657400000000000000000000000000000000000000000000000000\n        /* \"#utility.yul\":17477:17479   */\n      0x20\n        /* \"#utility.yul\":17469:17475   */\n      dup3\n        /* \"#utility.yul\":17465:17480   */\n      add\n        /* \"#utility.yul\":17458:17492   */\n      mstore\n        /* \"#utility.yul\":17273:17499   */\n      pop\n      jump\t// out\n        /* \"#utility.yul\":17505:17871   */\n    tag_251:\n        /* \"#utility.yul\":17647:17650   */\n      0x00\n        /* \"#utility.yul\":17668:17735   */\n      tag_442\n        /* \"#utility.yul\":17732:17734   */\n      0x27\n        /* \"#utility.yul\":17727:17730   */\n      dup4\n        /* \"#utility.yul\":17668:17735   */\n      tag_237\n      jump\t// in\n    tag_442:\n        /* \"#utility.yul\":17661:17735   */\n      swap2\n      pop\n        /* \"#utility.yul\":17744:17837   */\n      tag_443\n        /* \"#utility.yul\":17833:17836   */\n      dup3\n        /* \"#utility.yul\":17744:17837   */\n      tag_250\n      jump\t// in\n    tag_443:\n        /* \"#utility.yul\":17862:17864   */\n      0x40\n        /* \"#utility.yul\":17857:17860   */\n      dup3\n        /* \"#utility.yul\":17853:17865   */\n      add\n        /* \"#utility.yul\":17846:17865   */\n      swap1\n      pop\n        /* \"#utility.yul\":17505:17871   */\n      swap2\n      swap1\n      pop\n      jump\t// out\n        /* \"#utility.yul\":17877:18296   */\n    tag_140:\n        /* \"#utility.yul\":18043:18047   */\n      0x00\n        /* \"#utility.yul\":18081:18083   */\n      0x20\n        /* \"#utility.yul\":18070:18079   */\n      dup3\n        /* \"#utility.yul\":18066:18084   */\n      add\n        /* \"#utility.yul\":18058:18084   */\n      swap1\n      pop\n        /* \"#utility.yul\":18130:18139   */\n      dup2\n        /* \"#utility.yul\":18124:18128   */\n      dup2\n        /* \"#utility.yul\":18120:18140   */\n      sub\n        /* \"#utility.yul\":18116:18117   */\n      0x00\n        /* \"#utility.yul\":18105:18114   */\n      dup4\n        /* \"#utility.yul\":18101:18118   */\n      add\n        /* \"#utility.yul\":18094:18141   */\n      mstore\n        /* \"#utility.yul\":18158:18289   */\n      tag_445\n        /* \"#utility.yul\":18284:18288   */\n      dup2\n        /* \"#utility.yul\":18158:18289   */\n      tag_251\n      jump\t// in\n    tag_445:\n        /* \"#utility.yul\":18150:18289   */\n      swap1\n      pop\n        /* \"#utility.yul\":17877:18296   */\n      swap2\n      swap1\n      pop\n      jump\t// out\n        /* \"#utility.yul\":18302:18525   */\n    tag_252:\n        /* \"#utility.yul\":18442:18476   */\n      0x4269727468646179476966743a206769667420616c7265616479207769746864\n        /* \"#utility.yul\":18438:18439   */\n      0x00\n        /* \"#utility.yul\":18430:18436   */\n      dup3\n        /* \"#utility.yul\":18426:18440   */\n      add\n        /* \"#utility.yul\":18419:18477   */\n      mstore\n        /* \"#utility.yul\":18511:18517   */\n      0x7261776e00000000000000000000000000000000000000000000000000000000\n        /* \"#utility.yul\":18506:18508   */\n      0x20\n        /* \"#utility.yul\":18498:18504   */\n      dup3\n        /* \"#utility.yul\":18494:18509   */\n      add\n        /* \"#utility.yul\":18487:18518   */\n      mstore\n        /* \"#utility.yul\":18302:18525   */\n      pop\n      jump\t// out\n        /* \"#utility.yul\":18531:18897   */\n    tag_253:\n        /* \"#utility.yul\":18673:18676   */\n      0x00\n        /* \"#utility.yul\":18694:18761   */\n      tag_448\n        /* \"#utility.yul\":18758:18760   */\n      0x24\n        /* \"#utility.yul\":18753:18756   */\n      dup4\n        /* \"#utility.yul\":18694:18761   */\n      tag_237\n      jump\t// in\n    tag_448:\n        /* \"#utility.yul\":18687:18761   */\n      swap2\n      pop\n        /* \"#utility.yul\":18770:18863   */\n      tag_449\n        /* \"#utility.yul\":18859:18862   */\n      dup3\n        /* \"#utility.yul\":18770:18863   */\n      tag_252\n      jump\t// in\n    tag_449:\n        /* \"#utility.yul\":18888:18890   */\n      0x40\n        /* \"#utility.yul\":18883:18886   */\n      dup3\n        /* \"#utility.yul\":18879:18891   */\n      add\n        /* \"#utility.yul\":18872:18891   */\n      swap1\n      pop\n        /* \"#utility.yul\":18531:18897   */\n      swap2\n      swap1\n      pop\n      jump\t// out\n        /* \"#utility.yul\":18903:19322   */\n    tag_143:\n        /* \"#utility.yul\":19069:19073   */\n      0x00\n        /* \"#utility.yul\":19107:19109   */\n      0x20\n        /* \"#utility.yul\":19096:19105   */\n      dup3\n        /* \"#utility.yul\":19092:19110   */\n      add\n        /* \"#utility.yul\":19084:19110   */\n      swap1\n      pop\n        /* \"#utility.yul\":19156:19165   */\n      dup2\n        /* \"#utility.yul\":19150:19154   */\n      dup2\n        /* \"#utility.yul\":19146:19166   */\n      sub\n        /* \"#utility.yul\":19142:19143   */\n      0x00\n        /* \"#utility.yul\":19131:19140   */\n      dup4\n        /* \"#utility.yul\":19127:19144   */\n      add\n        /* \"#utility.yul\":19120:19167   */\n      mstore\n        /* \"#utility.yul\":19184:19315   */\n      tag_451\n        /* \"#utility.yul\":19310:19314   */\n      dup2\n        /* \"#utility.yul\":19184:19315   */\n      tag_253\n      jump\t// in\n    tag_451:\n        /* \"#utility.yul\":19176:19315   */\n      swap1\n      pop\n        /* \"#utility.yul\":18903:19322   */\n      swap2\n      swap1\n      pop\n      jump\t// out\n        /* \"#utility.yul\":19328:19513   */\n    tag_145:\n        /* \"#utility.yul\":19368:19369   */\n      0x00\n        /* \"#utility.yul\":19385:19405   */\n      tag_453\n        /* \"#utility.yul\":19403:19404   */\n      dup3\n        /* \"#utility.yul\":19385:19405   */\n      tag_221\n      jump\t// in\n    tag_453:\n        /* \"#utility.yul\":19380:19405   */\n      swap2\n      pop\n        /* \"#utility.yul\":19419:19439   */\n      tag_454\n        /* \"#utility.yul\":19437:19438   */\n      dup4\n        /* \"#utility.yul\":19419:19439   */\n      tag_221\n      jump\t// in\n    tag_454:\n        /* \"#utility.yul\":19414:19439   */\n      swap3\n      pop\n        /* \"#utility.yul\":19458:19459   */\n      dup3\n        /* \"#utility.yul\":19448:19483   */\n      tag_455\n      jumpi\n        /* \"#utility.yul\":19463:19481   */\n      tag_456\n      tag_245\n      jump\t// in\n    tag_456:\n        /* \"#utility.yul\":19448:19483   */\n    tag_455:\n        /* \"#utility.yul\":19505:19506   */\n      dup3\n        /* \"#utility.yul\":19502:19503   */\n      dup3\n        /* \"#utility.yul\":19498:19507   */\n      div\n        /* \"#utility.yul\":19493:19507   */\n      swap1\n      pop\n        /* \"#utility.yul\":19328:19513   */\n      swap3\n      swap2\n      pop\n      pop\n      jump\t// out\n        /* \"#utility.yul\":19519:19699   */\n    tag_254:\n        /* \"#utility.yul\":19659:19691   */\n      0x4269727468646179476966743a206e6f742061206772616e646368696c640000\n        /* \"#utility.yul\":19655:19656   */\n      0x00\n        /* \"#utility.yul\":19647:19653   */\n      dup3\n        /* \"#utility.yul\":19643:19657   */\n      add\n        /* \"#utility.yul\":19636:19692   */\n      mstore\n        /* \"#utility.yul\":19519:19699   */\n      pop\n      jump\t// out\n        /* \"#utility.yul\":19705:20071   */\n    tag_255:\n        /* \"#utility.yul\":19847:19850   */\n      0x00\n        /* \"#utility.yul\":19868:19935   */\n      tag_459\n        /* \"#utility.yul\":19932:19934   */\n      0x1e\n        /* \"#utility.yul\":19927:19930   */\n      dup4\n        /* \"#utility.yul\":19868:19935   */\n      tag_237\n      jump\t// in\n    tag_459:\n        /* \"#utility.yul\":19861:19935   */\n      swap2\n      pop\n        /* \"#utility.yul\":19944:20037   */\n      tag_460\n        /* \"#utility.yul\":20033:20036   */\n      dup3\n        /* \"#utility.yul\":19944:20037   */\n      tag_254\n      jump\t// in\n    tag_460:\n        /* \"#utility.yul\":20062:20064   */\n      0x20\n        /* \"#utility.yul\":20057:20060   */\n      dup3\n        /* \"#utility.yul\":20053:20065   */\n      add\n        /* \"#utility.yul\":20046:20065   */\n      swap1\n      pop\n        /* \"#utility.yul\":19705:20071   */\n      swap2\n      swap1\n      pop\n      jump\t// out\n        /* \"#utility.yul\":20077:20496   */\n    tag_154:\n        /* \"#utility.yul\":20243:20247   */\n      0x00\n        /* \"#utility.yul\":20281:20283   */\n      0x20\n        /* \"#utility.yul\":20270:20279   */\n      dup3\n        /* \"#utility.yul\":20266:20284   */\n      add\n        /* \"#utility.yul\":20258:20284   */\n      swap1\n      pop\n        /* \"#utility.yul\":20330:20339   */\n      dup2\n        /* \"#utility.yul\":20324:20328   */\n      dup2\n        /* \"#utility.yul\":20320:20340   */\n      sub\n        /* \"#utility.yul\":20316:20317   */\n      0x00\n        /* \"#utility.yul\":20305:20314   */\n      dup4\n        /* \"#utility.yul\":20301:20318   */\n      add\n        /* \"#utility.yul\":20294:20341   */\n      mstore\n        /* \"#utility.yul\":20358:20489   */\n      tag_462\n        /* \"#utility.yul\":20484:20488   */\n      dup2\n        /* \"#utility.yul\":20358:20489   */\n      tag_255\n      jump\t// in\n    tag_462:\n        /* \"#utility.yul\":20350:20489   */\n      swap1\n      pop\n        /* \"#utility.yul\":20077:20496   */\n      swap2\n      swap1\n      pop\n      jump\t// out\n        /* \"#utility.yul\":20502:20722   */\n    tag_256:\n        /* \"#utility.yul\":20642:20676   */\n      0x4269727468646179476966743a2063616c6c6572206973206e6f74206f776e65\n        /* \"#utility.yul\":20638:20639   */\n      0x00\n        /* \"#utility.yul\":20630:20636   */\n      dup3\n        /* \"#utility.yul\":20626:20640   */\n      add\n        /* \"#utility.yul\":20619:20677   */\n      mstore\n        /* \"#utility.yul\":20711:20714   */\n      0x7200000000000000000000000000000000000000000000000000000000000000\n        /* \"#utility.yul\":20706:20708   */\n      0x20\n        /* \"#utility.yul\":20698:20704   */\n      dup3\n        /* \"#utility.yul\":20694:20709   */\n      add\n        /* \"#utility.yul\":20687:20715   */\n      mstore\n        /* \"#utility.yul\":20502:20722   */\n      pop\n      jump\t// out\n        /* \"#utility.yul\":20728:21094   */\n    tag_257:\n        /* \"#utility.yul\":20870:20873   */\n      0x00\n        /* \"#utility.yul\":20891:20958   */\n      tag_465\n        /* \"#utility.yul\":20955:20957   */\n      0x21\n        /* \"#utility.yul\":20950:20953   */\n      dup4\n        /* \"#utility.yul\":20891:20958   */\n      tag_237\n      jump\t// in\n    tag_465:\n        /* \"#utility.yul\":20884:20958   */\n      swap2\n      pop\n        /* \"#utility.yul\":20967:21060   */\n      tag_466\n        /* \"#utility.yul\":21056:21059   */\n      dup3\n        /* \"#utility.yul\":20967:21060   */\n      tag_256\n      jump\t// in\n    tag_466:\n        /* \"#utility.yul\":21085:21087   */\n      0x40\n        /* \"#utility.yul\":21080:21083   */\n      dup3\n        /* \"#utility.yul\":21076:21088   */\n      add\n        /* \"#utility.yul\":21069:21088   */\n      swap1\n      pop\n        /* \"#utility.yul\":20728:21094   */\n      swap2\n      swap1\n      pop\n      jump\t// out\n        /* \"#utility.yul\":21100:21519   */\n    tag_168:\n        /* \"#utility.yul\":21266:21270   */\n      0x00\n        /* \"#utility.yul\":21304:21306   */\n      0x20\n        /* \"#utility.yul\":21293:21302   */\n      dup3\n        /* \"#utility.yul\":21289:21307   */\n      add\n        /* \"#utility.yul\":21281:21307   */\n      swap1\n      pop\n        /* \"#utility.yul\":21353:21362   */\n      dup2\n        /* \"#utility.yul\":21347:21351   */\n      dup2\n        /* \"#utility.yul\":21343:21363   */\n      sub\n        /* \"#utility.yul\":21339:21340   */\n      0x00\n        /* \"#utility.yul\":21328:21337   */\n      dup4\n        /* \"#utility.yul\":21324:21341   */\n      add\n        /* \"#utility.yul\":21317:21364   */\n      mstore\n        /* \"#utility.yul\":21381:21512   */\n      tag_468\n        /* \"#utility.yul\":21507:21511   */\n      dup2\n        /* \"#utility.yul\":21381:21512   */\n      tag_257\n      jump\t// in\n    tag_468:\n        /* \"#utility.yul\":21373:21512   */\n      swap1\n      pop\n        /* \"#utility.yul\":21100:21519   */\n      swap2\n      swap1\n      pop\n      jump\t// out\n        /* \"#utility.yul\":21525:21761   */\n    tag_258:\n        /* \"#utility.yul\":21665:21699   */\n      0x4269727468646179476966743a2063616e6e6f7420616464206772616e646368\n        /* \"#utility.yul\":21661:21662   */\n      0x00\n        /* \"#utility.yul\":21653:21659   */\n      dup3\n        /* \"#utility.yul\":21649:21663   */\n      add\n        /* \"#utility.yul\":21642:21700   */\n      mstore\n        /* \"#utility.yul\":21734:21753   */\n      0x696c64206166746572206465706f736974000000000000000000000000000000\n        /* \"#utility.yul\":21729:21731   */\n      0x20\n        /* \"#utility.yul\":21721:21727   */\n      dup3\n        /* \"#utility.yul\":21717:21732   */\n      add\n        /* \"#utility.yul\":21710:21754   */\n      mstore\n        /* \"#utility.yul\":21525:21761   */\n      pop\n      jump\t// out\n        /* \"#utility.yul\":21767:22133   */\n    tag_259:\n        /* \"#utility.yul\":21909:21912   */\n      0x00\n        /* \"#utility.yul\":21930:21997   */\n      tag_471\n        /* \"#utility.yul\":21994:21996   */\n      0x31\n        /* \"#utility.yul\":21989:21992   */\n      dup4\n        /* \"#utility.yul\":21930:21997   */\n      tag_237\n      jump\t// in\n    tag_471:\n        /* \"#utility.yul\":21923:21997   */\n      swap2\n      pop\n        /* \"#utility.yul\":22006:22099   */\n      tag_472\n        /* \"#utility.yul\":22095:22098   */\n      dup3\n        /* \"#utility.yul\":22006:22099   */\n      tag_258\n      jump\t// in\n    tag_472:\n        /* \"#utility.yul\":22124:22126   */\n      0x40\n        /* \"#utility.yul\":22119:22122   */\n      dup3\n        /* \"#utility.yul\":22115:22127   */\n      add\n        /* \"#utility.yul\":22108:22127   */\n      swap1\n      pop\n        /* \"#utility.yul\":21767:22133   */\n      swap2\n      swap1\n      pop\n      jump\t// out\n        /* \"#utility.yul\":22139:22558   */\n    tag_172:\n        /* \"#utility.yul\":22305:22309   */\n      0x00\n        /* \"#utility.yul\":22343:22345   */\n      0x20\n        /* \"#utility.yul\":22332:22341   */\n      dup3\n        /* \"#utility.yul\":22328:22346   */\n      add\n        /* \"#utility.yul\":22320:22346   */\n      swap1\n      pop\n        /* \"#utility.yul\":22392:22401   */\n      dup2\n        /* \"#utility.yul\":22386:22390   */\n      dup2\n        /* \"#utility.yul\":22382:22402   */\n      sub\n        /* \"#utility.yul\":22378:22379   */\n      0x00\n        /* \"#utility.yul\":22367:22376   */\n      dup4\n        /* \"#utility.yul\":22363:22380   */\n      add\n        /* \"#utility.yul\":22356:22403   */\n      mstore\n        /* \"#utility.yul\":22420:22551   */\n      tag_474\n        /* \"#utility.yul\":22546:22550   */\n      dup2\n        /* \"#utility.yul\":22420:22551   */\n      tag_259\n      jump\t// in\n    tag_474:\n        /* \"#utility.yul\":22412:22551   */\n      swap1\n      pop\n        /* \"#utility.yul\":22139:22558   */\n      swap2\n      swap1\n      pop\n      jump\t// out\n        /* \"#utility.yul\":22564:22740   */\n    tag_260:\n        /* \"#utility.yul\":22704:22732   */\n      0x4269727468646179476966743a207a65726f2061646472657373000000000000\n        /* \"#utility.yul\":22700:22701   */\n      0x00\n        /* \"#utility.yul\":22692:22698   */\n      dup3\n        /* \"#utility.yul\":22688:22702   */\n      add\n        /* \"#utility.yul\":22681:22733   */\n      mstore\n        /* \"#utility.yul\":22564:22740   */\n      pop\n      jump\t// out\n        /* \"#utility.yul\":22746:23112   */\n    tag_261:\n        /* \"#utility.yul\":22888:22891   */\n      0x00\n        /* \"#utility.yul\":22909:22976   */\n      tag_477\n        /* \"#utility.yul\":22973:22975   */\n      0x1a\n        /* \"#utility.yul\":22968:22971   */\n      dup4\n        /* \"#utility.yul\":22909:22976   */\n      tag_237\n      jump\t// in\n    tag_477:\n        /* \"#utility.yul\":22902:22976   */\n      swap2\n      pop\n        /* \"#utility.yul\":22985:23078   */\n      tag_478\n        /* \"#utility.yul\":23074:23077   */\n      dup3\n        /* \"#utility.yul\":22985:23078   */\n      tag_260\n      jump\t// in\n    tag_478:\n        /* \"#utility.yul\":23103:23105   */\n      0x20\n        /* \"#utility.yul\":23098:23101   */\n      dup3\n        /* \"#utility.yul\":23094:23106   */\n      add\n        /* \"#utility.yul\":23087:23106   */\n      swap1\n      pop\n        /* \"#utility.yul\":22746:23112   */\n      swap2\n      swap1\n      pop\n      jump\t// out\n        /* \"#utility.yul\":23118:23537   */\n    tag_175:\n        /* \"#utility.yul\":23284:23288   */\n      0x00\n        /* \"#utility.yul\":23322:23324   */\n      0x20\n        /* \"#utility.yul\":23311:23320   */\n      dup3\n        /* \"#utility.yul\":23307:23325   */\n      add\n        /* \"#utility.yul\":23299:23325   */\n      swap1\n      pop\n        /* \"#utility.yul\":23371:23380   */\n      dup2\n        /* \"#utility.yul\":23365:23369   */\n      dup2\n        /* \"#utility.yul\":23361:23381   */\n      sub\n        /* \"#utility.yul\":23357:23358   */\n      0x00\n        /* \"#utility.yul\":23346:23355   */\n      dup4\n        /* \"#utility.yul\":23342:23359   */\n      add\n        /* \"#utility.yul\":23335:23382   */\n      mstore\n        /* \"#utility.yul\":23399:23530   */\n      tag_480\n        /* \"#utility.yul\":23525:23529   */\n      dup2\n        /* \"#utility.yul\":23399:23530   */\n      tag_261\n      jump\t// in\n    tag_480:\n        /* \"#utility.yul\":23391:23530   */\n      swap1\n      pop\n        /* \"#utility.yul\":23118:23537   */\n      swap2\n      swap1\n      pop\n      jump\t// out\n        /* \"#utility.yul\":23543:23720   */\n    tag_262:\n        /* \"#utility.yul\":23683:23712   */\n      0x4269727468646179476966743a20616c72656164792061646465640000000000\n        /* \"#utility.yul\":23679:23680   */\n      0x00\n        /* \"#utility.yul\":23671:23677   */\n      dup3\n        /* \"#utility.yul\":23667:23681   */\n      add\n        /* \"#utility.yul\":23660:23713   */\n      mstore\n        /* \"#utility.yul\":23543:23720   */\n      pop\n      jump\t// out\n        /* \"#utility.yul\":23726:24092   */\n    tag_263:\n        /* \"#utility.yul\":23868:23871   */\n      0x00\n        /* \"#utility.yul\":23889:23956   */\n      tag_483\n        /* \"#utility.yul\":23953:23955   */\n      0x1b\n        /* \"#utility.yul\":23948:23951   */\n      dup4\n        /* \"#utility.yul\":23889:23956   */\n      tag_237\n      jump\t// in\n    tag_483:\n        /* \"#utility.yul\":23882:23956   */\n      swap2\n      pop\n        /* \"#utility.yul\":23965:24058   */\n      tag_484\n        /* \"#utility.yul\":24054:24057   */\n      dup3\n        /* \"#utility.yul\":23965:24058   */\n      tag_262\n      jump\t// in\n    tag_484:\n        /* \"#utility.yul\":24083:24085   */\n      0x20\n        /* \"#utility.yul\":24078:24081   */\n      dup3\n        /* \"#utility.yul\":24074:24086   */\n      add\n        /* \"#utility.yul\":24067:24086   */\n      swap1\n      pop\n        /* \"#utility.yul\":23726:24092   */\n      swap2\n      swap1\n      pop\n      jump\t// out\n        /* \"#utility.yul\":24098:24517   */\n    tag_178:\n        /* \"#utility.yul\":24264:24268   */\n      0x00\n        /* \"#utility.yul\":24302:24304   */\n      0x20\n        /* \"#utility.yul\":24291:24300   */\n      dup3\n        /* \"#utility.yul\":24287:24305   */\n      add\n        /* \"#utility.yul\":24279:24305   */\n      swap1\n      pop\n        /* \"#utility.yul\":24351:24360   */\n      dup2\n        /* \"#utility.yul\":24345:24349   */\n      dup2\n        /* \"#utility.yul\":24341:24361   */\n      sub\n        /* \"#utility.yul\":24337:24338   */\n      0x00\n        /* \"#utility.yul\":24326:24335   */\n      dup4\n        /* \"#utility.yul\":24322:24339   */\n      add\n        /* \"#utility.yul\":24315:24362   */\n      mstore\n        /* \"#utility.yul\":24379:24510   */\n      tag_486\n        /* \"#utility.yul\":24505:24509   */\n      dup2\n        /* \"#utility.yul\":24379:24510   */\n      tag_263\n      jump\t// in\n    tag_486:\n        /* \"#utility.yul\":24371:24510   */\n      swap1\n      pop\n        /* \"#utility.yul\":24098:24517   */\n      swap2\n      swap1\n      pop\n      jump\t// out\n        /* \"#utility.yul\":24523:24638   */\n    tag_264:\n        /* \"#utility.yul\":24608:24631   */\n      tag_488\n        /* \"#utility.yul\":24625:24630   */\n      dup2\n        /* \"#utility.yul\":24608:24631   */\n      tag_215\n      jump\t// in\n    tag_488:\n        /* \"#utility.yul\":24603:24606   */\n      dup3\n        /* \"#utility.yul\":24596:24632   */\n      mstore\n        /* \"#utility.yul\":24523:24638   */\n      pop\n      pop\n      jump\t// out\n        /* \"#utility.yul\":24644:24756   */\n    tag_265:\n        /* \"#utility.yul\":24727:24749   */\n      tag_490\n        /* \"#utility.yul\":24743:24748   */\n      dup2\n        /* \"#utility.yul\":24727:24749   */\n      tag_218\n      jump\t// in\n    tag_490:\n        /* \"#utility.yul\":24722:24725   */\n      dup3\n        /* \"#utility.yul\":24715:24750   */\n      mstore\n        /* \"#utility.yul\":24644:24756   */\n      pop\n      pop\n      jump\t// out\n        /* \"#utility.yul\":24762:25295   */\n    tag_182:\n        /* \"#utility.yul\":24929:24933   */\n      0x00\n        /* \"#utility.yul\":24967:24970   */\n      0x80\n        /* \"#utility.yul\":24956:24965   */\n      dup3\n        /* \"#utility.yul\":24952:24971   */\n      add\n        /* \"#utility.yul\":24944:24971   */\n      swap1\n      pop\n        /* \"#utility.yul\":24981:25050   */\n      tag_492\n        /* \"#utility.yul\":25047:25048   */\n      0x00\n        /* \"#utility.yul\":25036:25045   */\n      dup4\n        /* \"#utility.yul\":25032:25049   */\n      add\n        /* \"#utility.yul\":25023:25029   */\n      dup8\n        /* \"#utility.yul\":24981:25050   */\n      tag_264\n      jump\t// in\n    tag_492:\n        /* \"#utility.yul\":25060:25128   */\n      tag_493\n        /* \"#utility.yul\":25124:25126   */\n      0x20\n        /* \"#utility.yul\":25113:25122   */\n      dup4\n        /* \"#utility.yul\":25109:25127   */\n      add\n        /* \"#utility.yul\":25100:25106   */\n      dup7\n        /* \"#utility.yul\":25060:25128   */\n      tag_265\n      jump\t// in\n    tag_493:\n        /* \"#utility.yul\":25138:25206   */\n      tag_494\n        /* \"#utility.yul\":25202:25204   */\n      0x40\n        /* \"#utility.yul\":25191:25200   */\n      dup4\n        /* \"#utility.yul\":25187:25205   */\n      add\n        /* \"#utility.yul\":25178:25184   */\n      dup6\n        /* \"#utility.yul\":25138:25206   */\n      tag_265\n      jump\t// in\n    tag_494:\n        /* \"#utility.yul\":25216:25288   */\n      tag_495\n        /* \"#utility.yul\":25284:25286   */\n      0x60\n        /* \"#utility.yul\":25273:25282   */\n      dup4\n        /* \"#utility.yul\":25269:25287   */\n      add\n        /* \"#utility.yul\":25260:25266   */\n      dup5\n        /* \"#utility.yul\":25216:25288   */\n      tag_222\n      jump\t// in\n    tag_495:\n        /* \"#utility.yul\":24762:25295   */\n      swap6\n      swap5\n      pop\n      pop\n      pop\n      pop\n      pop\n      jump\t// out\n        /* \"#utility.yul\":25301:25482   */\n    tag_266:\n        /* \"#utility.yul\":25441:25474   */\n      0x4269727468646179476966743a20616c7265616479206465706f736974656400\n        /* \"#utility.yul\":25437:25438   */\n      0x00\n        /* \"#utility.yul\":25429:25435   */\n      dup3\n        /* \"#utility.yul\":25425:25439   */\n      add\n        /* \"#utility.yul\":25418:25475   */\n      mstore\n        /* \"#utility.yul\":25301:25482   */\n      pop\n      jump\t// out\n        /* \"#utility.yul\":25488:25854   */\n    tag_267:\n        /* \"#utility.yul\":25630:25633   */\n      0x00\n        /* \"#utility.yul\":25651:25718   */\n      tag_498\n        /* \"#utility.yul\":25715:25717   */\n      0x1f\n        /* \"#utility.yul\":25710:25713   */\n      dup4\n        /* \"#utility.yul\":25651:25718   */\n      tag_237\n      jump\t// in\n    tag_498:\n        /* \"#utility.yul\":25644:25718   */\n      swap2\n      pop\n        /* \"#utility.yul\":25727:25820   */\n      tag_499\n        /* \"#utility.yul\":25816:25819   */\n      dup3\n        /* \"#utility.yul\":25727:25820   */\n      tag_266\n      jump\t// in\n    tag_499:\n        /* \"#utility.yul\":25845:25847   */\n      0x20\n        /* \"#utility.yul\":25840:25843   */\n      dup3\n        /* \"#utility.yul\":25836:25848   */\n      add\n        /* \"#utility.yul\":25829:25848   */\n      swap1\n      pop\n        /* \"#utility.yul\":25488:25854   */\n      swap2\n      swap1\n      pop\n      jump\t// out\n        /* \"#utility.yul\":25860:26279   */\n    tag_189:\n        /* \"#utility.yul\":26026:26030   */\n      0x00\n        /* \"#utility.yul\":26064:26066   */\n      0x20\n        /* \"#utility.yul\":26053:26062   */\n      dup3\n        /* \"#utility.yul\":26049:26067   */\n      add\n        /* \"#utility.yul\":26041:26067   */\n      swap1\n      pop\n        /* \"#utility.yul\":26113:26122   */\n      dup2\n        /* \"#utility.yul\":26107:26111   */\n      dup2\n        /* \"#utility.yul\":26103:26123   */\n      sub\n        /* \"#utility.yul\":26099:26100   */\n      0x00\n        /* \"#utility.yul\":26088:26097   */\n      dup4\n        /* \"#utility.yul\":26084:26101   */\n      add\n        /* \"#utility.yul\":26077:26124   */\n      mstore\n        /* \"#utility.yul\":26141:26272   */\n      tag_501\n        /* \"#utility.yul\":26267:26271   */\n      dup2\n        /* \"#utility.yul\":26141:26272   */\n      tag_267\n      jump\t// in\n    tag_501:\n        /* \"#utility.yul\":26133:26272   */\n      swap1\n      pop\n        /* \"#utility.yul\":25860:26279   */\n      swap2\n      swap1\n      pop\n      jump\t// out\n        /* \"#utility.yul\":26285:26512   */\n    tag_268:\n        /* \"#utility.yul\":26425:26459   */\n      0x4269727468646179476966743a206e6f206772616e646368696c6472656e2061\n        /* \"#utility.yul\":26421:26422   */\n      0x00\n        /* \"#utility.yul\":26413:26419   */\n      dup3\n        /* \"#utility.yul\":26409:26423   */\n      add\n        /* \"#utility.yul\":26402:26460   */\n      mstore\n        /* \"#utility.yul\":26494:26504   */\n      0x6464656420796574000000000000000000000000000000000000000000000000\n        /* \"#utility.yul\":26489:26491   */\n      0x20\n        /* \"#utility.yul\":26481:26487   */\n      dup3\n        /* \"#utility.yul\":26477:26492   */\n      add\n        /* \"#utility.yul\":26470:26505   */\n      mstore\n        /* \"#utility.yul\":26285:26512   */\n      pop\n      jump\t// out\n        /* \"#utility.yul\":26518:26884   */\n    tag_269:\n        /* \"#utility.yul\":26660:26663   */\n      0x00\n        /* \"#utility.yul\":26681:26748   */\n      tag_504\n        /* \"#utility.yul\":26745:26747   */\n      0x28\n        /* \"#utility.yul\":26740:26743   */\n      dup4\n        /* \"#utility.yul\":26681:26748   */\n      tag_237\n      jump\t// in\n    tag_504:\n        /* \"#utility.yul\":26674:26748   */\n      swap2\n      pop\n        /* \"#utility.yul\":26757:26850   */\n      tag_505\n        /* \"#utility.yul\":26846:26849   */\n      dup3\n        /* \"#utility.yul\":26757:26850   */\n      tag_268\n      jump\t// in\n    tag_505:\n        /* \"#utility.yul\":26875:26877   */\n      0x40\n        /* \"#utility.yul\":26870:26873   */\n      dup3\n        /* \"#utility.yul\":26866:26878   */\n      add\n        /* \"#utility.yul\":26859:26878   */\n      swap1\n      pop\n        /* \"#utility.yul\":26518:26884   */\n      swap2\n      swap1\n      pop\n      jump\t// out\n        /* \"#utility.yul\":26890:27309   */\n    tag_192:\n        /* \"#utility.yul\":27056:27060   */\n      0x00\n        /* \"#utility.yul\":27094:27096   */\n      0x20\n        /* \"#utility.yul\":27083:27092   */\n      dup3\n        /* \"#utility.yul\":27079:27097   */\n      add\n        /* \"#utility.yul\":27071:27097   */\n      swap1\n      pop\n        /* \"#utility.yul\":27143:27152   */\n      dup2\n        /* \"#utility.yul\":27137:27141   */\n      dup2\n        /* \"#utility.yul\":27133:27153   */\n      sub\n        /* \"#utility.yul\":27129:27130   */\n      0x00\n        /* \"#utility.yul\":27118:27127   */\n      dup4\n        /* \"#utility.yul\":27114:27131   */\n      add\n        /* \"#utility.yul\":27107:27154   */\n      mstore\n        /* \"#utility.yul\":27171:27302   */\n      tag_507\n        /* \"#utility.yul\":27297:27301   */\n      dup2\n        /* \"#utility.yul\":27171:27302   */\n      tag_269\n      jump\t// in\n    tag_507:\n        /* \"#utility.yul\":27163:27302   */\n      swap1\n      pop\n        /* \"#utility.yul\":26890:27309   */\n      swap2\n      swap1\n      pop\n      jump\t// out\n        /* \"#utility.yul\":27315:27556   */\n    tag_270:\n        /* \"#utility.yul\":27455:27489   */\n      0x4269727468646179476966743a206465706f73697420616d6f756e74206d7573\n        /* \"#utility.yul\":27451:27452   */\n      0x00\n        /* \"#utility.yul\":27443:27449   */\n      dup3\n        /* \"#utility.yul\":27439:27453   */\n      add\n        /* \"#utility.yul\":27432:27490   */\n      mstore\n        /* \"#utility.yul\":27524:27548   */\n      0x742062652067726561746572207468616e207a65726f00000000000000000000\n        /* \"#utility.yul\":27519:27521   */\n      0x20\n        /* \"#utility.yul\":27511:27517   */\n      dup3\n        /* \"#utility.yul\":27507:27522   */\n      add\n        /* \"#utility.yul\":27500:27549   */\n      mstore\n        /* \"#utility.yul\":27315:27556   */\n      pop\n      jump\t// out\n        /* \"#utility.yul\":27562:27928   */\n    tag_271:\n        /* \"#utility.yul\":27704:27707   */\n      0x00\n        /* \"#utility.yul\":27725:27792   */\n      tag_510\n        /* \"#utility.yul\":27789:27791   */\n      0x36\n        /* \"#utility.yul\":27784:27787   */\n      dup4\n        /* \"#utility.yul\":27725:27792   */\n      tag_237\n      jump\t// in\n    tag_510:\n        /* \"#utility.yul\":27718:27792   */\n      swap2\n      pop\n        /* \"#utility.yul\":27801:27894   */\n      tag_511\n        /* \"#utility.yul\":27890:27893   */\n      dup3\n        /* \"#utility.yul\":27801:27894   */\n      tag_270\n      jump\t// in\n    tag_511:\n        /* \"#utility.yul\":27919:27921   */\n      0x40\n        /* \"#utility.yul\":27914:27917   */\n      dup3\n        /* \"#utility.yul\":27910:27922   */\n      add\n        /* \"#utility.yul\":27903:27922   */\n      swap1\n      pop\n        /* \"#utility.yul\":27562:27928   */\n      swap2\n      swap1\n      pop\n      jump\t// out\n        /* \"#utility.yul\":27934:28353   */\n    tag_195:\n        /* \"#utility.yul\":28100:28104   */\n      0x00\n        /* \"#utility.yul\":28138:28140   */\n      0x20\n        /* \"#utility.yul\":28127:28136   */\n      dup3\n        /* \"#utility.yul\":28123:28141   */\n      add\n        /* \"#utility.yul\":28115:28141   */\n      swap1\n      pop\n        /* \"#utility.yul\":28187:28196   */\n      dup2\n        /* \"#utility.yul\":28181:28185   */\n      dup2\n        /* \"#utility.yul\":28177:28197   */\n      sub\n        /* \"#utility.yul\":28173:28174   */\n      0x00\n        /* \"#utility.yul\":28162:28171   */\n      dup4\n        /* \"#utility.yul\":28158:28175   */\n      add\n        /* \"#utility.yul\":28151:28198   */\n      mstore\n        /* \"#utility.yul\":28215:28346   */\n      tag_513\n        /* \"#utility.yul\":28341:28345   */\n      dup2\n        /* \"#utility.yul\":28215:28346   */\n      tag_271\n      jump\t// in\n    tag_513:\n        /* \"#utility.yul\":28207:28346   */\n      swap1\n      pop\n        /* \"#utility.yul\":27934:28353   */\n      swap2\n      swap1\n      pop\n      jump\t// out\n        /* \"#utility.yul\":28359:28586   */\n    tag_272:\n        /* \"#utility.yul\":28499:28533   */\n      0x4269727468646179476966743a206465706f73697420746f6f20736d616c6c20\n        /* \"#utility.yul\":28495:28496   */\n      0x00\n        /* \"#utility.yul\":28487:28493   */\n      dup3\n        /* \"#utility.yul\":28483:28497   */\n      add\n        /* \"#utility.yul\":28476:28534   */\n      mstore\n        /* \"#utility.yul\":28568:28578   */\n      0x746f2073706c6974000000000000000000000000000000000000000000000000\n        /* \"#utility.yul\":28563:28565   */\n      0x20\n        /* \"#utility.yul\":28555:28561   */\n      dup3\n        /* \"#utility.yul\":28551:28566   */\n      add\n        /* \"#utility.yul\":28544:28579   */\n      mstore\n        /* \"#utility.yul\":28359:28586   */\n      pop\n      jump\t// out\n        /* \"#utility.yul\":28592:28958   */\n    tag_273:\n        /* \"#utility.yul\":28734:28737   */\n      0x00\n        /* \"#utility.yul\":28755:28822   */\n      tag_516\n        /* \"#utility.yul\":28819:28821   */\n      0x28\n        /* \"#utility.yul\":28814:28817   */\n      dup4\n        /* \"#utility.yul\":28755:28822   */\n      tag_237\n      jump\t// in\n    tag_516:\n        /* \"#utility.yul\":28748:28822   */\n      swap2\n      pop\n        /* \"#utility.yul\":28831:28924   */\n      tag_517\n        /* \"#utility.yul\":28920:28923   */\n      dup3\n        /* \"#utility.yul\":28831:28924   */\n      tag_272\n      jump\t// in\n    tag_517:\n        /* \"#utility.yul\":28949:28951   */\n      0x40\n        /* \"#utility.yul\":28944:28947   */\n      dup3\n        /* \"#utility.yul\":28940:28952   */\n      add\n        /* \"#utility.yul\":28933:28952   */\n      swap1\n      pop\n        /* \"#utility.yul\":28592:28958   */\n      swap2\n      swap1\n      pop\n      jump\t// out\n        /* \"#utility.yul\":28964:29383   */\n    tag_198:\n        /* \"#utility.yul\":29130:29134   */\n      0x00\n        /* \"#utility.yul\":29168:29170   */\n      0x20\n        /* \"#utility.yul\":29157:29166   */\n      dup3\n        /* \"#utility.yul\":29153:29171   */\n      add\n        /* \"#utility.yul\":29145:29171   */\n      swap1\n      pop\n        /* \"#utility.yul\":29217:29226   */\n      dup2\n        /* \"#utility.yul\":29211:29215   */\n      dup2\n        /* \"#utility.yul\":29207:29227   */\n      sub\n        /* \"#utility.yul\":29203:29204   */\n      0x00\n        /* \"#utility.yul\":29192:29201   */\n      dup4\n        /* \"#utility.yul\":29188:29205   */\n      add\n        /* \"#utility.yul\":29181:29228   */\n      mstore\n        /* \"#utility.yul\":29245:29376   */\n      tag_519\n        /* \"#utility.yul\":29371:29375   */\n      dup2\n        /* \"#utility.yul\":29245:29376   */\n      tag_273\n      jump\t// in\n    tag_519:\n        /* \"#utility.yul\":29237:29376   */\n      swap1\n      pop\n        /* \"#utility.yul\":28964:29383   */\n      swap2\n      swap1\n      pop\n      jump\t// out\n        /* \"#utility.yul\":29389:29721   */\n    tag_201:\n        /* \"#utility.yul\":29510:29514   */\n      0x00\n        /* \"#utility.yul\":29548:29550   */\n      0x40\n        /* \"#utility.yul\":29537:29546   */\n      dup3\n        /* \"#utility.yul\":29533:29551   */\n      add\n        /* \"#utility.yul\":29525:29551   */\n      swap1\n      pop\n        /* \"#utility.yul\":29561:29632   */\n      tag_521\n        /* \"#utility.yul\":29629:29630   */\n      0x00\n        /* \"#utility.yul\":29618:29627   */\n      dup4\n        /* \"#utility.yul\":29614:29631   */\n      add\n        /* \"#utility.yul\":29605:29611   */\n      dup6\n        /* \"#utility.yul\":29561:29632   */\n      tag_222\n      jump\t// in\n    tag_521:\n        /* \"#utility.yul\":29642:29714   */\n      tag_522\n        /* \"#utility.yul\":29710:29712   */\n      0x20\n        /* \"#utility.yul\":29699:29708   */\n      dup4\n        /* \"#utility.yul\":29695:29713   */\n      add\n        /* \"#utility.yul\":29686:29692   */\n      dup5\n        /* \"#utility.yul\":29642:29714   */\n      tag_222\n      jump\t// in\n    tag_522:\n        /* \"#utility.yul\":29389:29721   */\n      swap4\n      swap3\n      pop\n      pop\n      pop\n      jump\t// out\n\n    auxdata: 0xa2646970667358221220b531b8dafce2b8a2ee6841ba7dbb04f3c18db95f19ff97fd551c2e93f836ecbb64736f6c634300081e0033\n}\n",
				"bytecode": {
					"linkReferences": {},
					"object": "6080604052348015600e575f5ffd5b50335f5f6101000a81548173ffffffffffffffffffffffffffffffffffffffff021916908373ffffffffffffffffffffffffffffffffffffffff160217905550611fc88061005b5f395ff3fe6080604052600436106100a6575f3560e01c80638da5cb5b116100635780638da5cb5b146101dc578063a3ea2f5214610206578063d0e30db01461022e578063e66050b314610238578063eef49ee314610262578063ff50abdc1461028c576100a6565b806319262d30146100aa5780631ebfa358146100e65780633ccfd60b146101225780634746eb7c1461013857806373c174461461017657806375298734146101b2575b5f5ffd5b3480156100b5575f5ffd5b506100d060048036038101906100cb91906110d4565b6102b6565b6040516100dd9190611119565b60405180910390f35b3480156100f1575f5ffd5b5061010c6004803603810190610107919061119f565b61037a565b6040516101199190611207565b60405180910390f35b34801561012d575f5ffd5b506101366105d4565b005b348015610143575f5ffd5b5061015e6004803603810190610159919061124a565b610872565b60405161016d93929190611284565b60405180910390f35b348015610181575f5ffd5b5061019c600480360381019061019791906110d4565b6108d2565b6040516101a99190611207565b60405180910390f35b3480156101bd575f5ffd5b506101c66109be565b6040516101d39190611207565b60405180910390f35b3480156101e7575f5ffd5b506101f06109ec565b6040516101fd91906112b9565b60405180910390f35b348015610211575f5ffd5b5061022c600480360381019061022791906112d2565b610a10565b005b610236610d54565b005b348015610243575f5ffd5b5061024c610f8a565b604051610259919061144b565b60405180910390f35b34801561026d575f5ffd5b5061027661105e565b6040516102839190611119565b60405180910390f35b348015610297575f5ffd5b506102a0611070565b6040516102ad9190611207565b60405180910390f35b5f5f60045f8473ffffffffffffffffffffffffffffffffffffffff1673ffffffffffffffffffffffffffffffffffffffff1681526020019081526020015f205490505f8103610308575f915050610375565b5f60036001836103189190611498565b81548110610329576103286114cb565b5b905f5260205f209060030201905060025f9054906101000a900460ff1680156103605750806002015f9054906101000a900460ff16155b8015610370575080600101544210155b925050505b919050565b5f6107b28461ffff1610156103c4576040517f08c379a00000000000000000000000000000000000000000000000000000000081526004016103bb90611578565b60405180910390fd5b60018360ff16101580156103dc5750600c8360ff1611155b61041b576040517f08c379a0000000000000000000000000000000000000000000000000000000008152600401610412906115e0565b60405180910390fd5b60018260ff16101580156104335750601f8260ff1611155b610472576040517f08c379a000000000000000000000000000000000000000000000000000000000815260040161046990611648565b60405180910390fd5b5f8461ffff1690505f8460ff1690505f8460ff1690505f62253d8c60046064600c600e876104a0919061166f565b6104aa91906116dc565b611324886104b89190611744565b6104c29190611744565b6104cc91906116dc565b60036104d89190611785565b6104e291906116dc565b600c80600c600e886104f4919061166f565b6104fe91906116dc565b6105089190611785565b600287610515919061166f565b61051f919061166f565b61016f61052c9190611785565b61053691906116dc565b6004600c600e88610547919061166f565b61055191906116dc565b6112c08961055f9190611744565b6105699190611744565b6105b56105769190611785565b61058091906116dc565b617d4b8661058e919061166f565b6105989190611744565b6105a29190611744565b6105ac919061166f565b6105b6919061166f565b905062015180816105c791906117fb565b9450505050509392505050565b5f60045f3373ffffffffffffffffffffffffffffffffffffffff1673ffffffffffffffffffffffffffffffffffffffff1681526020019081526020015f205403610653576040517f08c379a000000000000000000000000000000000000000000000000000000000815260040161064a906118ac565b60405180910390fd5b60025f9054906101000a900460ff166106a1576040517f08c379a00000000000000000000000000000000000000000000000000000000081526004016106989061193a565b60405180910390fd5b5f600160045f3373ffffffffffffffffffffffffffffffffffffffff1673ffffffffffffffffffffffffffffffffffffffff1681526020019081526020015f20546106ec9190611498565b90505f60038281548110610703576107026114cb565b5b905f5260205f20906003020190508060010154421015610758576040517f08c379a000000000000000000000000000000000000000000000000000000000815260040161074f906119c8565b60405180910390fd5b806002015f9054906101000a900460ff16156107a9576040517f08c379a00000000000000000000000000000000000000000000000000000000081526004016107a090611a56565b60405180910390fd5b6001816002015f6101000a81548160ff0219169083151502179055505f6003805490506001546107d99190611a74565b90503373ffffffffffffffffffffffffffffffffffffffff167f7084f5476618d8e60b11ef0d7d3f06914655adb8793e28ff7f018d4c76d505d5826040516108219190611207565b60405180910390a23373ffffffffffffffffffffffffffffffffffffffff166108fc8290811502906040515f60405180830381858888f1935050505015801561086c573d5f5f3e3d5ffd5b50505050565b60038181548110610881575f80fd5b905f5260205f2090600302015f91509050805f015f9054906101000a900473ffffffffffffffffffffffffffffffffffffffff1690806001015490806002015f9054906101000a900460ff16905083565b5f5f60045f8473ffffffffffffffffffffffffffffffffffffffff1673ffffffffffffffffffffffffffffffffffffffff1681526020019081526020015f205490505f8103610956576040517f08c379a000000000000000000000000000000000000000000000000000000000815260040161094d90611aee565b60405180910390fd5b5f60036001836109669190611498565b81548110610977576109766114cb565b5b905f5260205f20906003020160010154905080421061099a575f925050506109b9565b6201518042826109aa9190611498565b6109b49190611a74565b925050505b919050565b5f5f600380549050036109d3575f90506109e9565b6003805490506001546109e69190611a74565b90505b90565b5f5f9054906101000a900473ffffffffffffffffffffffffffffffffffffffff1681565b5f5f9054906101000a900473ffffffffffffffffffffffffffffffffffffffff1673ffffffffffffffffffffffffffffffffffffffff163373ffffffffffffffffffffffffffffffffffffffff1614610a9e576040517f08c379a0000000000000000000000000000000000000000000000000000000008152600401610a9590611b7c565b60405180910390fd5b60025f9054906101000a900460ff1615610aed576040517f08c379a0000000000000000000000000000000000000000000000000000000008152600401610ae490611c0a565b60405180910390fd5b5f73ffffffffffffffffffffffffffffffffffffffff168473ffffffffffffffffffffffffffffffffffffffff1603610b5b576040517f08c379a0000000000000000000000000000000000000000000000000000000008152600401610b5290611c72565b60405180910390fd5b5f60045f8673ffffffffffffffffffffffffffffffffffffffff1673ffffffffffffffffffffffffffffffffffffffff1681526020019081526020015f205414610bda576040517f08c379a0000000000000000000000000000000000000000000000000000000008152600401610bd190611cda565b60405180910390fd5b5f610be684848461037a565b9050600360405180606001604052808773ffffffffffffffffffffffffffffffffffffffff1681526020018381526020015f1515815250908060018154018082558091505060019003905f5260205f2090600302015f909190919091505f820151815f015f6101000a81548173ffffffffffffffffffffffffffffffffffffffff021916908373ffffffffffffffffffffffffffffffffffffffff160217905550602082015181600101556040820151816002015f6101000a81548160ff021916908315150217905550505060038054905060045f8773ffffffffffffffffffffffffffffffffffffffff1673ffffffffffffffffffffffffffffffffffffffff1681526020019081526020015f20819055508473ffffffffffffffffffffffffffffffffffffffff167f752f214416f79597e6deaffdad6b387948a4b6cc453f8d806265f76c47038d1b85858585604051610d459493929190611d16565b60405180910390a25050505050565b5f5f9054906101000a900473ffffffffffffffffffffffffffffffffffffffff1673ffffffffffffffffffffffffffffffffffffffff163373ffffffffffffffffffffffffffffffffffffffff1614610de2576040517f08c379a0000000000000000000000000000000000000000000000000000000008152600401610dd990611b7c565b60405180910390fd5b60025f9054906101000a900460ff1615610e31576040517f08c379a0000000000000000000000000000000000000000000000000000000008152600401610e2890611da3565b60405180910390fd5b5f60038054905011610e78576040517f08c379a0000000000000000000000000000000000000000000000000000000008152600401610e6f90611e31565b60405180910390fd5b5f3411610eba576040517f08c379a0000000000000000000000000000000000000000000000000000000008152600401610eb190611ebf565b60405180910390fd5b600380549050341015610f02576040517f08c379a0000000000000000000000000000000000000000000000000000000008152600401610ef990611f4d565b60405180910390fd5b34600181905550600160025f6101000a81548160ff0219169083151502179055505f60038054905034610f359190611a74565b90503373ffffffffffffffffffffffffffffffffffffffff167f73a19dd210f1a7f902193214c0ee91dd35ee5b4d920cba8d519eca65a7b488ca3483604051610f7f929190611f6b565b60405180910390a250565b60606003805480602002602001604051908101604052809291908181526020015f905b82821015611055578382905f5260205f2090600302016040518060600160405290815f82015f9054906101000a900473ffffffffffffffffffffffffffffffffffffffff1673ffffffffffffffffffffffffffffffffffffffff1673ffffffffffffffffffffffffffffffffffffffff16815260200160018201548152602001600282015f9054906101000a900460ff16151515158152505081526020019060010190610fad565b50505050905090565b60025f9054906101000a900460ff1681565b60015481565b5f5ffd5b5f73ffffffffffffffffffffffffffffffffffffffff82169050919050565b5f6110a38261107a565b9050919050565b6110b381611099565b81146110bd575f5ffd5b50565b5f813590506110ce816110aa565b92915050565b5f602082840312156110e9576110e8611076565b5b5f6110f6848285016110c0565b91505092915050565b5f8115159050919050565b611113816110ff565b82525050565b5f60208201905061112c5f83018461110a565b92915050565b5f61ffff82169050919050565b61114881611132565b8114611152575f5ffd5b50565b5f813590506111638161113f565b92915050565b5f60ff82169050919050565b61117e81611169565b8114611188575f5ffd5b50565b5f8135905061119981611175565b92915050565b5f5f5f606084860312156111b6576111b5611076565b5b5f6111c386828701611155565b93505060206111d48682870161118b565b92505060406111e58682870161118b565b9150509250925092565b5f819050919050565b611201816111ef565b82525050565b5f60208201905061121a5f8301846111f8565b92915050565b611229816111ef565b8114611233575f5ffd5b50565b5f8135905061124481611220565b92915050565b5f6020828403121561125f5761125e611076565b5b5f61126c84828501611236565b91505092915050565b61127e81611099565b82525050565b5f6060820190506112975f830186611275565b6112a460208301856111f8565b6112b1604083018461110a565b949350505050565b5f6020820190506112cc5f830184611275565b92915050565b5f5f5f5f608085870312156112ea576112e9611076565b5b5f6112f7878288016110c0565b945050602061130887828801611155565b93505060406113198782880161118b565b925050606061132a8782880161118b565b91505092959194509250565b5f81519050919050565b5f82825260208201905092915050565b5f819050602082019050919050565b61136881611099565b82525050565b611377816111ef565b82525050565b611386816110ff565b82525050565b606082015f8201516113a05f85018261135f565b5060208201516113b3602085018261136e565b5060408201516113c6604085018261137d565b50505050565b5f6113d7838361138c565b60608301905092915050565b5f602082019050919050565b5f6113f982611336565b6114038185611340565b935061140e83611350565b805f5b8381101561143e57815161142588826113cc565b9750611430836113e3565b925050600181019050611411565b5085935050505092915050565b5f6020820190508181035f83015261146381846113ef565b905092915050565b7f4e487b71000000000000000000000000000000000000000000000000000000005f52601160045260245ffd5b5f6114a2826111ef565b91506114ad836111ef565b92508282039050818111156114c5576114c461146b565b5b92915050565b7f4e487b71000000000000000000000000000000000000000000000000000000005f52603260045260245ffd5b5f82825260208201905092915050565b7f4269727468646179476966743a2079656172206d757374206265203e3d2031395f8201527f3730000000000000000000000000000000000000000000000000000000000000602082015250565b5f6115626022836114f8565b915061156d82611508565b604082019050919050565b5f6020820190508181035f83015261158f81611556565b9050919050565b7f4269727468646179476966743a20696e76616c6964206d6f6e746800000000005f82015250565b5f6115ca601b836114f8565b91506115d582611596565b602082019050919050565b5f6020820190508181035f8301526115f7816115be565b9050919050565b7f4269727468646179476966743a20696e76616c696420646179000000000000005f82015250565b5f6116326019836114f8565b915061163d826115fe565b602082019050919050565b5f6020820190508181035f83015261165f81611626565b9050919050565b5f819050919050565b5f61167982611666565b915061168483611666565b925082820390508181125f8412168282135f8512151617156116a9576116a861146b565b5b92915050565b7f4e487b71000000000000000000000000000000000000000000000000000000005f52601260045260245ffd5b5f6116e682611666565b91506116f183611666565b925082611701576117006116af565b5b60015f0383147f8000000000000000000000000000000000000000000000000000000000000000831416156117395761173861146b565b5b828205905092915050565b5f61174e82611666565b915061175983611666565b92508282019050828112155f8312168382125f84121516171561177f5761177e61146b565b5b92915050565b5f61178f82611666565b915061179a83611666565b92508282026117a881611666565b91507f800000000000000000000000000000000000000000000000000000000000000084145f841216156117df576117de61146b565b5b82820584148315176117f4576117f361146b565b5b5092915050565b5f611805826111ef565b9150611810836111ef565b925082820261181e816111ef565b915082820484148315176118355761183461146b565b5b5092915050565b7f4269727468646179476966743a2063616c6c6572206973206e6f7420612067725f8201527f616e646368696c64000000000000000000000000000000000000000000000000602082015250565b5f6118966028836114f8565b91506118a18261183c565b604082019050919050565b5f6020820190508181035f8301526118c38161188a565b9050919050565b7f4269727468646179476966743a206e6f2066756e6473206465706f73697465645f8201527f2079657400000000000000000000000000000000000000000000000000000000602082015250565b5f6119246024836114f8565b915061192f826118ca565b604082019050919050565b5f6020820190508181035f83015261195181611918565b9050919050565b7f4269727468646179476966743a20626972746864617920686173206e6f7420635f8201527f6f6d652079657400000000000000000000000000000000000000000000000000602082015250565b5f6119b26027836114f8565b91506119bd82611958565b604082019050919050565b5f6020820190508181035f8301526119df816119a6565b9050919050565b7f4269727468646179476966743a206769667420616c72656164792077697468645f8201527f7261776e00000000000000000000000000000000000000000000000000000000602082015250565b5f611a406024836114f8565b9150611a4b826119e6565b604082019050919050565b5f6020820190508181035f830152611a6d81611a34565b9050919050565b5f611a7e826111ef565b9150611a89836111ef565b925082611a9957611a986116af565b5b828204905092915050565b7f4269727468646179476966743a206e6f742061206772616e646368696c6400005f82015250565b5f611ad8601e836114f8565b9150611ae382611aa4565b602082019050919050565b5f6020820190508181035f830152611b0581611acc565b9050919050565b7f4269727468646179476966743a2063616c6c6572206973206e6f74206f776e655f8201527f7200000000000000000000000000000000000000000000000000000000000000602082015250565b5f611b666021836114f8565b9150611b7182611b0c565b604082019050919050565b5f6020820190508181035f830152611b9381611b5a565b9050919050565b7f4269727468646179476966743a2063616e6e6f7420616464206772616e6463685f8201527f696c64206166746572206465706f736974000000000000000000000000000000602082015250565b5f611bf46031836114f8565b9150611bff82611b9a565b604082019050919050565b5f6020820190508181035f830152611c2181611be8565b9050919050565b7f4269727468646179476966743a207a65726f20616464726573730000000000005f82015250565b5f611c5c601a836114f8565b9150611c6782611c28565b602082019050919050565b5f6020820190508181035f830152611c8981611c50565b9050919050565b7f4269727468646179476966743a20616c726561647920616464656400000000005f82015250565b5f611cc4601b836114f8565b9150611ccf82611c90565b602082019050919050565b5f6020820190508181035f830152611cf181611cb8565b9050919050565b611d0181611132565b82525050565b611d1081611169565b82525050565b5f608082019050611d295f830187611cf8565b611d366020830186611d07565b611d436040830185611d07565b611d5060608301846111f8565b95945050505050565b7f4269727468646179476966743a20616c7265616479206465706f7369746564005f82015250565b5f611d8d601f836114f8565b9150611d9882611d59565b602082019050919050565b5f6020820190508181035f830152611dba81611d81565b9050919050565b7f4269727468646179476966743a206e6f206772616e646368696c6472656e20615f8201527f6464656420796574000000000000000000000000000000000000000000000000602082015250565b5f611e1b6028836114f8565b9150611e2682611dc1565b604082019050919050565b5f6020820190508181035f830152611e4881611e0f565b9050919050565b7f4269727468646179476966743a206465706f73697420616d6f756e74206d75735f8201527f742062652067726561746572207468616e207a65726f00000000000000000000602082015250565b5f611ea96036836114f8565b9150611eb482611e4f565b604082019050919050565b5f6020820190508181035f830152611ed681611e9d565b9050919050565b7f4269727468646179476966743a206465706f73697420746f6f20736d616c6c205f8201527f746f2073706c6974000000000000000000000000000000000000000000000000602082015250565b5f611f376028836114f8565b9150611f4282611edd565b604082019050919050565b5f6020820190508181035f830152611f6481611f2b565b9050919050565b5f604082019050611f7e5f8301856111f8565b611f8b60208301846111f8565b939250505056fea2646970667358221220b531b8dafce2b8a2ee6841ba7dbb04f3c18db95f19ff97fd551c2e93f836ecbb64736f6c634300081e0033",
					"opcodes": "PUSH1 0x80 PUSH1 0x40 MSTORE CALLVALUE DUP1 ISZERO PUSH1 0xE JUMPI PUSH0 PUSH0 REVERT JUMPDEST POP CALLER PUSH0 PUSH0 PUSH2 0x100 EXP DUP2 SLOAD DUP2 PUSH20 0xFFFFFFFFFFFFFFFFFFFFFFFFFFFFFFFFFFFFFFFF MUL NOT AND SWAP1 DUP4 PUSH20 0xFFFFFFFFFFFFFFFFFFFFFFFFFFFFFFFFFFFFFFFF AND MUL OR SWAP1 SSTORE POP PUSH2 0x1FC8 DUP1 PUSH2 0x5B PUSH0 CODECOPY PUSH0 RETURN INVALID PUSH1 0x80 PUSH1 0x40 MSTORE PUSH1 0x4 CALLDATASIZE LT PUSH2 0xA6 JUMPI PUSH0 CALLDATALOAD PUSH1 0xE0 SHR DUP1 PUSH4 0x8DA5CB5B GT PUSH2 0x63 JUMPI DUP1 PUSH4 0x8DA5CB5B EQ PUSH2 0x1DC JUMPI DUP1 PUSH4 0xA3EA2F52 EQ PUSH2 0x206 JUMPI DUP1 PUSH4 0xD0E30DB0 EQ PUSH2 0x22E JUMPI DUP1 PUSH4 0xE66050B3 EQ PUSH2 0x238 JUMPI DUP1 PUSH4 0xEEF49EE3 EQ PUSH2 0x262 JUMPI DUP1 PUSH4 0xFF50ABDC EQ PUSH2 0x28C JUMPI PUSH2 0xA6 JUMP JUMPDEST DUP1 PUSH4 0x19262D30 EQ PUSH2 0xAA JUMPI DUP1 PUSH4 0x1EBFA358 EQ PUSH2 0xE6 JUMPI DUP1 PUSH4 0x3CCFD60B EQ PUSH2 0x122 JUMPI DUP1 PUSH4 0x4746EB7C EQ PUSH2 0x138 JUMPI DUP1 PUSH4 0x73C17446 EQ PUSH2 0x176 JUMPI DUP1 PUSH4 0x75298734 EQ PUSH2 0x1B2 JUMPI JUMPDEST PUSH0 PUSH0 REVERT JUMPDEST CALLVALUE DUP1 ISZERO PUSH2 0xB5 JUMPI PUSH0 PUSH0 REVERT JUMPDEST POP PUSH2 0xD0 PUSH1 0x4 DUP1 CALLDATASIZE SUB DUP2 ADD SWAP1 PUSH2 0xCB SWAP2 SWAP1 PUSH2 0x10D4 JUMP JUMPDEST PUSH2 0x2B6 JUMP JUMPDEST PUSH1 0x40 MLOAD PUSH2 0xDD SWAP2 SWAP1 PUSH2 0x1119 JUMP JUMPDEST PUSH1 0x40 MLOAD DUP1 SWAP2 SUB SWAP1 RETURN JUMPDEST CALLVALUE DUP1 ISZERO PUSH2 0xF1 JUMPI PUSH0 PUSH0 REVERT JUMPDEST POP PUSH2 0x10C PUSH1 0x4 DUP1 CALLDATASIZE SUB DUP2 ADD SWAP1 PUSH2 0x107 SWAP2 SWAP1 PUSH2 0x119F JUMP JUMPDEST PUSH2 0x37A JUMP JUMPDEST PUSH1 0x40 MLOAD PUSH2 0x119 SWAP2 SWAP1 PUSH2 0x1207 JUMP JUMPDEST PUSH1 0x40 MLOAD DUP1 SWAP2 SUB SWAP1 RETURN JUMPDEST CALLVALUE DUP1 ISZERO PUSH2 0x12D JUMPI PUSH0 PUSH0 REVERT JUMPDEST POP PUSH2 0x136 PUSH2 0x5D4 JUMP JUMPDEST STOP JUMPDEST CALLVALUE DUP1 ISZERO PUSH2 0x143 JUMPI PUSH0 PUSH0 REVERT JUMPDEST POP PUSH2 0x15E PUSH1 0x4 DUP1 CALLDATASIZE SUB DUP2 ADD SWAP1 PUSH2 0x159 SWAP2 SWAP1 PUSH2 0x124A JUMP JUMPDEST PUSH2 0x872 JUMP JUMPDEST PUSH1 0x40 MLOAD PUSH2 0x16D SWAP4 SWAP3 SWAP2 SWAP1 PUSH2 0x1284 JUMP JUMPDEST PUSH1 0x40 MLOAD DUP1 SWAP2 SUB SWAP1 RETURN JUMPDEST CALLVALUE DUP1 ISZERO PUSH2 0x181 JUMPI PUSH0 PUSH0 REVERT JUMPDEST POP PUSH2 0x19C PUSH1 0x4 DUP1 CALLDATASIZE SUB DUP2 ADD SWAP1 PUSH2 0x197 SWAP2 SWAP1 PUSH2 0x10D4 JUMP JUMPDEST PUSH2 0x8D2 JUMP JUMPDEST PUSH1 0x40 MLOAD PUSH2 0x1A9 SWAP2 SWAP1 PUSH2 0x1207 JUMP JUMPDEST PUSH1 0x40 MLOAD DUP1 SWAP2 SUB SWAP1 RETURN JUMPDEST CALLVALUE DUP1 ISZERO PUSH2 0x1BD JUMPI PUSH0 PUSH0 REVERT JUMPDEST POP PUSH2 0x1C6 PUSH2 0x9BE JUMP JUMPDEST PUSH1 0x40 MLOAD PUSH2 0x1D3 SWAP2 SWAP1 PUSH2 0x1207 JUMP JUMPDEST PUSH1 0x40 MLOAD DUP1 SWAP2 SUB SWAP1 RETURN JUMPDEST CALLVALUE DUP1 ISZERO PUSH2 0x1E7 JUMPI PUSH0 PUSH0 REVERT JUMPDEST POP PUSH2 0x1F0 PUSH2 0x9EC JUMP JUMPDEST PUSH1 0x40 MLOAD PUSH2 0x1FD SWAP2 SWAP1 PUSH2 0x12B9 JUMP JUMPDEST PUSH1 0x40 MLOAD DUP1 SWAP2 SUB SWAP1 RETURN JUMPDEST CALLVALUE DUP1 ISZERO PUSH2 0x211 JUMPI PUSH0 PUSH0 REVERT JUMPDEST POP PUSH2 0x22C PUSH1 0x4 DUP1 CALLDATASIZE SUB DUP2 ADD SWAP1 PUSH2 0x227 SWAP2 SWAP1 PUSH2 0x12D2 JUMP JUMPDEST PUSH2 0xA10 JUMP JUMPDEST STOP JUMPDEST PUSH2 0x236 PUSH2 0xD54 JUMP JUMPDEST STOP JUMPDEST CALLVALUE DUP1 ISZERO PUSH2 0x243 JUMPI PUSH0 PUSH0 REVERT JUMPDEST POP PUSH2 0x24C PUSH2 0xF8A JUMP JUMPDEST PUSH1 0x40 MLOAD PUSH2 0x259 SWAP2 SWAP1 PUSH2 0x144B JUMP JUMPDEST PUSH1 0x40 MLOAD DUP1 SWAP2 SUB SWAP1 RETURN JUMPDEST CALLVALUE DUP1 ISZERO PUSH2 0x26D JUMPI PUSH0 PUSH0 REVERT JUMPDEST POP PUSH2 0x276 PUSH2 0x105E JUMP JUMPDEST PUSH1 0x40 MLOAD PUSH2 0x283 SWAP2 SWAP1 PUSH2 0x1119 JUMP JUMPDEST PUSH1 0x40 MLOAD DUP1 SWAP2 SUB SWAP1 RETURN JUMPDEST CALLVALUE DUP1 ISZERO PUSH2 0x297 JUMPI PUSH0 PUSH0 REVERT JUMPDEST POP PUSH2 0x2A0 PUSH2 0x1070 JUMP JUMPDEST PUSH1 0x40 MLOAD PUSH2 0x2AD SWAP2 SWAP1 PUSH2 0x1207 JUMP JUMPDEST PUSH1 0x40 MLOAD DUP1 SWAP2 SUB SWAP1 RETURN JUMPDEST PUSH0 PUSH0 PUSH1 0x4 PUSH0 DUP5 PUSH20 0xFFFFFFFFFFFFFFFFFFFFFFFFFFFFFFFFFFFFFFFF AND PUSH20 0xFFFFFFFFFFFFFFFFFFFFFFFFFFFFFFFFFFFFFFFF AND DUP2 MSTORE PUSH1 0x20 ADD SWAP1 DUP2 MSTORE PUSH1 0x20 ADD PUSH0 KECCAK256 SLOAD SWAP1 POP PUSH0 DUP2 SUB PUSH2 0x308 JUMPI PUSH0 SWAP2 POP POP PUSH2 0x375 JUMP JUMPDEST PUSH0 PUSH1 0x3 PUSH1 0x1 DUP4 PUSH2 0x318 SWAP2 SWAP1 PUSH2 0x1498 JUMP JUMPDEST DUP2 SLOAD DUP2 LT PUSH2 0x329 JUMPI PUSH2 0x328 PUSH2 0x14CB JUMP JUMPDEST JUMPDEST SWAP1 PUSH0 MSTORE PUSH1 0x20 PUSH0 KECCAK256 SWAP1 PUSH1 0x3 MUL ADD SWAP1 POP PUSH1 0x2 PUSH0 SWAP1 SLOAD SWAP1 PUSH2 0x100 EXP SWAP1 DIV PUSH1 0xFF AND DUP1 ISZERO PUSH2 0x360 JUMPI POP DUP1 PUSH1 0x2 ADD PUSH0 SWAP1 SLOAD SWAP1 PUSH2 0x100 EXP SWAP1 DIV PUSH1 0xFF AND ISZERO JUMPDEST DUP1 ISZERO PUSH2 0x370 JUMPI POP DUP1 PUSH1 0x1 ADD SLOAD TIMESTAMP LT ISZERO JUMPDEST SWAP3 POP POP POP JUMPDEST SWAP2 SWAP1 POP JUMP JUMPDEST PUSH0 PUSH2 0x7B2 DUP5 PUSH2 0xFFFF AND LT ISZERO PUSH2 0x3C4 JUMPI PUSH1 0x40 MLOAD PUSH32 0x8C379A000000000000000000000000000000000000000000000000000000000 DUP2 MSTORE PUSH1 0x4 ADD PUSH2 0x3BB SWAP1 PUSH2 0x1578 JUMP JUMPDEST PUSH1 0x40 MLOAD DUP1 SWAP2 SUB SWAP1 REVERT JUMPDEST PUSH1 0x1 DUP4 PUSH1 0xFF AND LT ISZERO DUP1 ISZERO PUSH2 0x3DC JUMPI POP PUSH1 0xC DUP4 PUSH1 0xFF AND GT ISZERO JUMPDEST PUSH2 0x41B JUMPI PUSH1 0x40 MLOAD PUSH32 0x8C379A000000000000000000000000000000000000000000000000000000000 DUP2 MSTORE PUSH1 0x4 ADD PUSH2 0x412 SWAP1 PUSH2 0x15E0 JUMP JUMPDEST PUSH1 0x40 MLOAD DUP1 SWAP2 SUB SWAP1 REVERT JUMPDEST PUSH1 0x1 DUP3 PUSH1 0xFF AND LT ISZERO DUP1 ISZERO PUSH2 0x433 JUMPI POP PUSH1 0x1F DUP3 PUSH1 0xFF AND GT ISZERO JUMPDEST PUSH2 0x472 JUMPI PUSH1 0x40 MLOAD PUSH32 0x8C379A000000000000000000000000000000000000000000000000000000000 DUP2 MSTORE PUSH1 0x4 ADD PUSH2 0x469 SWAP1 PUSH2 0x1648 JUMP JUMPDEST PUSH1 0x40 MLOAD DUP1 SWAP2 SUB SWAP1 REVERT JUMPDEST PUSH0 DUP5 PUSH2 0xFFFF AND SWAP1 POP PUSH0 DUP5 PUSH1 0xFF AND SWAP1 POP PUSH0 DUP5 PUSH1 0xFF AND SWAP1 POP PUSH0 PUSH3 0x253D8C PUSH1 0x4 PUSH1 0x64 PUSH1 0xC PUSH1 0xE DUP8 PUSH2 0x4A0 SWAP2 SWAP1 PUSH2 0x166F JUMP JUMPDEST PUSH2 0x4AA SWAP2 SWAP1 PUSH2 0x16DC JUMP JUMPDEST PUSH2 0x1324 DUP9 PUSH2 0x4B8 SWAP2 SWAP1 PUSH2 0x1744 JUMP JUMPDEST PUSH2 0x4C2 SWAP2 SWAP1 PUSH2 0x1744 JUMP JUMPDEST PUSH2 0x4CC SWAP2 SWAP1 PUSH2 0x16DC JUMP JUMPDEST PUSH1 0x3 PUSH2 0x4D8 SWAP2 SWAP1 PUSH2 0x1785 JUMP JUMPDEST PUSH2 0x4E2 SWAP2 SWAP1 PUSH2 0x16DC JUMP JUMPDEST PUSH1 0xC DUP1 PUSH1 0xC PUSH1 0xE DUP9 PUSH2 0x4F4 SWAP2 SWAP1 PUSH2 0x166F JUMP JUMPDEST PUSH2 0x4FE SWAP2 SWAP1 PUSH2 0x16DC JUMP JUMPDEST PUSH2 0x508 SWAP2 SWAP1 PUSH2 0x1785 JUMP JUMPDEST PUSH1 0x2 DUP8 PUSH2 0x515 SWAP2 SWAP1 PUSH2 0x166F JUMP JUMPDEST PUSH2 0x51F SWAP2 SWAP1 PUSH2 0x166F JUMP JUMPDEST PUSH2 0x16F PUSH2 0x52C SWAP2 SWAP1 PUSH2 0x1785 JUMP JUMPDEST PUSH2 0x536 SWAP2 SWAP1 PUSH2 0x16DC JUMP JUMPDEST PUSH1 0x4 PUSH1 0xC PUSH1 0xE DUP9 PUSH2 0x547 SWAP2 SWAP1 PUSH2 0x166F JUMP JUMPDEST PUSH2 0x551 SWAP2 SWAP1 PUSH2 0x16DC JUMP JUMPDEST PUSH2 0x12C0 DUP10 PUSH2 0x55F SWAP2 SWAP1 PUSH2 0x1744 JUMP JUMPDEST PUSH2 0x569 SWAP2 SWAP1 PUSH2 0x1744 JUMP JUMPDEST PUSH2 0x5B5 PUSH2 0x576 SWAP2 SWAP1 PUSH2 0x1785 JUMP JUMPDEST PUSH2 0x580 SWAP2 SWAP1 PUSH2 0x16DC JUMP JUMPDEST PUSH2 0x7D4B DUP7 PUSH2 0x58E SWAP2 SWAP1 PUSH2 0x166F JUMP JUMPDEST PUSH2 0x598 SWAP2 SWAP1 PUSH2 0x1744 JUMP JUMPDEST PUSH2 0x5A2 SWAP2 SWAP1 PUSH2 0x1744 JUMP JUMPDEST PUSH2 0x5AC SWAP2 SWAP1 PUSH2 0x166F JUMP JUMPDEST PUSH2 0x5B6 SWAP2 SWAP1 PUSH2 0x166F JUMP JUMPDEST SWAP1 POP PUSH3 0x15180 DUP2 PUSH2 0x5C7 SWAP2 SWAP1 PUSH2 0x17FB JUMP JUMPDEST SWAP5 POP POP POP POP POP SWAP4 SWAP3 POP POP POP JUMP JUMPDEST PUSH0 PUSH1 0x4 PUSH0 CALLER PUSH20 0xFFFFFFFFFFFFFFFFFFFFFFFFFFFFFFFFFFFFFFFF AND PUSH20 0xFFFFFFFFFFFFFFFFFFFFFFFFFFFFFFFFFFFFFFFF AND DUP2 MSTORE PUSH1 0x20 ADD SWAP1 DUP2 MSTORE PUSH1 0x20 ADD PUSH0 KECCAK256 SLOAD SUB PUSH2 0x653 JUMPI PUSH1 0x40 MLOAD PUSH32 0x8C379A000000000000000000000000000000000000000000000000000000000 DUP2 MSTORE PUSH1 0x4 ADD PUSH2 0x64A SWAP1 PUSH2 0x18AC JUMP JUMPDEST PUSH1 0x40 MLOAD DUP1 SWAP2 SUB SWAP1 REVERT JUMPDEST PUSH1 0x2 PUSH0 SWAP1 SLOAD SWAP1 PUSH2 0x100 EXP SWAP1 DIV PUSH1 0xFF AND PUSH2 0x6A1 JUMPI PUSH1 0x40 MLOAD PUSH32 0x8C379A000000000000000000000000000000000000000000000000000000000 DUP2 MSTORE PUSH1 0x4 ADD PUSH2 0x698 SWAP1 PUSH2 0x193A JUMP JUMPDEST PUSH1 0x40 MLOAD DUP1 SWAP2 SUB SWAP1 REVERT JUMPDEST PUSH0 PUSH1 0x1 PUSH1 0x4 PUSH0 CALLER PUSH20 0xFFFFFFFFFFFFFFFFFFFFFFFFFFFFFFFFFFFFFFFF AND PUSH20 0xFFFFFFFFFFFFFFFFFFFFFFFFFFFFFFFFFFFFFFFF AND DUP2 MSTORE PUSH1 0x20 ADD SWAP1 DUP2 MSTORE PUSH1 0x20 ADD PUSH0 KECCAK256 SLOAD PUSH2 0x6EC SWAP2 SWAP1 PUSH2 0x1498 JUMP JUMPDEST SWAP1 POP PUSH0 PUSH1 0x3 DUP3 DUP2 SLOAD DUP2 LT PUSH2 0x703 JUMPI PUSH2 0x702 PUSH2 0x14CB JUMP JUMPDEST JUMPDEST SWAP1 PUSH0 MSTORE PUSH1 0x20 PUSH0 KECCAK256 SWAP1 PUSH1 0x3 MUL ADD SWAP1 POP DUP1 PUSH1 0x1 ADD SLOAD TIMESTAMP LT ISZERO PUSH2 0x758 JUMPI PUSH1 0x40 MLOAD PUSH32 0x8C379A000000000000000000000000000000000000000000000000000000000 DUP2 MSTORE PUSH1 0x4 ADD PUSH2 0x74F SWAP1 PUSH2 0x19C8 JUMP JUMPDEST PUSH1 0x40 MLOAD DUP1 SWAP2 SUB SWAP1 REVERT JUMPDEST DUP1 PUSH1 0x2 ADD PUSH0 SWAP1 SLOAD SWAP1 PUSH2 0x100 EXP SWAP1 DIV PUSH1 0xFF AND ISZERO PUSH2 0x7A9 JUMPI PUSH1 0x40 MLOAD PUSH32 0x8C379A000000000000000000000000000000000000000000000000000000000 DUP2 MSTORE PUSH1 0x4 ADD PUSH2 0x7A0 SWAP1 PUSH2 0x1A56 JUMP JUMPDEST PUSH1 0x40 MLOAD DUP1 SWAP2 SUB SWAP1 REVERT JUMPDEST PUSH1 0x1 DUP2 PUSH1 0x2 ADD PUSH0 PUSH2 0x100 EXP DUP2 SLOAD DUP2 PUSH1 0xFF MUL NOT AND SWAP1 DUP4 ISZERO ISZERO MUL OR SWAP1 SSTORE POP PUSH0 PUSH1 0x3 DUP1 SLOAD SWAP1 POP PUSH1 0x1 SLOAD PUSH2 0x7D9 SWAP2 SWAP1 PUSH2 0x1A74 JUMP JUMPDEST SWAP1 POP CALLER PUSH20 0xFFFFFFFFFFFFFFFFFFFFFFFFFFFFFFFFFFFFFFFF AND PUSH32 0x7084F5476618D8E60B11EF0D7D3F06914655ADB8793E28FF7F018D4C76D505D5 DUP3 PUSH1 0x40 MLOAD PUSH2 0x821 SWAP2 SWAP1 PUSH2 0x1207 JUMP JUMPDEST PUSH1 0x40 MLOAD DUP1 SWAP2 SUB SWAP1 LOG2 CALLER PUSH20 0xFFFFFFFFFFFFFFFFFFFFFFFFFFFFFFFFFFFFFFFF AND PUSH2 0x8FC DUP3 SWAP1 DUP2 ISZERO MUL SWAP1 PUSH1 0x40 MLOAD PUSH0 PUSH1 0x40 MLOAD DUP1 DUP4 SUB DUP2 DUP6 DUP9 DUP9 CALL SWAP4 POP POP POP POP ISZERO DUP1 ISZERO PUSH2 0x86C JUMPI RETURNDATASIZE PUSH0 PUSH0 RETURNDATACOPY RETURNDATASIZE PUSH0 REVERT JUMPDEST POP POP POP POP JUMP JUMPDEST PUSH1 0x3 DUP2 DUP2 SLOAD DUP2 LT PUSH2 0x881 JUMPI PUSH0 DUP1 REVERT JUMPDEST SWAP1 PUSH0 MSTORE PUSH1 0x20 PUSH0 KECCAK256 SWAP1 PUSH1 0x3 MUL ADD PUSH0 SWAP2 POP SWAP1 POP DUP1 PUSH0 ADD PUSH0 SWAP1 SLOAD SWAP1 PUSH2 0x100 EXP SWAP1 DIV PUSH20 0xFFFFFFFFFFFFFFFFFFFFFFFFFFFFFFFFFFFFFFFF AND SWAP1 DUP1 PUSH1 0x1 ADD SLOAD SWAP1 DUP1 PUSH1 0x2 ADD PUSH0 SWAP1 SLOAD SWAP1 PUSH2 0x100 EXP SWAP1 DIV PUSH1 0xFF AND SWAP1 POP DUP4 JUMP JUMPDEST PUSH0 PUSH0 PUSH1 0x4 PUSH0 DUP5 PUSH20 0xFFFFFFFFFFFFFFFFFFFFFFFFFFFFFFFFFFFFFFFF AND PUSH20 0xFFFFFFFFFFFFFFFFFFFFFFFFFFFFFFFFFFFFFFFF AND DUP2 MSTORE PUSH1 0x20 ADD SWAP1 DUP2 MSTORE PUSH1 0x20 ADD PUSH0 KECCAK256 SLOAD SWAP1 POP PUSH0 DUP2 SUB PUSH2 0x956 JUMPI PUSH1 0x40 MLOAD PUSH32 0x8C379A000000000000000000000000000000000000000000000000000000000 DUP2 MSTORE PUSH1 0x4 ADD PUSH2 0x94D SWAP1 PUSH2 0x1AEE JUMP JUMPDEST PUSH1 0x40 MLOAD DUP1 SWAP2 SUB SWAP1 REVERT JUMPDEST PUSH0 PUSH1 0x3 PUSH1 0x1 DUP4 PUSH2 0x966 SWAP2 SWAP1 PUSH2 0x1498 JUMP JUMPDEST DUP2 SLOAD DUP2 LT PUSH2 0x977 JUMPI PUSH2 0x976 PUSH2 0x14CB JUMP JUMPDEST JUMPDEST SWAP1 PUSH0 MSTORE PUSH1 0x20 PUSH0 KECCAK256 SWAP1 PUSH1 0x3 MUL ADD PUSH1 0x1 ADD SLOAD SWAP1 POP DUP1 TIMESTAMP LT PUSH2 0x99A JUMPI PUSH0 SWAP3 POP POP POP PUSH2 0x9B9 JUMP JUMPDEST PUSH3 0x15180 TIMESTAMP DUP3 PUSH2 0x9AA SWAP2 SWAP1 PUSH2 0x1498 JUMP JUMPDEST PUSH2 0x9B4 SWAP2 SWAP1 PUSH2 0x1A74 JUMP JUMPDEST SWAP3 POP POP POP JUMPDEST SWAP2 SWAP1 POP JUMP JUMPDEST PUSH0 PUSH0 PUSH1 0x3 DUP1 SLOAD SWAP1 POP SUB PUSH2 0x9D3 JUMPI PUSH0 SWAP1 POP PUSH2 0x9E9 JUMP JUMPDEST PUSH1 0x3 DUP1 SLOAD SWAP1 POP PUSH1 0x1 SLOAD PUSH2 0x9E6 SWAP2 SWAP1 PUSH2 0x1A74 JUMP JUMPDEST SWAP1 POP JUMPDEST SWAP1 JUMP JUMPDEST PUSH0 PUSH0 SWAP1 SLOAD SWAP1 PUSH2 0x100 EXP SWAP1 DIV PUSH20 0xFFFFFFFFFFFFFFFFFFFFFFFFFFFFFFFFFFFFFFFF AND DUP2 JUMP JUMPDEST PUSH0 PUSH0 SWAP1 SLOAD SWAP1 PUSH2 0x100 EXP SWAP1 DIV PUSH20 0xFFFFFFFFFFFFFFFFFFFFFFFFFFFFFFFFFFFFFFFF AND PUSH20 0xFFFFFFFFFFFFFFFFFFFFFFFFFFFFFFFFFFFFFFFF AND CALLER PUSH20 0xFFFFFFFFFFFFFFFFFFFFFFFFFFFFFFFFFFFFFFFF AND EQ PUSH2 0xA9E JUMPI PUSH1 0x40 MLOAD PUSH32 0x8C379A000000000000000000000000000000000000000000000000000000000 DUP2 MSTORE PUSH1 0x4 ADD PUSH2 0xA95 SWAP1 PUSH2 0x1B7C JUMP JUMPDEST PUSH1 0x40 MLOAD DUP1 SWAP2 SUB SWAP1 REVERT JUMPDEST PUSH1 0x2 PUSH0 SWAP1 SLOAD SWAP1 PUSH2 0x100 EXP SWAP1 DIV PUSH1 0xFF AND ISZERO PUSH2 0xAED JUMPI PUSH1 0x40 MLOAD PUSH32 0x8C379A000000000000000000000000000000000000000000000000000000000 DUP2 MSTORE PUSH1 0x4 ADD PUSH2 0xAE4 SWAP1 PUSH2 0x1C0A JUMP JUMPDEST PUSH1 0x40 MLOAD DUP1 SWAP2 SUB SWAP1 REVERT JUMPDEST PUSH0 PUSH20 0xFFFFFFFFFFFFFFFFFFFFFFFFFFFFFFFFFFFFFFFF AND DUP5 PUSH20 0xFFFFFFFFFFFFFFFFFFFFFFFFFFFFFFFFFFFFFFFF AND SUB PUSH2 0xB5B JUMPI PUSH1 0x40 MLOAD PUSH32 0x8C379A000000000000000000000000000000000000000000000000000000000 DUP2 MSTORE PUSH1 0x4 ADD PUSH2 0xB52 SWAP1 PUSH2 0x1C72 JUMP JUMPDEST PUSH1 0x40 MLOAD DUP1 SWAP2 SUB SWAP1 REVERT JUMPDEST PUSH0 PUSH1 0x4 PUSH0 DUP7 PUSH20 0xFFFFFFFFFFFFFFFFFFFFFFFFFFFFFFFFFFFFFFFF AND PUSH20 0xFFFFFFFFFFFFFFFFFFFFFFFFFFFFFFFFFFFFFFFF AND DUP2 MSTORE PUSH1 0x20 ADD SWAP1 DUP2 MSTORE PUSH1 0x20 ADD PUSH0 KECCAK256 SLOAD EQ PUSH2 0xBDA JUMPI PUSH1 0x40 MLOAD PUSH32 0x8C379A000000000000000000000000000000000000000000000000000000000 DUP2 MSTORE PUSH1 0x4 ADD PUSH2 0xBD1 SWAP1 PUSH2 0x1CDA JUMP JUMPDEST PUSH1 0x40 MLOAD DUP1 SWAP2 SUB SWAP1 REVERT JUMPDEST PUSH0 PUSH2 0xBE6 DUP5 DUP5 DUP5 PUSH2 0x37A JUMP JUMPDEST SWAP1 POP PUSH1 0x3 PUSH1 0x40 MLOAD DUP1 PUSH1 0x60 ADD PUSH1 0x40 MSTORE DUP1 DUP8 PUSH20 0xFFFFFFFFFFFFFFFFFFFFFFFFFFFFFFFFFFFFFFFF AND DUP2 MSTORE PUSH1 0x20 ADD DUP4 DUP2 MSTORE PUSH1 0x20 ADD PUSH0 ISZERO ISZERO DUP2 MSTORE POP SWAP1 DUP1 PUSH1 0x1 DUP2 SLOAD ADD DUP1 DUP3 SSTORE DUP1 SWAP2 POP POP PUSH1 0x1 SWAP1 SUB SWAP1 PUSH0 MSTORE PUSH1 0x20 PUSH0 KECCAK256 SWAP1 PUSH1 0x3 MUL ADD PUSH0 SWAP1 SWAP2 SWAP1 SWAP2 SWAP1 SWAP2 POP PUSH0 DUP3 ADD MLOAD DUP2 PUSH0 ADD PUSH0 PUSH2 0x100 EXP DUP2 SLOAD DUP2 PUSH20 0xFFFFFFFFFFFFFFFFFFFFFFFFFFFFFFFFFFFFFFFF MUL NOT AND SWAP1 DUP4 PUSH20 0xFFFFFFFFFFFFFFFFFFFFFFFFFFFFFFFFFFFFFFFF AND MUL OR SWAP1 SSTORE POP PUSH1 0x20 DUP3 ADD MLOAD DUP2 PUSH1 0x1 ADD SSTORE PUSH1 0x40 DUP3 ADD MLOAD DUP2 PUSH1 0x2 ADD PUSH0 PUSH2 0x100 EXP DUP2 SLOAD DUP2 PUSH1 0xFF MUL NOT AND SWAP1 DUP4 ISZERO ISZERO MUL OR SWAP1 SSTORE POP POP POP PUSH1 0x3 DUP1 SLOAD SWAP1 POP PUSH1 0x4 PUSH0 DUP8 PUSH20 0xFFFFFFFFFFFFFFFFFFFFFFFFFFFFFFFFFFFFFFFF AND PUSH20 0xFFFFFFFFFFFFFFFFFFFFFFFFFFFFFFFFFFFFFFFF AND DUP2 MSTORE PUSH1 0x20 ADD SWAP1 DUP2 MSTORE PUSH1 0x20 ADD PUSH0 KECCAK256 DUP2 SWAP1 SSTORE POP DUP5 PUSH20 0xFFFFFFFFFFFFFFFFFFFFFFFFFFFFFFFFFFFFFFFF AND PUSH32 0x752F214416F79597E6DEAFFDAD6B387948A4B6CC453F8D806265F76C47038D1B DUP6 DUP6 DUP6 DUP6 PUSH1 0x40 MLOAD PUSH2 0xD45 SWAP5 SWAP4 SWAP3 SWAP2 SWAP1 PUSH2 0x1D16 JUMP JUMPDEST PUSH1 0x40 MLOAD DUP1 SWAP2 SUB SWAP1 LOG2 POP POP POP POP POP JUMP JUMPDEST PUSH0 PUSH0 SWAP1 SLOAD SWAP1 PUSH2 0x100 EXP SWAP1 DIV PUSH20 0xFFFFFFFFFFFFFFFFFFFFFFFFFFFFFFFFFFFFFFFF AND PUSH20 0xFFFFFFFFFFFFFFFFFFFFFFFFFFFFFFFFFFFFFFFF AND CALLER PUSH20 0xFFFFFFFFFFFFFFFFFFFFFFFFFFFFFFFFFFFFFFFF AND EQ PUSH2 0xDE2 JUMPI PUSH1 0x40 MLOAD PUSH32 0x8C379A000000000000000000000000000000000000000000000000000000000 DUP2 MSTORE PUSH1 0x4 ADD PUSH2 0xDD9 SWAP1 PUSH2 0x1B7C JUMP JUMPDEST PUSH1 0x40 MLOAD DUP1 SWAP2 SUB SWAP1 REVERT JUMPDEST PUSH1 0x2 PUSH0 SWAP1 SLOAD SWAP1 PUSH2 0x100 EXP SWAP1 DIV PUSH1 0xFF AND ISZERO PUSH2 0xE31 JUMPI PUSH1 0x40 MLOAD PUSH32 0x8C379A000000000000000000000000000000000000000000000000000000000 DUP2 MSTORE PUSH1 0x4 ADD PUSH2 0xE28 SWAP1 PUSH2 0x1DA3 JUMP JUMPDEST PUSH1 0x40 MLOAD DUP1 SWAP2 SUB SWAP1 REVERT JUMPDEST PUSH0 PUSH1 0x3 DUP1 SLOAD SWAP1 POP GT PUSH2 0xE78 JUMPI PUSH1 0x40 MLOAD PUSH32 0x8C379A000000000000000000000000000000000000000000000000000000000 DUP2 MSTORE PUSH1 0x4 ADD PUSH2 0xE6F SWAP1 PUSH2 0x1E31 JUMP JUMPDEST PUSH1 0x40 MLOAD DUP1 SWAP2 SUB SWAP1 REVERT JUMPDEST PUSH0 CALLVALUE GT PUSH2 0xEBA JUMPI PUSH1 0x40 MLOAD PUSH32 0x8C379A000000000000000000000000000000000000000000000000000000000 DUP2 MSTORE PUSH1 0x4 ADD PUSH2 0xEB1 SWAP1 PUSH2 0x1EBF JUMP JUMPDEST PUSH1 0x40 MLOAD DUP1 SWAP2 SUB SWAP1 REVERT JUMPDEST PUSH1 0x3 DUP1 SLOAD SWAP1 POP CALLVALUE LT ISZERO PUSH2 0xF02 JUMPI PUSH1 0x40 MLOAD PUSH32 0x8C379A000000000000000000000000000000000000000000000000000000000 DUP2 MSTORE PUSH1 0x4 ADD PUSH2 0xEF9 SWAP1 PUSH2 0x1F4D JUMP JUMPDEST PUSH1 0x40 MLOAD DUP1 SWAP2 SUB SWAP1 REVERT JUMPDEST CALLVALUE PUSH1 0x1 DUP2 SWAP1 SSTORE POP PUSH1 0x1 PUSH1 0x2 PUSH0 PUSH2 0x100 EXP DUP2 SLOAD DUP2 PUSH1 0xFF MUL NOT AND SWAP1 DUP4 ISZERO ISZERO MUL OR SWAP1 SSTORE POP PUSH0 PUSH1 0x3 DUP1 SLOAD SWAP1 POP CALLVALUE PUSH2 0xF35 SWAP2 SWAP1 PUSH2 0x1A74 JUMP JUMPDEST SWAP1 POP CALLER PUSH20 0xFFFFFFFFFFFFFFFFFFFFFFFFFFFFFFFFFFFFFFFF AND PUSH32 0x73A19DD210F1A7F902193214C0EE91DD35EE5B4D920CBA8D519ECA65A7B488CA CALLVALUE DUP4 PUSH1 0x40 MLOAD PUSH2 0xF7F SWAP3 SWAP2 SWAP1 PUSH2 0x1F6B JUMP JUMPDEST PUSH1 0x40 MLOAD DUP1 SWAP2 SUB SWAP1 LOG2 POP JUMP JUMPDEST PUSH1 0x60 PUSH1 0x3 DUP1 SLOAD DUP1 PUSH1 0x20 MUL PUSH1 0x20 ADD PUSH1 0x40 MLOAD SWAP1 DUP2 ADD PUSH1 0x40 MSTORE DUP1 SWAP3 SWAP2 SWAP1 DUP2 DUP2 MSTORE PUSH1 0x20 ADD PUSH0 SWAP1 JUMPDEST DUP3 DUP3 LT ISZERO PUSH2 0x1055 JUMPI DUP4 DUP3 SWAP1 PUSH0 MSTORE PUSH1 0x20 PUSH0 KECCAK256 SWAP1 PUSH1 0x3 MUL ADD PUSH1 0x40 MLOAD DUP1 PUSH1 0x60 ADD PUSH1 0x40 MSTORE SWAP1 DUP2 PUSH0 DUP3 ADD PUSH0 SWAP1 SLOAD SWAP1 PUSH2 0x100 EXP SWAP1 DIV PUSH20 0xFFFFFFFFFFFFFFFFFFFFFFFFFFFFFFFFFFFFFFFF AND PUSH20 0xFFFFFFFFFFFFFFFFFFFFFFFFFFFFFFFFFFFFFFFF AND PUSH20 0xFFFFFFFFFFFFFFFFFFFFFFFFFFFFFFFFFFFFFFFF AND DUP2 MSTORE PUSH1 0x20 ADD PUSH1 0x1 DUP3 ADD SLOAD DUP2 MSTORE PUSH1 0x20 ADD PUSH1 0x2 DUP3 ADD PUSH0 SWAP1 SLOAD SWAP1 PUSH2 0x100 EXP SWAP1 DIV PUSH1 0xFF AND ISZERO ISZERO ISZERO ISZERO DUP2 MSTORE POP POP DUP2 MSTORE PUSH1 0x20 ADD SWAP1 PUSH1 0x1 ADD SWAP1 PUSH2 0xFAD JUMP JUMPDEST POP POP POP POP SWAP1 POP SWAP1 JUMP JUMPDEST PUSH1 0x2 PUSH0 SWAP1 SLOAD SWAP1 PUSH2 0x100 EXP SWAP1 DIV PUSH1 0xFF AND DUP2 JUMP JUMPDEST PUSH1 0x1 SLOAD DUP2 JUMP JUMPDEST PUSH0 PUSH0 REVERT JUMPDEST PUSH0 PUSH20 0xFFFFFFFFFFFFFFFFFFFFFFFFFFFFFFFFFFFFFFFF DUP3 AND SWAP1 POP SWAP2 SWAP1 POP JUMP JUMPDEST PUSH0 PUSH2 0x10A3 DUP3 PUSH2 0x107A JUMP JUMPDEST SWAP1 POP SWAP2 SWAP1 POP JUMP JUMPDEST PUSH2 0x10B3 DUP2 PUSH2 0x1099 JUMP JUMPDEST DUP2 EQ PUSH2 0x10BD JUMPI PUSH0 PUSH0 REVERT JUMPDEST POP JUMP JUMPDEST PUSH0 DUP2 CALLDATALOAD SWAP1 POP PUSH2 0x10CE DUP2 PUSH2 0x10AA JUMP JUMPDEST SWAP3 SWAP2 POP POP JUMP JUMPDEST PUSH0 PUSH1 0x20 DUP3 DUP5 SUB SLT ISZERO PUSH2 0x10E9 JUMPI PUSH2 0x10E8 PUSH2 0x1076 JUMP JUMPDEST JUMPDEST PUSH0 PUSH2 0x10F6 DUP5 DUP3 DUP6 ADD PUSH2 0x10C0 JUMP JUMPDEST SWAP2 POP POP SWAP3 SWAP2 POP POP JUMP JUMPDEST PUSH0 DUP2 ISZERO ISZERO SWAP1 POP SWAP2 SWAP1 POP JUMP JUMPDEST PUSH2 0x1113 DUP2 PUSH2 0x10FF JUMP JUMPDEST DUP3 MSTORE POP POP JUMP JUMPDEST PUSH0 PUSH1 0x20 DUP3 ADD SWAP1 POP PUSH2 0x112C PUSH0 DUP4 ADD DUP5 PUSH2 0x110A JUMP JUMPDEST SWAP3 SWAP2 POP POP JUMP JUMPDEST PUSH0 PUSH2 0xFFFF DUP3 AND SWAP1 POP SWAP2 SWAP1 POP JUMP JUMPDEST PUSH2 0x1148 DUP2 PUSH2 0x1132 JUMP JUMPDEST DUP2 EQ PUSH2 0x1152 JUMPI PUSH0 PUSH0 REVERT JUMPDEST POP JUMP JUMPDEST PUSH0 DUP2 CALLDATALOAD SWAP1 POP PUSH2 0x1163 DUP2 PUSH2 0x113F JUMP JUMPDEST SWAP3 SWAP2 POP POP JUMP JUMPDEST PUSH0 PUSH1 0xFF DUP3 AND SWAP1 POP SWAP2 SWAP1 POP JUMP JUMPDEST PUSH2 0x117E DUP2 PUSH2 0x1169 JUMP JUMPDEST DUP2 EQ PUSH2 0x1188 JUMPI PUSH0 PUSH0 REVERT JUMPDEST POP JUMP JUMPDEST PUSH0 DUP2 CALLDATALOAD SWAP1 POP PUSH2 0x1199 DUP2 PUSH2 0x1175 JUMP JUMPDEST SWAP3 SWAP2 POP POP JUMP JUMPDEST PUSH0 PUSH0 PUSH0 PUSH1 0x60 DUP5 DUP7 SUB SLT ISZERO PUSH2 0x11B6 JUMPI PUSH2 0x11B5 PUSH2 0x1076 JUMP JUMPDEST JUMPDEST PUSH0 PUSH2 0x11C3 DUP7 DUP3 DUP8 ADD PUSH2 0x1155 JUMP JUMPDEST SWAP4 POP POP PUSH1 0x20 PUSH2 0x11D4 DUP7 DUP3 DUP8 ADD PUSH2 0x118B JUMP JUMPDEST SWAP3 POP POP PUSH1 0x40 PUSH2 0x11E5 DUP7 DUP3 DUP8 ADD PUSH2 0x118B JUMP JUMPDEST SWAP2 POP POP SWAP3 POP SWAP3 POP SWAP3 JUMP JUMPDEST PUSH0 DUP2 SWAP1 POP SWAP2 SWAP1 POP JUMP JUMPDEST PUSH2 0x1201 DUP2 PUSH2 0x11EF JUMP JUMPDEST DUP3 MSTORE POP POP JUMP JUMPDEST PUSH0 PUSH1 0x20 DUP3 ADD SWAP1 POP PUSH2 0x121A PUSH0 DUP4 ADD DUP5 PUSH2 0x11F8 JUMP JUMPDEST SWAP3 SWAP2 POP POP JUMP JUMPDEST PUSH2 0x1229 DUP2 PUSH2 0x11EF JUMP JUMPDEST DUP2 EQ PUSH2 0x1233 JUMPI PUSH0 PUSH0 REVERT JUMPDEST POP JUMP JUMPDEST PUSH0 DUP2 CALLDATALOAD SWAP1 POP PUSH2 0x1244 DUP2 PUSH2 0x1220 JUMP JUMPDEST SWAP3 SWAP2 POP POP JUMP JUMPDEST PUSH0 PUSH1 0x20 DUP3 DUP5 SUB SLT ISZERO PUSH2 0x125F JUMPI PUSH2 0x125E PUSH2 0x1076 JUMP JUMPDEST JUMPDEST PUSH0 PUSH2 0x126C DUP5 DUP3 DUP6 ADD PUSH2 0x1236 JUMP JUMPDEST SWAP2 POP POP SWAP3 SWAP2 POP POP JUMP JUMPDEST PUSH2 0x127E DUP2 PUSH2 0x1099 JUMP JUMPDEST DUP3 MSTORE POP POP JUMP JUMPDEST PUSH0 PUSH1 0x60 DUP3 ADD SWAP1 POP PUSH2 0x1297 PUSH0 DUP4 ADD DUP7 PUSH2 0x1275 JUMP JUMPDEST PUSH2 0x12A4 PUSH1 0x20 DUP4 ADD DUP6 PUSH2 0x11F8 JUMP JUMPDEST PUSH2 0x12B1 PUSH1 0x40 DUP4 ADD DUP5 PUSH2 0x110A JUMP JUMPDEST SWAP5 SWAP4 POP POP POP POP JUMP JUMPDEST PUSH0 PUSH1 0x20 DUP3 ADD SWAP1 POP PUSH2 0x12CC PUSH0 DUP4 ADD DUP5 PUSH2 0x1275 JUMP JUMPDEST SWAP3 SWAP2 POP POP JUMP JUMPDEST PUSH0 PUSH0 PUSH0 PUSH0 PUSH1 0x80 DUP6 DUP8 SUB SLT ISZERO PUSH2 0x12EA JUMPI PUSH2 0x12E9 PUSH2 0x1076 JUMP JUMPDEST JUMPDEST PUSH0 PUSH2 0x12F7 DUP8 DUP3 DUP9 ADD PUSH2 0x10C0 JUMP JUMPDEST SWAP5 POP POP PUSH1 0x20 PUSH2 0x1308 DUP8 DUP3 DUP9 ADD PUSH2 0x1155 JUMP JUMPDEST SWAP4 POP POP PUSH1 0x40 PUSH2 0x1319 DUP8 DUP3 DUP9 ADD PUSH2 0x118B JUMP JUMPDEST SWAP3 POP POP PUSH1 0x60 PUSH2 0x132A DUP8 DUP3 DUP9 ADD PUSH2 0x118B JUMP JUMPDEST SWAP2 POP POP SWAP3 SWAP6 SWAP2 SWAP5 POP SWAP3 POP JUMP JUMPDEST PUSH0 DUP2 MLOAD SWAP1 POP SWAP2 SWAP1 POP JUMP JUMPDEST PUSH0 DUP3 DUP3 MSTORE PUSH1 0x20 DUP3 ADD SWAP1 POP SWAP3 SWAP2 POP POP JUMP JUMPDEST PUSH0 DUP2 SWAP1 POP PUSH1 0x20 DUP3 ADD SWAP1 POP SWAP2 SWAP1 POP JUMP JUMPDEST PUSH2 0x1368 DUP2 PUSH2 0x1099 JUMP JUMPDEST DUP3 MSTORE POP POP JUMP JUMPDEST PUSH2 0x1377 DUP2 PUSH2 0x11EF JUMP JUMPDEST DUP3 MSTORE POP POP JUMP JUMPDEST PUSH2 0x1386 DUP2 PUSH2 0x10FF JUMP JUMPDEST DUP3 MSTORE POP POP JUMP JUMPDEST PUSH1 0x60 DUP3 ADD PUSH0 DUP3 ADD MLOAD PUSH2 0x13A0 PUSH0 DUP6 ADD DUP3 PUSH2 0x135F JUMP JUMPDEST POP PUSH1 0x20 DUP3 ADD MLOAD PUSH2 0x13B3 PUSH1 0x20 DUP6 ADD DUP3 PUSH2 0x136E JUMP JUMPDEST POP PUSH1 0x40 DUP3 ADD MLOAD PUSH2 0x13C6 PUSH1 0x40 DUP6 ADD DUP3 PUSH2 0x137D JUMP JUMPDEST POP POP POP POP JUMP JUMPDEST PUSH0 PUSH2 0x13D7 DUP4 DUP4 PUSH2 0x138C JUMP JUMPDEST PUSH1 0x60 DUP4 ADD SWAP1 POP SWAP3 SWAP2 POP POP JUMP JUMPDEST PUSH0 PUSH1 0x20 DUP3 ADD SWAP1 POP SWAP2 SWAP1 POP JUMP JUMPDEST PUSH0 PUSH2 0x13F9 DUP3 PUSH2 0x1336 JUMP JUMPDEST PUSH2 0x1403 DUP2 DUP6 PUSH2 0x1340 JUMP JUMPDEST SWAP4 POP PUSH2 0x140E DUP4 PUSH2 0x1350 JUMP JUMPDEST DUP1 PUSH0 JUMPDEST DUP4 DUP2 LT ISZERO PUSH2 0x143E JUMPI DUP2 MLOAD PUSH2 0x1425 DUP9 DUP3 PUSH2 0x13CC JUMP JUMPDEST SWAP8 POP PUSH2 0x1430 DUP4 PUSH2 0x13E3 JUMP JUMPDEST SWAP3 POP POP PUSH1 0x1 DUP2 ADD SWAP1 POP PUSH2 0x1411 JUMP JUMPDEST POP DUP6 SWAP4 POP POP POP POP SWAP3 SWAP2 POP POP JUMP JUMPDEST PUSH0 PUSH1 0x20 DUP3 ADD SWAP1 POP DUP2 DUP2 SUB PUSH0 DUP4 ADD MSTORE PUSH2 0x1463 DUP2 DUP5 PUSH2 0x13EF JUMP JUMPDEST SWAP1 POP SWAP3 SWAP2 POP POP JUMP JUMPDEST PUSH32 0x4E487B7100000000000000000000000000000000000000000000000000000000 PUSH0 MSTORE PUSH1 0x11 PUSH1 0x4 MSTORE PUSH1 0x24 PUSH0 REVERT JUMPDEST PUSH0 PUSH2 0x14A2 DUP3 PUSH2 0x11EF JUMP JUMPDEST SWAP2 POP PUSH2 0x14AD DUP4 PUSH2 0x11EF JUMP JUMPDEST SWAP3 POP DUP3 DUP3 SUB SWAP1 POP DUP2 DUP2 GT ISZERO PUSH2 0x14C5 JUMPI PUSH2 0x14C4 PUSH2 0x146B JUMP JUMPDEST JUMPDEST SWAP3 SWAP2 POP POP JUMP JUMPDEST PUSH32 0x4E487B7100000000000000000000000000000000000000000000000000000000 PUSH0 MSTORE PUSH1 0x32 PUSH1 0x4 MSTORE PUSH1 0x24 PUSH0 REVERT JUMPDEST PUSH0 DUP3 DUP3 MSTORE PUSH1 0x20 DUP3 ADD SWAP1 POP SWAP3 SWAP2 POP POP JUMP JUMPDEST PUSH32 0x4269727468646179476966743A2079656172206D757374206265203E3D203139 PUSH0 DUP3 ADD MSTORE PUSH32 0x3730000000000000000000000000000000000000000000000000000000000000 PUSH1 0x20 DUP3 ADD MSTORE POP JUMP JUMPDEST PUSH0 PUSH2 0x1562 PUSH1 0x22 DUP4 PUSH2 0x14F8 JUMP JUMPDEST SWAP2 POP PUSH2 0x156D DUP3 PUSH2 0x1508 JUMP JUMPDEST PUSH1 0x40 DUP3 ADD SWAP1 POP SWAP2 SWAP1 POP JUMP JUMPDEST PUSH0 PUSH1 0x20 DUP3 ADD SWAP1 POP DUP2 DUP2 SUB PUSH0 DUP4 ADD MSTORE PUSH2 0x158F DUP2 PUSH2 0x1556 JUMP JUMPDEST SWAP1 POP SWAP2 SWAP1 POP JUMP JUMPDEST PUSH32 0x4269727468646179476966743A20696E76616C6964206D6F6E74680000000000 PUSH0 DUP3 ADD MSTORE POP JUMP JUMPDEST PUSH0 PUSH2 0x15CA PUSH1 0x1B DUP4 PUSH2 0x14F8 JUMP JUMPDEST SWAP2 POP PUSH2 0x15D5 DUP3 PUSH2 0x1596 JUMP JUMPDEST PUSH1 0x20 DUP3 ADD SWAP1 POP SWAP2 SWAP1 POP JUMP JUMPDEST PUSH0 PUSH1 0x20 DUP3 ADD SWAP1 POP DUP2 DUP2 SUB PUSH0 DUP4 ADD MSTORE PUSH2 0x15F7 DUP2 PUSH2 0x15BE JUMP JUMPDEST SWAP1 POP SWAP2 SWAP1 POP JUMP JUMPDEST PUSH32 0x4269727468646179476966743A20696E76616C69642064617900000000000000 PUSH0 DUP3 ADD MSTORE POP JUMP JUMPDEST PUSH0 PUSH2 0x1632 PUSH1 0x19 DUP4 PUSH2 0x14F8 JUMP JUMPDEST SWAP2 POP PUSH2 0x163D DUP3 PUSH2 0x15FE JUMP JUMPDEST PUSH1 0x20 DUP3 ADD SWAP1 POP SWAP2 SWAP1 POP JUMP JUMPDEST PUSH0 PUSH1 0x20 DUP3 ADD SWAP1 POP DUP2 DUP2 SUB PUSH0 DUP4 ADD MSTORE PUSH2 0x165F DUP2 PUSH2 0x1626 JUMP JUMPDEST SWAP1 POP SWAP2 SWAP1 POP JUMP JUMPDEST PUSH0 DUP2 SWAP1 POP SWAP2 SWAP1 POP JUMP JUMPDEST PUSH0 PUSH2 0x1679 DUP3 PUSH2 0x1666 JUMP JUMPDEST SWAP2 POP PUSH2 0x1684 DUP4 PUSH2 0x1666 JUMP JUMPDEST SWAP3 POP DUP3 DUP3 SUB SWAP1 POP DUP2 DUP2 SLT PUSH0 DUP5 SLT AND DUP3 DUP3 SGT PUSH0 DUP6 SLT ISZERO AND OR ISZERO PUSH2 0x16A9 JUMPI PUSH2 0x16A8 PUSH2 0x146B JUMP JUMPDEST JUMPDEST SWAP3 SWAP2 POP POP JUMP JUMPDEST PUSH32 0x4E487B7100000000000000000000000000000000000000000000000000000000 PUSH0 MSTORE PUSH1 0x12 PUSH1 0x4 MSTORE PUSH1 0x24 PUSH0 REVERT JUMPDEST PUSH0 PUSH2 0x16E6 DUP3 PUSH2 0x1666 JUMP JUMPDEST SWAP2 POP PUSH2 0x16F1 DUP4 PUSH2 0x1666 JUMP JUMPDEST SWAP3 POP DUP3 PUSH2 0x1701 JUMPI PUSH2 0x1700 PUSH2 0x16AF JUMP JUMPDEST JUMPDEST PUSH1 0x1 PUSH0 SUB DUP4 EQ PUSH32 0x8000000000000000000000000000000000000000000000000000000000000000 DUP4 EQ AND ISZERO PUSH2 0x1739 JUMPI PUSH2 0x1738 PUSH2 0x146B JUMP JUMPDEST JUMPDEST DUP3 DUP3 SDIV SWAP1 POP SWAP3 SWAP2 POP POP JUMP JUMPDEST PUSH0 PUSH2 0x174E DUP3 PUSH2 0x1666 JUMP JUMPDEST SWAP2 POP PUSH2 0x1759 DUP4 PUSH2 0x1666 JUMP JUMPDEST SWAP3 POP DUP3 DUP3 ADD SWAP1 POP DUP3 DUP2 SLT ISZERO PUSH0 DUP4 SLT AND DUP4 DUP3 SLT PUSH0 DUP5 SLT ISZERO AND OR ISZERO PUSH2 0x177F JUMPI PUSH2 0x177E PUSH2 0x146B JUMP JUMPDEST JUMPDEST SWAP3 SWAP2 POP POP JUMP JUMPDEST PUSH0 PUSH2 0x178F DUP3 PUSH2 0x1666 JUMP JUMPDEST SWAP2 POP PUSH2 0x179A DUP4 PUSH2 0x1666 JUMP JUMPDEST SWAP3 POP DUP3 DUP3 MUL PUSH2 0x17A8 DUP2 PUSH2 0x1666 JUMP JUMPDEST SWAP2 POP PUSH32 0x8000000000000000000000000000000000000000000000000000000000000000 DUP5 EQ PUSH0 DUP5 SLT AND ISZERO PUSH2 0x17DF JUMPI PUSH2 0x17DE PUSH2 0x146B JUMP JUMPDEST JUMPDEST DUP3 DUP3 SDIV DUP5 EQ DUP4 ISZERO OR PUSH2 0x17F4 JUMPI PUSH2 0x17F3 PUSH2 0x146B JUMP JUMPDEST JUMPDEST POP SWAP3 SWAP2 POP POP JUMP JUMPDEST PUSH0 PUSH2 0x1805 DUP3 PUSH2 0x11EF JUMP JUMPDEST SWAP2 POP PUSH2 0x1810 DUP4 PUSH2 0x11EF JUMP JUMPDEST SWAP3 POP DUP3 DUP3 MUL PUSH2 0x181E DUP2 PUSH2 0x11EF JUMP JUMPDEST SWAP2 POP DUP3 DUP3 DIV DUP5 EQ DUP4 ISZERO OR PUSH2 0x1835 JUMPI PUSH2 0x1834 PUSH2 0x146B JUMP JUMPDEST JUMPDEST POP SWAP3 SWAP2 POP POP JUMP JUMPDEST PUSH32 0x4269727468646179476966743A2063616C6C6572206973206E6F742061206772 PUSH0 DUP3 ADD MSTORE PUSH32 0x616E646368696C64000000000000000000000000000000000000000000000000 PUSH1 0x20 DUP3 ADD MSTORE POP JUMP JUMPDEST PUSH0 PUSH2 0x1896 PUSH1 0x28 DUP4 PUSH2 0x14F8 JUMP JUMPDEST SWAP2 POP PUSH2 0x18A1 DUP3 PUSH2 0x183C JUMP JUMPDEST PUSH1 0x40 DUP3 ADD SWAP1 POP SWAP2 SWAP1 POP JUMP JUMPDEST PUSH0 PUSH1 0x20 DUP3 ADD SWAP1 POP DUP2 DUP2 SUB PUSH0 DUP4 ADD MSTORE PUSH2 0x18C3 DUP2 PUSH2 0x188A JUMP JUMPDEST SWAP1 POP SWAP2 SWAP1 POP JUMP JUMPDEST PUSH32 0x4269727468646179476966743A206E6F2066756E6473206465706F7369746564 PUSH0 DUP3 ADD MSTORE PUSH32 0x2079657400000000000000000000000000000000000000000000000000000000 PUSH1 0x20 DUP3 ADD MSTORE POP JUMP JUMPDEST PUSH0 PUSH2 0x1924 PUSH1 0x24 DUP4 PUSH2 0x14F8 JUMP JUMPDEST SWAP2 POP PUSH2 0x192F DUP3 PUSH2 0x18CA JUMP JUMPDEST PUSH1 0x40 DUP3 ADD SWAP1 POP SWAP2 SWAP1 POP JUMP JUMPDEST PUSH0 PUSH1 0x20 DUP3 ADD SWAP1 POP DUP2 DUP2 SUB PUSH0 DUP4 ADD MSTORE PUSH2 0x1951 DUP2 PUSH2 0x1918 JUMP JUMPDEST SWAP1 POP SWAP2 SWAP1 POP JUMP JUMPDEST PUSH32 0x4269727468646179476966743A20626972746864617920686173206E6F742063 PUSH0 DUP3 ADD MSTORE PUSH32 0x6F6D652079657400000000000000000000000000000000000000000000000000 PUSH1 0x20 DUP3 ADD MSTORE POP JUMP JUMPDEST PUSH0 PUSH2 0x19B2 PUSH1 0x27 DUP4 PUSH2 0x14F8 JUMP JUMPDEST SWAP2 POP PUSH2 0x19BD DUP3 PUSH2 0x1958 JUMP JUMPDEST PUSH1 0x40 DUP3 ADD SWAP1 POP SWAP2 SWAP1 POP JUMP JUMPDEST PUSH0 PUSH1 0x20 DUP3 ADD SWAP1 POP DUP2 DUP2 SUB PUSH0 DUP4 ADD MSTORE PUSH2 0x19DF DUP2 PUSH2 0x19A6 JUMP JUMPDEST SWAP1 POP SWAP2 SWAP1 POP JUMP JUMPDEST PUSH32 0x4269727468646179476966743A206769667420616C7265616479207769746864 PUSH0 DUP3 ADD MSTORE PUSH32 0x7261776E00000000000000000000000000000000000000000000000000000000 PUSH1 0x20 DUP3 ADD MSTORE POP JUMP JUMPDEST PUSH0 PUSH2 0x1A40 PUSH1 0x24 DUP4 PUSH2 0x14F8 JUMP JUMPDEST SWAP2 POP PUSH2 0x1A4B DUP3 PUSH2 0x19E6 JUMP JUMPDEST PUSH1 0x40 DUP3 ADD SWAP1 POP SWAP2 SWAP1 POP JUMP JUMPDEST PUSH0 PUSH1 0x20 DUP3 ADD SWAP1 POP DUP2 DUP2 SUB PUSH0 DUP4 ADD MSTORE PUSH2 0x1A6D DUP2 PUSH2 0x1A34 JUMP JUMPDEST SWAP1 POP SWAP2 SWAP1 POP JUMP JUMPDEST PUSH0 PUSH2 0x1A7E DUP3 PUSH2 0x11EF JUMP JUMPDEST SWAP2 POP PUSH2 0x1A89 DUP4 PUSH2 0x11EF JUMP JUMPDEST SWAP3 POP DUP3 PUSH2 0x1A99 JUMPI PUSH2 0x1A98 PUSH2 0x16AF JUMP JUMPDEST JUMPDEST DUP3 DUP3 DIV SWAP1 POP SWAP3 SWAP2 POP POP JUMP JUMPDEST PUSH32 0x4269727468646179476966743A206E6F742061206772616E646368696C640000 PUSH0 DUP3 ADD MSTORE POP JUMP JUMPDEST PUSH0 PUSH2 0x1AD8 PUSH1 0x1E DUP4 PUSH2 0x14F8 JUMP JUMPDEST SWAP2 POP PUSH2 0x1AE3 DUP3 PUSH2 0x1AA4 JUMP JUMPDEST PUSH1 0x20 DUP3 ADD SWAP1 POP SWAP2 SWAP1 POP JUMP JUMPDEST PUSH0 PUSH1 0x20 DUP3 ADD SWAP1 POP DUP2 DUP2 SUB PUSH0 DUP4 ADD MSTORE PUSH2 0x1B05 DUP2 PUSH2 0x1ACC JUMP JUMPDEST SWAP1 POP SWAP2 SWAP1 POP JUMP JUMPDEST PUSH32 0x4269727468646179476966743A2063616C6C6572206973206E6F74206F776E65 PUSH0 DUP3 ADD MSTORE PUSH32 0x7200000000000000000000000000000000000000000000000000000000000000 PUSH1 0x20 DUP3 ADD MSTORE POP JUMP JUMPDEST PUSH0 PUSH2 0x1B66 PUSH1 0x21 DUP4 PUSH2 0x14F8 JUMP JUMPDEST SWAP2 POP PUSH2 0x1B71 DUP3 PUSH2 0x1B0C JUMP JUMPDEST PUSH1 0x40 DUP3 ADD SWAP1 POP SWAP2 SWAP1 POP JUMP JUMPDEST PUSH0 PUSH1 0x20 DUP3 ADD SWAP1 POP DUP2 DUP2 SUB PUSH0 DUP4 ADD MSTORE PUSH2 0x1B93 DUP2 PUSH2 0x1B5A JUMP JUMPDEST SWAP1 POP SWAP2 SWAP1 POP JUMP JUMPDEST PUSH32 0x4269727468646179476966743A2063616E6E6F7420616464206772616E646368 PUSH0 DUP3 ADD MSTORE PUSH32 0x696C64206166746572206465706F736974000000000000000000000000000000 PUSH1 0x20 DUP3 ADD MSTORE POP JUMP JUMPDEST PUSH0 PUSH2 0x1BF4 PUSH1 0x31 DUP4 PUSH2 0x14F8 JUMP JUMPDEST SWAP2 POP PUSH2 0x1BFF DUP3 PUSH2 0x1B9A JUMP JUMPDEST PUSH1 0x40 DUP3 ADD SWAP1 POP SWAP2 SWAP1 POP JUMP JUMPDEST PUSH0 PUSH1 0x20 DUP3 ADD SWAP1 POP DUP2 DUP2 SUB PUSH0 DUP4 ADD MSTORE PUSH2 0x1C21 DUP2 PUSH2 0x1BE8 JUMP JUMPDEST SWAP1 POP SWAP2 SWAP1 POP JUMP JUMPDEST PUSH32 0x4269727468646179476966743A207A65726F2061646472657373000000000000 PUSH0 DUP3 ADD MSTORE POP JUMP JUMPDEST PUSH0 PUSH2 0x1C5C PUSH1 0x1A DUP4 PUSH2 0x14F8 JUMP JUMPDEST SWAP2 POP PUSH2 0x1C67 DUP3 PUSH2 0x1C28 JUMP JUMPDEST PUSH1 0x20 DUP3 ADD SWAP1 POP SWAP2 SWAP1 POP JUMP JUMPDEST PUSH0 PUSH1 0x20 DUP3 ADD SWAP1 POP DUP2 DUP2 SUB PUSH0 DUP4 ADD MSTORE PUSH2 0x1C89 DUP2 PUSH2 0x1C50 JUMP JUMPDEST SWAP1 POP SWAP2 SWAP1 POP JUMP JUMPDEST PUSH32 0x4269727468646179476966743A20616C72656164792061646465640000000000 PUSH0 DUP3 ADD MSTORE POP JUMP JUMPDEST PUSH0 PUSH2 0x1CC4 PUSH1 0x1B DUP4 PUSH2 0x14F8 JUMP JUMPDEST SWAP2 POP PUSH2 0x1CCF DUP3 PUSH2 0x1C90 JUMP JUMPDEST PUSH1 0x20 DUP3 ADD SWAP1 POP SWAP2 SWAP1 POP JUMP JUMPDEST PUSH0 PUSH1 0x20 DUP3 ADD SWAP1 POP DUP2 DUP2 SUB PUSH0 DUP4 ADD MSTORE PUSH2 0x1CF1 DUP2 PUSH2 0x1CB8 JUMP JUMPDEST SWAP1 POP SWAP2 SWAP1 POP JUMP JUMPDEST PUSH2 0x1D01 DUP2 PUSH2 0x1132 JUMP JUMPDEST DUP3 MSTORE POP POP JUMP JUMPDEST PUSH2 0x1D10 DUP2 PUSH2 0x1169 JUMP JUMPDEST DUP3 MSTORE POP POP JUMP JUMPDEST PUSH0 PUSH1 0x80 DUP3 ADD SWAP1 POP PUSH2 0x1D29 PUSH0 DUP4 ADD DUP8 PUSH2 0x1CF8 JUMP JUMPDEST PUSH2 0x1D36 PUSH1 0x20 DUP4 ADD DUP7 PUSH2 0x1D07 JUMP JUMPDEST PUSH2 0x1D43 PUSH1 0x40 DUP4 ADD DUP6 PUSH2 0x1D07 JUMP JUMPDEST PUSH2 0x1D50 PUSH1 0x60 DUP4 ADD DUP5 PUSH2 0x11F8 JUMP JUMPDEST SWAP6 SWAP5 POP POP POP POP POP JUMP JUMPDEST PUSH32 0x4269727468646179476966743A20616C7265616479206465706F736974656400 PUSH0 DUP3 ADD MSTORE POP JUMP JUMPDEST PUSH0 PUSH2 0x1D8D PUSH1 0x1F DUP4 PUSH2 0x14F8 JUMP JUMPDEST SWAP2 POP PUSH2 0x1D98 DUP3 PUSH2 0x1D59 JUMP JUMPDEST PUSH1 0x20 DUP3 ADD SWAP1 POP SWAP2 SWAP1 POP JUMP JUMPDEST PUSH0 PUSH1 0x20 DUP3 ADD SWAP1 POP DUP2 DUP2 SUB PUSH0 DUP4 ADD MSTORE PUSH2 0x1DBA DUP2 PUSH2 0x1D81 JUMP JUMPDEST SWAP1 POP SWAP2 SWAP1 POP JUMP JUMPDEST PUSH32 0x4269727468646179476966743A206E6F206772616E646368696C6472656E2061 PUSH0 DUP3 ADD MSTORE PUSH32 0x6464656420796574000000000000000000000000000000000000000000000000 PUSH1 0x20 DUP3 ADD MSTORE POP JUMP JUMPDEST PUSH0 PUSH2 0x1E1B PUSH1 0x28 DUP4 PUSH2 0x14F8 JUMP JUMPDEST SWAP2 POP PUSH2 0x1E26 DUP3 PUSH2 0x1DC1 JUMP JUMPDEST PUSH1 0x40 DUP3 ADD SWAP1 POP SWAP2 SWAP1 POP JUMP JUMPDEST PUSH0 PUSH1 0x20 DUP3 ADD SWAP1 POP DUP2 DUP2 SUB PUSH0 DUP4 ADD MSTORE PUSH2 0x1E48 DUP2 PUSH2 0x1E0F JUMP JUMPDEST SWAP1 POP SWAP2 SWAP1 POP JUMP JUMPDEST PUSH32 0x4269727468646179476966743A206465706F73697420616D6F756E74206D7573 PUSH0 DUP3 ADD MSTORE PUSH32 0x742062652067726561746572207468616E207A65726F00000000000000000000 PUSH1 0x20 DUP3 ADD MSTORE POP JUMP JUMPDEST PUSH0 PUSH2 0x1EA9 PUSH1 0x36 DUP4 PUSH2 0x14F8 JUMP JUMPDEST SWAP2 POP PUSH2 0x1EB4 DUP3 PUSH2 0x1E4F JUMP JUMPDEST PUSH1 0x40 DUP3 ADD SWAP1 POP SWAP2 SWAP1 POP JUMP JUMPDEST PUSH0 PUSH1 0x20 DUP3 ADD SWAP1 POP DUP2 DUP2 SUB PUSH0 DUP4 ADD MSTORE PUSH2 0x1ED6 DUP2 PUSH2 0x1E9D JUMP JUMPDEST SWAP1 POP SWAP2 SWAP1 POP JUMP JUMPDEST PUSH32 0x4269727468646179476966743A206465706F73697420746F6F20736D616C6C20 PUSH0 DUP3 ADD MSTORE PUSH32 0x746F2073706C6974000000000000000000000000000000000000000000000000 PUSH1 0x20 DUP3 ADD MSTORE POP JUMP JUMPDEST PUSH0 PUSH2 0x1F37 PUSH1 0x28 DUP4 PUSH2 0x14F8 JUMP JUMPDEST SWAP2 POP PUSH2 0x1F42 DUP3 PUSH2 0x1EDD JUMP JUMPDEST PUSH1 0x40 DUP3 ADD SWAP1 POP SWAP2 SWAP1 POP JUMP JUMPDEST PUSH0 PUSH1 0x20 DUP3 ADD SWAP1 POP DUP2 DUP2 SUB PUSH0 DUP4 ADD MSTORE PUSH2 0x1F64 DUP2 PUSH2 0x1F2B JUMP JUMPDEST SWAP1 POP SWAP2 SWAP1 POP JUMP JUMPDEST PUSH0 PUSH1 0x40 DUP3 ADD SWAP1 POP PUSH2 0x1F7E PUSH0 DUP4 ADD DUP6 PUSH2 0x11F8 JUMP JUMPDEST PUSH2 0x1F8B PUSH1 0x20 DUP4 ADD DUP5 PUSH2 0x11F8 JUMP JUMPDEST SWAP4 SWAP3 POP POP POP JUMP INVALID LOG2 PUSH5 0x6970667358 0x22 SLT KECCAK256 0xB5 BALANCE 0xB8 0xDA 0xFC 0xE2 0xB8 LOG2 RETURNCONTRACT 0x68 COINBASE 0xBA PUSH30 0xBB04F3C18DB95F19FF97FD551C2E93F836ECBB64736F6C634300081E0033 "
				},
				"gasEstimates": {
					"creation": {
						"codeDepositCost": "1627200",
						"executionCost": "25970",
						"totalCost": "1653170"
					},
					"external": {
						"addGrandchild(address,uint16,uint8,uint8)": "infinite",
						"canWithdraw(address)": "infinite",
						"dateToTimestamp(uint16,uint8,uint8)": "infinite",
						"daysUntilBirthday(address)": "infinite",
						"deposit()": "infinite",
						"deposited()": "2554",
						"getGrandchildren()": "infinite",
						"getShare()": "infinite",
						"grandchildren(uint256)": "infinite",
						"owner()": "2507",
						"totalDeposited()": "2535",
						"withdraw()": "infinite"
					}
				},
				"methodIdentifiers": {
					"addGrandchild(address,uint16,uint8,uint8)": "a3ea2f52",
					"canWithdraw(address)": "19262d30",
					"dateToTimestamp(uint16,uint8,uint8)": "1ebfa358",
					"daysUntilBirthday(address)": "73c17446",
					"deposit()": "d0e30db0",
					"deposited()": "eef49ee3",
					"getGrandchildren()": "e66050b3",
					"getShare()": "75298734",
					"grandchildren(uint256)": "4746eb7c",
					"owner()": "8da5cb5b",
					"totalDeposited()": "ff50abdc",
					"withdraw()": "3ccfd60b"
				}
			},
			"storageLayout": {
				"storage": [
					{
						"astId": 4,
						"contract": "contracts/HW4/11_BirthdayGift.sol:BirthdayGift",
						"label": "owner",
						"offset": 0,
						"slot": "0",
						"type": "t_address"
					},
					{
						"astId": 6,
						"contract": "contracts/HW4/11_BirthdayGift.sol:BirthdayGift",
						"label": "totalDeposited",
						"offset": 0,
						"slot": "1",
						"type": "t_uint256"
					},
					{
						"astId": 8,
						"contract": "contracts/HW4/11_BirthdayGift.sol:BirthdayGift",
						"label": "deposited",
						"offset": 0,
						"slot": "2",
						"type": "t_bool"
					},
					{
						"astId": 19,
						"contract": "contracts/HW4/11_BirthdayGift.sol:BirthdayGift",
						"label": "grandchildren",
						"offset": 0,
						"slot": "3",
						"type": "t_array(t_struct(Grandchild)15_storage)dyn_storage"
					},
					{
						"astId": 23,
						"contract": "contracts/HW4/11_BirthdayGift.sol:BirthdayGift",
						"label": "grandchildIndex",
						"offset": 0,
						"slot": "4",
						"type": "t_mapping(t_address,t_uint256)"
					}
				],
				"types": {
					"t_address": {
						"encoding": "inplace",
						"label": "address",
						"numberOfBytes": "20"
					},
					"t_array(t_struct(Grandchild)15_storage)dyn_storage": {
						"base": "t_struct(Grandchild)15_storage",
						"encoding": "dynamic_array",
						"label": "struct BirthdayGift.Grandchild[]",
						"numberOfBytes": "32"
					},
					"t_bool": {
						"encoding": "inplace",
						"label": "bool",
						"numberOfBytes": "1"
					},
					"t_mapping(t_address,t_uint256)": {
						"encoding": "mapping",
						"key": "t_address",
						"label": "mapping(address => uint256)",
						"numberOfBytes": "32",
						"value": "t_uint256"
					},
					"t_struct(Grandchild)15_storage": {
						"encoding": "inplace",
						"label": "struct BirthdayGift.Grandchild",
						"members": [
							{
								"astId": 10,
								"contract": "contracts/HW4/11_BirthdayGift.sol:BirthdayGift",
								"label": "addr",
								"offset": 0,
								"slot": "0",
								"type": "t_address"
							},
							{
								"astId": 12,
								"contract": "contracts/HW4/11_BirthdayGift.sol:BirthdayGift",
								"label": "birthdayTimestamp",
								"offset": 0,
								"slot": "1",
								"type": "t_uint256"
							},
							{
								"astId": 14,
								"contract": "contracts/HW4/11_BirthdayGift.sol:BirthdayGift",
								"label": "withdrawn",
								"offset": 0,
								"slot": "2",
								"type": "t_bool"
							}
						],
						"numberOfBytes": "96"
					},
					"t_uint256": {
						"encoding": "inplace",
						"label": "uint256",
						"numberOfBytes": "32"
					}
				}
			},
			"userdoc": {
				"kind": "user",
				"methods": {
					"addGrandchild(address,uint16,uint8,uint8)": {
						"notice": "Додати онука з датою дня народження (тільки власник, до депозиту)"
					},
					"canWithdraw(address)": {
						"notice": "Перевірити чи може онук зняти подарунок прямо зараз"
					},
					"dateToTimestamp(uint16,uint8,uint8)": {
						"notice": "Конвертує людиночитаєму дату у Unix-timestamp"
					},
					"daysUntilBirthday(address)": {
						"notice": "Скільки днів залишилось до дня народження (0 якщо вже настав)"
					},
					"deposit()": {
						"notice": "Бабуся вносить ETH (лише один раз, після додавання всіх онуків)"
					},
					"getGrandchildren()": {
						"notice": "Список усіх онуків"
					},
					"getShare()": {
						"notice": "Розмір частки для кожного онука у wei"
					},
					"withdraw()": {
						"notice": "Онук знімає свою частку (доступно з дня народження)"
					}
				},
				"version": 1
			}
		}
	}
}