{
	"contracts/7_Voting.sol": {
		"Voting": {
			"abi": [
				{
					"inputs": [
						{
							"internalType": "string[]",
							"name": "names",
							"type": "string[]"
						}
					],
					"stateMutability": "nonpayable",
					"type": "constructor"
				},
				{
					"anonymous": false,
					"inputs": [
						{
							"indexed": false,
							"internalType": "address",
							"name": "voter",
							"type": "address"
						},
						{
							"indexed": false,
							"internalType": "uint256",
							"name": "candidateIndex",
							"type": "uint256"
						}
					],
					"name": "Voted",
					"type": "event"
				},
				{
					"inputs": [
						{
							"internalType": "uint256",
							"name": "",
							"type": "uint256"
						}
					],
					"name": "candidates",
					"outputs": [
						{
							"internalType": "string",
							"name": "name",
							"type": "string"
						},
						{
							"internalType": "uint256",
							"name": "voteCount",
							"type": "uint256"
						}
					],
					"stateMutability": "view",
					"type": "function"
				},
				{
					"inputs": [],
					"name": "getResults",
					"outputs": [
						{
							"components": [
								{
									"internalType": "string",
									"name": "name",
									"type": "string"
								},
								{
									"internalType": "uint256",
									"name": "voteCount",
									"type": "uint256"
								}
							],
							"internalType": "struct Voting.Candidate[]",
							"name": "",
							"type": "tuple[]"
						}
					],
					"stateMutability": "view",
					"type": "function"
				},
				{
					"inputs": [
						{
							"internalType": "address",
							"name": "",
							"type": "address"
						}
					],
					"name": "hasVoted",
					"outputs": [
						{
							"internalType": "bool",
							"name": "",
							"type": "bool"
						}
					],
					"stateMutability": "view",
					"type": "function"
				},
				{
					"inputs": [
						{
							"internalType": "uint256",
							"name": "index",
							"type": "uint256"
						}
					],
					"name": "vote",
					"outputs": [],
					"stateMutability": "nonpayable",
					"type": "function"
				}
			],
			"devdoc": {
				"details": "Проста система голосування: список кандидатів, голосування, перегляд результатів",
				"kind": "dev",
				"methods": {
					"constructor": {
						"params": {
							"names": "Масив імен кандидатів"
						}
					},
					"getResults()": {
						"returns": {
							"_0": "Масив структур Candidate з іменами та кількістю голосів"
						}
					},
					"vote(uint256)": {
						"params": {
							"index": "Індекс кандидата у масиві"
						}
					}
				},
				"title": "Voting",
				"version": 1
			},
			"evm": {
				"assembly": "    /* \"contracts/7_Voting.sol\":253:1621  contract Voting {... */\n  mstore(0x40, 0x80)\n    /* \"contracts/7_Voting.sol\":657:884  constructor(string[] memory names) {... */\n  callvalue\n  dup1\n  iszero\n  tag_1\n  jumpi\n  revert(0x00, 0x00)\ntag_1:\n  pop\n  mload(0x40)\n  sub(codesize, bytecodeSize)\n  dup1\n  bytecodeSize\n  dup4\n  codecopy\n  dup2\n  dup2\n  add\n  0x40\n  mstore\n  dup2\n  add\n  swap1\n  tag_2\n  swap2\n  swap1\n  tag_3\n  jump\t// in\ntag_2:\n    /* \"contracts/7_Voting.sol\":725:726  0 */\n  0x00\n    /* \"contracts/7_Voting.sol\":710:715  names */\n  dup2\n    /* \"contracts/7_Voting.sol\":710:722  names.length */\n  mload\n    /* \"contracts/7_Voting.sol\":710:726  names.length > 0 */\n  gt\n    /* \"contracts/7_Voting.sol\":702:761  require(names.length > 0, \"Voting: no candidates provided\") */\n  tag_6\n  jumpi\n  mload(0x40)\n  0x08c379a000000000000000000000000000000000000000000000000000000000\n  dup2\n  mstore\n  0x04\n  add\n  tag_7\n  swap1\n  tag_8\n  jump\t// in\ntag_7:\n  mload(0x40)\n  dup1\n  swap2\n  sub\n  swap1\n  revert\ntag_6:\n    /* \"contracts/7_Voting.sol\":776:785  uint256 i */\n  0x00\n    /* \"contracts/7_Voting.sol\":788:789  0 */\n  0x00\n    /* \"contracts/7_Voting.sol\":776:789  uint256 i = 0 */\n  swap1\n  pop\n    /* \"contracts/7_Voting.sol\":771:878  for (uint256 i = 0; i < names.length; i++) {... */\ntag_9:\n    /* \"contracts/7_Voting.sol\":795:800  names */\n  dup2\n    /* \"contracts/7_Voting.sol\":795:807  names.length */\n  mload\n    /* \"contracts/7_Voting.sol\":791:792  i */\n  dup2\n    /* \"contracts/7_Voting.sol\":791:807  i < names.length */\n  lt\n    /* \"contracts/7_Voting.sol\":771:878  for (uint256 i = 0; i < names.length; i++) {... */\n  iszero\n  tag_10\n  jumpi\n    /* \"contracts/7_Voting.sol\":828:838  candidates */\n  0x00\n    /* \"contracts/7_Voting.sol\":844:866  Candidate(names[i], 0) */\n  mload(0x40)\n  dup1\n  0x40\n  add\n  0x40\n  mstore\n  dup1\n    /* \"contracts/7_Voting.sol\":854:859  names */\n  dup5\n    /* \"contracts/7_Voting.sol\":860:861  i */\n  dup5\n    /* \"contracts/7_Voting.sol\":854:862  names[i] */\n  dup2\n  mload\n  dup2\n  lt\n  tag_12\n  jumpi\n  tag_13\n  tag_14\n  jump\t// in\ntag_13:\ntag_12:\n  0x20\n  mul\n  0x20\n  add\n  add\n  mload\n    /* \"contracts/7_Voting.sol\":844:866  Candidate(names[i], 0) */\n  dup2\n  mstore\n  0x20\n  add\n    /* \"contracts/7_Voting.sol\":864:865  0 */\n  0x00\n    /* \"contracts/7_Voting.sol\":844:866  Candidate(names[i], 0) */\n  dup2\n  mstore\n  pop\n    /* \"contracts/7_Voting.sol\":828:867  candidates.push(Candidate(names[i], 0)) */\n  swap1\n  dup1\n  0x01\n  dup2\n  sload\n  add\n  dup1\n  dup3\n  sstore\n  dup1\n  swap2\n  pop\n  pop\n  0x01\n  swap1\n  sub\n  swap1\n  0x00\n  mstore\n  keccak256(0x00, 0x20)\n  swap1\n  0x02\n  mul\n  add\n  0x00\n  swap1\n  swap2\n  swap1\n  swap2\n  swap1\n  swap2\n  pop\n  0x00\n  dup3\n  add\n  mload\n  dup2\n  0x00\n  add\n  swap1\n  dup2\n  tag_16\n  swap2\n  swap1\n  tag_17\n  jump\t// in\ntag_16:\n  pop\n  0x20\n  dup3\n  add\n  mload\n  dup2\n  0x01\n  add\n  sstore\n  pop\n  pop\n    /* \"contracts/7_Voting.sol\":809:812  i++ */\n  dup1\n  dup1\n  0x01\n  add\n  swap2\n  pop\n  pop\n    /* \"contracts/7_Voting.sol\":771:878  for (uint256 i = 0; i < names.length; i++) {... */\n  jump(tag_9)\ntag_10:\n  pop\n    /* \"contracts/7_Voting.sol\":657:884  constructor(string[] memory names) {... */\n  pop\n    /* \"contracts/7_Voting.sol\":253:1621  contract Voting {... */\n  jump(tag_18)\n    /* \"#utility.yul\":7:82   */\ntag_19:\n    /* \"#utility.yul\":40:46   */\n  0x00\n    /* \"#utility.yul\":73:75   */\n  0x40\n    /* \"#utility.yul\":67:76   */\n  mload\n    /* \"#utility.yul\":57:76   */\n  swap1\n  pop\n    /* \"#utility.yul\":7:82   */\n  swap1\n  jump\t// out\n    /* \"#utility.yul\":88:205   */\ntag_20:\n    /* \"#utility.yul\":197:198   */\n  0x00\n    /* \"#utility.yul\":194:195   */\n  0x00\n    /* \"#utility.yul\":187:199   */\n  revert\n    /* \"#utility.yul\":211:328   */\ntag_21:\n    /* \"#utility.yul\":320:321   */\n  0x00\n    /* \"#utility.yul\":317:318   */\n  0x00\n    /* \"#utility.yul\":310:322   */\n  revert\n    /* \"#utility.yul\":334:451   */\ntag_22:\n    /* \"#utility.yul\":443:444   */\n  0x00\n    /* \"#utility.yul\":440:441   */\n  0x00\n    /* \"#utility.yul\":433:445   */\n  revert\n    /* \"#utility.yul\":457:559   */\ntag_23:\n    /* \"#utility.yul\":498:504   */\n  0x00\n    /* \"#utility.yul\":549:551   */\n  0x1f\n    /* \"#utility.yul\":545:552   */\n  not\n    /* \"#utility.yul\":540:542   */\n  0x1f\n    /* \"#utility.yul\":533:538   */\n  dup4\n    /* \"#utility.yul\":529:543   */\n  add\n    /* \"#utility.yul\":525:553   */\n  and\n    /* \"#utility.yul\":515:553   */\n  swap1\n  pop\n    /* \"#utility.yul\":457:559   */\n  swap2\n  swap1\n  pop\n  jump\t// out\n    /* \"#utility.yul\":565:745   */\ntag_24:\n    /* \"#utility.yul\":613:690   */\n  0x4e487b7100000000000000000000000000000000000000000000000000000000\n    /* \"#utility.yul\":610:611   */\n  0x00\n    /* \"#utility.yul\":603:691   */\n  mstore\n    /* \"#utility.yul\":710:714   */\n  0x41\n    /* \"#utility.yul\":707:708   */\n  0x04\n    /* \"#utility.yul\":700:715   */\n  mstore\n    /* \"#utility.yul\":734:738   */\n  0x24\n    /* \"#utility.yul\":731:732   */\n  0x00\n    /* \"#utility.yul\":724:739   */\n  revert\n    /* \"#utility.yul\":751:1032   */\ntag_25:\n    /* \"#utility.yul\":834:861   */\n  tag_66\n    /* \"#utility.yul\":856:860   */\n  dup3\n    /* \"#utility.yul\":834:861   */\n  tag_23\n  jump\t// in\ntag_66:\n    /* \"#utility.yul\":826:832   */\n  dup2\n    /* \"#utility.yul\":822:862   */\n  add\n    /* \"#utility.yul\":964:970   */\n  dup2\n    /* \"#utility.yul\":952:962   */\n  dup2\n    /* \"#utility.yul\":949:971   */\n  lt\n    /* \"#utility.yul\":928:946   */\n  0xffffffffffffffff\n    /* \"#utility.yul\":916:926   */\n  dup3\n    /* \"#utility.yul\":913:947   */\n  gt\n    /* \"#utility.yul\":910:972   */\n  or\n    /* \"#utility.yul\":907:995   */\n  iszero\n  tag_67\n  jumpi\n    /* \"#utility.yul\":975:993   */\n  tag_68\n  tag_24\n  jump\t// in\ntag_68:\n    /* \"#utility.yul\":907:995   */\ntag_67:\n    /* \"#utility.yul\":1015:1025   */\n  dup1\n    /* \"#utility.yul\":1011:1013   */\n  0x40\n    /* \"#utility.yul\":1004:1026   */\n  mstore\n    /* \"#utility.yul\":794:1032   */\n  pop\n    /* \"#utility.yul\":751:1032   */\n  pop\n  pop\n  jump\t// out\n    /* \"#utility.yul\":1038:1167   */\ntag_26:\n    /* \"#utility.yul\":1072:1078   */\n  0x00\n    /* \"#utility.yul\":1099:1119   */\n  tag_70\n  tag_19\n  jump\t// in\ntag_70:\n    /* \"#utility.yul\":1089:1119   */\n  swap1\n  pop\n    /* \"#utility.yul\":1128:1161   */\n  tag_71\n    /* \"#utility.yul\":1156:1160   */\n  dup3\n    /* \"#utility.yul\":1148:1154   */\n  dup3\n    /* \"#utility.yul\":1128:1161   */\n  tag_25\n  jump\t// in\ntag_71:\n    /* \"#utility.yul\":1038:1167   */\n  swap2\n  swap1\n  pop\n  jump\t// out\n    /* \"#utility.yul\":1173:1494   */\ntag_27:\n    /* \"#utility.yul\":1260:1264   */\n  0x00\n    /* \"#utility.yul\":1350:1368   */\n  0xffffffffffffffff\n    /* \"#utility.yul\":1342:1348   */\n  dup3\n    /* \"#utility.yul\":1339:1369   */\n  gt\n    /* \"#utility.yul\":1336:1392   */\n  iszero\n  tag_73\n  jumpi\n    /* \"#utility.yul\":1372:1390   */\n  tag_74\n  tag_24\n  jump\t// in\ntag_74:\n    /* \"#utility.yul\":1336:1392   */\ntag_73:\n    /* \"#utility.yul\":1422:1426   */\n  0x20\n    /* \"#utility.yul\":1414:1420   */\n  dup3\n    /* \"#utility.yul\":1410:1427   */\n  mul\n    /* \"#utility.yul\":1402:1427   */\n  swap1\n  pop\n    /* \"#utility.yul\":1482:1486   */\n  0x20\n    /* \"#utility.yul\":1476:1480   */\n  dup2\n    /* \"#utility.yul\":1472:1487   */\n  add\n    /* \"#utility.yul\":1464:1487   */\n  swap1\n  pop\n    /* \"#utility.yul\":1173:1494   */\n  swap2\n  swap1\n  pop\n  jump\t// out\n    /* \"#utility.yul\":1500:1617   */\ntag_28:\n    /* \"#utility.yul\":1609:1610   */\n  0x00\n    /* \"#utility.yul\":1606:1607   */\n  0x00\n    /* \"#utility.yul\":1599:1611   */\n  revert\n    /* \"#utility.yul\":1623:1740   */\ntag_29:\n    /* \"#utility.yul\":1732:1733   */\n  0x00\n    /* \"#utility.yul\":1729:1730   */\n  0x00\n    /* \"#utility.yul\":1722:1734   */\n  revert\n    /* \"#utility.yul\":1746:2054   */\ntag_30:\n    /* \"#utility.yul\":1808:1812   */\n  0x00\n    /* \"#utility.yul\":1898:1916   */\n  0xffffffffffffffff\n    /* \"#utility.yul\":1890:1896   */\n  dup3\n    /* \"#utility.yul\":1887:1917   */\n  gt\n    /* \"#utility.yul\":1884:1940   */\n  iszero\n  tag_78\n  jumpi\n    /* \"#utility.yul\":1920:1938   */\n  tag_79\n  tag_24\n  jump\t// in\ntag_79:\n    /* \"#utility.yul\":1884:1940   */\ntag_78:\n    /* \"#utility.yul\":1958:1987   */\n  tag_80\n    /* \"#utility.yul\":1980:1986   */\n  dup3\n    /* \"#utility.yul\":1958:1987   */\n  tag_23\n  jump\t// in\ntag_80:\n    /* \"#utility.yul\":1950:1987   */\n  swap1\n  pop\n    /* \"#utility.yul\":2042:2046   */\n  0x20\n    /* \"#utility.yul\":2036:2040   */\n  dup2\n    /* \"#utility.yul\":2032:2047   */\n  add\n    /* \"#utility.yul\":2024:2047   */\n  swap1\n  pop\n    /* \"#utility.yul\":1746:2054   */\n  swap2\n  swap1\n  pop\n  jump\t// out\n    /* \"#utility.yul\":2060:2199   */\ntag_31:\n    /* \"#utility.yul\":2149:2155   */\n  dup3\n    /* \"#utility.yul\":2144:2147   */\n  dup2\n    /* \"#utility.yul\":2139:2142   */\n  dup4\n    /* \"#utility.yul\":2133:2156   */\n  mcopy\n    /* \"#utility.yul\":2190:2191   */\n  0x00\n    /* \"#utility.yul\":2181:2187   */\n  dup4\n    /* \"#utility.yul\":2176:2179   */\n  dup4\n    /* \"#utility.yul\":2172:2188   */\n  add\n    /* \"#utility.yul\":2165:2192   */\n  mstore\n    /* \"#utility.yul\":2060:2199   */\n  pop\n  pop\n  pop\n  jump\t// out\n    /* \"#utility.yul\":2205:2639   */\ntag_32:\n    /* \"#utility.yul\":2294:2299   */\n  0x00\n    /* \"#utility.yul\":2319:2385   */\n  tag_83\n    /* \"#utility.yul\":2335:2384   */\n  tag_84\n    /* \"#utility.yul\":2377:2383   */\n  dup5\n    /* \"#utility.yul\":2335:2384   */\n  tag_30\n  jump\t// in\ntag_84:\n    /* \"#utility.yul\":2319:2385   */\n  tag_26\n  jump\t// in\ntag_83:\n    /* \"#utility.yul\":2310:2385   */\n  swap1\n  pop\n    /* \"#utility.yul\":2408:2414   */\n  dup3\n    /* \"#utility.yul\":2401:2406   */\n  dup2\n    /* \"#utility.yul\":2394:2415   */\n  mstore\n    /* \"#utility.yul\":2446:2450   */\n  0x20\n    /* \"#utility.yul\":2439:2444   */\n  dup2\n    /* \"#utility.yul\":2435:2451   */\n  add\n    /* \"#utility.yul\":2484:2487   */\n  dup5\n    /* \"#utility.yul\":2475:2481   */\n  dup5\n    /* \"#utility.yul\":2470:2473   */\n  dup5\n    /* \"#utility.yul\":2466:2482   */\n  add\n    /* \"#utility.yul\":2463:2488   */\n  gt\n    /* \"#utility.yul\":2460:2572   */\n  iszero\n  tag_85\n  jumpi\n    /* \"#utility.yul\":2491:2570   */\n  tag_86\n  tag_29\n  jump\t// in\ntag_86:\n    /* \"#utility.yul\":2460:2572   */\ntag_85:\n    /* \"#utility.yul\":2581:2633   */\n  tag_87\n    /* \"#utility.yul\":2626:2632   */\n  dup5\n    /* \"#utility.yul\":2621:2624   */\n  dup3\n    /* \"#utility.yul\":2616:2619   */\n  dup6\n    /* \"#utility.yul\":2581:2633   */\n  tag_31\n  jump\t// in\ntag_87:\n    /* \"#utility.yul\":2300:2639   */\n  pop\n    /* \"#utility.yul\":2205:2639   */\n  swap4\n  swap3\n  pop\n  pop\n  pop\n  jump\t// out\n    /* \"#utility.yul\":2659:3014   */\ntag_33:\n    /* \"#utility.yul\":2726:2731   */\n  0x00\n    /* \"#utility.yul\":2775:2778   */\n  dup3\n    /* \"#utility.yul\":2768:2772   */\n  0x1f\n    /* \"#utility.yul\":2760:2766   */\n  dup4\n    /* \"#utility.yul\":2756:2773   */\n  add\n    /* \"#utility.yul\":2752:2779   */\n  slt\n    /* \"#utility.yul\":2742:2864   */\n  tag_89\n  jumpi\n    /* \"#utility.yul\":2783:2862   */\n  tag_90\n  tag_22\n  jump\t// in\ntag_90:\n    /* \"#utility.yul\":2742:2864   */\ntag_89:\n    /* \"#utility.yul\":2893:2899   */\n  dup2\n    /* \"#utility.yul\":2887:2900   */\n  mload\n    /* \"#utility.yul\":2918:3008   */\n  tag_91\n    /* \"#utility.yul\":3004:3007   */\n  dup5\n    /* \"#utility.yul\":2996:3002   */\n  dup3\n    /* \"#utility.yul\":2989:2993   */\n  0x20\n    /* \"#utility.yul\":2981:2987   */\n  dup7\n    /* \"#utility.yul\":2977:2994   */\n  add\n    /* \"#utility.yul\":2918:3008   */\n  tag_32\n  jump\t// in\ntag_91:\n    /* \"#utility.yul\":2909:3008   */\n  swap2\n  pop\n    /* \"#utility.yul\":2732:3014   */\n  pop\n    /* \"#utility.yul\":2659:3014   */\n  swap3\n  swap2\n  pop\n  pop\n  jump\t// out\n    /* \"#utility.yul\":3036:3996   */\ntag_34:\n    /* \"#utility.yul\":3153:3158   */\n  0x00\n    /* \"#utility.yul\":3178:3269   */\n  tag_93\n    /* \"#utility.yul\":3194:3268   */\n  tag_94\n    /* \"#utility.yul\":3261:3267   */\n  dup5\n    /* \"#utility.yul\":3194:3268   */\n  tag_27\n  jump\t// in\ntag_94:\n    /* \"#utility.yul\":3178:3269   */\n  tag_26\n  jump\t// in\ntag_93:\n    /* \"#utility.yul\":3169:3269   */\n  swap1\n  pop\n    /* \"#utility.yul\":3289:3294   */\n  dup1\n    /* \"#utility.yul\":3318:3324   */\n  dup4\n    /* \"#utility.yul\":3311:3316   */\n  dup3\n    /* \"#utility.yul\":3304:3325   */\n  mstore\n    /* \"#utility.yul\":3352:3356   */\n  0x20\n    /* \"#utility.yul\":3345:3350   */\n  dup3\n    /* \"#utility.yul\":3341:3357   */\n  add\n    /* \"#utility.yul\":3334:3357   */\n  swap1\n  pop\n    /* \"#utility.yul\":3405:3409   */\n  0x20\n    /* \"#utility.yul\":3397:3403   */\n  dup5\n    /* \"#utility.yul\":3393:3410   */\n  mul\n    /* \"#utility.yul\":3385:3391   */\n  dup4\n    /* \"#utility.yul\":3381:3411   */\n  add\n    /* \"#utility.yul\":3434:3437   */\n  dup6\n    /* \"#utility.yul\":3426:3432   */\n  dup2\n    /* \"#utility.yul\":3423:3438   */\n  gt\n    /* \"#utility.yul\":3420:3542   */\n  iszero\n  tag_95\n  jumpi\n    /* \"#utility.yul\":3453:3532   */\n  tag_96\n  tag_28\n  jump\t// in\ntag_96:\n    /* \"#utility.yul\":3420:3542   */\ntag_95:\n    /* \"#utility.yul\":3568:3574   */\n  dup4\n    /* \"#utility.yul\":3551:3990   */\ntag_97:\n    /* \"#utility.yul\":3585:3591   */\n  dup2\n    /* \"#utility.yul\":3580:3583   */\n  dup2\n    /* \"#utility.yul\":3577:3592   */\n  lt\n    /* \"#utility.yul\":3551:3990   */\n  iszero\n  tag_99\n  jumpi\n    /* \"#utility.yul\":3667:3670   */\n  dup1\n    /* \"#utility.yul\":3661:3671   */\n  mload\n    /* \"#utility.yul\":3703:3721   */\n  0xffffffffffffffff\n    /* \"#utility.yul\":3690:3701   */\n  dup2\n    /* \"#utility.yul\":3687:3722   */\n  gt\n    /* \"#utility.yul\":3684:3806   */\n  iszero\n  tag_100\n  jumpi\n    /* \"#utility.yul\":3725:3804   */\n  tag_101\n  tag_22\n  jump\t// in\ntag_101:\n    /* \"#utility.yul\":3684:3806   */\ntag_100:\n    /* \"#utility.yul\":3849:3860   */\n  dup1\n    /* \"#utility.yul\":3841:3847   */\n  dup7\n    /* \"#utility.yul\":3837:3861   */\n  add\n    /* \"#utility.yul\":3887:3945   */\n  tag_102\n    /* \"#utility.yul\":3941:3944   */\n  dup10\n    /* \"#utility.yul\":3929:3939   */\n  dup3\n    /* \"#utility.yul\":3887:3945   */\n  tag_33\n  jump\t// in\ntag_102:\n    /* \"#utility.yul\":3882:3885   */\n  dup6\n    /* \"#utility.yul\":3875:3946   */\n  mstore\n    /* \"#utility.yul\":3975:3979   */\n  0x20\n    /* \"#utility.yul\":3970:3973   */\n  dup6\n    /* \"#utility.yul\":3966:3980   */\n  add\n    /* \"#utility.yul\":3959:3980   */\n  swap5\n  pop\n    /* \"#utility.yul\":3627:3990   */\n  pop\n  pop\n    /* \"#utility.yul\":3611:3615   */\n  0x20\n    /* \"#utility.yul\":3606:3609   */\n  dup2\n    /* \"#utility.yul\":3602:3616   */\n  add\n    /* \"#utility.yul\":3595:3616   */\n  swap1\n  pop\n    /* \"#utility.yul\":3551:3990   */\n  jump(tag_97)\ntag_99:\n    /* \"#utility.yul\":3555:3576   */\n  pop\n    /* \"#utility.yul\":3159:3996   */\n  pop\n  pop\n    /* \"#utility.yul\":3036:3996   */\n  swap4\n  swap3\n  pop\n  pop\n  pop\n  jump\t// out\n    /* \"#utility.yul\":4018:4423   */\ntag_35:\n    /* \"#utility.yul\":4110:4115   */\n  0x00\n    /* \"#utility.yul\":4159:4162   */\n  dup3\n    /* \"#utility.yul\":4152:4156   */\n  0x1f\n    /* \"#utility.yul\":4144:4150   */\n  dup4\n    /* \"#utility.yul\":4140:4157   */\n  add\n    /* \"#utility.yul\":4136:4163   */\n  slt\n    /* \"#utility.yul\":4126:4248   */\n  tag_104\n  jumpi\n    /* \"#utility.yul\":4167:4246   */\n  tag_105\n  tag_22\n  jump\t// in\ntag_105:\n    /* \"#utility.yul\":4126:4248   */\ntag_104:\n    /* \"#utility.yul\":4277:4283   */\n  dup2\n    /* \"#utility.yul\":4271:4284   */\n  mload\n    /* \"#utility.yul\":4302:4417   */\n  tag_106\n    /* \"#utility.yul\":4413:4416   */\n  dup5\n    /* \"#utility.yul\":4405:4411   */\n  dup3\n    /* \"#utility.yul\":4398:4402   */\n  0x20\n    /* \"#utility.yul\":4390:4396   */\n  dup7\n    /* \"#utility.yul\":4386:4403   */\n  add\n    /* \"#utility.yul\":4302:4417   */\n  tag_34\n  jump\t// in\ntag_106:\n    /* \"#utility.yul\":4293:4417   */\n  swap2\n  pop\n    /* \"#utility.yul\":4116:4423   */\n  pop\n    /* \"#utility.yul\":4018:4423   */\n  swap3\n  swap2\n  pop\n  pop\n  jump\t// out\n    /* \"#utility.yul\":4429:5003   */\ntag_3:\n    /* \"#utility.yul\":4534:4540   */\n  0x00\n    /* \"#utility.yul\":4583:4585   */\n  0x20\n    /* \"#utility.yul\":4571:4580   */\n  dup3\n    /* \"#utility.yul\":4562:4569   */\n  dup5\n    /* \"#utility.yul\":4558:4581   */\n  sub\n    /* \"#utility.yul\":4554:4586   */\n  slt\n    /* \"#utility.yul\":4551:4670   */\n  iszero\n  tag_108\n  jumpi\n    /* \"#utility.yul\":4589:4668   */\n  tag_109\n  tag_20\n  jump\t// in\ntag_109:\n    /* \"#utility.yul\":4551:4670   */\ntag_108:\n    /* \"#utility.yul\":4730:4731   */\n  0x00\n    /* \"#utility.yul\":4719:4728   */\n  dup3\n    /* \"#utility.yul\":4715:4732   */\n  add\n    /* \"#utility.yul\":4709:4733   */\n  mload\n    /* \"#utility.yul\":4760:4778   */\n  0xffffffffffffffff\n    /* \"#utility.yul\":4752:4758   */\n  dup2\n    /* \"#utility.yul\":4749:4779   */\n  gt\n    /* \"#utility.yul\":4746:4863   */\n  iszero\n  tag_110\n  jumpi\n    /* \"#utility.yul\":4782:4861   */\n  tag_111\n  tag_21\n  jump\t// in\ntag_111:\n    /* \"#utility.yul\":4746:4863   */\ntag_110:\n    /* \"#utility.yul\":4887:4986   */\n  tag_112\n    /* \"#utility.yul\":4978:4985   */\n  dup5\n    /* \"#utility.yul\":4969:4975   */\n  dup3\n    /* \"#utility.yul\":4958:4967   */\n  dup6\n    /* \"#utility.yul\":4954:4976   */\n  add\n    /* \"#utility.yul\":4887:4986   */\n  tag_35\n  jump\t// in\ntag_112:\n    /* \"#utility.yul\":4877:4986   */\n  swap2\n  pop\n    /* \"#utility.yul\":4680:4996   */\n  pop\n    /* \"#utility.yul\":4429:5003   */\n  swap3\n  swap2\n  pop\n  pop\n  jump\t// out\n    /* \"#utility.yul\":5009:5178   */\ntag_36:\n    /* \"#utility.yul\":5093:5104   */\n  0x00\n    /* \"#utility.yul\":5127:5133   */\n  dup3\n    /* \"#utility.yul\":5122:5125   */\n  dup3\n    /* \"#utility.yul\":5115:5134   */\n  mstore\n    /* \"#utility.yul\":5167:5171   */\n  0x20\n    /* \"#utility.yul\":5162:5165   */\n  dup3\n    /* \"#utility.yul\":5158:5172   */\n  add\n    /* \"#utility.yul\":5143:5172   */\n  swap1\n  pop\n    /* \"#utility.yul\":5009:5178   */\n  swap3\n  swap2\n  pop\n  pop\n  jump\t// out\n    /* \"#utility.yul\":5184:5364   */\ntag_37:\n    /* \"#utility.yul\":5324:5356   */\n  0x566f74696e673a206e6f2063616e646964617465732070726f76696465640000\n    /* \"#utility.yul\":5320:5321   */\n  0x00\n    /* \"#utility.yul\":5312:5318   */\n  dup3\n    /* \"#utility.yul\":5308:5322   */\n  add\n    /* \"#utility.yul\":5301:5357   */\n  mstore\n    /* \"#utility.yul\":5184:5364   */\n  pop\n  jump\t// out\n    /* \"#utility.yul\":5370:5736   */\ntag_38:\n    /* \"#utility.yul\":5512:5515   */\n  0x00\n    /* \"#utility.yul\":5533:5600   */\n  tag_116\n    /* \"#utility.yul\":5597:5599   */\n  0x1e\n    /* \"#utility.yul\":5592:5595   */\n  dup4\n    /* \"#utility.yul\":5533:5600   */\n  tag_36\n  jump\t// in\ntag_116:\n    /* \"#utility.yul\":5526:5600   */\n  swap2\n  pop\n    /* \"#utility.yul\":5609:5702   */\n  tag_117\n    /* \"#utility.yul\":5698:5701   */\n  dup3\n    /* \"#utility.yul\":5609:5702   */\n  tag_37\n  jump\t// in\ntag_117:\n    /* \"#utility.yul\":5727:5729   */\n  0x20\n    /* \"#utility.yul\":5722:5725   */\n  dup3\n    /* \"#utility.yul\":5718:5730   */\n  add\n    /* \"#utility.yul\":5711:5730   */\n  swap1\n  pop\n    /* \"#utility.yul\":5370:5736   */\n  swap2\n  swap1\n  pop\n  jump\t// out\n    /* \"#utility.yul\":5742:6161   */\ntag_8:\n    /* \"#utility.yul\":5908:5912   */\n  0x00\n    /* \"#utility.yul\":5946:5948   */\n  0x20\n    /* \"#utility.yul\":5935:5944   */\n  dup3\n    /* \"#utility.yul\":5931:5949   */\n  add\n    /* \"#utility.yul\":5923:5949   */\n  swap1\n  pop\n    /* \"#utility.yul\":5995:6004   */\n  dup2\n    /* \"#utility.yul\":5989:5993   */\n  dup2\n    /* \"#utility.yul\":5985:6005   */\n  sub\n    /* \"#utility.yul\":5981:5982   */\n  0x00\n    /* \"#utility.yul\":5970:5979   */\n  dup4\n    /* \"#utility.yul\":5966:5983   */\n  add\n    /* \"#utility.yul\":5959:6006   */\n  mstore\n    /* \"#utility.yul\":6023:6154   */\n  tag_119\n    /* \"#utility.yul\":6149:6153   */\n  dup2\n    /* \"#utility.yul\":6023:6154   */\n  tag_38\n  jump\t// in\ntag_119:\n    /* \"#utility.yul\":6015:6154   */\n  swap1\n  pop\n    /* \"#utility.yul\":5742:6161   */\n  swap2\n  swap1\n  pop\n  jump\t// out\n    /* \"#utility.yul\":6167:6347   */\ntag_14:\n    /* \"#utility.yul\":6215:6292   */\n  0x4e487b7100000000000000000000000000000000000000000000000000000000\n    /* \"#utility.yul\":6212:6213   */\n  0x00\n    /* \"#utility.yul\":6205:6293   */\n  mstore\n    /* \"#utility.yul\":6312:6316   */\n  0x32\n    /* \"#utility.yul\":6309:6310   */\n  0x04\n    /* \"#utility.yul\":6302:6317   */\n  mstore\n    /* \"#utility.yul\":6336:6340   */\n  0x24\n    /* \"#utility.yul\":6333:6334   */\n  0x00\n    /* \"#utility.yul\":6326:6341   */\n  revert\n    /* \"#utility.yul\":6353:6452   */\ntag_39:\n    /* \"#utility.yul\":6405:6411   */\n  0x00\n    /* \"#utility.yul\":6439:6444   */\n  dup2\n    /* \"#utility.yul\":6433:6445   */\n  mload\n    /* \"#utility.yul\":6423:6445   */\n  swap1\n  pop\n    /* \"#utility.yul\":6353:6452   */\n  swap2\n  swap1\n  pop\n  jump\t// out\n    /* \"#utility.yul\":6458:6638   */\ntag_40:\n    /* \"#utility.yul\":6506:6583   */\n  0x4e487b7100000000000000000000000000000000000000000000000000000000\n    /* \"#utility.yul\":6503:6504   */\n  0x00\n    /* \"#utility.yul\":6496:6584   */\n  mstore\n    /* \"#utility.yul\":6603:6607   */\n  0x22\n    /* \"#utility.yul\":6600:6601   */\n  0x04\n    /* \"#utility.yul\":6593:6608   */\n  mstore\n    /* \"#utility.yul\":6627:6631   */\n  0x24\n    /* \"#utility.yul\":6624:6625   */\n  0x00\n    /* \"#utility.yul\":6617:6632   */\n  revert\n    /* \"#utility.yul\":6644:6964   */\ntag_41:\n    /* \"#utility.yul\":6688:6694   */\n  0x00\n    /* \"#utility.yul\":6725:6726   */\n  0x02\n    /* \"#utility.yul\":6719:6723   */\n  dup3\n    /* \"#utility.yul\":6715:6727   */\n  div\n    /* \"#utility.yul\":6705:6727   */\n  swap1\n  pop\n    /* \"#utility.yul\":6772:6773   */\n  0x01\n    /* \"#utility.yul\":6766:6770   */\n  dup3\n    /* \"#utility.yul\":6762:6774   */\n  and\n    /* \"#utility.yul\":6793:6811   */\n  dup1\n    /* \"#utility.yul\":6783:6864   */\n  tag_124\n  jumpi\n    /* \"#utility.yul\":6849:6853   */\n  0x7f\n    /* \"#utility.yul\":6841:6847   */\n  dup3\n    /* \"#utility.yul\":6837:6854   */\n  and\n    /* \"#utility.yul\":6827:6854   */\n  swap2\n  pop\n    /* \"#utility.yul\":6783:6864   */\ntag_124:\n    /* \"#utility.yul\":6911:6913   */\n  0x20\n    /* \"#utility.yul\":6903:6909   */\n  dup3\n    /* \"#utility.yul\":6900:6914   */\n  lt\n    /* \"#utility.yul\":6880:6898   */\n  dup2\n    /* \"#utility.yul\":6877:6915   */\n  sub\n    /* \"#utility.yul\":6874:6958   */\n  tag_125\n  jumpi\n    /* \"#utility.yul\":6930:6948   */\n  tag_126\n  tag_40\n  jump\t// in\ntag_126:\n    /* \"#utility.yul\":6874:6958   */\ntag_125:\n    /* \"#utility.yul\":6695:6964   */\n  pop\n    /* \"#utility.yul\":6644:6964   */\n  swap2\n  swap1\n  pop\n  jump\t// out\n    /* \"#utility.yul\":6970:7111   */\ntag_42:\n    /* \"#utility.yul\":7019:7023   */\n  0x00\n    /* \"#utility.yul\":7042:7045   */\n  dup2\n    /* \"#utility.yul\":7034:7045   */\n  swap1\n  pop\n    /* \"#utility.yul\":7065:7068   */\n  dup2\n    /* \"#utility.yul\":7062:7063   */\n  0x00\n    /* \"#utility.yul\":7055:7069   */\n  mstore\n    /* \"#utility.yul\":7099:7103   */\n  0x20\n    /* \"#utility.yul\":7096:7097   */\n  0x00\n    /* \"#utility.yul\":7086:7104   */\n  keccak256\n    /* \"#utility.yul\":7078:7104   */\n  swap1\n  pop\n    /* \"#utility.yul\":6970:7111   */\n  swap2\n  swap1\n  pop\n  jump\t// out\n    /* \"#utility.yul\":7117:7210   */\ntag_43:\n    /* \"#utility.yul\":7154:7160   */\n  0x00\n    /* \"#utility.yul\":7201:7203   */\n  0x20\n    /* \"#utility.yul\":7196:7198   */\n  0x1f\n    /* \"#utility.yul\":7189:7194   */\n  dup4\n    /* \"#utility.yul\":7185:7199   */\n  add\n    /* \"#utility.yul\":7181:7204   */\n  div\n    /* \"#utility.yul\":7171:7204   */\n  swap1\n  pop\n    /* \"#utility.yul\":7117:7210   */\n  swap2\n  swap1\n  pop\n  jump\t// out\n    /* \"#utility.yul\":7216:7323   */\ntag_44:\n    /* \"#utility.yul\":7260:7268   */\n  0x00\n    /* \"#utility.yul\":7310:7315   */\n  dup3\n    /* \"#utility.yul\":7304:7308   */\n  dup3\n    /* \"#utility.yul\":7300:7316   */\n  shl\n    /* \"#utility.yul\":7279:7316   */\n  swap1\n  pop\n    /* \"#utility.yul\":7216:7323   */\n  swap3\n  swap2\n  pop\n  pop\n  jump\t// out\n    /* \"#utility.yul\":7329:7722   */\ntag_45:\n    /* \"#utility.yul\":7398:7404   */\n  0x00\n    /* \"#utility.yul\":7448:7449   */\n  0x08\n    /* \"#utility.yul\":7436:7446   */\n  dup4\n    /* \"#utility.yul\":7432:7450   */\n  mul\n    /* \"#utility.yul\":7471:7568   */\n  tag_131\n    /* \"#utility.yul\":7501:7567   */\n  0xffffffffffffffffffffffffffffffffffffffffffffffffffffffffffffffff\n    /* \"#utility.yul\":7490:7499   */\n  dup3\n    /* \"#utility.yul\":7471:7568   */\n  tag_44\n  jump\t// in\ntag_131:\n    /* \"#utility.yul\":7589:7628   */\n  tag_132\n    /* \"#utility.yul\":7619:7627   */\n  dup7\n    /* \"#utility.yul\":7608:7617   */\n  dup4\n    /* \"#utility.yul\":7589:7628   */\n  tag_44\n  jump\t// in\ntag_132:\n    /* \"#utility.yul\":7577:7628   */\n  swap6\n  pop\n    /* \"#utility.yul\":7661:7665   */\n  dup1\n    /* \"#utility.yul\":7657:7666   */\n  not\n    /* \"#utility.yul\":7650:7655   */\n  dup5\n    /* \"#utility.yul\":7646:7667   */\n  and\n    /* \"#utility.yul\":7637:7667   */\n  swap4\n  pop\n    /* \"#utility.yul\":7710:7714   */\n  dup1\n    /* \"#utility.yul\":7700:7708   */\n  dup7\n    /* \"#utility.yul\":7696:7715   */\n  and\n    /* \"#utility.yul\":7689:7694   */\n  dup5\n    /* \"#utility.yul\":7686:7716   */\n  or\n    /* \"#utility.yul\":7676:7716   */\n  swap3\n  pop\n    /* \"#utility.yul\":7405:7722   */\n  pop\n  pop\n    /* \"#utility.yul\":7329:7722   */\n  swap4\n  swap3\n  pop\n  pop\n  pop\n  jump\t// out\n    /* \"#utility.yul\":7728:7805   */\ntag_46:\n    /* \"#utility.yul\":7765:7772   */\n  0x00\n    /* \"#utility.yul\":7794:7799   */\n  dup2\n    /* \"#utility.yul\":7783:7799   */\n  swap1\n  pop\n    /* \"#utility.yul\":7728:7805   */\n  swap2\n  swap1\n  pop\n  jump\t// out\n    /* \"#utility.yul\":7811:7871   */\ntag_47:\n    /* \"#utility.yul\":7839:7842   */\n  0x00\n    /* \"#utility.yul\":7860:7865   */\n  dup2\n    /* \"#utility.yul\":7853:7865   */\n  swap1\n  pop\n    /* \"#utility.yul\":7811:7871   */\n  swap2\n  swap1\n  pop\n  jump\t// out\n    /* \"#utility.yul\":7877:8019   */\ntag_48:\n    /* \"#utility.yul\":7927:7936   */\n  0x00\n    /* \"#utility.yul\":7960:8013   */\n  tag_136\n    /* \"#utility.yul\":7978:8012   */\n  tag_137\n    /* \"#utility.yul\":7987:8011   */\n  tag_138\n    /* \"#utility.yul\":8005:8010   */\n  dup5\n    /* \"#utility.yul\":7987:8011   */\n  tag_46\n  jump\t// in\ntag_138:\n    /* \"#utility.yul\":7978:8012   */\n  tag_47\n  jump\t// in\ntag_137:\n    /* \"#utility.yul\":7960:8013   */\n  tag_46\n  jump\t// in\ntag_136:\n    /* \"#utility.yul\":7947:8013   */\n  swap1\n  pop\n    /* \"#utility.yul\":7877:8019   */\n  swap2\n  swap1\n  pop\n  jump\t// out\n    /* \"#utility.yul\":8025:8100   */\ntag_49:\n    /* \"#utility.yul\":8068:8071   */\n  0x00\n    /* \"#utility.yul\":8089:8094   */\n  dup2\n    /* \"#utility.yul\":8082:8094   */\n  swap1\n  pop\n    /* \"#utility.yul\":8025:8100   */\n  swap2\n  swap1\n  pop\n  jump\t// out\n    /* \"#utility.yul\":8106:8375   */\ntag_50:\n    /* \"#utility.yul\":8216:8255   */\n  tag_141\n    /* \"#utility.yul\":8247:8254   */\n  dup4\n    /* \"#utility.yul\":8216:8255   */\n  tag_48\n  jump\t// in\ntag_141:\n    /* \"#utility.yul\":8277:8368   */\n  tag_142\n    /* \"#utility.yul\":8326:8367   */\n  tag_143\n    /* \"#utility.yul\":8350:8366   */\n  dup3\n    /* \"#utility.yul\":8326:8367   */\n  tag_49\n  jump\t// in\ntag_143:\n    /* \"#utility.yul\":8318:8324   */\n  dup5\n    /* \"#utility.yul\":8311:8315   */\n  dup5\n    /* \"#utility.yul\":8305:8316   */\n  sload\n    /* \"#utility.yul\":8277:8368   */\n  tag_45\n  jump\t// in\ntag_142:\n    /* \"#utility.yul\":8271:8275   */\n  dup3\n    /* \"#utility.yul\":8264:8369   */\n  sstore\n    /* \"#utility.yul\":8182:8375   */\n  pop\n    /* \"#utility.yul\":8106:8375   */\n  pop\n  pop\n  pop\n  jump\t// out\n    /* \"#utility.yul\":8381:8454   */\ntag_51:\n    /* \"#utility.yul\":8426:8429   */\n  0x00\n    /* \"#utility.yul\":8447:8448   */\n  0x00\n    /* \"#utility.yul\":8440:8448   */\n  swap1\n  pop\n    /* \"#utility.yul\":8381:8454   */\n  swap1\n  jump\t// out\n    /* \"#utility.yul\":8460:8649   */\ntag_52:\n    /* \"#utility.yul\":8537:8569   */\n  tag_146\n  tag_51\n  jump\t// in\ntag_146:\n    /* \"#utility.yul\":8578:8643   */\n  tag_147\n    /* \"#utility.yul\":8636:8642   */\n  dup2\n    /* \"#utility.yul\":8628:8634   */\n  dup5\n    /* \"#utility.yul\":8622:8626   */\n  dup5\n    /* \"#utility.yul\":8578:8643   */\n  tag_50\n  jump\t// in\ntag_147:\n    /* \"#utility.yul\":8513:8649   */\n  pop\n    /* \"#utility.yul\":8460:8649   */\n  pop\n  pop\n  jump\t// out\n    /* \"#utility.yul\":8655:8841   */\ntag_53:\n    /* \"#utility.yul\":8715:8835   */\ntag_149:\n    /* \"#utility.yul\":8732:8735   */\n  dup2\n    /* \"#utility.yul\":8725:8730   */\n  dup2\n    /* \"#utility.yul\":8722:8736   */\n  lt\n    /* \"#utility.yul\":8715:8835   */\n  iszero\n  tag_151\n  jumpi\n    /* \"#utility.yul\":8786:8825   */\n  tag_152\n    /* \"#utility.yul\":8823:8824   */\n  0x00\n    /* \"#utility.yul\":8816:8821   */\n  dup3\n    /* \"#utility.yul\":8786:8825   */\n  tag_52\n  jump\t// in\ntag_152:\n    /* \"#utility.yul\":8759:8760   */\n  0x01\n    /* \"#utility.yul\":8752:8757   */\n  dup2\n    /* \"#utility.yul\":8748:8761   */\n  add\n    /* \"#utility.yul\":8739:8761   */\n  swap1\n  pop\n    /* \"#utility.yul\":8715:8835   */\n  jump(tag_149)\ntag_151:\n    /* \"#utility.yul\":8655:8841   */\n  pop\n  pop\n  jump\t// out\n    /* \"#utility.yul\":8847:9390   */\ntag_54:\n    /* \"#utility.yul\":8948:8950   */\n  0x1f\n    /* \"#utility.yul\":8943:8946   */\n  dup3\n    /* \"#utility.yul\":8940:8951   */\n  gt\n    /* \"#utility.yul\":8937:9383   */\n  iszero\n  tag_154\n  jumpi\n    /* \"#utility.yul\":8982:9020   */\n  tag_155\n    /* \"#utility.yul\":9014:9019   */\n  dup2\n    /* \"#utility.yul\":8982:9020   */\n  tag_42\n  jump\t// in\ntag_155:\n    /* \"#utility.yul\":9066:9095   */\n  tag_156\n    /* \"#utility.yul\":9084:9094   */\n  dup5\n    /* \"#utility.yul\":9066:9095   */\n  tag_43\n  jump\t// in\ntag_156:\n    /* \"#utility.yul\":9056:9064   */\n  dup2\n    /* \"#utility.yul\":9052:9096   */\n  add\n    /* \"#utility.yul\":9249:9251   */\n  0x20\n    /* \"#utility.yul\":9237:9247   */\n  dup6\n    /* \"#utility.yul\":9234:9252   */\n  lt\n    /* \"#utility.yul\":9231:9280   */\n  iszero\n  tag_157\n  jumpi\n    /* \"#utility.yul\":9270:9278   */\n  dup2\n    /* \"#utility.yul\":9255:9278   */\n  swap1\n  pop\n    /* \"#utility.yul\":9231:9280   */\ntag_157:\n    /* \"#utility.yul\":9293:9373   */\n  tag_158\n    /* \"#utility.yul\":9349:9371   */\n  tag_159\n    /* \"#utility.yul\":9367:9370   */\n  dup6\n    /* \"#utility.yul\":9349:9371   */\n  tag_43\n  jump\t// in\ntag_159:\n    /* \"#utility.yul\":9339:9347   */\n  dup4\n    /* \"#utility.yul\":9335:9372   */\n  add\n    /* \"#utility.yul\":9322:9333   */\n  dup3\n    /* \"#utility.yul\":9293:9373   */\n  tag_53\n  jump\t// in\ntag_158:\n    /* \"#utility.yul\":8952:9383   */\n  pop\n  pop\n    /* \"#utility.yul\":8937:9383   */\ntag_154:\n    /* \"#utility.yul\":8847:9390   */\n  pop\n  pop\n  pop\n  jump\t// out\n    /* \"#utility.yul\":9396:9513   */\ntag_55:\n    /* \"#utility.yul\":9450:9458   */\n  0x00\n    /* \"#utility.yul\":9500:9505   */\n  dup3\n    /* \"#utility.yul\":9494:9498   */\n  dup3\n    /* \"#utility.yul\":9490:9506   */\n  shr\n    /* \"#utility.yul\":9469:9506   */\n  swap1\n  pop\n    /* \"#utility.yul\":9396:9513   */\n  swap3\n  swap2\n  pop\n  pop\n  jump\t// out\n    /* \"#utility.yul\":9519:9688   */\ntag_56:\n    /* \"#utility.yul\":9563:9569   */\n  0x00\n    /* \"#utility.yul\":9596:9647   */\n  tag_162\n    /* \"#utility.yul\":9644:9645   */\n  0x00\n    /* \"#utility.yul\":9640:9646   */\n  not\n    /* \"#utility.yul\":9632:9637   */\n  dup5\n    /* \"#utility.yul\":9629:9630   */\n  0x08\n    /* \"#utility.yul\":9625:9638   */\n  mul\n    /* \"#utility.yul\":9596:9647   */\n  tag_55\n  jump\t// in\ntag_162:\n    /* \"#utility.yul\":9592:9648   */\n  not\n    /* \"#utility.yul\":9677:9681   */\n  dup1\n    /* \"#utility.yul\":9671:9675   */\n  dup4\n    /* \"#utility.yul\":9667:9682   */\n  and\n    /* \"#utility.yul\":9657:9682   */\n  swap2\n  pop\n    /* \"#utility.yul\":9570:9688   */\n  pop\n    /* \"#utility.yul\":9519:9688   */\n  swap3\n  swap2\n  pop\n  pop\n  jump\t// out\n    /* \"#utility.yul\":9693:9988   */\ntag_57:\n    /* \"#utility.yul\":9769:9773   */\n  0x00\n    /* \"#utility.yul\":9915:9944   */\n  tag_164\n    /* \"#utility.yul\":9940:9943   */\n  dup4\n    /* \"#utility.yul\":9934:9938   */\n  dup4\n    /* \"#utility.yul\":9915:9944   */\n  tag_56\n  jump\t// in\ntag_164:\n    /* \"#utility.yul\":9907:9944   */\n  swap2\n  pop\n    /* \"#utility.yul\":9977:9980   */\n  dup3\n    /* \"#utility.yul\":9974:9975   */\n  0x02\n    /* \"#utility.yul\":9970:9981   */\n  mul\n    /* \"#utility.yul\":9964:9968   */\n  dup3\n    /* \"#utility.yul\":9961:9982   */\n  or\n    /* \"#utility.yul\":9953:9982   */\n  swap1\n  pop\n    /* \"#utility.yul\":9693:9988   */\n  swap3\n  swap2\n  pop\n  pop\n  jump\t// out\n    /* \"#utility.yul\":9993:11388   */\ntag_17:\n    /* \"#utility.yul\":10110:10147   */\n  tag_166\n    /* \"#utility.yul\":10143:10146   */\n  dup3\n    /* \"#utility.yul\":10110:10147   */\n  tag_39\n  jump\t// in\ntag_166:\n    /* \"#utility.yul\":10212:10230   */\n  0xffffffffffffffff\n    /* \"#utility.yul\":10204:10210   */\n  dup2\n    /* \"#utility.yul\":10201:10231   */\n  gt\n    /* \"#utility.yul\":10198:10254   */\n  iszero\n  tag_167\n  jumpi\n    /* \"#utility.yul\":10234:10252   */\n  tag_168\n  tag_24\n  jump\t// in\ntag_168:\n    /* \"#utility.yul\":10198:10254   */\ntag_167:\n    /* \"#utility.yul\":10278:10316   */\n  tag_169\n    /* \"#utility.yul\":10310:10314   */\n  dup3\n    /* \"#utility.yul\":10304:10315   */\n  sload\n    /* \"#utility.yul\":10278:10316   */\n  tag_41\n  jump\t// in\ntag_169:\n    /* \"#utility.yul\":10363:10430   */\n  tag_170\n    /* \"#utility.yul\":10423:10429   */\n  dup3\n    /* \"#utility.yul\":10415:10421   */\n  dup3\n    /* \"#utility.yul\":10409:10413   */\n  dup6\n    /* \"#utility.yul\":10363:10430   */\n  tag_54\n  jump\t// in\ntag_170:\n    /* \"#utility.yul\":10457:10458   */\n  0x00\n    /* \"#utility.yul\":10481:10485   */\n  0x20\n    /* \"#utility.yul\":10468:10485   */\n  swap1\n  pop\n    /* \"#utility.yul\":10513:10515   */\n  0x1f\n    /* \"#utility.yul\":10505:10511   */\n  dup4\n    /* \"#utility.yul\":10502:10516   */\n  gt\n    /* \"#utility.yul\":10530:10531   */\n  0x01\n    /* \"#utility.yul\":10525:11143   */\n  dup2\n  eq\n  tag_172\n  jumpi\n    /* \"#utility.yul\":11187:11188   */\n  0x00\n    /* \"#utility.yul\":11204:11210   */\n  dup5\n    /* \"#utility.yul\":11201:11278   */\n  iszero\n  tag_173\n  jumpi\n    /* \"#utility.yul\":11253:11262   */\n  dup3\n    /* \"#utility.yul\":11248:11251   */\n  dup8\n    /* \"#utility.yul\":11244:11263   */\n  add\n    /* \"#utility.yul\":11238:11264   */\n  mload\n    /* \"#utility.yul\":11229:11264   */\n  swap1\n  pop\n    /* \"#utility.yul\":11201:11278   */\ntag_173:\n    /* \"#utility.yul\":11304:11371   */\n  tag_174\n    /* \"#utility.yul\":11364:11370   */\n  dup6\n    /* \"#utility.yul\":11357:11362   */\n  dup3\n    /* \"#utility.yul\":11304:11371   */\n  tag_57\n  jump\t// in\ntag_174:\n    /* \"#utility.yul\":11298:11302   */\n  dup7\n    /* \"#utility.yul\":11291:11372   */\n  sstore\n    /* \"#utility.yul\":11160:11382   */\n  pop\n    /* \"#utility.yul\":10495:11382   */\n  jump(tag_171)\n    /* \"#utility.yul\":10525:11143   */\ntag_172:\n    /* \"#utility.yul\":10577:10581   */\n  0x1f\n    /* \"#utility.yul\":10573:10582   */\n  not\n    /* \"#utility.yul\":10565:10571   */\n  dup5\n    /* \"#utility.yul\":10561:10583   */\n  and\n    /* \"#utility.yul\":10611:10648   */\n  tag_175\n    /* \"#utility.yul\":10643:10647   */\n  dup7\n    /* \"#utility.yul\":10611:10648   */\n  tag_42\n  jump\t// in\ntag_175:\n    /* \"#utility.yul\":10670:10671   */\n  0x00\n    /* \"#utility.yul\":10684:10892   */\ntag_176:\n    /* \"#utility.yul\":10698:10705   */\n  dup3\n    /* \"#utility.yul\":10695:10696   */\n  dup2\n    /* \"#utility.yul\":10692:10706   */\n  lt\n    /* \"#utility.yul\":10684:10892   */\n  iszero\n  tag_178\n  jumpi\n    /* \"#utility.yul\":10777:10786   */\n  dup5\n    /* \"#utility.yul\":10772:10775   */\n  dup10\n    /* \"#utility.yul\":10768:10787   */\n  add\n    /* \"#utility.yul\":10762:10788   */\n  mload\n    /* \"#utility.yul\":10754:10760   */\n  dup3\n    /* \"#utility.yul\":10747:10789   */\n  sstore\n    /* \"#utility.yul\":10828:10829   */\n  0x01\n    /* \"#utility.yul\":10820:10826   */\n  dup3\n    /* \"#utility.yul\":10816:10830   */\n  add\n    /* \"#utility.yul\":10806:10830   */\n  swap2\n  pop\n    /* \"#utility.yul\":10875:10877   */\n  0x20\n    /* \"#utility.yul\":10864:10873   */\n  dup6\n    /* \"#utility.yul\":10860:10878   */\n  add\n    /* \"#utility.yul\":10847:10878   */\n  swap5\n  pop\n    /* \"#utility.yul\":10721:10725   */\n  0x20\n    /* \"#utility.yul\":10718:10719   */\n  dup2\n    /* \"#utility.yul\":10714:10726   */\n  add\n    /* \"#utility.yul\":10709:10726   */\n  swap1\n  pop\n    /* \"#utility.yul\":10684:10892   */\n  jump(tag_176)\ntag_178:\n    /* \"#utility.yul\":10920:10926   */\n  dup7\n    /* \"#utility.yul\":10911:10918   */\n  dup4\n    /* \"#utility.yul\":10908:10927   */\n  lt\n    /* \"#utility.yul\":10905:11084   */\n  iszero\n  tag_179\n  jumpi\n    /* \"#utility.yul\":10978:10987   */\n  dup5\n    /* \"#utility.yul\":10973:10976   */\n  dup10\n    /* \"#utility.yul\":10969:10988   */\n  add\n    /* \"#utility.yul\":10963:10989   */\n  mload\n    /* \"#utility.yul\":11021:11069   */\n  tag_180\n    /* \"#utility.yul\":11063:11067   */\n  0x1f\n    /* \"#utility.yul\":11055:11061   */\n  dup10\n    /* \"#utility.yul\":11051:11068   */\n  and\n    /* \"#utility.yul\":11040:11049   */\n  dup3\n    /* \"#utility.yul\":11021:11069   */\n  tag_56\n  jump\t// in\ntag_180:\n    /* \"#utility.yul\":11013:11019   */\n  dup4\n    /* \"#utility.yul\":11006:11070   */\n  sstore\n    /* \"#utility.yul\":10928:11084   */\n  pop\n    /* \"#utility.yul\":10905:11084   */\ntag_179:\n    /* \"#utility.yul\":11130:11131   */\n  0x01\n    /* \"#utility.yul\":11126:11127   */\n  0x02\n    /* \"#utility.yul\":11118:11124   */\n  dup9\n    /* \"#utility.yul\":11114:11128   */\n  mul\n    /* \"#utility.yul\":11110:11132   */\n  add\n    /* \"#utility.yul\":11104:11108   */\n  dup9\n    /* \"#utility.yul\":11097:11133   */\n  sstore\n    /* \"#utility.yul\":10532:11143   */\n  pop\n  pop\n  pop\n    /* \"#utility.yul\":10495:11382   */\ntag_171:\n  pop\n    /* \"#utility.yul\":10085:11388   */\n  pop\n  pop\n  pop\n    /* \"#utility.yul\":9993:11388   */\n  pop\n  pop\n  jump\t// out\n    /* \"contracts/7_Voting.sol\":253:1621  contract Voting {... */\ntag_18:\n  dataSize(sub_0)\n  dup1\n  dataOffset(sub_0)\n  0x00\n  codecopy\n  0x00\n  return\nstop\n\nsub_0: assembly {\n        /* \"contracts/7_Voting.sol\":253:1621  contract Voting {... */\n      mstore(0x40, 0x80)\n      callvalue\n      dup1\n      iszero\n      tag_1\n      jumpi\n      revert(0x00, 0x00)\n    tag_1:\n      pop\n      jumpi(tag_2, lt(calldatasize, 0x04))\n      shr(0xe0, calldataload(0x00))\n      dup1\n      0x0121b93f\n      eq\n      tag_3\n      jumpi\n      dup1\n      0x09eef43e\n      eq\n      tag_4\n      jumpi\n      dup1\n      0x3477ee2e\n      eq\n      tag_5\n      jumpi\n      dup1\n      0x4717f97c\n      eq\n      tag_6\n      jumpi\n    tag_2:\n      revert(0x00, 0x00)\n        /* \"contracts/7_Voting.sol\":1026:1328  function vote(uint256 index) public {... */\n    tag_3:\n      tag_7\n      0x04\n      dup1\n      calldatasize\n      sub\n      dup2\n      add\n      swap1\n      tag_8\n      swap2\n      swap1\n      tag_9\n      jump\t// in\n    tag_8:\n      tag_10\n      jump\t// in\n    tag_7:\n      stop\n        /* \"contracts/7_Voting.sol\":388:428  mapping(address => bool) public hasVoted */\n    tag_4:\n      tag_11\n      0x04\n      dup1\n      calldatasize\n      sub\n      dup2\n      add\n      swap1\n      tag_12\n      swap2\n      swap1\n      tag_13\n      jump\t// in\n    tag_12:\n      tag_14\n      jump\t// in\n    tag_11:\n      mload(0x40)\n      tag_15\n      swap2\n      swap1\n      tag_16\n      jump\t// in\n    tag_15:\n      mload(0x40)\n      dup1\n      swap2\n      sub\n      swap1\n      return\n        /* \"contracts/7_Voting.sol\":353:382  Candidate[] public candidates */\n    tag_5:\n      tag_17\n      0x04\n      dup1\n      calldatasize\n      sub\n      dup2\n      add\n      swap1\n      tag_18\n      swap2\n      swap1\n      tag_9\n      jump\t// in\n    tag_18:\n      tag_19\n      jump\t// in\n    tag_17:\n      mload(0x40)\n      tag_20\n      swap3\n      swap2\n      swap1\n      tag_21\n      jump\t// in\n    tag_20:\n      mload(0x40)\n      dup1\n      swap2\n      sub\n      swap1\n      return\n        /* \"contracts/7_Voting.sol\":1522:1619  function getResults() public view returns (Candidate[] memory) {... */\n    tag_6:\n      tag_22\n      tag_23\n      jump\t// in\n    tag_22:\n      mload(0x40)\n      tag_24\n      swap2\n      swap1\n      tag_25\n      jump\t// in\n    tag_24:\n      mload(0x40)\n      dup1\n      swap2\n      sub\n      swap1\n      return\n        /* \"contracts/7_Voting.sol\":1026:1328  function vote(uint256 index) public {... */\n    tag_10:\n        /* \"contracts/7_Voting.sol\":1081:1089  hasVoted */\n      0x01\n        /* \"contracts/7_Voting.sol\":1081:1101  hasVoted[msg.sender] */\n      0x00\n        /* \"contracts/7_Voting.sol\":1090:1100  msg.sender */\n      caller\n        /* \"contracts/7_Voting.sol\":1081:1101  hasVoted[msg.sender] */\n      0xffffffffffffffffffffffffffffffffffffffff\n      and\n      0xffffffffffffffffffffffffffffffffffffffff\n      and\n      dup2\n      mstore\n      0x20\n      add\n      swap1\n      dup2\n      mstore\n      0x20\n      add\n      0x00\n      keccak256\n      0x00\n      swap1\n      sload\n      swap1\n      0x0100\n      exp\n      swap1\n      div\n      0xff\n      and\n        /* \"contracts/7_Voting.sol\":1080:1101  !hasVoted[msg.sender] */\n      iszero\n        /* \"contracts/7_Voting.sol\":1072:1127  require(!hasVoted[msg.sender], \"Voting: already voted\") */\n      tag_27\n      jumpi\n      mload(0x40)\n      0x08c379a000000000000000000000000000000000000000000000000000000000\n      dup2\n      mstore\n      0x04\n      add\n      tag_28\n      swap1\n      tag_29\n      jump\t// in\n    tag_28:\n      mload(0x40)\n      dup1\n      swap2\n      sub\n      swap1\n      revert\n    tag_27:\n        /* \"contracts/7_Voting.sol\":1153:1163  candidates */\n      0x00\n        /* \"contracts/7_Voting.sol\":1153:1170  candidates.length */\n      dup1\n      sload\n      swap1\n      pop\n        /* \"contracts/7_Voting.sol\":1145:1150  index */\n      dup2\n        /* \"contracts/7_Voting.sol\":1145:1170  index < candidates.length */\n      lt\n        /* \"contracts/7_Voting.sol\":1137:1206  require(index < candidates.length, \"Voting: invalid candidate index\") */\n      tag_30\n      jumpi\n      mload(0x40)\n      0x08c379a000000000000000000000000000000000000000000000000000000000\n      dup2\n      mstore\n      0x04\n      add\n      tag_31\n      swap1\n      tag_32\n      jump\t// in\n    tag_31:\n      mload(0x40)\n      dup1\n      swap2\n      sub\n      swap1\n      revert\n    tag_30:\n        /* \"contracts/7_Voting.sol\":1239:1243  true */\n      0x01\n        /* \"contracts/7_Voting.sol\":1216:1224  hasVoted */\n      dup1\n        /* \"contracts/7_Voting.sol\":1216:1236  hasVoted[msg.sender] */\n      0x00\n        /* \"contracts/7_Voting.sol\":1225:1235  msg.sender */\n      caller\n        /* \"contracts/7_Voting.sol\":1216:1236  hasVoted[msg.sender] */\n      0xffffffffffffffffffffffffffffffffffffffff\n      and\n      0xffffffffffffffffffffffffffffffffffffffff\n      and\n      dup2\n      mstore\n      0x20\n      add\n      swap1\n      dup2\n      mstore\n      0x20\n      add\n      0x00\n      keccak256\n      0x00\n        /* \"contracts/7_Voting.sol\":1216:1243  hasVoted[msg.sender] = true */\n      0x0100\n      exp\n      dup2\n      sload\n      dup2\n      0xff\n      mul\n      not\n      and\n      swap1\n      dup4\n      iszero\n      iszero\n      mul\n      or\n      swap1\n      sstore\n      pop\n        /* \"contracts/7_Voting.sol\":1253:1263  candidates */\n      0x00\n        /* \"contracts/7_Voting.sol\":1264:1269  index */\n      dup2\n        /* \"contracts/7_Voting.sol\":1253:1270  candidates[index] */\n      dup2\n      sload\n      dup2\n      lt\n      tag_33\n      jumpi\n      tag_34\n      tag_35\n      jump\t// in\n    tag_34:\n    tag_33:\n      swap1\n      0x00\n      mstore\n      keccak256(0x00, 0x20)\n      swap1\n      0x02\n      mul\n      add\n        /* \"contracts/7_Voting.sol\":1253:1280  candidates[index].voteCount */\n      0x01\n      add\n      0x00\n        /* \"contracts/7_Voting.sol\":1253:1282  candidates[index].voteCount++ */\n      dup2\n      sload\n      dup1\n      swap3\n      swap2\n      swap1\n      tag_37\n      swap1\n      tag_38\n      jump\t// in\n    tag_37:\n      swap2\n      swap1\n      pop\n      sstore\n      pop\n        /* \"contracts/7_Voting.sol\":1297:1321  Voted(msg.sender, index) */\n      0x4d99b957a2bc29a30ebd96a7be8e68fe50a3c701db28a91436490b7d53870ca4\n        /* \"contracts/7_Voting.sol\":1303:1313  msg.sender */\n      caller\n        /* \"contracts/7_Voting.sol\":1315:1320  index */\n      dup3\n        /* \"contracts/7_Voting.sol\":1297:1321  Voted(msg.sender, index) */\n      mload(0x40)\n      tag_39\n      swap3\n      swap2\n      swap1\n      tag_40\n      jump\t// in\n    tag_39:\n      mload(0x40)\n      dup1\n      swap2\n      sub\n      swap1\n      log1\n        /* \"contracts/7_Voting.sol\":1026:1328  function vote(uint256 index) public {... */\n      pop\n      jump\t// out\n        /* \"contracts/7_Voting.sol\":388:428  mapping(address => bool) public hasVoted */\n    tag_14:\n      mstore(0x20, 0x01)\n      dup1\n      0x00\n      mstore\n      keccak256(0x00, 0x40)\n      0x00\n      swap2\n      pop\n      sload\n      swap1\n      0x0100\n      exp\n      swap1\n      div\n      0xff\n      and\n      dup2\n      jump\t// out\n        /* \"contracts/7_Voting.sol\":353:382  Candidate[] public candidates */\n    tag_19:\n      0x00\n      dup2\n      dup2\n      sload\n      dup2\n      lt\n      tag_41\n      jumpi\n      0x00\n      dup1\n      revert\n    tag_41:\n      swap1\n      0x00\n      mstore\n      keccak256(0x00, 0x20)\n      swap1\n      0x02\n      mul\n      add\n      0x00\n      swap2\n      pop\n      swap1\n      pop\n      dup1\n      0x00\n      add\n      dup1\n      sload\n      tag_43\n      swap1\n      tag_44\n      jump\t// in\n    tag_43:\n      dup1\n      0x1f\n      add\n      0x20\n      dup1\n      swap2\n      div\n      mul\n      0x20\n      add\n      mload(0x40)\n      swap1\n      dup2\n      add\n      0x40\n      mstore\n      dup1\n      swap3\n      swap2\n      swap1\n      dup2\n      dup2\n      mstore\n      0x20\n      add\n      dup3\n      dup1\n      sload\n      tag_45\n      swap1\n      tag_44\n      jump\t// in\n    tag_45:\n      dup1\n      iszero\n      tag_46\n      jumpi\n      dup1\n      0x1f\n      lt\n      tag_47\n      jumpi\n      0x0100\n      dup1\n      dup4\n      sload\n      div\n      mul\n      dup4\n      mstore\n      swap2\n      0x20\n      add\n      swap2\n      jump(tag_46)\n    tag_47:\n      dup3\n      add\n      swap2\n      swap1\n      0x00\n      mstore\n      keccak256(0x00, 0x20)\n      swap1\n    tag_48:\n      dup2\n      sload\n      dup2\n      mstore\n      swap1\n      0x01\n      add\n      swap1\n      0x20\n      add\n      dup1\n      dup4\n      gt\n      tag_48\n      jumpi\n      dup3\n      swap1\n      sub\n      0x1f\n      and\n      dup3\n      add\n      swap2\n    tag_46:\n      pop\n      pop\n      pop\n      pop\n      pop\n      swap1\n      dup1\n      0x01\n      add\n      sload\n      swap1\n      pop\n      dup3\n      jump\t// out\n        /* \"contracts/7_Voting.sol\":1522:1619  function getResults() public view returns (Candidate[] memory) {... */\n    tag_23:\n        /* \"contracts/7_Voting.sol\":1565:1583  Candidate[] memory */\n      0x60\n        /* \"contracts/7_Voting.sol\":1602:1612  candidates */\n      0x00\n        /* \"contracts/7_Voting.sol\":1595:1612  return candidates */\n      dup1\n      sload\n      dup1\n      0x20\n      mul\n      0x20\n      add\n      mload(0x40)\n      swap1\n      dup2\n      add\n      0x40\n      mstore\n      dup1\n      swap3\n      swap2\n      swap1\n      dup2\n      dup2\n      mstore\n      0x20\n      add\n      0x00\n      swap1\n    tag_50:\n      dup3\n      dup3\n      lt\n      iszero\n      tag_51\n      jumpi\n      dup4\n      dup3\n      swap1\n      0x00\n      mstore\n      keccak256(0x00, 0x20)\n      swap1\n      0x02\n      mul\n      add\n      mload(0x40)\n      dup1\n      0x40\n      add\n      0x40\n      mstore\n      swap1\n      dup2\n      0x00\n      dup3\n      add\n      dup1\n      sload\n      tag_53\n      swap1\n      tag_44\n      jump\t// in\n    tag_53:\n      dup1\n      0x1f\n      add\n      0x20\n      dup1\n      swap2\n      div\n      mul\n      0x20\n      add\n      mload(0x40)\n      swap1\n      dup2\n      add\n      0x40\n      mstore\n      dup1\n      swap3\n      swap2\n      swap1\n      dup2\n      dup2\n      mstore\n      0x20\n      add\n      dup3\n      dup1\n      sload\n      tag_54\n      swap1\n      tag_44\n      jump\t// in\n    tag_54:\n      dup1\n      iszero\n      tag_55\n      jumpi\n      dup1\n      0x1f\n      lt\n      tag_56\n      jumpi\n      0x0100\n      dup1\n      dup4\n      sload\n      div\n      mul\n      dup4\n      mstore\n      swap2\n      0x20\n      add\n      swap2\n      jump(tag_55)\n    tag_56:\n      dup3\n      add\n      swap2\n      swap1\n      0x00\n      mstore\n      keccak256(0x00, 0x20)\n      swap1\n    tag_57:\n      dup2\n      sload\n      dup2\n      mstore\n      swap1\n      0x01\n      add\n      swap1\n      0x20\n      add\n      dup1\n      dup4\n      gt\n      tag_57\n      jumpi\n      dup3\n      swap1\n      sub\n      0x1f\n      and\n      dup3\n      add\n      swap2\n    tag_55:\n      pop\n      pop\n      pop\n      pop\n      pop\n      dup2\n      mstore\n      0x20\n      add\n      0x01\n      dup3\n      add\n      sload\n      dup2\n      mstore\n      pop\n      pop\n      dup2\n      mstore\n      0x20\n      add\n      swap1\n      0x01\n      add\n      swap1\n      jump(tag_50)\n    tag_51:\n      pop\n      pop\n      pop\n      pop\n      swap1\n      pop\n        /* \"contracts/7_Voting.sol\":1522:1619  function getResults() public view returns (Candidate[] memory) {... */\n      swap1\n      jump\t// out\n        /* \"#utility.yul\":88:205   */\n    tag_59:\n        /* \"#utility.yul\":197:198   */\n      0x00\n        /* \"#utility.yul\":194:195   */\n      0x00\n        /* \"#utility.yul\":187:199   */\n      revert\n        /* \"#utility.yul\":334:411   */\n    tag_61:\n        /* \"#utility.yul\":371:378   */\n      0x00\n        /* \"#utility.yul\":400:405   */\n      dup2\n        /* \"#utility.yul\":389:405   */\n      swap1\n      pop\n        /* \"#utility.yul\":334:411   */\n      swap2\n      swap1\n      pop\n      jump\t// out\n        /* \"#utility.yul\":417:539   */\n    tag_62:\n        /* \"#utility.yul\":490:514   */\n      tag_99\n        /* \"#utility.yul\":508:513   */\n      dup2\n        /* \"#utility.yul\":490:514   */\n      tag_61\n      jump\t// in\n    tag_99:\n        /* \"#utility.yul\":483:488   */\n      dup2\n        /* \"#utility.yul\":480:515   */\n      eq\n        /* \"#utility.yul\":470:533   */\n      tag_100\n      jumpi\n        /* \"#utility.yul\":529:530   */\n      0x00\n        /* \"#utility.yul\":526:527   */\n      0x00\n        /* \"#utility.yul\":519:531   */\n      revert\n        /* \"#utility.yul\":470:533   */\n    tag_100:\n        /* \"#utility.yul\":417:539   */\n      pop\n      jump\t// out\n        /* \"#utility.yul\":545:684   */\n    tag_63:\n        /* \"#utility.yul\":591:596   */\n      0x00\n        /* \"#utility.yul\":629:635   */\n      dup2\n        /* \"#utility.yul\":616:636   */\n      calldataload\n        /* \"#utility.yul\":607:636   */\n      swap1\n      pop\n        /* \"#utility.yul\":645:678   */\n      tag_102\n        /* \"#utility.yul\":672:677   */\n      dup2\n        /* \"#utility.yul\":645:678   */\n      tag_62\n      jump\t// in\n    tag_102:\n        /* \"#utility.yul\":545:684   */\n      swap3\n      swap2\n      pop\n      pop\n      jump\t// out\n        /* \"#utility.yul\":690:1019   */\n    tag_9:\n        /* \"#utility.yul\":749:755   */\n      0x00\n        /* \"#utility.yul\":798:800   */\n      0x20\n        /* \"#utility.yul\":786:795   */\n      dup3\n        /* \"#utility.yul\":777:784   */\n      dup5\n        /* \"#utility.yul\":773:796   */\n      sub\n        /* \"#utility.yul\":769:801   */\n      slt\n        /* \"#utility.yul\":766:885   */\n      iszero\n      tag_104\n      jumpi\n        /* \"#utility.yul\":804:883   */\n      tag_105\n      tag_59\n      jump\t// in\n    tag_105:\n        /* \"#utility.yul\":766:885   */\n    tag_104:\n        /* \"#utility.yul\":924:925   */\n      0x00\n        /* \"#utility.yul\":949:1002   */\n      tag_106\n        /* \"#utility.yul\":994:1001   */\n      dup5\n        /* \"#utility.yul\":985:991   */\n      dup3\n        /* \"#utility.yul\":974:983   */\n      dup6\n        /* \"#utility.yul\":970:992   */\n      add\n        /* \"#utility.yul\":949:1002   */\n      tag_63\n      jump\t// in\n    tag_106:\n        /* \"#utility.yul\":939:1002   */\n      swap2\n      pop\n        /* \"#utility.yul\":895:1012   */\n      pop\n        /* \"#utility.yul\":690:1019   */\n      swap3\n      swap2\n      pop\n      pop\n      jump\t// out\n        /* \"#utility.yul\":1025:1151   */\n    tag_64:\n        /* \"#utility.yul\":1062:1069   */\n      0x00\n        /* \"#utility.yul\":1102:1144   */\n      0xffffffffffffffffffffffffffffffffffffffff\n        /* \"#utility.yul\":1095:1100   */\n      dup3\n        /* \"#utility.yul\":1091:1145   */\n      and\n        /* \"#utility.yul\":1080:1145   */\n      swap1\n      pop\n        /* \"#utility.yul\":1025:1151   */\n      swap2\n      swap1\n      pop\n      jump\t// out\n        /* \"#utility.yul\":1157:1253   */\n    tag_65:\n        /* \"#utility.yul\":1194:1201   */\n      0x00\n        /* \"#utility.yul\":1223:1247   */\n      tag_109\n        /* \"#utility.yul\":1241:1246   */\n      dup3\n        /* \"#utility.yul\":1223:1247   */\n      tag_64\n      jump\t// in\n    tag_109:\n        /* \"#utility.yul\":1212:1247   */\n      swap1\n      pop\n        /* \"#utility.yul\":1157:1253   */\n      swap2\n      swap1\n      pop\n      jump\t// out\n        /* \"#utility.yul\":1259:1381   */\n    tag_66:\n        /* \"#utility.yul\":1332:1356   */\n      tag_111\n        /* \"#utility.yul\":1350:1355   */\n      dup2\n        /* \"#utility.yul\":1332:1356   */\n      tag_65\n      jump\t// in\n    tag_111:\n        /* \"#utility.yul\":1325:1330   */\n      dup2\n        /* \"#utility.yul\":1322:1357   */\n      eq\n        /* \"#utility.yul\":1312:1375   */\n      tag_112\n      jumpi\n        /* \"#utility.yul\":1371:1372   */\n      0x00\n        /* \"#utility.yul\":1368:1369   */\n      0x00\n        /* \"#utility.yul\":1361:1373   */\n      revert\n        /* \"#utility.yul\":1312:1375   */\n    tag_112:\n        /* \"#utility.yul\":1259:1381   */\n      pop\n      jump\t// out\n        /* \"#utility.yul\":1387:1526   */\n    tag_67:\n        /* \"#utility.yul\":1433:1438   */\n      0x00\n        /* \"#utility.yul\":1471:1477   */\n      dup2\n        /* \"#utility.yul\":1458:1478   */\n      calldataload\n        /* \"#utility.yul\":1449:1478   */\n      swap1\n      pop\n        /* \"#utility.yul\":1487:1520   */\n      tag_114\n        /* \"#utility.yul\":1514:1519   */\n      dup2\n        /* \"#utility.yul\":1487:1520   */\n      tag_66\n      jump\t// in\n    tag_114:\n        /* \"#utility.yul\":1387:1526   */\n      swap3\n      swap2\n      pop\n      pop\n      jump\t// out\n        /* \"#utility.yul\":1532:1861   */\n    tag_13:\n        /* \"#utility.yul\":1591:1597   */\n      0x00\n        /* \"#utility.yul\":1640:1642   */\n      0x20\n        /* \"#utility.yul\":1628:1637   */\n      dup3\n        /* \"#utility.yul\":1619:1626   */\n      dup5\n        /* \"#utility.yul\":1615:1638   */\n      sub\n        /* \"#utility.yul\":1611:1643   */\n      slt\n        /* \"#utility.yul\":1608:1727   */\n      iszero\n      tag_116\n      jumpi\n        /* \"#utility.yul\":1646:1725   */\n      tag_117\n      tag_59\n      jump\t// in\n    tag_117:\n        /* \"#utility.yul\":1608:1727   */\n    tag_116:\n        /* \"#utility.yul\":1766:1767   */\n      0x00\n        /* \"#utility.yul\":1791:1844   */\n      tag_118\n        /* \"#utility.yul\":1836:1843   */\n      dup5\n        /* \"#utility.yul\":1827:1833   */\n      dup3\n        /* \"#utility.yul\":1816:1825   */\n      dup6\n        /* \"#utility.yul\":1812:1834   */\n      add\n        /* \"#utility.yul\":1791:1844   */\n      tag_67\n      jump\t// in\n    tag_118:\n        /* \"#utility.yul\":1781:1844   */\n      swap2\n      pop\n        /* \"#utility.yul\":1737:1854   */\n      pop\n        /* \"#utility.yul\":1532:1861   */\n      swap3\n      swap2\n      pop\n      pop\n      jump\t// out\n        /* \"#utility.yul\":1867:1957   */\n    tag_68:\n        /* \"#utility.yul\":1901:1908   */\n      0x00\n        /* \"#utility.yul\":1944:1949   */\n      dup2\n        /* \"#utility.yul\":1937:1950   */\n      iszero\n        /* \"#utility.yul\":1930:1951   */\n      iszero\n        /* \"#utility.yul\":1919:1951   */\n      swap1\n      pop\n        /* \"#utility.yul\":1867:1957   */\n      swap2\n      swap1\n      pop\n      jump\t// out\n        /* \"#utility.yul\":1963:2072   */\n    tag_69:\n        /* \"#utility.yul\":2044:2065   */\n      tag_121\n        /* \"#utility.yul\":2059:2064   */\n      dup2\n        /* \"#utility.yul\":2044:2065   */\n      tag_68\n      jump\t// in\n    tag_121:\n        /* \"#utility.yul\":2039:2042   */\n      dup3\n        /* \"#utility.yul\":2032:2066   */\n      mstore\n        /* \"#utility.yul\":1963:2072   */\n      pop\n      pop\n      jump\t// out\n        /* \"#utility.yul\":2078:2288   */\n    tag_16:\n        /* \"#utility.yul\":2165:2169   */\n      0x00\n        /* \"#utility.yul\":2203:2205   */\n      0x20\n        /* \"#utility.yul\":2192:2201   */\n      dup3\n        /* \"#utility.yul\":2188:2206   */\n      add\n        /* \"#utility.yul\":2180:2206   */\n      swap1\n      pop\n        /* \"#utility.yul\":2216:2281   */\n      tag_123\n        /* \"#utility.yul\":2278:2279   */\n      0x00\n        /* \"#utility.yul\":2267:2276   */\n      dup4\n        /* \"#utility.yul\":2263:2280   */\n      add\n        /* \"#utility.yul\":2254:2260   */\n      dup5\n        /* \"#utility.yul\":2216:2281   */\n      tag_69\n      jump\t// in\n    tag_123:\n        /* \"#utility.yul\":2078:2288   */\n      swap3\n      swap2\n      pop\n      pop\n      jump\t// out\n        /* \"#utility.yul\":2294:2393   */\n    tag_70:\n        /* \"#utility.yul\":2346:2352   */\n      0x00\n        /* \"#utility.yul\":2380:2385   */\n      dup2\n        /* \"#utility.yul\":2374:2386   */\n      mload\n        /* \"#utility.yul\":2364:2386   */\n      swap1\n      pop\n        /* \"#utility.yul\":2294:2393   */\n      swap2\n      swap1\n      pop\n      jump\t// out\n        /* \"#utility.yul\":2399:2568   */\n    tag_71:\n        /* \"#utility.yul\":2483:2494   */\n      0x00\n        /* \"#utility.yul\":2517:2523   */\n      dup3\n        /* \"#utility.yul\":2512:2515   */\n      dup3\n        /* \"#utility.yul\":2505:2524   */\n      mstore\n        /* \"#utility.yul\":2557:2561   */\n      0x20\n        /* \"#utility.yul\":2552:2555   */\n      dup3\n        /* \"#utility.yul\":2548:2562   */\n      add\n        /* \"#utility.yul\":2533:2562   */\n      swap1\n      pop\n        /* \"#utility.yul\":2399:2568   */\n      swap3\n      swap2\n      pop\n      pop\n      jump\t// out\n        /* \"#utility.yul\":2574:2713   */\n    tag_72:\n        /* \"#utility.yul\":2663:2669   */\n      dup3\n        /* \"#utility.yul\":2658:2661   */\n      dup2\n        /* \"#utility.yul\":2653:2656   */\n      dup4\n        /* \"#utility.yul\":2647:2670   */\n      mcopy\n        /* \"#utility.yul\":2704:2705   */\n      0x00\n        /* \"#utility.yul\":2695:2701   */\n      dup4\n        /* \"#utility.yul\":2690:2693   */\n      dup4\n        /* \"#utility.yul\":2686:2702   */\n      add\n        /* \"#utility.yul\":2679:2706   */\n      mstore\n        /* \"#utility.yul\":2574:2713   */\n      pop\n      pop\n      pop\n      jump\t// out\n        /* \"#utility.yul\":2719:2821   */\n    tag_73:\n        /* \"#utility.yul\":2760:2766   */\n      0x00\n        /* \"#utility.yul\":2811:2813   */\n      0x1f\n        /* \"#utility.yul\":2807:2814   */\n      not\n        /* \"#utility.yul\":2802:2804   */\n      0x1f\n        /* \"#utility.yul\":2795:2800   */\n      dup4\n        /* \"#utility.yul\":2791:2805   */\n      add\n        /* \"#utility.yul\":2787:2815   */\n      and\n        /* \"#utility.yul\":2777:2815   */\n      swap1\n      pop\n        /* \"#utility.yul\":2719:2821   */\n      swap2\n      swap1\n      pop\n      jump\t// out\n        /* \"#utility.yul\":2827:3204   */\n    tag_74:\n        /* \"#utility.yul\":2915:2918   */\n      0x00\n        /* \"#utility.yul\":2943:2982   */\n      tag_129\n        /* \"#utility.yul\":2976:2981   */\n      dup3\n        /* \"#utility.yul\":2943:2982   */\n      tag_70\n      jump\t// in\n    tag_129:\n        /* \"#utility.yul\":2998:3069   */\n      tag_130\n        /* \"#utility.yul\":3062:3068   */\n      dup2\n        /* \"#utility.yul\":3057:3060   */\n      dup6\n        /* \"#utility.yul\":2998:3069   */\n      tag_71\n      jump\t// in\n    tag_130:\n        /* \"#utility.yul\":2991:3069   */\n      swap4\n      pop\n        /* \"#utility.yul\":3078:3143   */\n      tag_131\n        /* \"#utility.yul\":3136:3142   */\n      dup2\n        /* \"#utility.yul\":3131:3134   */\n      dup6\n        /* \"#utility.yul\":3124:3128   */\n      0x20\n        /* \"#utility.yul\":3117:3122   */\n      dup7\n        /* \"#utility.yul\":3113:3129   */\n      add\n        /* \"#utility.yul\":3078:3143   */\n      tag_72\n      jump\t// in\n    tag_131:\n        /* \"#utility.yul\":3168:3197   */\n      tag_132\n        /* \"#utility.yul\":3190:3196   */\n      dup2\n        /* \"#utility.yul\":3168:3197   */\n      tag_73\n      jump\t// in\n    tag_132:\n        /* \"#utility.yul\":3163:3166   */\n      dup5\n        /* \"#utility.yul\":3159:3198   */\n      add\n        /* \"#utility.yul\":3152:3198   */\n      swap2\n      pop\n        /* \"#utility.yul\":2919:3204   */\n      pop\n        /* \"#utility.yul\":2827:3204   */\n      swap3\n      swap2\n      pop\n      pop\n      jump\t// out\n        /* \"#utility.yul\":3210:3328   */\n    tag_75:\n        /* \"#utility.yul\":3297:3321   */\n      tag_134\n        /* \"#utility.yul\":3315:3320   */\n      dup2\n        /* \"#utility.yul\":3297:3321   */\n      tag_61\n      jump\t// in\n    tag_134:\n        /* \"#utility.yul\":3292:3295   */\n      dup3\n        /* \"#utility.yul\":3285:3322   */\n      mstore\n        /* \"#utility.yul\":3210:3328   */\n      pop\n      pop\n      jump\t// out\n        /* \"#utility.yul\":3334:3757   */\n    tag_21:\n        /* \"#utility.yul\":3475:3479   */\n      0x00\n        /* \"#utility.yul\":3513:3515   */\n      0x40\n        /* \"#utility.yul\":3502:3511   */\n      dup3\n        /* \"#utility.yul\":3498:3516   */\n      add\n        /* \"#utility.yul\":3490:3516   */\n      swap1\n      pop\n        /* \"#utility.yul\":3562:3571   */\n      dup2\n        /* \"#utility.yul\":3556:3560   */\n      dup2\n        /* \"#utility.yul\":3552:3572   */\n      sub\n        /* \"#utility.yul\":3548:3549   */\n      0x00\n        /* \"#utility.yul\":3537:3546   */\n      dup4\n        /* \"#utility.yul\":3533:3550   */\n      add\n        /* \"#utility.yul\":3526:3573   */\n      mstore\n        /* \"#utility.yul\":3590:3668   */\n      tag_136\n        /* \"#utility.yul\":3663:3667   */\n      dup2\n        /* \"#utility.yul\":3654:3660   */\n      dup6\n        /* \"#utility.yul\":3590:3668   */\n      tag_74\n      jump\t// in\n    tag_136:\n        /* \"#utility.yul\":3582:3668   */\n      swap1\n      pop\n        /* \"#utility.yul\":3678:3750   */\n      tag_137\n        /* \"#utility.yul\":3746:3748   */\n      0x20\n        /* \"#utility.yul\":3735:3744   */\n      dup4\n        /* \"#utility.yul\":3731:3749   */\n      add\n        /* \"#utility.yul\":3722:3728   */\n      dup5\n        /* \"#utility.yul\":3678:3750   */\n      tag_75\n      jump\t// in\n    tag_137:\n        /* \"#utility.yul\":3334:3757   */\n      swap4\n      swap3\n      pop\n      pop\n      pop\n      jump\t// out\n        /* \"#utility.yul\":3763:3901   */\n    tag_76:\n        /* \"#utility.yul\":3854:3860   */\n      0x00\n        /* \"#utility.yul\":3888:3893   */\n      dup2\n        /* \"#utility.yul\":3882:3894   */\n      mload\n        /* \"#utility.yul\":3872:3894   */\n      swap1\n      pop\n        /* \"#utility.yul\":3763:3901   */\n      swap2\n      swap1\n      pop\n      jump\t// out\n        /* \"#utility.yul\":3907:4115   */\n    tag_77:\n        /* \"#utility.yul\":4030:4041   */\n      0x00\n        /* \"#utility.yul\":4064:4070   */\n      dup3\n        /* \"#utility.yul\":4059:4062   */\n      dup3\n        /* \"#utility.yul\":4052:4071   */\n      mstore\n        /* \"#utility.yul\":4104:4108   */\n      0x20\n        /* \"#utility.yul\":4099:4102   */\n      dup3\n        /* \"#utility.yul\":4095:4109   */\n      add\n        /* \"#utility.yul\":4080:4109   */\n      swap1\n      pop\n        /* \"#utility.yul\":3907:4115   */\n      swap3\n      swap2\n      pop\n      pop\n      jump\t// out\n        /* \"#utility.yul\":4121:4277   */\n    tag_78:\n        /* \"#utility.yul\":4212:4216   */\n      0x00\n        /* \"#utility.yul\":4235:4238   */\n      dup2\n        /* \"#utility.yul\":4227:4238   */\n      swap1\n      pop\n        /* \"#utility.yul\":4265:4269   */\n      0x20\n        /* \"#utility.yul\":4260:4263   */\n      dup3\n        /* \"#utility.yul\":4256:4270   */\n      add\n        /* \"#utility.yul\":4248:4270   */\n      swap1\n      pop\n        /* \"#utility.yul\":4121:4277   */\n      swap2\n      swap1\n      pop\n      jump\t// out\n        /* \"#utility.yul\":4283:4442   */\n    tag_79:\n        /* \"#utility.yul\":4357:4368   */\n      0x00\n        /* \"#utility.yul\":4391:4397   */\n      dup3\n        /* \"#utility.yul\":4386:4389   */\n      dup3\n        /* \"#utility.yul\":4379:4398   */\n      mstore\n        /* \"#utility.yul\":4431:4435   */\n      0x20\n        /* \"#utility.yul\":4426:4429   */\n      dup3\n        /* \"#utility.yul\":4422:4436   */\n      add\n        /* \"#utility.yul\":4407:4436   */\n      swap1\n      pop\n        /* \"#utility.yul\":4283:4442   */\n      swap3\n      swap2\n      pop\n      pop\n      jump\t// out\n        /* \"#utility.yul\":4448:4805   */\n    tag_80:\n        /* \"#utility.yul\":4526:4529   */\n      0x00\n        /* \"#utility.yul\":4554:4593   */\n      tag_143\n        /* \"#utility.yul\":4587:4592   */\n      dup3\n        /* \"#utility.yul\":4554:4593   */\n      tag_70\n      jump\t// in\n    tag_143:\n        /* \"#utility.yul\":4609:4670   */\n      tag_144\n        /* \"#utility.yul\":4663:4669   */\n      dup2\n        /* \"#utility.yul\":4658:4661   */\n      dup6\n        /* \"#utility.yul\":4609:4670   */\n      tag_79\n      jump\t// in\n    tag_144:\n        /* \"#utility.yul\":4602:4670   */\n      swap4\n      pop\n        /* \"#utility.yul\":4679:4744   */\n      tag_145\n        /* \"#utility.yul\":4737:4743   */\n      dup2\n        /* \"#utility.yul\":4732:4735   */\n      dup6\n        /* \"#utility.yul\":4725:4729   */\n      0x20\n        /* \"#utility.yul\":4718:4723   */\n      dup7\n        /* \"#utility.yul\":4714:4730   */\n      add\n        /* \"#utility.yul\":4679:4744   */\n      tag_72\n      jump\t// in\n    tag_145:\n        /* \"#utility.yul\":4769:4798   */\n      tag_146\n        /* \"#utility.yul\":4791:4797   */\n      dup2\n        /* \"#utility.yul\":4769:4798   */\n      tag_73\n      jump\t// in\n    tag_146:\n        /* \"#utility.yul\":4764:4767   */\n      dup5\n        /* \"#utility.yul\":4760:4799   */\n      add\n        /* \"#utility.yul\":4753:4799   */\n      swap2\n      pop\n        /* \"#utility.yul\":4530:4805   */\n      pop\n        /* \"#utility.yul\":4448:4805   */\n      swap3\n      swap2\n      pop\n      pop\n      jump\t// out\n        /* \"#utility.yul\":4811:4919   */\n    tag_81:\n        /* \"#utility.yul\":4888:4912   */\n      tag_148\n        /* \"#utility.yul\":4906:4911   */\n      dup2\n        /* \"#utility.yul\":4888:4912   */\n      tag_61\n      jump\t// in\n    tag_148:\n        /* \"#utility.yul\":4883:4886   */\n      dup3\n        /* \"#utility.yul\":4876:4913   */\n      mstore\n        /* \"#utility.yul\":4811:4919   */\n      pop\n      pop\n      jump\t// out\n        /* \"#utility.yul\":4983:5582   */\n    tag_82:\n        /* \"#utility.yul\":5090:5093   */\n      0x00\n        /* \"#utility.yul\":5126:5130   */\n      0x40\n        /* \"#utility.yul\":5121:5124   */\n      dup4\n        /* \"#utility.yul\":5117:5131   */\n      add\n        /* \"#utility.yul\":5213:5217   */\n      0x00\n        /* \"#utility.yul\":5206:5211   */\n      dup4\n        /* \"#utility.yul\":5202:5218   */\n      add\n        /* \"#utility.yul\":5196:5219   */\n      mload\n        /* \"#utility.yul\":5266:5269   */\n      dup5\n        /* \"#utility.yul\":5260:5264   */\n      dup3\n        /* \"#utility.yul\":5256:5270   */\n      sub\n        /* \"#utility.yul\":5249:5253   */\n      0x00\n        /* \"#utility.yul\":5244:5247   */\n      dup7\n        /* \"#utility.yul\":5240:5254   */\n      add\n        /* \"#utility.yul\":5233:5271   */\n      mstore\n        /* \"#utility.yul\":5292:5365   */\n      tag_150\n        /* \"#utility.yul\":5360:5364   */\n      dup3\n        /* \"#utility.yul\":5346:5358   */\n      dup3\n        /* \"#utility.yul\":5292:5365   */\n      tag_80\n      jump\t// in\n    tag_150:\n        /* \"#utility.yul\":5284:5365   */\n      swap2\n      pop\n        /* \"#utility.yul\":5141:5376   */\n      pop\n        /* \"#utility.yul\":5463:5467   */\n      0x20\n        /* \"#utility.yul\":5456:5461   */\n      dup4\n        /* \"#utility.yul\":5452:5468   */\n      add\n        /* \"#utility.yul\":5446:5469   */\n      mload\n        /* \"#utility.yul\":5482:5545   */\n      tag_151\n        /* \"#utility.yul\":5539:5543   */\n      0x20\n        /* \"#utility.yul\":5534:5537   */\n      dup7\n        /* \"#utility.yul\":5530:5544   */\n      add\n        /* \"#utility.yul\":5516:5528   */\n      dup3\n        /* \"#utility.yul\":5482:5545   */\n      tag_81\n      jump\t// in\n    tag_151:\n        /* \"#utility.yul\":5386:5555   */\n      pop\n        /* \"#utility.yul\":5572:5576   */\n      dup1\n        /* \"#utility.yul\":5565:5576   */\n      swap2\n      pop\n        /* \"#utility.yul\":5095:5582   */\n      pop\n        /* \"#utility.yul\":4983:5582   */\n      swap3\n      swap2\n      pop\n      pop\n      jump\t// out\n        /* \"#utility.yul\":5588:5840   */\n    tag_83:\n        /* \"#utility.yul\":5705:5715   */\n      0x00\n        /* \"#utility.yul\":5740:5834   */\n      tag_153\n        /* \"#utility.yul\":5830:5833   */\n      dup4\n        /* \"#utility.yul\":5822:5828   */\n      dup4\n        /* \"#utility.yul\":5740:5834   */\n      tag_82\n      jump\t// in\n    tag_153:\n        /* \"#utility.yul\":5726:5834   */\n      swap1\n      pop\n        /* \"#utility.yul\":5588:5840   */\n      swap3\n      swap2\n      pop\n      pop\n      jump\t// out\n        /* \"#utility.yul\":5846:5983   */\n    tag_84:\n        /* \"#utility.yul\":5940:5944   */\n      0x00\n        /* \"#utility.yul\":5972:5976   */\n      0x20\n        /* \"#utility.yul\":5967:5970   */\n      dup3\n        /* \"#utility.yul\":5963:5977   */\n      add\n        /* \"#utility.yul\":5955:5977   */\n      swap1\n      pop\n        /* \"#utility.yul\":5846:5983   */\n      swap2\n      swap1\n      pop\n      jump\t// out\n        /* \"#utility.yul\":6051:7154   */\n    tag_85:\n        /* \"#utility.yul\":6218:6221   */\n      0x00\n        /* \"#utility.yul\":6247:6325   */\n      tag_156\n        /* \"#utility.yul\":6319:6324   */\n      dup3\n        /* \"#utility.yul\":6247:6325   */\n      tag_76\n      jump\t// in\n    tag_156:\n        /* \"#utility.yul\":6341:6451   */\n      tag_157\n        /* \"#utility.yul\":6444:6450   */\n      dup2\n        /* \"#utility.yul\":6439:6442   */\n      dup6\n        /* \"#utility.yul\":6341:6451   */\n      tag_77\n      jump\t// in\n    tag_157:\n        /* \"#utility.yul\":6334:6451   */\n      swap4\n      pop\n        /* \"#utility.yul\":6477:6480   */\n      dup4\n        /* \"#utility.yul\":6522:6526   */\n      0x20\n        /* \"#utility.yul\":6514:6520   */\n      dup3\n        /* \"#utility.yul\":6510:6527   */\n      mul\n        /* \"#utility.yul\":6505:6508   */\n      dup6\n        /* \"#utility.yul\":6501:6528   */\n      add\n        /* \"#utility.yul\":6552:6632   */\n      tag_158\n        /* \"#utility.yul\":6626:6631   */\n      dup6\n        /* \"#utility.yul\":6552:6632   */\n      tag_78\n      jump\t// in\n    tag_158:\n        /* \"#utility.yul\":6655:6662   */\n      dup1\n        /* \"#utility.yul\":6686:6687   */\n      0x00\n        /* \"#utility.yul\":6671:7109   */\n    tag_159:\n        /* \"#utility.yul\":6696:6702   */\n      dup6\n        /* \"#utility.yul\":6693:6694   */\n      dup2\n        /* \"#utility.yul\":6690:6703   */\n      lt\n        /* \"#utility.yul\":6671:7109   */\n      iszero\n      tag_161\n      jumpi\n        /* \"#utility.yul\":6767:6776   */\n      dup5\n        /* \"#utility.yul\":6761:6765   */\n      dup5\n        /* \"#utility.yul\":6757:6777   */\n      sub\n        /* \"#utility.yul\":6752:6755   */\n      dup10\n        /* \"#utility.yul\":6745:6778   */\n      mstore\n        /* \"#utility.yul\":6818:6824   */\n      dup2\n        /* \"#utility.yul\":6812:6825   */\n      mload\n        /* \"#utility.yul\":6846:6958   */\n      tag_162\n        /* \"#utility.yul\":6953:6957   */\n      dup6\n        /* \"#utility.yul\":6938:6951   */\n      dup3\n        /* \"#utility.yul\":6846:6958   */\n      tag_83\n      jump\t// in\n    tag_162:\n        /* \"#utility.yul\":6838:6958   */\n      swap5\n      pop\n        /* \"#utility.yul\":6981:7065   */\n      tag_163\n        /* \"#utility.yul\":7058:7064   */\n      dup4\n        /* \"#utility.yul\":6981:7065   */\n      tag_84\n      jump\t// in\n    tag_163:\n        /* \"#utility.yul\":6971:7065   */\n      swap3\n      pop\n        /* \"#utility.yul\":7094:7098   */\n      0x20\n        /* \"#utility.yul\":7089:7092   */\n      dup11\n        /* \"#utility.yul\":7085:7099   */\n      add\n        /* \"#utility.yul\":7078:7099   */\n      swap10\n      pop\n        /* \"#utility.yul\":6731:7109   */\n      pop\n        /* \"#utility.yul\":6718:6719   */\n      0x01\n        /* \"#utility.yul\":6715:6716   */\n      dup2\n        /* \"#utility.yul\":6711:6720   */\n      add\n        /* \"#utility.yul\":6706:6720   */\n      swap1\n      pop\n        /* \"#utility.yul\":6671:7109   */\n      jump(tag_159)\n    tag_161:\n        /* \"#utility.yul\":6675:6689   */\n      pop\n        /* \"#utility.yul\":7125:7129   */\n      dup3\n        /* \"#utility.yul\":7118:7129   */\n      swap8\n      pop\n        /* \"#utility.yul\":7145:7148   */\n      dup8\n        /* \"#utility.yul\":7138:7148   */\n      swap6\n      pop\n        /* \"#utility.yul\":6223:7154   */\n      pop\n      pop\n      pop\n      pop\n      pop\n        /* \"#utility.yul\":6051:7154   */\n      swap3\n      swap2\n      pop\n      pop\n      jump\t// out\n        /* \"#utility.yul\":7160:7629   */\n    tag_25:\n        /* \"#utility.yul\":7351:7355   */\n      0x00\n        /* \"#utility.yul\":7389:7391   */\n      0x20\n        /* \"#utility.yul\":7378:7387   */\n      dup3\n        /* \"#utility.yul\":7374:7392   */\n      add\n        /* \"#utility.yul\":7366:7392   */\n      swap1\n      pop\n        /* \"#utility.yul\":7438:7447   */\n      dup2\n        /* \"#utility.yul\":7432:7436   */\n      dup2\n        /* \"#utility.yul\":7428:7448   */\n      sub\n        /* \"#utility.yul\":7424:7425   */\n      0x00\n        /* \"#utility.yul\":7413:7422   */\n      dup4\n        /* \"#utility.yul\":7409:7426   */\n      add\n        /* \"#utility.yul\":7402:7449   */\n      mstore\n        /* \"#utility.yul\":7466:7622   */\n      tag_165\n        /* \"#utility.yul\":7617:7621   */\n      dup2\n        /* \"#utility.yul\":7608:7614   */\n      dup5\n        /* \"#utility.yul\":7466:7622   */\n      tag_85\n      jump\t// in\n    tag_165:\n        /* \"#utility.yul\":7458:7622   */\n      swap1\n      pop\n        /* \"#utility.yul\":7160:7629   */\n      swap3\n      swap2\n      pop\n      pop\n      jump\t// out\n        /* \"#utility.yul\":7635:7806   */\n    tag_86:\n        /* \"#utility.yul\":7775:7798   */\n      0x566f74696e673a20616c726561647920766f7465640000000000000000000000\n        /* \"#utility.yul\":7771:7772   */\n      0x00\n        /* \"#utility.yul\":7763:7769   */\n      dup3\n        /* \"#utility.yul\":7759:7773   */\n      add\n        /* \"#utility.yul\":7752:7799   */\n      mstore\n        /* \"#utility.yul\":7635:7806   */\n      pop\n      jump\t// out\n        /* \"#utility.yul\":7812:8178   */\n    tag_87:\n        /* \"#utility.yul\":7954:7957   */\n      0x00\n        /* \"#utility.yul\":7975:8042   */\n      tag_168\n        /* \"#utility.yul\":8039:8041   */\n      0x15\n        /* \"#utility.yul\":8034:8037   */\n      dup4\n        /* \"#utility.yul\":7975:8042   */\n      tag_71\n      jump\t// in\n    tag_168:\n        /* \"#utility.yul\":7968:8042   */\n      swap2\n      pop\n        /* \"#utility.yul\":8051:8144   */\n      tag_169\n        /* \"#utility.yul\":8140:8143   */\n      dup3\n        /* \"#utility.yul\":8051:8144   */\n      tag_86\n      jump\t// in\n    tag_169:\n        /* \"#utility.yul\":8169:8171   */\n      0x20\n        /* \"#utility.yul\":8164:8167   */\n      dup3\n        /* \"#utility.yul\":8160:8172   */\n      add\n        /* \"#utility.yul\":8153:8172   */\n      swap1\n      pop\n        /* \"#utility.yul\":7812:8178   */\n      swap2\n      swap1\n      pop\n      jump\t// out\n        /* \"#utility.yul\":8184:8603   */\n    tag_29:\n        /* \"#utility.yul\":8350:8354   */\n      0x00\n        /* \"#utility.yul\":8388:8390   */\n      0x20\n        /* \"#utility.yul\":8377:8386   */\n      dup3\n        /* \"#utility.yul\":8373:8391   */\n      add\n        /* \"#utility.yul\":8365:8391   */\n      swap1\n      pop\n        /* \"#utility.yul\":8437:8446   */\n      dup2\n        /* \"#utility.yul\":8431:8435   */\n      dup2\n        /* \"#utility.yul\":8427:8447   */\n      sub\n        /* \"#utility.yul\":8423:8424   */\n      0x00\n        /* \"#utility.yul\":8412:8421   */\n      dup4\n        /* \"#utility.yul\":8408:8425   */\n      add\n        /* \"#utility.yul\":8401:8448   */\n      mstore\n        /* \"#utility.yul\":8465:8596   */\n      tag_171\n        /* \"#utility.yul\":8591:8595   */\n      dup2\n        /* \"#utility.yul\":8465:8596   */\n      tag_87\n      jump\t// in\n    tag_171:\n        /* \"#utility.yul\":8457:8596   */\n      swap1\n      pop\n        /* \"#utility.yul\":8184:8603   */\n      swap2\n      swap1\n      pop\n      jump\t// out\n        /* \"#utility.yul\":8609:8790   */\n    tag_88:\n        /* \"#utility.yul\":8749:8782   */\n      0x566f74696e673a20696e76616c69642063616e64696461746520696e64657800\n        /* \"#utility.yul\":8745:8746   */\n      0x00\n        /* \"#utility.yul\":8737:8743   */\n      dup3\n        /* \"#utility.yul\":8733:8747   */\n      add\n        /* \"#utility.yul\":8726:8783   */\n      mstore\n        /* \"#utility.yul\":8609:8790   */\n      pop\n      jump\t// out\n        /* \"#utility.yul\":8796:9162   */\n    tag_89:\n        /* \"#utility.yul\":8938:8941   */\n      0x00\n        /* \"#utility.yul\":8959:9026   */\n      tag_174\n        /* \"#utility.yul\":9023:9025   */\n      0x1f\n        /* \"#utility.yul\":9018:9021   */\n      dup4\n        /* \"#utility.yul\":8959:9026   */\n      tag_71\n      jump\t// in\n    tag_174:\n        /* \"#utility.yul\":8952:9026   */\n      swap2\n      pop\n        /* \"#utility.yul\":9035:9128   */\n      tag_175\n        /* \"#utility.yul\":9124:9127   */\n      dup3\n        /* \"#utility.yul\":9035:9128   */\n      tag_88\n      jump\t// in\n    tag_175:\n        /* \"#utility.yul\":9153:9155   */\n      0x20\n        /* \"#utility.yul\":9148:9151   */\n      dup3\n        /* \"#utility.yul\":9144:9156   */\n      add\n        /* \"#utility.yul\":9137:9156   */\n      swap1\n      pop\n        /* \"#utility.yul\":8796:9162   */\n      swap2\n      swap1\n      pop\n      jump\t// out\n        /* \"#utility.yul\":9168:9587   */\n    tag_32:\n        /* \"#utility.yul\":9334:9338   */\n      0x00\n        /* \"#utility.yul\":9372:9374   */\n      0x20\n        /* \"#utility.yul\":9361:9370   */\n      dup3\n        /* \"#utility.yul\":9357:9375   */\n      add\n        /* \"#utility.yul\":9349:9375   */\n      swap1\n      pop\n        /* \"#utility.yul\":9421:9430   */\n      dup2\n        /* \"#utility.yul\":9415:9419   */\n      dup2\n        /* \"#utility.yul\":9411:9431   */\n      sub\n        /* \"#utility.yul\":9407:9408   */\n      0x00\n        /* \"#utility.yul\":9396:9405   */\n      dup4\n        /* \"#utility.yul\":9392:9409   */\n      add\n        /* \"#utility.yul\":9385:9432   */\n      mstore\n        /* \"#utility.yul\":9449:9580   */\n      tag_177\n        /* \"#utility.yul\":9575:9579   */\n      dup2\n        /* \"#utility.yul\":9449:9580   */\n      tag_89\n      jump\t// in\n    tag_177:\n        /* \"#utility.yul\":9441:9580   */\n      swap1\n      pop\n        /* \"#utility.yul\":9168:9587   */\n      swap2\n      swap1\n      pop\n      jump\t// out\n        /* \"#utility.yul\":9593:9773   */\n    tag_35:\n        /* \"#utility.yul\":9641:9718   */\n      0x4e487b7100000000000000000000000000000000000000000000000000000000\n        /* \"#utility.yul\":9638:9639   */\n      0x00\n        /* \"#utility.yul\":9631:9719   */\n      mstore\n        /* \"#utility.yul\":9738:9742   */\n      0x32\n        /* \"#utility.yul\":9735:9736   */\n      0x04\n        /* \"#utility.yul\":9728:9743   */\n      mstore\n        /* \"#utility.yul\":9762:9766   */\n      0x24\n        /* \"#utility.yul\":9759:9760   */\n      0x00\n        /* \"#utility.yul\":9752:9767   */\n      revert\n        /* \"#utility.yul\":9779:9959   */\n    tag_90:\n        /* \"#utility.yul\":9827:9904   */\n      0x4e487b7100000000000000000000000000000000000000000000000000000000\n        /* \"#utility.yul\":9824:9825   */\n      0x00\n        /* \"#utility.yul\":9817:9905   */\n      mstore\n        /* \"#utility.yul\":9924:9928   */\n      0x11\n        /* \"#utility.yul\":9921:9922   */\n      0x04\n        /* \"#utility.yul\":9914:9929   */\n      mstore\n        /* \"#utility.yul\":9948:9952   */\n      0x24\n        /* \"#utility.yul\":9945:9946   */\n      0x00\n        /* \"#utility.yul\":9938:9953   */\n      revert\n        /* \"#utility.yul\":9965:10198   */\n    tag_38:\n        /* \"#utility.yul\":10004:10007   */\n      0x00\n        /* \"#utility.yul\":10027:10051   */\n      tag_181\n        /* \"#utility.yul\":10045:10050   */\n      dup3\n        /* \"#utility.yul\":10027:10051   */\n      tag_61\n      jump\t// in\n    tag_181:\n        /* \"#utility.yul\":10018:10051   */\n      swap2\n      pop\n        /* \"#utility.yul\":10073:10139   */\n      0xffffffffffffffffffffffffffffffffffffffffffffffffffffffffffffffff\n        /* \"#utility.yul\":10066:10071   */\n      dup3\n        /* \"#utility.yul\":10063:10140   */\n      sub\n        /* \"#utility.yul\":10060:10163   */\n      tag_182\n      jumpi\n        /* \"#utility.yul\":10143:10161   */\n      tag_183\n      tag_90\n      jump\t// in\n    tag_183:\n        /* \"#utility.yul\":10060:10163   */\n    tag_182:\n        /* \"#utility.yul\":10190:10191   */\n      0x01\n        /* \"#utility.yul\":10183:10188   */\n      dup3\n        /* \"#utility.yul\":10179:10192   */\n      add\n        /* \"#utility.yul\":10172:10192   */\n      swap1\n      pop\n        /* \"#utility.yul\":9965:10198   */\n      swap2\n      swap1\n      pop\n      jump\t// out\n        /* \"#utility.yul\":10204:10322   */\n    tag_91:\n        /* \"#utility.yul\":10291:10315   */\n      tag_185\n        /* \"#utility.yul\":10309:10314   */\n      dup2\n        /* \"#utility.yul\":10291:10315   */\n      tag_65\n      jump\t// in\n    tag_185:\n        /* \"#utility.yul\":10286:10289   */\n      dup3\n        /* \"#utility.yul\":10279:10316   */\n      mstore\n        /* \"#utility.yul\":10204:10322   */\n      pop\n      pop\n      jump\t// out\n        /* \"#utility.yul\":10328:10660   */\n    tag_40:\n        /* \"#utility.yul\":10449:10453   */\n      0x00\n        /* \"#utility.yul\":10487:10489   */\n      0x40\n        /* \"#utility.yul\":10476:10485   */\n      dup3\n        /* \"#utility.yul\":10472:10490   */\n      add\n        /* \"#utility.yul\":10464:10490   */\n      swap1\n      pop\n        /* \"#utility.yul\":10500:10571   */\n      tag_187\n        /* \"#utility.yul\":10568:10569   */\n      0x00\n        /* \"#utility.yul\":10557:10566   */\n      dup4\n        /* \"#utility.yul\":10553:10570   */\n      add\n        /* \"#utility.yul\":10544:10550   */\n      dup6\n        /* \"#utility.yul\":10500:10571   */\n      tag_91\n      jump\t// in\n    tag_187:\n        /* \"#utility.yul\":10581:10653   */\n      tag_188\n        /* \"#utility.yul\":10649:10651   */\n      0x20\n        /* \"#utility.yul\":10638:10647   */\n      dup4\n        /* \"#utility.yul\":10634:10652   */\n      add\n        /* \"#utility.yul\":10625:10631   */\n      dup5\n        /* \"#utility.yul\":10581:10653   */\n      tag_75\n      jump\t// in\n    tag_188:\n        /* \"#utility.yul\":10328:10660   */\n      swap4\n      swap3\n      pop\n      pop\n      pop\n      jump\t// out\n        /* \"#utility.yul\":10666:10846   */\n    tag_92:\n        /* \"#utility.yul\":10714:10791   */\n      0x4e487b7100000000000000000000000000000000000000000000000000000000\n        /* \"#utility.yul\":10711:10712   */\n      0x00\n        /* \"#utility.yul\":10704:10792   */\n      mstore\n        /* \"#utility.yul\":10811:10815   */\n      0x22\n        /* \"#utility.yul\":10808:10809   */\n      0x04\n        /* \"#utility.yul\":10801:10816   */\n      mstore\n        /* \"#utility.yul\":10835:10839   */\n      0x24\n        /* \"#utility.yul\":10832:10833   */\n      0x00\n        /* \"#utility.yul\":10825:10840   */\n      revert\n        /* \"#utility.yul\":10852:11172   */\n    tag_44:\n        /* \"#utility.yul\":10896:10902   */\n      0x00\n        /* \"#utility.yul\":10933:10934   */\n      0x02\n        /* \"#utility.yul\":10927:10931   */\n      dup3\n        /* \"#utility.yul\":10923:10935   */\n      div\n        /* \"#utility.yul\":10913:10935   */\n      swap1\n      pop\n        /* \"#utility.yul\":10980:10981   */\n      0x01\n        /* \"#utility.yul\":10974:10978   */\n      dup3\n        /* \"#utility.yul\":10970:10982   */\n      and\n        /* \"#utility.yul\":11001:11019   */\n      dup1\n        /* \"#utility.yul\":10991:11072   */\n      tag_191\n      jumpi\n        /* \"#utility.yul\":11057:11061   */\n      0x7f\n        /* \"#utility.yul\":11049:11055   */\n      dup3\n        /* \"#utility.yul\":11045:11062   */\n      and\n        /* \"#utility.yul\":11035:11062   */\n      swap2\n      pop\n        /* \"#utility.yul\":10991:11072   */\n    tag_191:\n        /* \"#utility.yul\":11119:11121   */\n      0x20\n        /* \"#utility.yul\":11111:11117   */\n      dup3\n        /* \"#utility.yul\":11108:11122   */\n      lt\n        /* \"#utility.yul\":11088:11106   */\n      dup2\n        /* \"#utility.yul\":11085:11123   */\n      sub\n        /* \"#utility.yul\":11082:11166   */\n      tag_192\n      jumpi\n        /* \"#utility.yul\":11138:11156   */\n      tag_193\n      tag_92\n      jump\t// in\n    tag_193:\n        /* \"#utility.yul\":11082:11166   */\n    tag_192:\n        /* \"#utility.yul\":10903:11172   */\n      pop\n        /* \"#utility.yul\":10852:11172   */\n      swap2\n      swap1\n      pop\n      jump\t// out\n\n    auxdata: 0xa26469706673582212201efce97d25e13f0a63f79064869e8640e0304ce8622fa0a1cc6ec4d42f5a8c4264736f6c634300081e0033\n}\n",
				"bytecode": {
					"linkReferences": {},
					"object": "608060405234801561000f575f5ffd5b506040516110c53803806110c58339818101604052810190610031919061033b565b5f815111610074576040517f08c379a000000000000000000000000000000000000000000000000000000000815260040161006b906103dc565b60405180910390fd5b5f5f90505b8151811015610105575f60405180604001604052808484815181106100a1576100a06103fa565b5b602002602001015181526020015f815250908060018154018082558091505060019003905f5260205f2090600202015f909190919091505f820151815f0190816100eb9190610637565b506020820151816001015550508080600101915050610079565b5050610706565b5f604051905090565b5f5ffd5b5f5ffd5b5f5ffd5b5f601f19601f8301169050919050565b7f4e487b71000000000000000000000000000000000000000000000000000000005f52604160045260245ffd5b61016782610121565b810181811067ffffffffffffffff8211171561018657610185610131565b5b80604052505050565b5f61019861010c565b90506101a4828261015e565b919050565b5f67ffffffffffffffff8211156101c3576101c2610131565b5b602082029050602081019050919050565b5f5ffd5b5f5ffd5b5f67ffffffffffffffff8211156101f6576101f5610131565b5b6101ff82610121565b9050602081019050919050565b8281835e5f83830152505050565b5f61022c610227846101dc565b61018f565b905082815260208101848484011115610248576102476101d8565b5b61025384828561020c565b509392505050565b5f82601f83011261026f5761026e61011d565b5b815161027f84826020860161021a565b91505092915050565b5f61029a610295846101a9565b61018f565b905080838252602082019050602084028301858111156102bd576102bc6101d4565b5b835b8181101561030457805167ffffffffffffffff8111156102e2576102e161011d565b5b8086016102ef898261025b565b855260208501945050506020810190506102bf565b5050509392505050565b5f82601f8301126103225761032161011d565b5b8151610332848260208601610288565b91505092915050565b5f602082840312156103505761034f610115565b5b5f82015167ffffffffffffffff81111561036d5761036c610119565b5b6103798482850161030e565b91505092915050565b5f82825260208201905092915050565b7f566f74696e673a206e6f2063616e646964617465732070726f766964656400005f82015250565b5f6103c6601e83610382565b91506103d182610392565b602082019050919050565b5f6020820190508181035f8301526103f3816103ba565b9050919050565b7f4e487b71000000000000000000000000000000000000000000000000000000005f52603260045260245ffd5b5f81519050919050565b7f4e487b71000000000000000000000000000000000000000000000000000000005f52602260045260245ffd5b5f600282049050600182168061047557607f821691505b60208210810361048857610487610431565b5b50919050565b5f819050815f5260205f209050919050565b5f6020601f8301049050919050565b5f82821b905092915050565b5f600883026104ea7fffffffffffffffffffffffffffffffffffffffffffffffffffffffffffffffff826104af565b6104f486836104af565b95508019841693508086168417925050509392505050565b5f819050919050565b5f819050919050565b5f61053861053361052e8461050c565b610515565b61050c565b9050919050565b5f819050919050565b6105518361051e565b61056561055d8261053f565b8484546104bb565b825550505050565b5f5f905090565b61057c61056d565b610587818484610548565b505050565b5b818110156105aa5761059f5f82610574565b60018101905061058d565b5050565b601f8211156105ef576105c08161048e565b6105c9846104a0565b810160208510156105d8578190505b6105ec6105e4856104a0565b83018261058c565b50505b505050565b5f82821c905092915050565b5f61060f5f19846008026105f4565b1980831691505092915050565b5f6106278383610600565b9150826002028217905092915050565b61064082610427565b67ffffffffffffffff81111561065957610658610131565b5b610663825461045e565b61066e8282856105ae565b5f60209050601f83116001811461069f575f841561068d578287015190505b610697858261061c565b8655506106fe565b601f1984166106ad8661048e565b5f5b828110156106d4578489015182556001820191506020850194506020810190506106af565b868310156106f157848901516106ed601f891682610600565b8355505b6001600288020188555050505b505050505050565b6109b2806107135f395ff3fe608060405234801561000f575f5ffd5b506004361061004a575f3560e01c80630121b93f1461004e57806309eef43e1461006a5780633477ee2e1461009a5780634717f97c146100cb575b5f5ffd5b6100686004803603810190610063919061047c565b6100e9565b005b610084600480360381019061007f9190610501565b610280565b6040516100919190610546565b60405180910390f35b6100b460048036038101906100af919061047c565b61029d565b6040516100c29291906105de565b60405180910390f35b6100d3610351565b6040516100e09190610758565b60405180910390f35b60015f3373ffffffffffffffffffffffffffffffffffffffff1673ffffffffffffffffffffffffffffffffffffffff1681526020019081526020015f205f9054906101000a900460ff1615610173576040517f08c379a000000000000000000000000000000000000000000000000000000000815260040161016a906107c2565b60405180910390fd5b5f8054905081106101b9576040517f08c379a00000000000000000000000000000000000000000000000000000000081526004016101b09061082a565b60405180910390fd5b6001805f3373ffffffffffffffffffffffffffffffffffffffff1673ffffffffffffffffffffffffffffffffffffffff1681526020019081526020015f205f6101000a81548160ff0219169083151502179055505f81815481106102205761021f610848565b5b905f5260205f2090600202016001015f81548092919061023f906108a2565b91905055507f4d99b957a2bc29a30ebd96a7be8e68fe50a3c701db28a91436490b7d53870ca433826040516102759291906108f8565b60405180910390a150565b6001602052805f5260405f205f915054906101000a900460ff1681565b5f81815481106102ab575f80fd5b905f5260205f2090600202015f91509050805f0180546102ca9061094c565b80601f01602080910402602001604051908101604052809291908181526020018280546102f69061094c565b80156103415780601f1061031857610100808354040283529160200191610341565b820191905f5260205f20905b81548152906001019060200180831161032457829003601f168201915b5050505050908060010154905082565b60605f805480602002602001604051908101604052809291908181526020015f905b8282101561043c578382905f5260205f2090600202016040518060400160405290815f820180546103a39061094c565b80601f01602080910402602001604051908101604052809291908181526020018280546103cf9061094c565b801561041a5780601f106103f15761010080835404028352916020019161041a565b820191905f5260205f20905b8154815290600101906020018083116103fd57829003601f168201915b5050505050815260200160018201548152505081526020019060010190610373565b50505050905090565b5f5ffd5b5f819050919050565b61045b81610449565b8114610465575f5ffd5b50565b5f8135905061047681610452565b92915050565b5f6020828403121561049157610490610445565b5b5f61049e84828501610468565b91505092915050565b5f73ffffffffffffffffffffffffffffffffffffffff82169050919050565b5f6104d0826104a7565b9050919050565b6104e0816104c6565b81146104ea575f5ffd5b50565b5f813590506104fb816104d7565b92915050565b5f6020828403121561051657610515610445565b5b5f610523848285016104ed565b91505092915050565b5f8115159050919050565b6105408161052c565b82525050565b5f6020820190506105595f830184610537565b92915050565b5f81519050919050565b5f82825260208201905092915050565b8281835e5f83830152505050565b5f601f19601f8301169050919050565b5f6105a18261055f565b6105ab8185610569565b93506105bb818560208601610579565b6105c481610587565b840191505092915050565b6105d881610449565b82525050565b5f6040820190508181035f8301526105f68185610597565b905061060560208301846105cf565b9392505050565b5f81519050919050565b5f82825260208201905092915050565b5f819050602082019050919050565b5f82825260208201905092915050565b5f61064f8261055f565b6106598185610635565b9350610669818560208601610579565b61067281610587565b840191505092915050565b61068681610449565b82525050565b5f604083015f8301518482035f8601526106a68282610645565b91505060208301516106bb602086018261067d565b508091505092915050565b5f6106d1838361068c565b905092915050565b5f602082019050919050565b5f6106ef8261060c565b6106f98185610616565b93508360208202850161070b85610626565b805f5b85811015610746578484038952815161072785826106c6565b9450610732836106d9565b925060208a0199505060018101905061070e565b50829750879550505050505092915050565b5f6020820190508181035f83015261077081846106e5565b905092915050565b7f566f74696e673a20616c726561647920766f74656400000000000000000000005f82015250565b5f6107ac601583610569565b91506107b782610778565b602082019050919050565b5f6020820190508181035f8301526107d9816107a0565b9050919050565b7f566f74696e673a20696e76616c69642063616e64696461746520696e646578005f82015250565b5f610814601f83610569565b915061081f826107e0565b602082019050919050565b5f6020820190508181035f83015261084181610808565b9050919050565b7f4e487b71000000000000000000000000000000000000000000000000000000005f52603260045260245ffd5b7f4e487b71000000000000000000000000000000000000000000000000000000005f52601160045260245ffd5b5f6108ac82610449565b91507fffffffffffffffffffffffffffffffffffffffffffffffffffffffffffffffff82036108de576108dd610875565b5b600182019050919050565b6108f2816104c6565b82525050565b5f60408201905061090b5f8301856108e9565b61091860208301846105cf565b9392505050565b7f4e487b71000000000000000000000000000000000000000000000000000000005f52602260045260245ffd5b5f600282049050600182168061096357607f821691505b6020821081036109765761097561091f565b5b5091905056fea26469706673582212201efce97d25e13f0a63f79064869e8640e0304ce8622fa0a1cc6ec4d42f5a8c4264736f6c634300081e0033",
					"opcodes": "PUSH1 0x80 PUSH1 0x40 MSTORE CALLVALUE DUP1 ISZERO PUSH2 0xF JUMPI PUSH0 PUSH0 REVERT JUMPDEST POP PUSH1 0x40 MLOAD PUSH2 0x10C5 CODESIZE SUB DUP1 PUSH2 0x10C5 DUP4 CODECOPY DUP2 DUP2 ADD PUSH1 0x40 MSTORE DUP2 ADD SWAP1 PUSH2 0x31 SWAP2 SWAP1 PUSH2 0x33B JUMP JUMPDEST PUSH0 DUP2 MLOAD GT PUSH2 0x74 JUMPI PUSH1 0x40 MLOAD PUSH32 0x8C379A000000000000000000000000000000000000000000000000000000000 DUP2 MSTORE PUSH1 0x4 ADD PUSH2 0x6B SWAP1 PUSH2 0x3DC JUMP JUMPDEST PUSH1 0x40 MLOAD DUP1 SWAP2 SUB SWAP1 REVERT JUMPDEST PUSH0 PUSH0 SWAP1 POP JUMPDEST DUP2 MLOAD DUP2 LT ISZERO PUSH2 0x105 JUMPI PUSH0 PUSH1 0x40 MLOAD DUP1 PUSH1 0x40 ADD PUSH1 0x40 MSTORE DUP1 DUP5 DUP5 DUP2 MLOAD DUP2 LT PUSH2 0xA1 JUMPI PUSH2 0xA0 PUSH2 0x3FA JUMP JUMPDEST JUMPDEST PUSH1 0x20 MUL PUSH1 0x20 ADD ADD MLOAD DUP2 MSTORE PUSH1 0x20 ADD PUSH0 DUP2 MSTORE POP SWAP1 DUP1 PUSH1 0x1 DUP2 SLOAD ADD DUP1 DUP3 SSTORE DUP1 SWAP2 POP POP PUSH1 0x1 SWAP1 SUB SWAP1 PUSH0 MSTORE PUSH1 0x20 PUSH0 KECCAK256 SWAP1 PUSH1 0x2 MUL ADD PUSH0 SWAP1 SWAP2 SWAP1 SWAP2 SWAP1 SWAP2 POP PUSH0 DUP3 ADD MLOAD DUP2 PUSH0 ADD SWAP1 DUP2 PUSH2 0xEB SWAP2 SWAP1 PUSH2 0x637 JUMP JUMPDEST POP PUSH1 0x20 DUP3 ADD MLOAD DUP2 PUSH1 0x1 ADD SSTORE POP POP DUP1 DUP1 PUSH1 0x1 ADD SWAP2 POP POP PUSH2 0x79 JUMP JUMPDEST POP POP PUSH2 0x706 JUMP JUMPDEST PUSH0 PUSH1 0x40 MLOAD SWAP1 POP SWAP1 JUMP JUMPDEST PUSH0 PUSH0 REVERT JUMPDEST PUSH0 PUSH0 REVERT JUMPDEST PUSH0 PUSH0 REVERT JUMPDEST PUSH0 PUSH1 0x1F NOT PUSH1 0x1F DUP4 ADD AND SWAP1 POP SWAP2 SWAP1 POP JUMP JUMPDEST PUSH32 0x4E487B7100000000000000000000000000000000000000000000000000000000 PUSH0 MSTORE PUSH1 0x41 PUSH1 0x4 MSTORE PUSH1 0x24 PUSH0 REVERT JUMPDEST PUSH2 0x167 DUP3 PUSH2 0x121 JUMP JUMPDEST DUP2 ADD DUP2 DUP2 LT PUSH8 0xFFFFFFFFFFFFFFFF DUP3 GT OR ISZERO PUSH2 0x186 JUMPI PUSH2 0x185 PUSH2 0x131 JUMP JUMPDEST JUMPDEST DUP1 PUSH1 0x40 MSTORE POP POP POP JUMP JUMPDEST PUSH0 PUSH2 0x198 PUSH2 0x10C JUMP JUMPDEST SWAP1 POP PUSH2 0x1A4 DUP3 DUP3 PUSH2 0x15E JUMP JUMPDEST SWAP2 SWAP1 POP JUMP JUMPDEST PUSH0 PUSH8 0xFFFFFFFFFFFFFFFF DUP3 GT ISZERO PUSH2 0x1C3 JUMPI PUSH2 0x1C2 PUSH2 0x131 JUMP JUMPDEST JUMPDEST PUSH1 0x20 DUP3 MUL SWAP1 POP PUSH1 0x20 DUP2 ADD SWAP1 POP SWAP2 SWAP1 POP JUMP JUMPDEST PUSH0 PUSH0 REVERT JUMPDEST PUSH0 PUSH0 REVERT JUMPDEST PUSH0 PUSH8 0xFFFFFFFFFFFFFFFF DUP3 GT ISZERO PUSH2 0x1F6 JUMPI PUSH2 0x1F5 PUSH2 0x131 JUMP JUMPDEST JUMPDEST PUSH2 0x1FF DUP3 PUSH2 0x121 JUMP JUMPDEST SWAP1 POP PUSH1 0x20 DUP2 ADD SWAP1 POP SWAP2 SWAP1 POP JUMP JUMPDEST DUP3 DUP2 DUP4 MCOPY PUSH0 DUP4 DUP4 ADD MSTORE POP POP POP JUMP JUMPDEST PUSH0 PUSH2 0x22C PUSH2 0x227 DUP5 PUSH2 0x1DC JUMP JUMPDEST PUSH2 0x18F JUMP JUMPDEST SWAP1 POP DUP3 DUP2 MSTORE PUSH1 0x20 DUP2 ADD DUP5 DUP5 DUP5 ADD GT ISZERO PUSH2 0x248 JUMPI PUSH2 0x247 PUSH2 0x1D8 JUMP JUMPDEST JUMPDEST PUSH2 0x253 DUP5 DUP3 DUP6 PUSH2 0x20C JUMP JUMPDEST POP SWAP4 SWAP3 POP POP POP JUMP JUMPDEST PUSH0 DUP3 PUSH1 0x1F DUP4 ADD SLT PUSH2 0x26F JUMPI PUSH2 0x26E PUSH2 0x11D JUMP JUMPDEST JUMPDEST DUP2 MLOAD PUSH2 0x27F DUP5 DUP3 PUSH1 0x20 DUP7 ADD PUSH2 0x21A JUMP JUMPDEST SWAP2 POP POP SWAP3 SWAP2 POP POP JUMP JUMPDEST PUSH0 PUSH2 0x29A PUSH2 0x295 DUP5 PUSH2 0x1A9 JUMP JUMPDEST PUSH2 0x18F JUMP JUMPDEST SWAP1 POP DUP1 DUP4 DUP3 MSTORE PUSH1 0x20 DUP3 ADD SWAP1 POP PUSH1 0x20 DUP5 MUL DUP4 ADD DUP6 DUP2 GT ISZERO PUSH2 0x2BD JUMPI PUSH2 0x2BC PUSH2 0x1D4 JUMP JUMPDEST JUMPDEST DUP4 JUMPDEST DUP2 DUP2 LT ISZERO PUSH2 0x304 JUMPI DUP1 MLOAD PUSH8 0xFFFFFFFFFFFFFFFF DUP2 GT ISZERO PUSH2 0x2E2 JUMPI PUSH2 0x2E1 PUSH2 0x11D JUMP JUMPDEST JUMPDEST DUP1 DUP7 ADD PUSH2 0x2EF DUP10 DUP3 PUSH2 0x25B JUMP JUMPDEST DUP6 MSTORE PUSH1 0x20 DUP6 ADD SWAP5 POP POP POP PUSH1 0x20 DUP2 ADD SWAP1 POP PUSH2 0x2BF JUMP JUMPDEST POP POP POP SWAP4 SWAP3 POP POP POP JUMP JUMPDEST PUSH0 DUP3 PUSH1 0x1F DUP4 ADD SLT PUSH2 0x322 JUMPI PUSH2 0x321 PUSH2 0x11D JUMP JUMPDEST JUMPDEST DUP2 MLOAD PUSH2 0x332 DUP5 DUP3 PUSH1 0x20 DUP7 ADD PUSH2 0x288 JUMP JUMPDEST SWAP2 POP POP SWAP3 SWAP2 POP POP JUMP JUMPDEST PUSH0 PUSH1 0x20 DUP3 DUP5 SUB SLT ISZERO PUSH2 0x350 JUMPI PUSH2 0x34F PUSH2 0x115 JUMP JUMPDEST JUMPDEST PUSH0 DUP3 ADD MLOAD PUSH8 0xFFFFFFFFFFFFFFFF DUP2 GT ISZERO PUSH2 0x36D JUMPI PUSH2 0x36C PUSH2 0x119 JUMP JUMPDEST JUMPDEST PUSH2 0x379 DUP5 DUP3 DUP6 ADD PUSH2 0x30E JUMP JUMPDEST SWAP2 POP POP SWAP3 SWAP2 POP POP JUMP JUMPDEST PUSH0 DUP3 DUP3 MSTORE PUSH1 0x20 DUP3 ADD SWAP1 POP SWAP3 SWAP2 POP POP JUMP JUMPDEST PUSH32 0x566F74696E673A206E6F2063616E646964617465732070726F76696465640000 PUSH0 DUP3 ADD MSTORE POP JUMP JUMPDEST PUSH0 PUSH2 0x3C6 PUSH1 0x1E DUP4 PUSH2 0x382 JUMP JUMPDEST SWAP2 POP PUSH2 0x3D1 DUP3 PUSH2 0x392 JUMP JUMPDEST PUSH1 0x20 DUP3 ADD SWAP1 POP SWAP2 SWAP1 POP JUMP JUMPDEST PUSH0 PUSH1 0x20 DUP3 ADD SWAP1 POP DUP2 DUP2 SUB PUSH0 DUP4 ADD MSTORE PUSH2 0x3F3 DUP2 PUSH2 0x3BA JUMP JUMPDEST SWAP1 POP SWAP2 SWAP1 POP JUMP JUMPDEST PUSH32 0x4E487B7100000000000000000000000000000000000000000000000000000000 PUSH0 MSTORE PUSH1 0x32 PUSH1 0x4 MSTORE PUSH1 0x24 PUSH0 REVERT JUMPDEST PUSH0 DUP2 MLOAD SWAP1 POP SWAP2 SWAP1 POP JUMP JUMPDEST PUSH32 0x4E487B7100000000000000000000000000000000000000000000000000000000 PUSH0 MSTORE PUSH1 0x22 PUSH1 0x4 MSTORE PUSH1 0x24 PUSH0 REVERT JUMPDEST PUSH0 PUSH1 0x2 DUP3 DIV SWAP1 POP PUSH1 0x1 DUP3 AND DUP1 PUSH2 0x475 JUMPI PUSH1 0x7F DUP3 AND SWAP2 POP JUMPDEST PUSH1 0x20 DUP3 LT DUP2 SUB PUSH2 0x488 JUMPI PUSH2 0x487 PUSH2 0x431 JUMP JUMPDEST JUMPDEST POP SWAP2 SWAP1 POP JUMP JUMPDEST PUSH0 DUP2 SWAP1 POP DUP2 PUSH0 MSTORE PUSH1 0x20 PUSH0 KECCAK256 SWAP1 POP SWAP2 SWAP1 POP JUMP JUMPDEST PUSH0 PUSH1 0x20 PUSH1 0x1F DUP4 ADD DIV SWAP1 POP SWAP2 SWAP1 POP JUMP JUMPDEST PUSH0 DUP3 DUP3 SHL SWAP1 POP SWAP3 SWAP2 POP POP JUMP JUMPDEST PUSH0 PUSH1 0x8 DUP4 MUL PUSH2 0x4EA PUSH32 0xFFFFFFFFFFFFFFFFFFFFFFFFFFFFFFFFFFFFFFFFFFFFFFFFFFFFFFFFFFFFFFFF DUP3 PUSH2 0x4AF JUMP JUMPDEST PUSH2 0x4F4 DUP7 DUP4 PUSH2 0x4AF JUMP JUMPDEST SWAP6 POP DUP1 NOT DUP5 AND SWAP4 POP DUP1 DUP7 AND DUP5 OR SWAP3 POP POP POP SWAP4 SWAP3 POP POP POP JUMP JUMPDEST PUSH0 DUP2 SWAP1 POP SWAP2 SWAP1 POP JUMP JUMPDEST PUSH0 DUP2 SWAP1 POP SWAP2 SWAP1 POP JUMP JUMPDEST PUSH0 PUSH2 0x538 PUSH2 0x533 PUSH2 0x52E DUP5 PUSH2 0x50C JUMP JUMPDEST PUSH2 0x515 JUMP JUMPDEST PUSH2 0x50C JUMP JUMPDEST SWAP1 POP SWAP2 SWAP1 POP JUMP JUMPDEST PUSH0 DUP2 SWAP1 POP SWAP2 SWAP1 POP JUMP JUMPDEST PUSH2 0x551 DUP4 PUSH2 0x51E JUMP JUMPDEST PUSH2 0x565 PUSH2 0x55D DUP3 PUSH2 0x53F JUMP JUMPDEST DUP5 DUP5 SLOAD PUSH2 0x4BB JUMP JUMPDEST DUP3 SSTORE POP POP POP POP JUMP JUMPDEST PUSH0 PUSH0 SWAP1 POP SWAP1 JUMP JUMPDEST PUSH2 0x57C PUSH2 0x56D JUMP JUMPDEST PUSH2 0x587 DUP2 DUP5 DUP5 PUSH2 0x548 JUMP JUMPDEST POP POP POP JUMP JUMPDEST JUMPDEST DUP2 DUP2 LT ISZERO PUSH2 0x5AA JUMPI PUSH2 0x59F PUSH0 DUP3 PUSH2 0x574 JUMP JUMPDEST PUSH1 0x1 DUP2 ADD SWAP1 POP PUSH2 0x58D JUMP JUMPDEST POP POP JUMP JUMPDEST PUSH1 0x1F DUP3 GT ISZERO PUSH2 0x5EF JUMPI PUSH2 0x5C0 DUP2 PUSH2 0x48E JUMP JUMPDEST PUSH2 0x5C9 DUP5 PUSH2 0x4A0 JUMP JUMPDEST DUP2 ADD PUSH1 0x20 DUP6 LT ISZERO PUSH2 0x5D8 JUMPI DUP2 SWAP1 POP JUMPDEST PUSH2 0x5EC PUSH2 0x5E4 DUP6 PUSH2 0x4A0 JUMP JUMPDEST DUP4 ADD DUP3 PUSH2 0x58C JUMP JUMPDEST POP POP JUMPDEST POP POP POP JUMP JUMPDEST PUSH0 DUP3 DUP3 SHR SWAP1 POP SWAP3 SWAP2 POP POP JUMP JUMPDEST PUSH0 PUSH2 0x60F PUSH0 NOT DUP5 PUSH1 0x8 MUL PUSH2 0x5F4 JUMP JUMPDEST NOT DUP1 DUP4 AND SWAP2 POP POP SWAP3 SWAP2 POP POP JUMP JUMPDEST PUSH0 PUSH2 0x627 DUP4 DUP4 PUSH2 0x600 JUMP JUMPDEST SWAP2 POP DUP3 PUSH1 0x2 MUL DUP3 OR SWAP1 POP SWAP3 SWAP2 POP POP JUMP JUMPDEST PUSH2 0x640 DUP3 PUSH2 0x427 JUMP JUMPDEST PUSH8 0xFFFFFFFFFFFFFFFF DUP2 GT ISZERO PUSH2 0x659 JUMPI PUSH2 0x658 PUSH2 0x131 JUMP JUMPDEST JUMPDEST PUSH2 0x663 DUP3 SLOAD PUSH2 0x45E JUMP JUMPDEST PUSH2 0x66E DUP3 DUP3 DUP6 PUSH2 0x5AE JUMP JUMPDEST PUSH0 PUSH1 0x20 SWAP1 POP PUSH1 0x1F DUP4 GT PUSH1 0x1 DUP2 EQ PUSH2 0x69F JUMPI PUSH0 DUP5 ISZERO PUSH2 0x68D JUMPI DUP3 DUP8 ADD MLOAD SWAP1 POP JUMPDEST PUSH2 0x697 DUP6 DUP3 PUSH2 0x61C JUMP JUMPDEST DUP7 SSTORE POP PUSH2 0x6FE JUMP JUMPDEST PUSH1 0x1F NOT DUP5 AND PUSH2 0x6AD DUP7 PUSH2 0x48E JUMP JUMPDEST PUSH0 JUMPDEST DUP3 DUP2 LT ISZERO PUSH2 0x6D4 JUMPI DUP5 DUP10 ADD MLOAD DUP3 SSTORE PUSH1 0x1 DUP3 ADD SWAP2 POP PUSH1 0x20 DUP6 ADD SWAP5 POP PUSH1 0x20 DUP2 ADD SWAP1 POP PUSH2 0x6AF JUMP JUMPDEST DUP7 DUP4 LT ISZERO PUSH2 0x6F1 JUMPI DUP5 DUP10 ADD MLOAD PUSH2 0x6ED PUSH1 0x1F DUP10 AND DUP3 PUSH2 0x600 JUMP JUMPDEST DUP4 SSTORE POP JUMPDEST PUSH1 0x1 PUSH1 0x2 DUP9 MUL ADD DUP9 SSTORE POP POP POP JUMPDEST POP POP POP POP POP POP JUMP JUMPDEST PUSH2 0x9B2 DUP1 PUSH2 0x713 PUSH0 CODECOPY PUSH0 RETURN INVALID PUSH1 0x80 PUSH1 0x40 MSTORE CALLVALUE DUP1 ISZERO PUSH2 0xF JUMPI PUSH0 PUSH0 REVERT JUMPDEST POP PUSH1 0x4 CALLDATASIZE LT PUSH2 0x4A JUMPI PUSH0 CALLDATALOAD PUSH1 0xE0 SHR DUP1 PUSH4 0x121B93F EQ PUSH2 0x4E JUMPI DUP1 PUSH4 0x9EEF43E EQ PUSH2 0x6A JUMPI DUP1 PUSH4 0x3477EE2E EQ PUSH2 0x9A JUMPI DUP1 PUSH4 0x4717F97C EQ PUSH2 0xCB JUMPI JUMPDEST PUSH0 PUSH0 REVERT JUMPDEST PUSH2 0x68 PUSH1 0x4 DUP1 CALLDATASIZE SUB DUP2 ADD SWAP1 PUSH2 0x63 SWAP2 SWAP1 PUSH2 0x47C JUMP JUMPDEST PUSH2 0xE9 JUMP JUMPDEST STOP JUMPDEST PUSH2 0x84 PUSH1 0x4 DUP1 CALLDATASIZE SUB DUP2 ADD SWAP1 PUSH2 0x7F SWAP2 SWAP1 PUSH2 0x501 JUMP JUMPDEST PUSH2 0x280 JUMP JUMPDEST PUSH1 0x40 MLOAD PUSH2 0x91 SWAP2 SWAP1 PUSH2 0x546 JUMP JUMPDEST PUSH1 0x40 MLOAD DUP1 SWAP2 SUB SWAP1 RETURN JUMPDEST PUSH2 0xB4 PUSH1 0x4 DUP1 CALLDATASIZE SUB DUP2 ADD SWAP1 PUSH2 0xAF SWAP2 SWAP1 PUSH2 0x47C JUMP JUMPDEST PUSH2 0x29D JUMP JUMPDEST PUSH1 0x40 MLOAD PUSH2 0xC2 SWAP3 SWAP2 SWAP1 PUSH2 0x5DE JUMP JUMPDEST PUSH1 0x40 MLOAD DUP1 SWAP2 SUB SWAP1 RETURN JUMPDEST PUSH2 0xD3 PUSH2 0x351 JUMP JUMPDEST PUSH1 0x40 MLOAD PUSH2 0xE0 SWAP2 SWAP1 PUSH2 0x758 JUMP JUMPDEST PUSH1 0x40 MLOAD DUP1 SWAP2 SUB SWAP1 RETURN JUMPDEST PUSH1 0x1 PUSH0 CALLER PUSH20 0xFFFFFFFFFFFFFFFFFFFFFFFFFFFFFFFFFFFFFFFF AND PUSH20 0xFFFFFFFFFFFFFFFFFFFFFFFFFFFFFFFFFFFFFFFF AND DUP2 MSTORE PUSH1 0x20 ADD SWAP1 DUP2 MSTORE PUSH1 0x20 ADD PUSH0 KECCAK256 PUSH0 SWAP1 SLOAD SWAP1 PUSH2 0x100 EXP SWAP1 DIV PUSH1 0xFF AND ISZERO PUSH2 0x173 JUMPI PUSH1 0x40 MLOAD PUSH32 0x8C379A000000000000000000000000000000000000000000000000000000000 DUP2 MSTORE PUSH1 0x4 ADD PUSH2 0x16A SWAP1 PUSH2 0x7C2 JUMP JUMPDEST PUSH1 0x40 MLOAD DUP1 SWAP2 SUB SWAP1 REVERT JUMPDEST PUSH0 DUP1 SLOAD SWAP1 POP DUP2 LT PUSH2 0x1B9 JUMPI PUSH1 0x40 MLOAD PUSH32 0x8C379A000000000000000000000000000000000000000000000000000000000 DUP2 MSTORE PUSH1 0x4 ADD PUSH2 0x1B0 SWAP1 PUSH2 0x82A JUMP JUMPDEST PUSH1 0x40 MLOAD DUP1 SWAP2 SUB SWAP1 REVERT JUMPDEST PUSH1 0x1 DUP1 PUSH0 CALLER PUSH20 0xFFFFFFFFFFFFFFFFFFFFFFFFFFFFFFFFFFFFFFFF AND PUSH20 0xFFFFFFFFFFFFFFFFFFFFFFFFFFFFFFFFFFFFFFFF AND DUP2 MSTORE PUSH1 0x20 ADD SWAP1 DUP2 MSTORE PUSH1 0x20 ADD PUSH0 KECCAK256 PUSH0 PUSH2 0x100 EXP DUP2 SLOAD DUP2 PUSH1 0xFF MUL NOT AND SWAP1 DUP4 ISZERO ISZERO MUL OR SWAP1 SSTORE POP PUSH0 DUP2 DUP2 SLOAD DUP2 LT PUSH2 0x220 JUMPI PUSH2 0x21F PUSH2 0x848 JUMP JUMPDEST JUMPDEST SWAP1 PUSH0 MSTORE PUSH1 0x20 PUSH0 KECCAK256 SWAP1 PUSH1 0x2 MUL ADD PUSH1 0x1 ADD PUSH0 DUP2 SLOAD DUP1 SWAP3 SWAP2 SWAP1 PUSH2 0x23F SWAP1 PUSH2 0x8A2 JUMP JUMPDEST SWAP2 SWAP1 POP SSTORE POP PUSH32 0x4D99B957A2BC29A30EBD96A7BE8E68FE50A3C701DB28A91436490B7D53870CA4 CALLER DUP3 PUSH1 0x40 MLOAD PUSH2 0x275 SWAP3 SWAP2 SWAP1 PUSH2 0x8F8 JUMP JUMPDEST PUSH1 0x40 MLOAD DUP1 SWAP2 SUB SWAP1 LOG1 POP JUMP JUMPDEST PUSH1 0x1 PUSH1 0x20 MSTORE DUP1 PUSH0 MSTORE PUSH1 0x40 PUSH0 KECCAK256 PUSH0 SWAP2 POP SLOAD SWAP1 PUSH2 0x100 EXP SWAP1 DIV PUSH1 0xFF AND DUP2 JUMP JUMPDEST PUSH0 DUP2 DUP2 SLOAD DUP2 LT PUSH2 0x2AB JUMPI PUSH0 DUP1 REVERT JUMPDEST SWAP1 PUSH0 MSTORE PUSH1 0x20 PUSH0 KECCAK256 SWAP1 PUSH1 0x2 MUL ADD PUSH0 SWAP2 POP SWAP1 POP DUP1 PUSH0 ADD DUP1 SLOAD PUSH2 0x2CA SWAP1 PUSH2 0x94C JUMP JUMPDEST DUP1 PUSH1 0x1F ADD PUSH1 0x20 DUP1 SWAP2 DIV MUL PUSH1 0x20 ADD PUSH1 0x40 MLOAD SWAP1 DUP2 ADD PUSH1 0x40 MSTORE DUP1 SWAP3 SWAP2 SWAP1 DUP2 DUP2 MSTORE PUSH1 0x20 ADD DUP3 DUP1 SLOAD PUSH2 0x2F6 SWAP1 PUSH2 0x94C JUMP JUMPDEST DUP1 ISZERO PUSH2 0x341 JUMPI DUP1 PUSH1 0x1F LT PUSH2 0x318 JUMPI PUSH2 0x100 DUP1 DUP4 SLOAD DIV MUL DUP4 MSTORE SWAP2 PUSH1 0x20 ADD SWAP2 PUSH2 0x341 JUMP JUMPDEST DUP3 ADD SWAP2 SWAP1 PUSH0 MSTORE PUSH1 0x20 PUSH0 KECCAK256 SWAP1 JUMPDEST DUP2 SLOAD DUP2 MSTORE SWAP1 PUSH1 0x1 ADD SWAP1 PUSH1 0x20 ADD DUP1 DUP4 GT PUSH2 0x324 JUMPI DUP3 SWAP1 SUB PUSH1 0x1F AND DUP3 ADD SWAP2 JUMPDEST POP POP POP POP POP SWAP1 DUP1 PUSH1 0x1 ADD SLOAD SWAP1 POP DUP3 JUMP JUMPDEST PUSH1 0x60 PUSH0 DUP1 SLOAD DUP1 PUSH1 0x20 MUL PUSH1 0x20 ADD PUSH1 0x40 MLOAD SWAP1 DUP2 ADD PUSH1 0x40 MSTORE DUP1 SWAP3 SWAP2 SWAP1 DUP2 DUP2 MSTORE PUSH1 0x20 ADD PUSH0 SWAP1 JUMPDEST DUP3 DUP3 LT ISZERO PUSH2 0x43C JUMPI DUP4 DUP3 SWAP1 PUSH0 MSTORE PUSH1 0x20 PUSH0 KECCAK256 SWAP1 PUSH1 0x2 MUL ADD PUSH1 0x40 MLOAD DUP1 PUSH1 0x40 ADD PUSH1 0x40 MSTORE SWAP1 DUP2 PUSH0 DUP3 ADD DUP1 SLOAD PUSH2 0x3A3 SWAP1 PUSH2 0x94C JUMP JUMPDEST DUP1 PUSH1 0x1F ADD PUSH1 0x20 DUP1 SWAP2 DIV MUL PUSH1 0x20 ADD PUSH1 0x40 MLOAD SWAP1 DUP2 ADD PUSH1 0x40 MSTORE DUP1 SWAP3 SWAP2 SWAP1 DUP2 DUP2 MSTORE PUSH1 0x20 ADD DUP3 DUP1 SLOAD PUSH2 0x3CF SWAP1 PUSH2 0x94C JUMP JUMPDEST DUP1 ISZERO PUSH2 0x41A JUMPI DUP1 PUSH1 0x1F LT PUSH2 0x3F1 JUMPI PUSH2 0x100 DUP1 DUP4 SLOAD DIV MUL DUP4 MSTORE SWAP2 PUSH1 0x20 ADD SWAP2 PUSH2 0x41A JUMP JUMPDEST DUP3 ADD SWAP2 SWAP1 PUSH0 MSTORE PUSH1 0x20 PUSH0 KECCAK256 SWAP1 JUMPDEST DUP2 SLOAD DUP2 MSTORE SWAP1 PUSH1 0x1 ADD SWAP1 PUSH1 0x20 ADD DUP1 DUP4 GT PUSH2 0x3FD JUMPI DUP3 SWAP1 SUB PUSH1 0x1F AND DUP3 ADD SWAP2 JUMPDEST POP POP POP POP POP DUP2 MSTORE PUSH1 0x20 ADD PUSH1 0x1 DUP3 ADD SLOAD DUP2 MSTORE POP POP DUP2 MSTORE PUSH1 0x20 ADD SWAP1 PUSH1 0x1 ADD SWAP1 PUSH2 0x373 JUMP JUMPDEST POP POP POP POP SWAP1 POP SWAP1 JUMP JUMPDEST PUSH0 PUSH0 REVERT JUMPDEST PUSH0 DUP2 SWAP1 POP SWAP2 SWAP1 POP JUMP JUMPDEST PUSH2 0x45B DUP2 PUSH2 0x449 JUMP JUMPDEST DUP2 EQ PUSH2 0x465 JUMPI PUSH0 PUSH0 REVERT JUMPDEST POP JUMP JUMPDEST PUSH0 DUP2 CALLDATALOAD SWAP1 POP PUSH2 0x476 DUP2 PUSH2 0x452 JUMP JUMPDEST SWAP3 SWAP2 POP POP JUMP JUMPDEST PUSH0 PUSH1 0x20 DUP3 DUP5 SUB SLT ISZERO PUSH2 0x491 JUMPI PUSH2 0x490 PUSH2 0x445 JUMP JUMPDEST JUMPDEST PUSH0 PUSH2 0x49E DUP5 DUP3 DUP6 ADD PUSH2 0x468 JUMP JUMPDEST SWAP2 POP POP SWAP3 SWAP2 POP POP JUMP JUMPDEST PUSH0 PUSH20 0xFFFFFFFFFFFFFFFFFFFFFFFFFFFFFFFFFFFFFFFF DUP3 AND SWAP1 POP SWAP2 SWAP1 POP JUMP JUMPDEST PUSH0 PUSH2 0x4D0 DUP3 PUSH2 0x4A7 JUMP JUMPDEST SWAP1 POP SWAP2 SWAP1 POP JUMP JUMPDEST PUSH2 0x4E0 DUP2 PUSH2 0x4C6 JUMP JUMPDEST DUP2 EQ PUSH2 0x4EA JUMPI PUSH0 PUSH0 REVERT JUMPDEST POP JUMP JUMPDEST PUSH0 DUP2 CALLDATALOAD SWAP1 POP PUSH2 0x4FB DUP2 PUSH2 0x4D7 JUMP JUMPDEST SWAP3 SWAP2 POP POP JUMP JUMPDEST PUSH0 PUSH1 0x20 DUP3 DUP5 SUB SLT ISZERO PUSH2 0x516 JUMPI PUSH2 0x515 PUSH2 0x445 JUMP JUMPDEST JUMPDEST PUSH0 PUSH2 0x523 DUP5 DUP3 DUP6 ADD PUSH2 0x4ED JUMP JUMPDEST SWAP2 POP POP SWAP3 SWAP2 POP POP JUMP JUMPDEST PUSH0 DUP2 ISZERO ISZERO SWAP1 POP SWAP2 SWAP1 POP JUMP JUMPDEST PUSH2 0x540 DUP2 PUSH2 0x52C JUMP JUMPDEST DUP3 MSTORE POP POP JUMP JUMPDEST PUSH0 PUSH1 0x20 DUP3 ADD SWAP1 POP PUSH2 0x559 PUSH0 DUP4 ADD DUP5 PUSH2 0x537 JUMP JUMPDEST SWAP3 SWAP2 POP POP JUMP JUMPDEST PUSH0 DUP2 MLOAD SWAP1 POP SWAP2 SWAP1 POP JUMP JUMPDEST PUSH0 DUP3 DUP3 MSTORE PUSH1 0x20 DUP3 ADD SWAP1 POP SWAP3 SWAP2 POP POP JUMP JUMPDEST DUP3 DUP2 DUP4 MCOPY PUSH0 DUP4 DUP4 ADD MSTORE POP POP POP JUMP JUMPDEST PUSH0 PUSH1 0x1F NOT PUSH1 0x1F DUP4 ADD AND SWAP1 POP SWAP2 SWAP1 POP JUMP JUMPDEST PUSH0 PUSH2 0x5A1 DUP3 PUSH2 0x55F JUMP JUMPDEST PUSH2 0x5AB DUP2 DUP6 PUSH2 0x569 JUMP JUMPDEST SWAP4 POP PUSH2 0x5BB DUP2 DUP6 PUSH1 0x20 DUP7 ADD PUSH2 0x579 JUMP JUMPDEST PUSH2 0x5C4 DUP2 PUSH2 0x587 JUMP JUMPDEST DUP5 ADD SWAP2 POP POP SWAP3 SWAP2 POP POP JUMP JUMPDEST PUSH2 0x5D8 DUP2 PUSH2 0x449 JUMP JUMPDEST DUP3 MSTORE POP POP JUMP JUMPDEST PUSH0 PUSH1 0x40 DUP3 ADD SWAP1 POP DUP2 DUP2 SUB PUSH0 DUP4 ADD MSTORE PUSH2 0x5F6 DUP2 DUP6 PUSH2 0x597 JUMP JUMPDEST SWAP1 POP PUSH2 0x605 PUSH1 0x20 DUP4 ADD DUP5 PUSH2 0x5CF JUMP JUMPDEST SWAP4 SWAP3 POP POP POP JUMP JUMPDEST PUSH0 DUP2 MLOAD SWAP1 POP SWAP2 SWAP1 POP JUMP JUMPDEST PUSH0 DUP3 DUP3 MSTORE PUSH1 0x20 DUP3 ADD SWAP1 POP SWAP3 SWAP2 POP POP JUMP JUMPDEST PUSH0 DUP2 SWAP1 POP PUSH1 0x20 DUP3 ADD SWAP1 POP SWAP2 SWAP1 POP JUMP JUMPDEST PUSH0 DUP3 DUP3 MSTORE PUSH1 0x20 DUP3 ADD SWAP1 POP SWAP3 SWAP2 POP POP JUMP JUMPDEST PUSH0 PUSH2 0x64F DUP3 PUSH2 0x55F JUMP JUMPDEST PUSH2 0x659 DUP2 DUP6 PUSH2 0x635 JUMP JUMPDEST SWAP4 POP PUSH2 0x669 DUP2 DUP6 PUSH1 0x20 DUP7 ADD PUSH2 0x579 JUMP JUMPDEST PUSH2 0x672 DUP2 PUSH2 0x587 JUMP JUMPDEST DUP5 ADD SWAP2 POP POP SWAP3 SWAP2 POP POP JUMP JUMPDEST PUSH2 0x686 DUP2 PUSH2 0x449 JUMP JUMPDEST DUP3 MSTORE POP POP JUMP JUMPDEST PUSH0 PUSH1 0x40 DUP4 ADD PUSH0 DUP4 ADD MLOAD DUP5 DUP3 SUB PUSH0 DUP7 ADD MSTORE PUSH2 0x6A6 DUP3 DUP3 PUSH2 0x645 JUMP JUMPDEST SWAP2 POP POP PUSH1 0x20 DUP4 ADD MLOAD PUSH2 0x6BB PUSH1 0x20 DUP7 ADD DUP3 PUSH2 0x67D JUMP JUMPDEST POP DUP1 SWAP2 POP POP SWAP3 SWAP2 POP POP JUMP JUMPDEST PUSH0 PUSH2 0x6D1 DUP4 DUP4 PUSH2 0x68C JUMP JUMPDEST SWAP1 POP SWAP3 SWAP2 POP POP JUMP JUMPDEST PUSH0 PUSH1 0x20 DUP3 ADD SWAP1 POP SWAP2 SWAP1 POP JUMP JUMPDEST PUSH0 PUSH2 0x6EF DUP3 PUSH2 0x60C JUMP JUMPDEST PUSH2 0x6F9 DUP2 DUP6 PUSH2 0x616 JUMP JUMPDEST SWAP4 POP DUP4 PUSH1 0x20 DUP3 MUL DUP6 ADD PUSH2 0x70B DUP6 PUSH2 0x626 JUMP JUMPDEST DUP1 PUSH0 JUMPDEST DUP6 DUP2 LT ISZERO PUSH2 0x746 JUMPI DUP5 DUP5 SUB DUP10 MSTORE DUP2 MLOAD PUSH2 0x727 DUP6 DUP3 PUSH2 0x6C6 JUMP JUMPDEST SWAP5 POP PUSH2 0x732 DUP4 PUSH2 0x6D9 JUMP JUMPDEST SWAP3 POP PUSH1 0x20 DUP11 ADD SWAP10 POP POP PUSH1 0x1 DUP2 ADD SWAP1 POP PUSH2 0x70E JUMP JUMPDEST POP DUP3 SWAP8 POP DUP8 SWAP6 POP POP POP POP POP POP SWAP3 SWAP2 POP POP JUMP JUMPDEST PUSH0 PUSH1 0x20 DUP3 ADD SWAP1 POP DUP2 DUP2 SUB PUSH0 DUP4 ADD MSTORE PUSH2 0x770 DUP2 DUP5 PUSH2 0x6E5 JUMP JUMPDEST SWAP1 POP SWAP3 SWAP2 POP POP JUMP JUMPDEST PUSH32 0x566F74696E673A20616C726561647920766F7465640000000000000000000000 PUSH0 DUP3 ADD MSTORE POP JUMP JUMPDEST PUSH0 PUSH2 0x7AC PUSH1 0x15 DUP4 PUSH2 0x569 JUMP JUMPDEST SWAP2 POP PUSH2 0x7B7 DUP3 PUSH2 0x778 JUMP JUMPDEST PUSH1 0x20 DUP3 ADD SWAP1 POP SWAP2 SWAP1 POP JUMP JUMPDEST PUSH0 PUSH1 0x20 DUP3 ADD SWAP1 POP DUP2 DUP2 SUB PUSH0 DUP4 ADD MSTORE PUSH2 0x7D9 DUP2 PUSH2 0x7A0 JUMP JUMPDEST SWAP1 POP SWAP2 SWAP1 POP JUMP JUMPDEST PUSH32 0x566F74696E673A20696E76616C69642063616E64696461746520696E64657800 PUSH0 DUP3 ADD MSTORE POP JUMP JUMPDEST PUSH0 PUSH2 0x814 PUSH1 0x1F DUP4 PUSH2 0x569 JUMP JUMPDEST SWAP2 POP PUSH2 0x81F DUP3 PUSH2 0x7E0 JUMP JUMPDEST PUSH1 0x20 DUP3 ADD SWAP1 POP SWAP2 SWAP1 POP JUMP JUMPDEST PUSH0 PUSH1 0x20 DUP3 ADD SWAP1 POP DUP2 DUP2 SUB PUSH0 DUP4 ADD MSTORE PUSH2 0x841 DUP2 PUSH2 0x808 JUMP JUMPDEST SWAP1 POP SWAP2 SWAP1 POP JUMP JUMPDEST PUSH32 0x4E487B7100000000000000000000000000000000000000000000000000000000 PUSH0 MSTORE PUSH1 0x32 PUSH1 0x4 MSTORE PUSH1 0x24 PUSH0 REVERT JUMPDEST PUSH32 0x4E487B7100000000000000000000000000000000000000000000000000000000 PUSH0 MSTORE PUSH1 0x11 PUSH1 0x4 MSTORE PUSH1 0x24 PUSH0 REVERT JUMPDEST PUSH0 PUSH2 0x8AC DUP3 PUSH2 0x449 JUMP JUMPDEST SWAP2 POP PUSH32 0xFFFFFFFFFFFFFFFFFFFFFFFFFFFFFFFFFFFFFFFFFFFFFFFFFFFFFFFFFFFFFFFF DUP3 SUB PUSH2 0x8DE JUMPI PUSH2 0x8DD PUSH2 0x875 JUMP JUMPDEST JUMPDEST PUSH1 0x1 DUP3 ADD SWAP1 POP SWAP2 SWAP1 POP JUMP JUMPDEST PUSH2 0x8F2 DUP2 PUSH2 0x4C6 JUMP JUMPDEST DUP3 MSTORE POP POP JUMP JUMPDEST PUSH0 PUSH1 0x40 DUP3 ADD SWAP1 POP PUSH2 0x90B PUSH0 DUP4 ADD DUP6 PUSH2 0x8E9 JUMP JUMPDEST PUSH2 0x918 PUSH1 0x20 DUP4 ADD DUP5 PUSH2 0x5CF JUMP JUMPDEST SWAP4 SWAP3 POP POP POP JUMP JUMPDEST PUSH32 0x4E487B7100000000000000000000000000000000000000000000000000000000 PUSH0 MSTORE PUSH1 0x22 PUSH1 0x4 MSTORE PUSH1 0x24 PUSH0 REVERT JUMPDEST PUSH0 PUSH1 0x2 DUP3 DIV SWAP1 POP PUSH1 0x1 DUP3 AND DUP1 PUSH2 0x963 JUMPI PUSH1 0x7F DUP3 AND SWAP2 POP JUMPDEST PUSH1 0x20 DUP3 LT DUP2 SUB PUSH2 0x976 JUMPI PUSH2 0x975 PUSH2 0x91F JUMP JUMPDEST JUMPDEST POP SWAP2 SWAP1 POP JUMP INVALID LOG2 PUSH5 0x6970667358 0x22 SLT KECCAK256 0x1E 0xFC 0xE9 PUSH30 0x25E13F0A63F79064869E8640E0304CE8622FA0A1CC6EC4D42F5A8C426473 PUSH16 0x6C634300081E00330000000000000000 "
				},
				"gasEstimates": {
					"creation": {
						"codeDepositCost": "496400",
						"executionCost": "infinite",
						"totalCost": "infinite"
					},
					"external": {
						"candidates(uint256)": "infinite",
						"getResults()": "infinite",
						"hasVoted(address)": "2833",
						"vote(uint256)": "infinite"
					}
				},
				"methodIdentifiers": {
					"candidates(uint256)": "3477ee2e",
					"getResults()": "4717f97c",
					"hasVoted(address)": "09eef43e",
					"vote(uint256)": "0121b93f"
				}
			},
			"storageLayout": {
				"storage": [
					{
						"astId": 11,
						"contract": "contracts/7_Voting.sol:Voting",
						"label": "candidates",
						"offset": 0,
						"slot": "0",
						"type": "t_array(t_struct(Candidate)7_storage)dyn_storage"
					},
					{
						"astId": 15,
						"contract": "contracts/7_Voting.sol:Voting",
						"label": "hasVoted",
						"offset": 0,
						"slot": "1",
						"type": "t_mapping(t_address,t_bool)"
					}
				],
				"types": {
					"t_address": {
						"encoding": "inplace",
						"label": "address",
						"numberOfBytes": "20"
					},
					"t_array(t_struct(Candidate)7_storage)dyn_storage": {
						"base": "t_struct(Candidate)7_storage",
						"encoding": "dynamic_array",
						"label": "struct Voting.Candidate[]",
						"numberOfBytes": "32"
					},
					"t_bool": {
						"encoding": "inplace",
						"label": "bool",
						"numberOfBytes": "1"
					},
					"t_mapping(t_address,t_bool)": {
						"encoding": "mapping",
						"key": "t_address",
						"label": "mapping(address => bool)",
						"numberOfBytes": "32",
						"value": "t_bool"
					},
					"t_string_storage": {
						"encoding": "bytes",
						"label": "string",
						"numberOfBytes": "32"
					},
					"t_struct(Candidate)7_storage": {
						"encoding": "inplace",
						"label": "struct Voting.Candidate",
						"members": [
							{
								"astId": 4,
								"contract": "contracts/7_Voting.sol:Voting",
								"label": "name",
								"offset": 0,
								"slot": "0",
								"type": "t_string_storage"
							},
							{
								"astId": 6,
								"contract": "contracts/7_Voting.sol:Voting",
								"label": "voteCount",
								"offset": 0,
								"slot": "1",
								"type": "t_uint256"
							}
						],
						"numberOfBytes": "64"
					},
					"t_uint256": {
						"encoding": "inplace",
						"label": "uint256",
						"numberOfBytes": "32"
					}
				}
			},
			"userdoc": {
				"kind": "user",
				"methods": {
					"constructor": {
						"notice": "Ініціалізація контракту зі списком кандидатів"
					},
					"getResults()": {
						"notice": "Отримати результати голосування"
					},
					"vote(uint256)": {
						"notice": "Проголосувати за кандидата"
					}
				},
				"version": 1
			}
		}
	}
}