{
	"contracts/HW4/10_ArrayLibrary.sol": {
		"ArrayUtils": {
			"abi": [
				{
					"inputs": [
						{
							"internalType": "uint256",
							"name": "value",
							"type": "uint256"
						}
					],
					"name": "add",
					"outputs": [],
					"stateMutability": "nonpayable",
					"type": "function"
				},
				{
					"inputs": [
						{
							"internalType": "uint256",
							"name": "value",
							"type": "uint256"
						}
					],
					"name": "find",
					"outputs": [
						{
							"internalType": "int256",
							"name": "",
							"type": "int256"
						}
					],
					"stateMutability": "view",
					"type": "function"
				},
				{
					"inputs": [],
					"name": "getAll",
					"outputs": [
						{
							"internalType": "uint256[]",
							"name": "",
							"type": "uint256[]"
						}
					],
					"stateMutability": "view",
					"type": "function"
				},
				{
					"inputs": [
						{
							"internalType": "uint256",
							"name": "value",
							"type": "uint256"
						}
					],
					"name": "remove",
					"outputs": [],
					"stateMutability": "nonpayable",
					"type": "function"
				},
				{
					"inputs": [],
					"name": "sort",
					"outputs": [],
					"stateMutability": "nonpayable",
					"type": "function"
				}
			],
			"devdoc": {
				"details": "Контракт для роботи з масивом через бібліотеку ArrayLibrary",
				"kind": "dev",
				"methods": {},
				"title": "ArrayUtils",
				"version": 1
			},
			"evm": {
				"assembly": "    /* \"contracts/HW4/10_ArrayLibrary.sol\":2257:3158  contract ArrayUtils {... */\n  mstore(0x40, 0x80)\n  callvalue\n  dup1\n  iszero\n  tag_1\n  jumpi\n  revert(0x00, 0x00)\ntag_1:\n  pop\n  dataSize(sub_0)\n  dup1\n  dataOffset(sub_0)\n  0x00\n  codecopy\n  0x00\n  return\nstop\n\nsub_0: assembly {\n        /* \"contracts/HW4/10_ArrayLibrary.sol\":2257:3158  contract ArrayUtils {... */\n      mstore(0x40, 0x80)\n      callvalue\n      dup1\n      iszero\n      tag_1\n      jumpi\n      revert(0x00, 0x00)\n    tag_1:\n      pop\n      jumpi(tag_2, lt(calldatasize, 0x04))\n      shr(0xe0, calldataload(0x00))\n      dup1\n      0x1003e2d2\n      eq\n      tag_3\n      jumpi\n      dup1\n      0x3e530e5b\n      eq\n      tag_4\n      jumpi\n      dup1\n      0x4cc82215\n      eq\n      tag_5\n      jumpi\n      dup1\n      0x53ed5143\n      eq\n      tag_6\n      jumpi\n      dup1\n      0x8cdc86a6\n      eq\n      tag_7\n      jumpi\n    tag_2:\n      revert(0x00, 0x00)\n        /* \"contracts/HW4/10_ArrayLibrary.sol\":2414:2483  function add(uint256 value) public {... */\n    tag_3:\n      tag_8\n      0x04\n      dup1\n      calldatasize\n      sub\n      dup2\n      add\n      swap1\n      tag_9\n      swap2\n      swap1\n      tag_10\n      jump\t// in\n    tag_9:\n      tag_11\n      jump\t// in\n    tag_8:\n      stop\n        /* \"contracts/HW4/10_ArrayLibrary.sol\":2909:3011  function find(uint256 value) public view returns (int256) {... */\n    tag_4:\n      tag_12\n      0x04\n      dup1\n      calldatasize\n      sub\n      dup2\n      add\n      swap1\n      tag_13\n      swap2\n      swap1\n      tag_10\n      jump\t// in\n    tag_13:\n      tag_14\n      jump\t// in\n    tag_12:\n      mload(0x40)\n      tag_15\n      swap2\n      swap1\n      tag_16\n      jump\t// in\n    tag_15:\n      mload(0x40)\n      dup1\n      swap2\n      sub\n      swap1\n      return\n        /* \"contracts/HW4/10_ArrayLibrary.sol\":2585:2666  function remove(uint256 value) public {... */\n    tag_5:\n      tag_17\n      0x04\n      dup1\n      calldatasize\n      sub\n      dup2\n      add\n      swap1\n      tag_18\n      swap2\n      swap1\n      tag_10\n      jump\t// in\n    tag_18:\n      tag_19\n      jump\t// in\n    tag_17:\n      stop\n        /* \"contracts/HW4/10_ArrayLibrary.sol\":3070:3156  function getAll() public view returns (uint256[] memory) {... */\n    tag_6:\n      tag_20\n      tag_21\n      jump\t// in\n    tag_20:\n      mload(0x40)\n      tag_22\n      swap2\n      swap1\n      tag_23\n      jump\t// in\n    tag_22:\n      mload(0x40)\n      dup1\n      swap2\n      sub\n      swap1\n      return\n        /* \"contracts/HW4/10_ArrayLibrary.sol\":2750:2808  function sort() public {... */\n    tag_7:\n      tag_24\n      tag_25\n      jump\t// in\n    tag_24:\n      stop\n        /* \"contracts/HW4/10_ArrayLibrary.sol\":2414:2483  function add(uint256 value) public {... */\n    tag_11:\n        /* \"contracts/HW4/10_ArrayLibrary.sol\":2459:2464  items */\n      0x00\n        /* \"contracts/HW4/10_ArrayLibrary.sol\":2470:2475  value */\n      dup2\n        /* \"contracts/HW4/10_ArrayLibrary.sol\":2459:2476  items.push(value) */\n      swap1\n      dup1\n      0x01\n      dup2\n      sload\n      add\n      dup1\n      dup3\n      sstore\n      dup1\n      swap2\n      pop\n      pop\n      0x01\n      swap1\n      sub\n      swap1\n      0x00\n      mstore\n      keccak256(0x00, 0x20)\n      add\n      0x00\n      swap1\n      swap2\n      swap1\n      swap2\n      swap1\n      swap2\n      pop\n      sstore\n        /* \"contracts/HW4/10_ArrayLibrary.sol\":2414:2483  function add(uint256 value) public {... */\n      pop\n      jump\t// out\n        /* \"contracts/HW4/10_ArrayLibrary.sol\":2909:3011  function find(uint256 value) public view returns (int256) {... */\n    tag_14:\n        /* \"contracts/HW4/10_ArrayLibrary.sol\":2959:2965  int256 */\n      0x00\n        /* \"contracts/HW4/10_ArrayLibrary.sol\":2984:3004  items.indexOf(value) */\n      tag_29\n        /* \"contracts/HW4/10_ArrayLibrary.sol\":2998:3003  value */\n      dup3\n        /* \"contracts/HW4/10_ArrayLibrary.sol\":2984:2989  items */\n      0x00\n        /* \"contracts/HW4/10_ArrayLibrary.sol\":2984:2997  items.indexOf */\n      tag_30\n      swap1\n        /* \"contracts/HW4/10_ArrayLibrary.sol\":2984:3004  items.indexOf(value) */\n      swap2\n      swap1\n      0xffffffff\n      and\n      jump\t// in\n    tag_29:\n        /* \"contracts/HW4/10_ArrayLibrary.sol\":2977:3004  return items.indexOf(value) */\n      swap1\n      pop\n        /* \"contracts/HW4/10_ArrayLibrary.sol\":2909:3011  function find(uint256 value) public view returns (int256) {... */\n      swap2\n      swap1\n      pop\n      jump\t// out\n        /* \"contracts/HW4/10_ArrayLibrary.sol\":2585:2666  function remove(uint256 value) public {... */\n    tag_19:\n        /* \"contracts/HW4/10_ArrayLibrary.sol\":2633:2659  items.removeByValue(value) */\n      tag_32\n        /* \"contracts/HW4/10_ArrayLibrary.sol\":2653:2658  value */\n      dup2\n        /* \"contracts/HW4/10_ArrayLibrary.sol\":2633:2638  items */\n      0x00\n        /* \"contracts/HW4/10_ArrayLibrary.sol\":2633:2652  items.removeByValue */\n      tag_33\n      swap1\n        /* \"contracts/HW4/10_ArrayLibrary.sol\":2633:2659  items.removeByValue(value) */\n      swap2\n      swap1\n      0xffffffff\n      and\n      jump\t// in\n    tag_32:\n        /* \"contracts/HW4/10_ArrayLibrary.sol\":2585:2666  function remove(uint256 value) public {... */\n      pop\n      jump\t// out\n        /* \"contracts/HW4/10_ArrayLibrary.sol\":3070:3156  function getAll() public view returns (uint256[] memory) {... */\n    tag_21:\n        /* \"contracts/HW4/10_ArrayLibrary.sol\":3109:3125  uint256[] memory */\n      0x60\n        /* \"contracts/HW4/10_ArrayLibrary.sol\":3144:3149  items */\n      0x00\n        /* \"contracts/HW4/10_ArrayLibrary.sol\":3137:3149  return items */\n      dup1\n      sload\n      dup1\n      0x20\n      mul\n      0x20\n      add\n      mload(0x40)\n      swap1\n      dup2\n      add\n      0x40\n      mstore\n      dup1\n      swap3\n      swap2\n      swap1\n      dup2\n      dup2\n      mstore\n      0x20\n      add\n      dup3\n      dup1\n      sload\n      dup1\n      iszero\n      tag_35\n      jumpi\n      0x20\n      mul\n      dup3\n      add\n      swap2\n      swap1\n      0x00\n      mstore\n      keccak256(0x00, 0x20)\n      swap1\n    tag_36:\n      dup2\n      sload\n      dup2\n      mstore\n      0x20\n      add\n      swap1\n      0x01\n      add\n      swap1\n      dup1\n      dup4\n      gt\n      tag_36\n      jumpi\n    tag_35:\n      pop\n      pop\n      pop\n      pop\n      pop\n      swap1\n      pop\n        /* \"contracts/HW4/10_ArrayLibrary.sol\":3070:3156  function getAll() public view returns (uint256[] memory) {... */\n      swap1\n      jump\t// out\n        /* \"contracts/HW4/10_ArrayLibrary.sol\":2750:2808  function sort() public {... */\n    tag_25:\n        /* \"contracts/HW4/10_ArrayLibrary.sol\":2783:2801  items.bubbleSort() */\n      tag_38\n        /* \"contracts/HW4/10_ArrayLibrary.sol\":2783:2788  items */\n      0x00\n        /* \"contracts/HW4/10_ArrayLibrary.sol\":2783:2799  items.bubbleSort */\n      tag_39\n        /* \"contracts/HW4/10_ArrayLibrary.sol\":2783:2801  items.bubbleSort() */\n      jump\t// in\n    tag_38:\n        /* \"contracts/HW4/10_ArrayLibrary.sol\":2750:2808  function sort() public {... */\n      jump\t// out\n        /* \"contracts/HW4/10_ArrayLibrary.sol\":381:637  function indexOf(uint256[] storage arr, uint256 value) internal view returns (int256) {... */\n    tag_30:\n        /* \"contracts/HW4/10_ArrayLibrary.sol\":459:465  int256 */\n      0x00\n        /* \"contracts/HW4/10_ArrayLibrary.sol\":482:491  uint256 i */\n      0x00\n        /* \"contracts/HW4/10_ArrayLibrary.sol\":494:495  0 */\n      0x00\n        /* \"contracts/HW4/10_ArrayLibrary.sol\":482:495  uint256 i = 0 */\n      swap1\n      pop\n        /* \"contracts/HW4/10_ArrayLibrary.sol\":477:612  for (uint256 i = 0; i < arr.length; i++) {... */\n    tag_41:\n        /* \"contracts/HW4/10_ArrayLibrary.sol\":501:504  arr */\n      dup4\n        /* \"contracts/HW4/10_ArrayLibrary.sol\":501:511  arr.length */\n      dup1\n      sload\n      swap1\n      pop\n        /* \"contracts/HW4/10_ArrayLibrary.sol\":497:498  i */\n      dup2\n        /* \"contracts/HW4/10_ArrayLibrary.sol\":497:511  i < arr.length */\n      lt\n        /* \"contracts/HW4/10_ArrayLibrary.sol\":477:612  for (uint256 i = 0; i < arr.length; i++) {... */\n      iszero\n      tag_42\n      jumpi\n        /* \"contracts/HW4/10_ArrayLibrary.sol\":546:551  value */\n      dup3\n        /* \"contracts/HW4/10_ArrayLibrary.sol\":536:539  arr */\n      dup5\n        /* \"contracts/HW4/10_ArrayLibrary.sol\":540:541  i */\n      dup3\n        /* \"contracts/HW4/10_ArrayLibrary.sol\":536:542  arr[i] */\n      dup2\n      sload\n      dup2\n      lt\n      tag_44\n      jumpi\n      tag_45\n      tag_46\n      jump\t// in\n    tag_45:\n    tag_44:\n      swap1\n      0x00\n      mstore\n      keccak256(0x00, 0x20)\n      add\n      sload\n        /* \"contracts/HW4/10_ArrayLibrary.sol\":536:551  arr[i] == value */\n      sub\n        /* \"contracts/HW4/10_ArrayLibrary.sol\":532:602  if (arr[i] == value) {... */\n      tag_48\n      jumpi\n        /* \"contracts/HW4/10_ArrayLibrary.sol\":585:586  i */\n      dup1\n        /* \"contracts/HW4/10_ArrayLibrary.sol\":571:587  return int256(i) */\n      swap2\n      pop\n      pop\n      jump(tag_40)\n        /* \"contracts/HW4/10_ArrayLibrary.sol\":532:602  if (arr[i] == value) {... */\n    tag_48:\n        /* \"contracts/HW4/10_ArrayLibrary.sol\":513:516  i++ */\n      dup1\n      dup1\n      0x01\n      add\n      swap2\n      pop\n      pop\n        /* \"contracts/HW4/10_ArrayLibrary.sol\":477:612  for (uint256 i = 0; i < arr.length; i++) {... */\n      jump(tag_41)\n    tag_42:\n      pop\n        /* \"contracts/HW4/10_ArrayLibrary.sol\":628:630  -1 */\n      0xffffffffffffffffffffffffffffffffffffffffffffffffffffffffffffffff\n        /* \"contracts/HW4/10_ArrayLibrary.sol\":621:630  return -1 */\n      swap1\n      pop\n        /* \"contracts/HW4/10_ArrayLibrary.sol\":381:637  function indexOf(uint256[] storage arr, uint256 value) internal view returns (int256) {... */\n    tag_40:\n      swap3\n      swap2\n      pop\n      pop\n      jump\t// out\n        /* \"contracts/HW4/10_ArrayLibrary.sol\":1289:1510  function removeByValue(uint256[] storage arr, uint256 value) internal {... */\n    tag_33:\n        /* \"contracts/HW4/10_ArrayLibrary.sol\":1369:1379  int256 idx */\n      0x00\n        /* \"contracts/HW4/10_ArrayLibrary.sol\":1382:1401  indexOf(arr, value) */\n      tag_50\n        /* \"contracts/HW4/10_ArrayLibrary.sol\":1390:1393  arr */\n      dup4\n        /* \"contracts/HW4/10_ArrayLibrary.sol\":1395:1400  value */\n      dup4\n        /* \"contracts/HW4/10_ArrayLibrary.sol\":1382:1389  indexOf */\n      tag_30\n        /* \"contracts/HW4/10_ArrayLibrary.sol\":1382:1401  indexOf(arr, value) */\n      jump\t// in\n    tag_50:\n        /* \"contracts/HW4/10_ArrayLibrary.sol\":1369:1401  int256 idx = indexOf(arr, value) */\n      swap1\n      pop\n        /* \"contracts/HW4/10_ArrayLibrary.sol\":1426:1427  0 */\n      0x00\n        /* \"contracts/HW4/10_ArrayLibrary.sol\":1419:1422  idx */\n      dup2\n        /* \"contracts/HW4/10_ArrayLibrary.sol\":1419:1427  idx >= 0 */\n      slt\n      iszero\n        /* \"contracts/HW4/10_ArrayLibrary.sol\":1411:1461  require(idx >= 0, \"ArrayLibrary: value not found\") */\n      tag_51\n      jumpi\n      mload(0x40)\n      0x08c379a000000000000000000000000000000000000000000000000000000000\n      dup2\n      mstore\n      0x04\n      add\n      tag_52\n      swap1\n      tag_53\n      jump\t// in\n    tag_52:\n      mload(0x40)\n      dup1\n      swap2\n      sub\n      swap1\n      revert\n    tag_51:\n        /* \"contracts/HW4/10_ArrayLibrary.sol\":1471:1503  removeByIndex(arr, uint256(idx)) */\n      tag_54\n        /* \"contracts/HW4/10_ArrayLibrary.sol\":1485:1488  arr */\n      dup4\n        /* \"contracts/HW4/10_ArrayLibrary.sol\":1498:1501  idx */\n      dup3\n        /* \"contracts/HW4/10_ArrayLibrary.sol\":1471:1484  removeByIndex */\n      tag_55\n        /* \"contracts/HW4/10_ArrayLibrary.sol\":1471:1503  removeByIndex(arr, uint256(idx)) */\n      jump\t// in\n    tag_54:\n        /* \"contracts/HW4/10_ArrayLibrary.sol\":1359:1510  {... */\n      pop\n        /* \"contracts/HW4/10_ArrayLibrary.sol\":1289:1510  function removeByValue(uint256[] storage arr, uint256 value) internal {... */\n      pop\n      pop\n      jump\t// out\n        /* \"contracts/HW4/10_ArrayLibrary.sol\":1721:2116  function bubbleSort(uint256[] storage arr) internal {... */\n    tag_39:\n        /* \"contracts/HW4/10_ArrayLibrary.sol\":1783:1792  uint256 n */\n      0x00\n        /* \"contracts/HW4/10_ArrayLibrary.sol\":1795:1798  arr */\n      dup2\n        /* \"contracts/HW4/10_ArrayLibrary.sol\":1795:1805  arr.length */\n      dup1\n      sload\n      swap1\n      pop\n        /* \"contracts/HW4/10_ArrayLibrary.sol\":1783:1805  uint256 n = arr.length */\n      swap1\n      pop\n        /* \"contracts/HW4/10_ArrayLibrary.sol\":1820:1829  uint256 i */\n      0x00\n        /* \"contracts/HW4/10_ArrayLibrary.sol\":1832:1833  0 */\n      0x00\n        /* \"contracts/HW4/10_ArrayLibrary.sol\":1820:1833  uint256 i = 0 */\n      swap1\n      pop\n        /* \"contracts/HW4/10_ArrayLibrary.sol\":1815:2110  for (uint256 i = 0; i < n; i++) {... */\n    tag_57:\n        /* \"contracts/HW4/10_ArrayLibrary.sol\":1839:1840  n */\n      dup2\n        /* \"contracts/HW4/10_ArrayLibrary.sol\":1835:1836  i */\n      dup2\n        /* \"contracts/HW4/10_ArrayLibrary.sol\":1835:1840  i < n */\n      lt\n        /* \"contracts/HW4/10_ArrayLibrary.sol\":1815:2110  for (uint256 i = 0; i < n; i++) {... */\n      iszero\n      tag_58\n      jumpi\n        /* \"contracts/HW4/10_ArrayLibrary.sol\":1866:1875  uint256 j */\n      0x00\n        /* \"contracts/HW4/10_ArrayLibrary.sol\":1878:1879  0 */\n      0x00\n        /* \"contracts/HW4/10_ArrayLibrary.sol\":1866:1879  uint256 j = 0 */\n      swap1\n      pop\n        /* \"contracts/HW4/10_ArrayLibrary.sol\":1861:2100  for (uint256 j = 0; j < n - i - 1; j++) {... */\n    tag_60:\n        /* \"contracts/HW4/10_ArrayLibrary.sol\":1893:1894  1 */\n      0x01\n        /* \"contracts/HW4/10_ArrayLibrary.sol\":1889:1890  i */\n      dup3\n        /* \"contracts/HW4/10_ArrayLibrary.sol\":1885:1886  n */\n      dup5\n        /* \"contracts/HW4/10_ArrayLibrary.sol\":1885:1890  n - i */\n      tag_63\n      swap2\n      swap1\n      tag_64\n      jump\t// in\n    tag_63:\n        /* \"contracts/HW4/10_ArrayLibrary.sol\":1885:1894  n - i - 1 */\n      tag_65\n      swap2\n      swap1\n      tag_64\n      jump\t// in\n    tag_65:\n        /* \"contracts/HW4/10_ArrayLibrary.sol\":1881:1882  j */\n      dup2\n        /* \"contracts/HW4/10_ArrayLibrary.sol\":1881:1894  j < n - i - 1 */\n      lt\n        /* \"contracts/HW4/10_ArrayLibrary.sol\":1861:2100  for (uint256 j = 0; j < n - i - 1; j++) {... */\n      iszero\n      tag_61\n      jumpi\n        /* \"contracts/HW4/10_ArrayLibrary.sol\":1932:1935  arr */\n      dup4\n        /* \"contracts/HW4/10_ArrayLibrary.sol\":1940:1941  1 */\n      0x01\n        /* \"contracts/HW4/10_ArrayLibrary.sol\":1936:1937  j */\n      dup3\n        /* \"contracts/HW4/10_ArrayLibrary.sol\":1936:1941  j + 1 */\n      tag_66\n      swap2\n      swap1\n      tag_67\n      jump\t// in\n    tag_66:\n        /* \"contracts/HW4/10_ArrayLibrary.sol\":1932:1942  arr[j + 1] */\n      dup2\n      sload\n      dup2\n      lt\n      tag_68\n      jumpi\n      tag_69\n      tag_46\n      jump\t// in\n    tag_69:\n    tag_68:\n      swap1\n      0x00\n      mstore\n      keccak256(0x00, 0x20)\n      add\n      sload\n        /* \"contracts/HW4/10_ArrayLibrary.sol\":1923:1926  arr */\n      dup5\n        /* \"contracts/HW4/10_ArrayLibrary.sol\":1927:1928  j */\n      dup3\n        /* \"contracts/HW4/10_ArrayLibrary.sol\":1923:1929  arr[j] */\n      dup2\n      sload\n      dup2\n      lt\n      tag_71\n      jumpi\n      tag_72\n      tag_46\n      jump\t// in\n    tag_72:\n    tag_71:\n      swap1\n      0x00\n      mstore\n      keccak256(0x00, 0x20)\n      add\n      sload\n        /* \"contracts/HW4/10_ArrayLibrary.sol\":1923:1942  arr[j] > arr[j + 1] */\n      gt\n        /* \"contracts/HW4/10_ArrayLibrary.sol\":1919:2086  if (arr[j] > arr[j + 1]) {... */\n      iszero\n      tag_74\n      jumpi\n        /* \"contracts/HW4/10_ArrayLibrary.sol\":1966:1978  uint256 temp */\n      0x00\n        /* \"contracts/HW4/10_ArrayLibrary.sol\":1981:1984  arr */\n      dup5\n        /* \"contracts/HW4/10_ArrayLibrary.sol\":1985:1986  j */\n      dup3\n        /* \"contracts/HW4/10_ArrayLibrary.sol\":1981:1987  arr[j] */\n      dup2\n      sload\n      dup2\n      lt\n      tag_75\n      jumpi\n      tag_76\n      tag_46\n      jump\t// in\n    tag_76:\n    tag_75:\n      swap1\n      0x00\n      mstore\n      keccak256(0x00, 0x20)\n      add\n      sload\n        /* \"contracts/HW4/10_ArrayLibrary.sol\":1966:1987  uint256 temp = arr[j] */\n      swap1\n      pop\n        /* \"contracts/HW4/10_ArrayLibrary.sol\":2018:2021  arr */\n      dup5\n        /* \"contracts/HW4/10_ArrayLibrary.sol\":2026:2027  1 */\n      0x01\n        /* \"contracts/HW4/10_ArrayLibrary.sol\":2022:2023  j */\n      dup4\n        /* \"contracts/HW4/10_ArrayLibrary.sol\":2022:2027  j + 1 */\n      tag_78\n      swap2\n      swap1\n      tag_67\n      jump\t// in\n    tag_78:\n        /* \"contracts/HW4/10_ArrayLibrary.sol\":2018:2028  arr[j + 1] */\n      dup2\n      sload\n      dup2\n      lt\n      tag_79\n      jumpi\n      tag_80\n      tag_46\n      jump\t// in\n    tag_80:\n    tag_79:\n      swap1\n      0x00\n      mstore\n      keccak256(0x00, 0x20)\n      add\n      sload\n        /* \"contracts/HW4/10_ArrayLibrary.sol\":2009:2012  arr */\n      dup6\n        /* \"contracts/HW4/10_ArrayLibrary.sol\":2013:2014  j */\n      dup4\n        /* \"contracts/HW4/10_ArrayLibrary.sol\":2009:2015  arr[j] */\n      dup2\n      sload\n      dup2\n      lt\n      tag_82\n      jumpi\n      tag_83\n      tag_46\n      jump\t// in\n    tag_83:\n    tag_82:\n      swap1\n      0x00\n      mstore\n      keccak256(0x00, 0x20)\n      add\n        /* \"contracts/HW4/10_ArrayLibrary.sol\":2009:2028  arr[j] = arr[j + 1] */\n      dup2\n      swap1\n      sstore\n      pop\n        /* \"contracts/HW4/10_ArrayLibrary.sol\":2063:2067  temp */\n      dup1\n        /* \"contracts/HW4/10_ArrayLibrary.sol\":2050:2053  arr */\n      dup6\n        /* \"contracts/HW4/10_ArrayLibrary.sol\":2058:2059  1 */\n      0x01\n        /* \"contracts/HW4/10_ArrayLibrary.sol\":2054:2055  j */\n      dup5\n        /* \"contracts/HW4/10_ArrayLibrary.sol\":2054:2059  j + 1 */\n      tag_85\n      swap2\n      swap1\n      tag_67\n      jump\t// in\n    tag_85:\n        /* \"contracts/HW4/10_ArrayLibrary.sol\":2050:2060  arr[j + 1] */\n      dup2\n      sload\n      dup2\n      lt\n      tag_86\n      jumpi\n      tag_87\n      tag_46\n      jump\t// in\n    tag_87:\n    tag_86:\n      swap1\n      0x00\n      mstore\n      keccak256(0x00, 0x20)\n      add\n        /* \"contracts/HW4/10_ArrayLibrary.sol\":2050:2067  arr[j + 1] = temp */\n      dup2\n      swap1\n      sstore\n      pop\n        /* \"contracts/HW4/10_ArrayLibrary.sol\":1944:2086  {... */\n      pop\n        /* \"contracts/HW4/10_ArrayLibrary.sol\":1919:2086  if (arr[j] > arr[j + 1]) {... */\n    tag_74:\n        /* \"contracts/HW4/10_ArrayLibrary.sol\":1896:1899  j++ */\n      dup1\n      dup1\n      0x01\n      add\n      swap2\n      pop\n      pop\n        /* \"contracts/HW4/10_ArrayLibrary.sol\":1861:2100  for (uint256 j = 0; j < n - i - 1; j++) {... */\n      jump(tag_60)\n    tag_61:\n      pop\n        /* \"contracts/HW4/10_ArrayLibrary.sol\":1842:1845  i++ */\n      dup1\n      dup1\n      0x01\n      add\n      swap2\n      pop\n      pop\n        /* \"contracts/HW4/10_ArrayLibrary.sol\":1815:2110  for (uint256 i = 0; i < n; i++) {... */\n      jump(tag_57)\n    tag_58:\n      pop\n        /* \"contracts/HW4/10_ArrayLibrary.sol\":1773:2116  {... */\n      pop\n        /* \"contracts/HW4/10_ArrayLibrary.sol\":1721:2116  function bubbleSort(uint256[] storage arr) internal {... */\n      pop\n      jump\t// out\n        /* \"contracts/HW4/10_ArrayLibrary.sol\":991:1203  function removeByIndex(uint256[] storage arr, uint256 index) internal {... */\n    tag_55:\n        /* \"contracts/HW4/10_ArrayLibrary.sol\":1087:1090  arr */\n      dup2\n        /* \"contracts/HW4/10_ArrayLibrary.sol\":1087:1097  arr.length */\n      dup1\n      sload\n      swap1\n      pop\n        /* \"contracts/HW4/10_ArrayLibrary.sol\":1079:1084  index */\n      dup2\n        /* \"contracts/HW4/10_ArrayLibrary.sol\":1079:1097  index < arr.length */\n      lt\n        /* \"contracts/HW4/10_ArrayLibrary.sol\":1071:1135  require(index < arr.length, \"ArrayLibrary: index out of bounds\") */\n      tag_90\n      jumpi\n      mload(0x40)\n      0x08c379a000000000000000000000000000000000000000000000000000000000\n      dup2\n      mstore\n      0x04\n      add\n      tag_91\n      swap1\n      tag_92\n      jump\t// in\n    tag_91:\n      mload(0x40)\n      dup1\n      swap2\n      sub\n      swap1\n      revert\n    tag_90:\n        /* \"contracts/HW4/10_ArrayLibrary.sol\":1158:1161  arr */\n      dup2\n        /* \"contracts/HW4/10_ArrayLibrary.sol\":1175:1176  1 */\n      0x01\n        /* \"contracts/HW4/10_ArrayLibrary.sol\":1162:1165  arr */\n      dup4\n        /* \"contracts/HW4/10_ArrayLibrary.sol\":1162:1172  arr.length */\n      dup1\n      sload\n      swap1\n      pop\n        /* \"contracts/HW4/10_ArrayLibrary.sol\":1162:1176  arr.length - 1 */\n      tag_93\n      swap2\n      swap1\n      tag_64\n      jump\t// in\n    tag_93:\n        /* \"contracts/HW4/10_ArrayLibrary.sol\":1158:1177  arr[arr.length - 1] */\n      dup2\n      sload\n      dup2\n      lt\n      tag_94\n      jumpi\n      tag_95\n      tag_46\n      jump\t// in\n    tag_95:\n    tag_94:\n      swap1\n      0x00\n      mstore\n      keccak256(0x00, 0x20)\n      add\n      sload\n        /* \"contracts/HW4/10_ArrayLibrary.sol\":1145:1148  arr */\n      dup3\n        /* \"contracts/HW4/10_ArrayLibrary.sol\":1149:1154  index */\n      dup3\n        /* \"contracts/HW4/10_ArrayLibrary.sol\":1145:1155  arr[index] */\n      dup2\n      sload\n      dup2\n      lt\n      tag_97\n      jumpi\n      tag_98\n      tag_46\n      jump\t// in\n    tag_98:\n    tag_97:\n      swap1\n      0x00\n      mstore\n      keccak256(0x00, 0x20)\n      add\n        /* \"contracts/HW4/10_ArrayLibrary.sol\":1145:1177  arr[index] = arr[arr.length - 1] */\n      dup2\n      swap1\n      sstore\n      pop\n        /* \"contracts/HW4/10_ArrayLibrary.sol\":1187:1190  arr */\n      dup2\n        /* \"contracts/HW4/10_ArrayLibrary.sol\":1187:1196  arr.pop() */\n      dup1\n      sload\n      dup1\n      tag_100\n      jumpi\n      tag_101\n      tag_102\n      jump\t// in\n    tag_101:\n    tag_100:\n      0x01\n      swap1\n      sub\n      dup2\n      dup2\n      swap1\n      0x00\n      mstore\n      keccak256(0x00, 0x20)\n      add\n      0x00\n      swap1\n      sstore\n      swap1\n      sstore\n        /* \"contracts/HW4/10_ArrayLibrary.sol\":991:1203  function removeByIndex(uint256[] storage arr, uint256 index) internal {... */\n      pop\n      pop\n      jump\t// out\n        /* \"#utility.yul\":88:205   */\n    tag_105:\n        /* \"#utility.yul\":197:198   */\n      0x00\n        /* \"#utility.yul\":194:195   */\n      0x00\n        /* \"#utility.yul\":187:199   */\n      revert\n        /* \"#utility.yul\":334:411   */\n    tag_107:\n        /* \"#utility.yul\":371:378   */\n      0x00\n        /* \"#utility.yul\":400:405   */\n      dup2\n        /* \"#utility.yul\":389:405   */\n      swap1\n      pop\n        /* \"#utility.yul\":334:411   */\n      swap2\n      swap1\n      pop\n      jump\t// out\n        /* \"#utility.yul\":417:539   */\n    tag_108:\n        /* \"#utility.yul\":490:514   */\n      tag_131\n        /* \"#utility.yul\":508:513   */\n      dup2\n        /* \"#utility.yul\":490:514   */\n      tag_107\n      jump\t// in\n    tag_131:\n        /* \"#utility.yul\":483:488   */\n      dup2\n        /* \"#utility.yul\":480:515   */\n      eq\n        /* \"#utility.yul\":470:533   */\n      tag_132\n      jumpi\n        /* \"#utility.yul\":529:530   */\n      0x00\n        /* \"#utility.yul\":526:527   */\n      0x00\n        /* \"#utility.yul\":519:531   */\n      revert\n        /* \"#utility.yul\":470:533   */\n    tag_132:\n        /* \"#utility.yul\":417:539   */\n      pop\n      jump\t// out\n        /* \"#utility.yul\":545:684   */\n    tag_109:\n        /* \"#utility.yul\":591:596   */\n      0x00\n        /* \"#utility.yul\":629:635   */\n      dup2\n        /* \"#utility.yul\":616:636   */\n      calldataload\n        /* \"#utility.yul\":607:636   */\n      swap1\n      pop\n        /* \"#utility.yul\":645:678   */\n      tag_134\n        /* \"#utility.yul\":672:677   */\n      dup2\n        /* \"#utility.yul\":645:678   */\n      tag_108\n      jump\t// in\n    tag_134:\n        /* \"#utility.yul\":545:684   */\n      swap3\n      swap2\n      pop\n      pop\n      jump\t// out\n        /* \"#utility.yul\":690:1019   */\n    tag_10:\n        /* \"#utility.yul\":749:755   */\n      0x00\n        /* \"#utility.yul\":798:800   */\n      0x20\n        /* \"#utility.yul\":786:795   */\n      dup3\n        /* \"#utility.yul\":777:784   */\n      dup5\n        /* \"#utility.yul\":773:796   */\n      sub\n        /* \"#utility.yul\":769:801   */\n      slt\n        /* \"#utility.yul\":766:885   */\n      iszero\n      tag_136\n      jumpi\n        /* \"#utility.yul\":804:883   */\n      tag_137\n      tag_105\n      jump\t// in\n    tag_137:\n        /* \"#utility.yul\":766:885   */\n    tag_136:\n        /* \"#utility.yul\":924:925   */\n      0x00\n        /* \"#utility.yul\":949:1002   */\n      tag_138\n        /* \"#utility.yul\":994:1001   */\n      dup5\n        /* \"#utility.yul\":985:991   */\n      dup3\n        /* \"#utility.yul\":974:983   */\n      dup6\n        /* \"#utility.yul\":970:992   */\n      add\n        /* \"#utility.yul\":949:1002   */\n      tag_109\n      jump\t// in\n    tag_138:\n        /* \"#utility.yul\":939:1002   */\n      swap2\n      pop\n        /* \"#utility.yul\":895:1012   */\n      pop\n        /* \"#utility.yul\":690:1019   */\n      swap3\n      swap2\n      pop\n      pop\n      jump\t// out\n        /* \"#utility.yul\":1025:1101   */\n    tag_110:\n        /* \"#utility.yul\":1061:1068   */\n      0x00\n        /* \"#utility.yul\":1090:1095   */\n      dup2\n        /* \"#utility.yul\":1079:1095   */\n      swap1\n      pop\n        /* \"#utility.yul\":1025:1101   */\n      swap2\n      swap1\n      pop\n      jump\t// out\n        /* \"#utility.yul\":1107:1222   */\n    tag_111:\n        /* \"#utility.yul\":1192:1215   */\n      tag_141\n        /* \"#utility.yul\":1209:1214   */\n      dup2\n        /* \"#utility.yul\":1192:1215   */\n      tag_110\n      jump\t// in\n    tag_141:\n        /* \"#utility.yul\":1187:1190   */\n      dup3\n        /* \"#utility.yul\":1180:1216   */\n      mstore\n        /* \"#utility.yul\":1107:1222   */\n      pop\n      pop\n      jump\t// out\n        /* \"#utility.yul\":1228:1446   */\n    tag_16:\n        /* \"#utility.yul\":1319:1323   */\n      0x00\n        /* \"#utility.yul\":1357:1359   */\n      0x20\n        /* \"#utility.yul\":1346:1355   */\n      dup3\n        /* \"#utility.yul\":1342:1360   */\n      add\n        /* \"#utility.yul\":1334:1360   */\n      swap1\n      pop\n        /* \"#utility.yul\":1370:1439   */\n      tag_143\n        /* \"#utility.yul\":1436:1437   */\n      0x00\n        /* \"#utility.yul\":1425:1434   */\n      dup4\n        /* \"#utility.yul\":1421:1438   */\n      add\n        /* \"#utility.yul\":1412:1418   */\n      dup5\n        /* \"#utility.yul\":1370:1439   */\n      tag_111\n      jump\t// in\n    tag_143:\n        /* \"#utility.yul\":1228:1446   */\n      swap3\n      swap2\n      pop\n      pop\n      jump\t// out\n        /* \"#utility.yul\":1452:1566   */\n    tag_112:\n        /* \"#utility.yul\":1519:1525   */\n      0x00\n        /* \"#utility.yul\":1553:1558   */\n      dup2\n        /* \"#utility.yul\":1547:1559   */\n      mload\n        /* \"#utility.yul\":1537:1559   */\n      swap1\n      pop\n        /* \"#utility.yul\":1452:1566   */\n      swap2\n      swap1\n      pop\n      jump\t// out\n        /* \"#utility.yul\":1572:1756   */\n    tag_113:\n        /* \"#utility.yul\":1671:1682   */\n      0x00\n        /* \"#utility.yul\":1705:1711   */\n      dup3\n        /* \"#utility.yul\":1700:1703   */\n      dup3\n        /* \"#utility.yul\":1693:1712   */\n      mstore\n        /* \"#utility.yul\":1745:1749   */\n      0x20\n        /* \"#utility.yul\":1740:1743   */\n      dup3\n        /* \"#utility.yul\":1736:1750   */\n      add\n        /* \"#utility.yul\":1721:1750   */\n      swap1\n      pop\n        /* \"#utility.yul\":1572:1756   */\n      swap3\n      swap2\n      pop\n      pop\n      jump\t// out\n        /* \"#utility.yul\":1762:1894   */\n    tag_114:\n        /* \"#utility.yul\":1829:1833   */\n      0x00\n        /* \"#utility.yul\":1852:1855   */\n      dup2\n        /* \"#utility.yul\":1844:1855   */\n      swap1\n      pop\n        /* \"#utility.yul\":1882:1886   */\n      0x20\n        /* \"#utility.yul\":1877:1880   */\n      dup3\n        /* \"#utility.yul\":1873:1887   */\n      add\n        /* \"#utility.yul\":1865:1887   */\n      swap1\n      pop\n        /* \"#utility.yul\":1762:1894   */\n      swap2\n      swap1\n      pop\n      jump\t// out\n        /* \"#utility.yul\":1900:2008   */\n    tag_115:\n        /* \"#utility.yul\":1977:2001   */\n      tag_148\n        /* \"#utility.yul\":1995:2000   */\n      dup2\n        /* \"#utility.yul\":1977:2001   */\n      tag_107\n      jump\t// in\n    tag_148:\n        /* \"#utility.yul\":1972:1975   */\n      dup3\n        /* \"#utility.yul\":1965:2002   */\n      mstore\n        /* \"#utility.yul\":1900:2008   */\n      pop\n      pop\n      jump\t// out\n        /* \"#utility.yul\":2014:2193   */\n    tag_116:\n        /* \"#utility.yul\":2083:2093   */\n      0x00\n        /* \"#utility.yul\":2104:2150   */\n      tag_150\n        /* \"#utility.yul\":2146:2149   */\n      dup4\n        /* \"#utility.yul\":2138:2144   */\n      dup4\n        /* \"#utility.yul\":2104:2150   */\n      tag_115\n      jump\t// in\n    tag_150:\n        /* \"#utility.yul\":2182:2186   */\n      0x20\n        /* \"#utility.yul\":2177:2180   */\n      dup4\n        /* \"#utility.yul\":2173:2187   */\n      add\n        /* \"#utility.yul\":2159:2187   */\n      swap1\n      pop\n        /* \"#utility.yul\":2014:2193   */\n      swap3\n      swap2\n      pop\n      pop\n      jump\t// out\n        /* \"#utility.yul\":2199:2312   */\n    tag_117:\n        /* \"#utility.yul\":2269:2273   */\n      0x00\n        /* \"#utility.yul\":2301:2305   */\n      0x20\n        /* \"#utility.yul\":2296:2299   */\n      dup3\n        /* \"#utility.yul\":2292:2306   */\n      add\n        /* \"#utility.yul\":2284:2306   */\n      swap1\n      pop\n        /* \"#utility.yul\":2199:2312   */\n      swap2\n      swap1\n      pop\n      jump\t// out\n        /* \"#utility.yul\":2348:3080   */\n    tag_118:\n        /* \"#utility.yul\":2467:2470   */\n      0x00\n        /* \"#utility.yul\":2496:2550   */\n      tag_153\n        /* \"#utility.yul\":2544:2549   */\n      dup3\n        /* \"#utility.yul\":2496:2550   */\n      tag_112\n      jump\t// in\n    tag_153:\n        /* \"#utility.yul\":2566:2652   */\n      tag_154\n        /* \"#utility.yul\":2645:2651   */\n      dup2\n        /* \"#utility.yul\":2640:2643   */\n      dup6\n        /* \"#utility.yul\":2566:2652   */\n      tag_113\n      jump\t// in\n    tag_154:\n        /* \"#utility.yul\":2559:2652   */\n      swap4\n      pop\n        /* \"#utility.yul\":2676:2732   */\n      tag_155\n        /* \"#utility.yul\":2726:2731   */\n      dup4\n        /* \"#utility.yul\":2676:2732   */\n      tag_114\n      jump\t// in\n    tag_155:\n        /* \"#utility.yul\":2755:2762   */\n      dup1\n        /* \"#utility.yul\":2786:2787   */\n      0x00\n        /* \"#utility.yul\":2771:3055   */\n    tag_156:\n        /* \"#utility.yul\":2796:2802   */\n      dup4\n        /* \"#utility.yul\":2793:2794   */\n      dup2\n        /* \"#utility.yul\":2790:2803   */\n      lt\n        /* \"#utility.yul\":2771:3055   */\n      iszero\n      tag_158\n      jumpi\n        /* \"#utility.yul\":2872:2878   */\n      dup2\n        /* \"#utility.yul\":2866:2879   */\n      mload\n        /* \"#utility.yul\":2899:2962   */\n      tag_159\n        /* \"#utility.yul\":2958:2961   */\n      dup9\n        /* \"#utility.yul\":2943:2956   */\n      dup3\n        /* \"#utility.yul\":2899:2962   */\n      tag_116\n      jump\t// in\n    tag_159:\n        /* \"#utility.yul\":2892:2962   */\n      swap8\n      pop\n        /* \"#utility.yul\":2985:3045   */\n      tag_160\n        /* \"#utility.yul\":3038:3044   */\n      dup4\n        /* \"#utility.yul\":2985:3045   */\n      tag_117\n      jump\t// in\n    tag_160:\n        /* \"#utility.yul\":2975:3045   */\n      swap3\n      pop\n        /* \"#utility.yul\":2831:3055   */\n      pop\n        /* \"#utility.yul\":2818:2819   */\n      0x01\n        /* \"#utility.yul\":2815:2816   */\n      dup2\n        /* \"#utility.yul\":2811:2820   */\n      add\n        /* \"#utility.yul\":2806:2820   */\n      swap1\n      pop\n        /* \"#utility.yul\":2771:3055   */\n      jump(tag_156)\n    tag_158:\n        /* \"#utility.yul\":2775:2789   */\n      pop\n        /* \"#utility.yul\":3071:3074   */\n      dup6\n        /* \"#utility.yul\":3064:3074   */\n      swap4\n      pop\n        /* \"#utility.yul\":2472:3080   */\n      pop\n      pop\n      pop\n        /* \"#utility.yul\":2348:3080   */\n      swap3\n      swap2\n      pop\n      pop\n      jump\t// out\n        /* \"#utility.yul\":3086:3459   */\n    tag_23:\n        /* \"#utility.yul\":3229:3233   */\n      0x00\n        /* \"#utility.yul\":3267:3269   */\n      0x20\n        /* \"#utility.yul\":3256:3265   */\n      dup3\n        /* \"#utility.yul\":3252:3270   */\n      add\n        /* \"#utility.yul\":3244:3270   */\n      swap1\n      pop\n        /* \"#utility.yul\":3316:3325   */\n      dup2\n        /* \"#utility.yul\":3310:3314   */\n      dup2\n        /* \"#utility.yul\":3306:3326   */\n      sub\n        /* \"#utility.yul\":3302:3303   */\n      0x00\n        /* \"#utility.yul\":3291:3300   */\n      dup4\n        /* \"#utility.yul\":3287:3304   */\n      add\n        /* \"#utility.yul\":3280:3327   */\n      mstore\n        /* \"#utility.yul\":3344:3452   */\n      tag_162\n        /* \"#utility.yul\":3447:3451   */\n      dup2\n        /* \"#utility.yul\":3438:3444   */\n      dup5\n        /* \"#utility.yul\":3344:3452   */\n      tag_118\n      jump\t// in\n    tag_162:\n        /* \"#utility.yul\":3336:3452   */\n      swap1\n      pop\n        /* \"#utility.yul\":3086:3459   */\n      swap3\n      swap2\n      pop\n      pop\n      jump\t// out\n        /* \"#utility.yul\":3465:3645   */\n    tag_46:\n        /* \"#utility.yul\":3513:3590   */\n      0x4e487b7100000000000000000000000000000000000000000000000000000000\n        /* \"#utility.yul\":3510:3511   */\n      0x00\n        /* \"#utility.yul\":3503:3591   */\n      mstore\n        /* \"#utility.yul\":3610:3614   */\n      0x32\n        /* \"#utility.yul\":3607:3608   */\n      0x04\n        /* \"#utility.yul\":3600:3615   */\n      mstore\n        /* \"#utility.yul\":3634:3638   */\n      0x24\n        /* \"#utility.yul\":3631:3632   */\n      0x00\n        /* \"#utility.yul\":3624:3639   */\n      revert\n        /* \"#utility.yul\":3651:3820   */\n    tag_119:\n        /* \"#utility.yul\":3735:3746   */\n      0x00\n        /* \"#utility.yul\":3769:3775   */\n      dup3\n        /* \"#utility.yul\":3764:3767   */\n      dup3\n        /* \"#utility.yul\":3757:3776   */\n      mstore\n        /* \"#utility.yul\":3809:3813   */\n      0x20\n        /* \"#utility.yul\":3804:3807   */\n      dup3\n        /* \"#utility.yul\":3800:3814   */\n      add\n        /* \"#utility.yul\":3785:3814   */\n      swap1\n      pop\n        /* \"#utility.yul\":3651:3820   */\n      swap3\n      swap2\n      pop\n      pop\n      jump\t// out\n        /* \"#utility.yul\":3826:4005   */\n    tag_120:\n        /* \"#utility.yul\":3966:3997   */\n      0x41727261794c6962726172793a2076616c7565206e6f7420666f756e64000000\n        /* \"#utility.yul\":3962:3963   */\n      0x00\n        /* \"#utility.yul\":3954:3960   */\n      dup3\n        /* \"#utility.yul\":3950:3964   */\n      add\n        /* \"#utility.yul\":3943:3998   */\n      mstore\n        /* \"#utility.yul\":3826:4005   */\n      pop\n      jump\t// out\n        /* \"#utility.yul\":4011:4377   */\n    tag_121:\n        /* \"#utility.yul\":4153:4156   */\n      0x00\n        /* \"#utility.yul\":4174:4241   */\n      tag_167\n        /* \"#utility.yul\":4238:4240   */\n      0x1d\n        /* \"#utility.yul\":4233:4236   */\n      dup4\n        /* \"#utility.yul\":4174:4241   */\n      tag_119\n      jump\t// in\n    tag_167:\n        /* \"#utility.yul\":4167:4241   */\n      swap2\n      pop\n        /* \"#utility.yul\":4250:4343   */\n      tag_168\n        /* \"#utility.yul\":4339:4342   */\n      dup3\n        /* \"#utility.yul\":4250:4343   */\n      tag_120\n      jump\t// in\n    tag_168:\n        /* \"#utility.yul\":4368:4370   */\n      0x20\n        /* \"#utility.yul\":4363:4366   */\n      dup3\n        /* \"#utility.yul\":4359:4371   */\n      add\n        /* \"#utility.yul\":4352:4371   */\n      swap1\n      pop\n        /* \"#utility.yul\":4011:4377   */\n      swap2\n      swap1\n      pop\n      jump\t// out\n        /* \"#utility.yul\":4383:4802   */\n    tag_53:\n        /* \"#utility.yul\":4549:4553   */\n      0x00\n        /* \"#utility.yul\":4587:4589   */\n      0x20\n        /* \"#utility.yul\":4576:4585   */\n      dup3\n        /* \"#utility.yul\":4572:4590   */\n      add\n        /* \"#utility.yul\":4564:4590   */\n      swap1\n      pop\n        /* \"#utility.yul\":4636:4645   */\n      dup2\n        /* \"#utility.yul\":4630:4634   */\n      dup2\n        /* \"#utility.yul\":4626:4646   */\n      sub\n        /* \"#utility.yul\":4622:4623   */\n      0x00\n        /* \"#utility.yul\":4611:4620   */\n      dup4\n        /* \"#utility.yul\":4607:4624   */\n      add\n        /* \"#utility.yul\":4600:4647   */\n      mstore\n        /* \"#utility.yul\":4664:4795   */\n      tag_170\n        /* \"#utility.yul\":4790:4794   */\n      dup2\n        /* \"#utility.yul\":4664:4795   */\n      tag_121\n      jump\t// in\n    tag_170:\n        /* \"#utility.yul\":4656:4795   */\n      swap1\n      pop\n        /* \"#utility.yul\":4383:4802   */\n      swap2\n      swap1\n      pop\n      jump\t// out\n        /* \"#utility.yul\":4808:4988   */\n    tag_122:\n        /* \"#utility.yul\":4856:4933   */\n      0x4e487b7100000000000000000000000000000000000000000000000000000000\n        /* \"#utility.yul\":4853:4854   */\n      0x00\n        /* \"#utility.yul\":4846:4934   */\n      mstore\n        /* \"#utility.yul\":4953:4957   */\n      0x11\n        /* \"#utility.yul\":4950:4951   */\n      0x04\n        /* \"#utility.yul\":4943:4958   */\n      mstore\n        /* \"#utility.yul\":4977:4981   */\n      0x24\n        /* \"#utility.yul\":4974:4975   */\n      0x00\n        /* \"#utility.yul\":4967:4982   */\n      revert\n        /* \"#utility.yul\":4994:5188   */\n    tag_64:\n        /* \"#utility.yul\":5034:5038   */\n      0x00\n        /* \"#utility.yul\":5054:5074   */\n      tag_173\n        /* \"#utility.yul\":5072:5073   */\n      dup3\n        /* \"#utility.yul\":5054:5074   */\n      tag_107\n      jump\t// in\n    tag_173:\n        /* \"#utility.yul\":5049:5074   */\n      swap2\n      pop\n        /* \"#utility.yul\":5088:5108   */\n      tag_174\n        /* \"#utility.yul\":5106:5107   */\n      dup4\n        /* \"#utility.yul\":5088:5108   */\n      tag_107\n      jump\t// in\n    tag_174:\n        /* \"#utility.yul\":5083:5108   */\n      swap3\n      pop\n        /* \"#utility.yul\":5132:5133   */\n      dup3\n        /* \"#utility.yul\":5129:5130   */\n      dup3\n        /* \"#utility.yul\":5125:5134   */\n      sub\n        /* \"#utility.yul\":5117:5134   */\n      swap1\n      pop\n        /* \"#utility.yul\":5156:5157   */\n      dup2\n        /* \"#utility.yul\":5150:5154   */\n      dup2\n        /* \"#utility.yul\":5147:5158   */\n      gt\n        /* \"#utility.yul\":5144:5181   */\n      iszero\n      tag_175\n      jumpi\n        /* \"#utility.yul\":5161:5179   */\n      tag_176\n      tag_122\n      jump\t// in\n    tag_176:\n        /* \"#utility.yul\":5144:5181   */\n    tag_175:\n        /* \"#utility.yul\":4994:5188   */\n      swap3\n      swap2\n      pop\n      pop\n      jump\t// out\n        /* \"#utility.yul\":5194:5385   */\n    tag_67:\n        /* \"#utility.yul\":5234:5237   */\n      0x00\n        /* \"#utility.yul\":5253:5273   */\n      tag_178\n        /* \"#utility.yul\":5271:5272   */\n      dup3\n        /* \"#utility.yul\":5253:5273   */\n      tag_107\n      jump\t// in\n    tag_178:\n        /* \"#utility.yul\":5248:5273   */\n      swap2\n      pop\n        /* \"#utility.yul\":5287:5307   */\n      tag_179\n        /* \"#utility.yul\":5305:5306   */\n      dup4\n        /* \"#utility.yul\":5287:5307   */\n      tag_107\n      jump\t// in\n    tag_179:\n        /* \"#utility.yul\":5282:5307   */\n      swap3\n      pop\n        /* \"#utility.yul\":5330:5331   */\n      dup3\n        /* \"#utility.yul\":5327:5328   */\n      dup3\n        /* \"#utility.yul\":5323:5332   */\n      add\n        /* \"#utility.yul\":5316:5332   */\n      swap1\n      pop\n        /* \"#utility.yul\":5351:5354   */\n      dup1\n        /* \"#utility.yul\":5348:5349   */\n      dup3\n        /* \"#utility.yul\":5345:5355   */\n      gt\n        /* \"#utility.yul\":5342:5378   */\n      iszero\n      tag_180\n      jumpi\n        /* \"#utility.yul\":5358:5376   */\n      tag_181\n      tag_122\n      jump\t// in\n    tag_181:\n        /* \"#utility.yul\":5342:5378   */\n    tag_180:\n        /* \"#utility.yul\":5194:5385   */\n      swap3\n      swap2\n      pop\n      pop\n      jump\t// out\n        /* \"#utility.yul\":5391:5611   */\n    tag_123:\n        /* \"#utility.yul\":5531:5565   */\n      0x41727261794c6962726172793a20696e646578206f7574206f6620626f756e64\n        /* \"#utility.yul\":5527:5528   */\n      0x00\n        /* \"#utility.yul\":5519:5525   */\n      dup3\n        /* \"#utility.yul\":5515:5529   */\n      add\n        /* \"#utility.yul\":5508:5566   */\n      mstore\n        /* \"#utility.yul\":5600:5603   */\n      0x7300000000000000000000000000000000000000000000000000000000000000\n        /* \"#utility.yul\":5595:5597   */\n      0x20\n        /* \"#utility.yul\":5587:5593   */\n      dup3\n        /* \"#utility.yul\":5583:5598   */\n      add\n        /* \"#utility.yul\":5576:5604   */\n      mstore\n        /* \"#utility.yul\":5391:5611   */\n      pop\n      jump\t// out\n        /* \"#utility.yul\":5617:5983   */\n    tag_124:\n        /* \"#utility.yul\":5759:5762   */\n      0x00\n        /* \"#utility.yul\":5780:5847   */\n      tag_184\n        /* \"#utility.yul\":5844:5846   */\n      0x21\n        /* \"#utility.yul\":5839:5842   */\n      dup4\n        /* \"#utility.yul\":5780:5847   */\n      tag_119\n      jump\t// in\n    tag_184:\n        /* \"#utility.yul\":5773:5847   */\n      swap2\n      pop\n        /* \"#utility.yul\":5856:5949   */\n      tag_185\n        /* \"#utility.yul\":5945:5948   */\n      dup3\n        /* \"#utility.yul\":5856:5949   */\n      tag_123\n      jump\t// in\n    tag_185:\n        /* \"#utility.yul\":5974:5976   */\n      0x40\n        /* \"#utility.yul\":5969:5972   */\n      dup3\n        /* \"#utility.yul\":5965:5977   */\n      add\n        /* \"#utility.yul\":5958:5977   */\n      swap1\n      pop\n        /* \"#utility.yul\":5617:5983   */\n      swap2\n      swap1\n      pop\n      jump\t// out\n        /* \"#utility.yul\":5989:6408   */\n    tag_92:\n        /* \"#utility.yul\":6155:6159   */\n      0x00\n        /* \"#utility.yul\":6193:6195   */\n      0x20\n        /* \"#utility.yul\":6182:6191   */\n      dup3\n        /* \"#utility.yul\":6178:6196   */\n      add\n        /* \"#utility.yul\":6170:6196   */\n      swap1\n      pop\n        /* \"#utility.yul\":6242:6251   */\n      dup2\n        /* \"#utility.yul\":6236:6240   */\n      dup2\n        /* \"#utility.yul\":6232:6252   */\n      sub\n        /* \"#utility.yul\":6228:6229   */\n      0x00\n        /* \"#utility.yul\":6217:6226   */\n      dup4\n        /* \"#utility.yul\":6213:6230   */\n      add\n        /* \"#utility.yul\":6206:6253   */\n      mstore\n        /* \"#utility.yul\":6270:6401   */\n      tag_187\n        /* \"#utility.yul\":6396:6400   */\n      dup2\n        /* \"#utility.yul\":6270:6401   */\n      tag_124\n      jump\t// in\n    tag_187:\n        /* \"#utility.yul\":6262:6401   */\n      swap1\n      pop\n        /* \"#utility.yul\":5989:6408   */\n      swap2\n      swap1\n      pop\n      jump\t// out\n        /* \"#utility.yul\":6414:6594   */\n    tag_102:\n        /* \"#utility.yul\":6462:6539   */\n      0x4e487b7100000000000000000000000000000000000000000000000000000000\n        /* \"#utility.yul\":6459:6460   */\n      0x00\n        /* \"#utility.yul\":6452:6540   */\n      mstore\n        /* \"#utility.yul\":6559:6563   */\n      0x31\n        /* \"#utility.yul\":6556:6557   */\n      0x04\n        /* \"#utility.yul\":6549:6564   */\n      mstore\n        /* \"#utility.yul\":6583:6587   */\n      0x24\n        /* \"#utility.yul\":6580:6581   */\n      0x00\n        /* \"#utility.yul\":6573:6588   */\n      revert\n\n    auxdata: 0xa2646970667358221220e0323c985d51eb835851d4dae671e9a4414d742a2a26950b95e51ce39c9080ed64736f6c634300081e0033\n}\n",
				"bytecode": {
					"linkReferences": {},
					"object": "6080604052348015600e575f5ffd5b506107f98061001c5f395ff3fe608060405234801561000f575f5ffd5b5060043610610055575f3560e01c80631003e2d2146100595780633e530e5b146100755780634cc82215146100a557806353ed5143146100c15780638cdc86a6146100df575b5f5ffd5b610073600480360381019061006e919061049d565b6100e9565b005b61008f600480360381019061008a919061049d565b610111565b60405161009c91906104e0565b60405180910390f35b6100bf60048036038101906100ba919061049d565b61012c565b005b6100c9610142565b6040516100d691906105b0565b60405180910390f35b6100e7610197565b005b5f81908060018154018082558091505060019003905f5260205f20015f909190919091505550565b5f610125825f6101a290919063ffffffff16565b9050919050565b61013f815f61021790919063ffffffff16565b50565b60605f80548060200260200160405190810160405280929190818152602001828054801561018d57602002820191905f5260205f20905b815481526020019060010190808311610179575b5050505050905090565b6101a05f610276565b565b5f5f5f90505b83805490508110156101ec57828482815481106101c8576101c76105d0565b5b905f5260205f200154036101df5780915050610211565b80806001019150506101a8565b507fffffffffffffffffffffffffffffffffffffffffffffffffffffffffffffffff90505b92915050565b5f61022283836101a2565b90505f811215610267576040517f08c379a000000000000000000000000000000000000000000000000000000000815260040161025e90610657565b60405180910390fd5b61027183826103ad565b505050565b5f818054905090505f5f90505b818110156103a8575f5f90505b6001828461029e91906106a2565b6102a891906106a2565b81101561039a57836001826102bd91906106d5565b815481106102ce576102cd6105d0565b5b905f5260205f2001548482815481106102ea576102e96105d0565b5b905f5260205f200154111561038d575f84828154811061030d5761030c6105d0565b5b905f5260205f20015490508460018361032691906106d5565b81548110610337576103366105d0565b5b905f5260205f200154858381548110610353576103526105d0565b5b905f5260205f200181905550808560018461036e91906106d5565b8154811061037f5761037e6105d0565b5b905f5260205f200181905550505b8080600101915050610290565b508080600101915050610283565b505050565b818054905081106103f3576040517f08c379a00000000000000000000000000000000000000000000000000000000081526004016103ea90610778565b60405180910390fd5b816001838054905061040591906106a2565b81548110610416576104156105d0565b5b905f5260205f200154828281548110610432576104316105d0565b5b905f5260205f2001819055508180548061044f5761044e610796565b5b600190038181905f5260205f20015f905590555050565b5f5ffd5b5f819050919050565b61047c8161046a565b8114610486575f5ffd5b50565b5f8135905061049781610473565b92915050565b5f602082840312156104b2576104b1610466565b5b5f6104bf84828501610489565b91505092915050565b5f819050919050565b6104da816104c8565b82525050565b5f6020820190506104f35f8301846104d1565b92915050565b5f81519050919050565b5f82825260208201905092915050565b5f819050602082019050919050565b61052b8161046a565b82525050565b5f61053c8383610522565b60208301905092915050565b5f602082019050919050565b5f61055e826104f9565b6105688185610503565b935061057383610513565b805f5b838110156105a357815161058a8882610531565b975061059583610548565b925050600181019050610576565b5085935050505092915050565b5f6020820190508181035f8301526105c88184610554565b905092915050565b7f4e487b71000000000000000000000000000000000000000000000000000000005f52603260045260245ffd5b5f82825260208201905092915050565b7f41727261794c6962726172793a2076616c7565206e6f7420666f756e640000005f82015250565b5f610641601d836105fd565b915061064c8261060d565b602082019050919050565b5f6020820190508181035f83015261066e81610635565b9050919050565b7f4e487b71000000000000000000000000000000000000000000000000000000005f52601160045260245ffd5b5f6106ac8261046a565b91506106b78361046a565b92508282039050818111156106cf576106ce610675565b5b92915050565b5f6106df8261046a565b91506106ea8361046a565b925082820190508082111561070257610701610675565b5b92915050565b7f41727261794c6962726172793a20696e646578206f7574206f6620626f756e645f8201527f7300000000000000000000000000000000000000000000000000000000000000602082015250565b5f6107626021836105fd565b915061076d82610708565b604082019050919050565b5f6020820190508181035f83015261078f81610756565b9050919050565b7f4e487b71000000000000000000000000000000000000000000000000000000005f52603160045260245ffdfea2646970667358221220e0323c985d51eb835851d4dae671e9a4414d742a2a26950b95e51ce39c9080ed64736f6c634300081e0033",
					"opcodes": "PUSH1 0x80 PUSH1 0x40 MSTORE CALLVALUE DUP1 ISZERO PUSH1 0xE JUMPI PUSH0 PUSH0 REVERT JUMPDEST POP PUSH2 0x7F9 DUP1 PUSH2 0x1C PUSH0 CODECOPY PUSH0 RETURN INVALID PUSH1 0x80 PUSH1 0x40 MSTORE CALLVALUE DUP1 ISZERO PUSH2 0xF JUMPI PUSH0 PUSH0 REVERT JUMPDEST POP PUSH1 0x4 CALLDATASIZE LT PUSH2 0x55 JUMPI PUSH0 CALLDATALOAD PUSH1 0xE0 SHR DUP1 PUSH4 0x1003E2D2 EQ PUSH2 0x59 JUMPI DUP1 PUSH4 0x3E530E5B EQ PUSH2 0x75 JUMPI DUP1 PUSH4 0x4CC82215 EQ PUSH2 0xA5 JUMPI DUP1 PUSH4 0x53ED5143 EQ PUSH2 0xC1 JUMPI DUP1 PUSH4 0x8CDC86A6 EQ PUSH2 0xDF JUMPI JUMPDEST PUSH0 PUSH0 REVERT JUMPDEST PUSH2 0x73 PUSH1 0x4 DUP1 CALLDATASIZE SUB DUP2 ADD SWAP1 PUSH2 0x6E SWAP2 SWAP1 PUSH2 0x49D JUMP JUMPDEST PUSH2 0xE9 JUMP JUMPDEST STOP JUMPDEST PUSH2 0x8F PUSH1 0x4 DUP1 CALLDATASIZE SUB DUP2 ADD SWAP1 PUSH2 0x8A SWAP2 SWAP1 PUSH2 0x49D JUMP JUMPDEST PUSH2 0x111 JUMP JUMPDEST PUSH1 0x40 MLOAD PUSH2 0x9C SWAP2 SWAP1 PUSH2 0x4E0 JUMP JUMPDEST PUSH1 0x40 MLOAD DUP1 SWAP2 SUB SWAP1 RETURN JUMPDEST PUSH2 0xBF PUSH1 0x4 DUP1 CALLDATASIZE SUB DUP2 ADD SWAP1 PUSH2 0xBA SWAP2 SWAP1 PUSH2 0x49D JUMP JUMPDEST PUSH2 0x12C JUMP JUMPDEST STOP JUMPDEST PUSH2 0xC9 PUSH2 0x142 JUMP JUMPDEST PUSH1 0x40 MLOAD PUSH2 0xD6 SWAP2 SWAP1 PUSH2 0x5B0 JUMP JUMPDEST PUSH1 0x40 MLOAD DUP1 SWAP2 SUB SWAP1 RETURN JUMPDEST PUSH2 0xE7 PUSH2 0x197 JUMP JUMPDEST STOP JUMPDEST PUSH0 DUP2 SWAP1 DUP1 PUSH1 0x1 DUP2 SLOAD ADD DUP1 DUP3 SSTORE DUP1 SWAP2 POP POP PUSH1 0x1 SWAP1 SUB SWAP1 PUSH0 MSTORE PUSH1 0x20 PUSH0 KECCAK256 ADD PUSH0 SWAP1 SWAP2 SWAP1 SWAP2 SWAP1 SWAP2 POP SSTORE POP JUMP JUMPDEST PUSH0 PUSH2 0x125 DUP3 PUSH0 PUSH2 0x1A2 SWAP1 SWAP2 SWAP1 PUSH4 0xFFFFFFFF AND JUMP JUMPDEST SWAP1 POP SWAP2 SWAP1 POP JUMP JUMPDEST PUSH2 0x13F DUP2 PUSH0 PUSH2 0x217 SWAP1 SWAP2 SWAP1 PUSH4 0xFFFFFFFF AND JUMP JUMPDEST POP JUMP JUMPDEST PUSH1 0x60 PUSH0 DUP1 SLOAD DUP1 PUSH1 0x20 MUL PUSH1 0x20 ADD PUSH1 0x40 MLOAD SWAP1 DUP2 ADD PUSH1 0x40 MSTORE DUP1 SWAP3 SWAP2 SWAP1 DUP2 DUP2 MSTORE PUSH1 0x20 ADD DUP3 DUP1 SLOAD DUP1 ISZERO PUSH2 0x18D JUMPI PUSH1 0x20 MUL DUP3 ADD SWAP2 SWAP1 PUSH0 MSTORE PUSH1 0x20 PUSH0 KECCAK256 SWAP1 JUMPDEST DUP2 SLOAD DUP2 MSTORE PUSH1 0x20 ADD SWAP1 PUSH1 0x1 ADD SWAP1 DUP1 DUP4 GT PUSH2 0x179 JUMPI JUMPDEST POP POP POP POP POP SWAP1 POP SWAP1 JUMP JUMPDEST PUSH2 0x1A0 PUSH0 PUSH2 0x276 JUMP JUMPDEST JUMP JUMPDEST PUSH0 PUSH0 PUSH0 SWAP1 POP JUMPDEST DUP4 DUP1 SLOAD SWAP1 POP DUP2 LT ISZERO PUSH2 0x1EC JUMPI DUP3 DUP5 DUP3 DUP2 SLOAD DUP2 LT PUSH2 0x1C8 JUMPI PUSH2 0x1C7 PUSH2 0x5D0 JUMP JUMPDEST JUMPDEST SWAP1 PUSH0 MSTORE PUSH1 0x20 PUSH0 KECCAK256 ADD SLOAD SUB PUSH2 0x1DF JUMPI DUP1 SWAP2 POP POP PUSH2 0x211 JUMP JUMPDEST DUP1 DUP1 PUSH1 0x1 ADD SWAP2 POP POP PUSH2 0x1A8 JUMP JUMPDEST POP PUSH32 0xFFFFFFFFFFFFFFFFFFFFFFFFFFFFFFFFFFFFFFFFFFFFFFFFFFFFFFFFFFFFFFFF SWAP1 POP JUMPDEST SWAP3 SWAP2 POP POP JUMP JUMPDEST PUSH0 PUSH2 0x222 DUP4 DUP4 PUSH2 0x1A2 JUMP JUMPDEST SWAP1 POP PUSH0 DUP2 SLT ISZERO PUSH2 0x267 JUMPI PUSH1 0x40 MLOAD PUSH32 0x8C379A000000000000000000000000000000000000000000000000000000000 DUP2 MSTORE PUSH1 0x4 ADD PUSH2 0x25E SWAP1 PUSH2 0x657 JUMP JUMPDEST PUSH1 0x40 MLOAD DUP1 SWAP2 SUB SWAP1 REVERT JUMPDEST PUSH2 0x271 DUP4 DUP3 PUSH2 0x3AD JUMP JUMPDEST POP POP POP JUMP JUMPDEST PUSH0 DUP2 DUP1 SLOAD SWAP1 POP SWAP1 POP PUSH0 PUSH0 SWAP1 POP JUMPDEST DUP2 DUP2 LT ISZERO PUSH2 0x3A8 JUMPI PUSH0 PUSH0 SWAP1 POP JUMPDEST PUSH1 0x1 DUP3 DUP5 PUSH2 0x29E SWAP2 SWAP1 PUSH2 0x6A2 JUMP JUMPDEST PUSH2 0x2A8 SWAP2 SWAP1 PUSH2 0x6A2 JUMP JUMPDEST DUP2 LT ISZERO PUSH2 0x39A JUMPI DUP4 PUSH1 0x1 DUP3 PUSH2 0x2BD SWAP2 SWAP1 PUSH2 0x6D5 JUMP JUMPDEST DUP2 SLOAD DUP2 LT PUSH2 0x2CE JUMPI PUSH2 0x2CD PUSH2 0x5D0 JUMP JUMPDEST JUMPDEST SWAP1 PUSH0 MSTORE PUSH1 0x20 PUSH0 KECCAK256 ADD SLOAD DUP5 DUP3 DUP2 SLOAD DUP2 LT PUSH2 0x2EA JUMPI PUSH2 0x2E9 PUSH2 0x5D0 JUMP JUMPDEST JUMPDEST SWAP1 PUSH0 MSTORE PUSH1 0x20 PUSH0 KECCAK256 ADD SLOAD GT ISZERO PUSH2 0x38D JUMPI PUSH0 DUP5 DUP3 DUP2 SLOAD DUP2 LT PUSH2 0x30D JUMPI PUSH2 0x30C PUSH2 0x5D0 JUMP JUMPDEST JUMPDEST SWAP1 PUSH0 MSTORE PUSH1 0x20 PUSH0 KECCAK256 ADD SLOAD SWAP1 POP DUP5 PUSH1 0x1 DUP4 PUSH2 0x326 SWAP2 SWAP1 PUSH2 0x6D5 JUMP JUMPDEST DUP2 SLOAD DUP2 LT PUSH2 0x337 JUMPI PUSH2 0x336 PUSH2 0x5D0 JUMP JUMPDEST JUMPDEST SWAP1 PUSH0 MSTORE PUSH1 0x20 PUSH0 KECCAK256 ADD SLOAD DUP6 DUP4 DUP2 SLOAD DUP2 LT PUSH2 0x353 JUMPI PUSH2 0x352 PUSH2 0x5D0 JUMP JUMPDEST JUMPDEST SWAP1 PUSH0 MSTORE PUSH1 0x20 PUSH0 KECCAK256 ADD DUP2 SWAP1 SSTORE POP DUP1 DUP6 PUSH1 0x1 DUP5 PUSH2 0x36E SWAP2 SWAP1 PUSH2 0x6D5 JUMP JUMPDEST DUP2 SLOAD DUP2 LT PUSH2 0x37F JUMPI PUSH2 0x37E PUSH2 0x5D0 JUMP JUMPDEST JUMPDEST SWAP1 PUSH0 MSTORE PUSH1 0x20 PUSH0 KECCAK256 ADD DUP2 SWAP1 SSTORE POP POP JUMPDEST DUP1 DUP1 PUSH1 0x1 ADD SWAP2 POP POP PUSH2 0x290 JUMP JUMPDEST POP DUP1 DUP1 PUSH1 0x1 ADD SWAP2 POP POP PUSH2 0x283 JUMP JUMPDEST POP POP POP JUMP JUMPDEST DUP2 DUP1 SLOAD SWAP1 POP DUP2 LT PUSH2 0x3F3 JUMPI PUSH1 0x40 MLOAD PUSH32 0x8C379A000000000000000000000000000000000000000000000000000000000 DUP2 MSTORE PUSH1 0x4 ADD PUSH2 0x3EA SWAP1 PUSH2 0x778 JUMP JUMPDEST PUSH1 0x40 MLOAD DUP1 SWAP2 SUB SWAP1 REVERT JUMPDEST DUP2 PUSH1 0x1 DUP4 DUP1 SLOAD SWAP1 POP PUSH2 0x405 SWAP2 SWAP1 PUSH2 0x6A2 JUMP JUMPDEST DUP2 SLOAD DUP2 LT PUSH2 0x416 JUMPI PUSH2 0x415 PUSH2 0x5D0 JUMP JUMPDEST JUMPDEST SWAP1 PUSH0 MSTORE PUSH1 0x20 PUSH0 KECCAK256 ADD SLOAD DUP3 DUP3 DUP2 SLOAD DUP2 LT PUSH2 0x432 JUMPI PUSH2 0x431 PUSH2 0x5D0 JUMP JUMPDEST JUMPDEST SWAP1 PUSH0 MSTORE PUSH1 0x20 PUSH0 KECCAK256 ADD DUP2 SWAP1 SSTORE POP DUP2 DUP1 SLOAD DUP1 PUSH2 0x44F JUMPI PUSH2 0x44E PUSH2 0x796 JUMP JUMPDEST JUMPDEST PUSH1 0x1 SWAP1 SUB DUP2 DUP2 SWAP1 PUSH0 MSTORE PUSH1 0x20 PUSH0 KECCAK256 ADD PUSH0 SWAP1 SSTORE SWAP1 SSTORE POP POP JUMP JUMPDEST PUSH0 PUSH0 REVERT JUMPDEST PUSH0 DUP2 SWAP1 POP SWAP2 SWAP1 POP JUMP JUMPDEST PUSH2 0x47C DUP2 PUSH2 0x46A JUMP JUMPDEST DUP2 EQ PUSH2 0x486 JUMPI PUSH0 PUSH0 REVERT JUMPDEST POP JUMP JUMPDEST PUSH0 DUP2 CALLDATALOAD SWAP1 POP PUSH2 0x497 DUP2 PUSH2 0x473 JUMP JUMPDEST SWAP3 SWAP2 POP POP JUMP JUMPDEST PUSH0 PUSH1 0x20 DUP3 DUP5 SUB SLT ISZERO PUSH2 0x4B2 JUMPI PUSH2 0x4B1 PUSH2 0x466 JUMP JUMPDEST JUMPDEST PUSH0 PUSH2 0x4BF DUP5 DUP3 DUP6 ADD PUSH2 0x489 JUMP JUMPDEST SWAP2 POP POP SWAP3 SWAP2 POP POP JUMP JUMPDEST PUSH0 DUP2 SWAP1 POP SWAP2 SWAP1 POP JUMP JUMPDEST PUSH2 0x4DA DUP2 PUSH2 0x4C8 JUMP JUMPDEST DUP3 MSTORE POP POP JUMP JUMPDEST PUSH0 PUSH1 0x20 DUP3 ADD SWAP1 POP PUSH2 0x4F3 PUSH0 DUP4 ADD DUP5 PUSH2 0x4D1 JUMP JUMPDEST SWAP3 SWAP2 POP POP JUMP JUMPDEST PUSH0 DUP2 MLOAD SWAP1 POP SWAP2 SWAP1 POP JUMP JUMPDEST PUSH0 DUP3 DUP3 MSTORE PUSH1 0x20 DUP3 ADD SWAP1 POP SWAP3 SWAP2 POP POP JUMP JUMPDEST PUSH0 DUP2 SWAP1 POP PUSH1 0x20 DUP3 ADD SWAP1 POP SWAP2 SWAP1 POP JUMP JUMPDEST PUSH2 0x52B DUP2 PUSH2 0x46A JUMP JUMPDEST DUP3 MSTORE POP POP JUMP JUMPDEST PUSH0 PUSH2 0x53C DUP4 DUP4 PUSH2 0x522 JUMP JUMPDEST PUSH1 0x20 DUP4 ADD SWAP1 POP SWAP3 SWAP2 POP POP JUMP JUMPDEST PUSH0 PUSH1 0x20 DUP3 ADD SWAP1 POP SWAP2 SWAP1 POP JUMP JUMPDEST PUSH0 PUSH2 0x55E DUP3 PUSH2 0x4F9 JUMP JUMPDEST PUSH2 0x568 DUP2 DUP6 PUSH2 0x503 JUMP JUMPDEST SWAP4 POP PUSH2 0x573 DUP4 PUSH2 0x513 JUMP JUMPDEST DUP1 PUSH0 JUMPDEST DUP4 DUP2 LT ISZERO PUSH2 0x5A3 JUMPI DUP2 MLOAD PUSH2 0x58A DUP9 DUP3 PUSH2 0x531 JUMP JUMPDEST SWAP8 POP PUSH2 0x595 DUP4 PUSH2 0x548 JUMP JUMPDEST SWAP3 POP POP PUSH1 0x1 DUP2 ADD SWAP1 POP PUSH2 0x576 JUMP JUMPDEST POP DUP6 SWAP4 POP POP POP POP SWAP3 SWAP2 POP POP JUMP JUMPDEST PUSH0 PUSH1 0x20 DUP3 ADD SWAP1 POP DUP2 DUP2 SUB PUSH0 DUP4 ADD MSTORE PUSH2 0x5C8 DUP2 DUP5 PUSH2 0x554 JUMP JUMPDEST SWAP1 POP SWAP3 SWAP2 POP POP JUMP JUMPDEST PUSH32 0x4E487B7100000000000000000000000000000000000000000000000000000000 PUSH0 MSTORE PUSH1 0x32 PUSH1 0x4 MSTORE PUSH1 0x24 PUSH0 REVERT JUMPDEST PUSH0 DUP3 DUP3 MSTORE PUSH1 0x20 DUP3 ADD SWAP1 POP SWAP3 SWAP2 POP POP JUMP JUMPDEST PUSH32 0x41727261794C6962726172793A2076616C7565206E6F7420666F756E64000000 PUSH0 DUP3 ADD MSTORE POP JUMP JUMPDEST PUSH0 PUSH2 0x641 PUSH1 0x1D DUP4 PUSH2 0x5FD JUMP JUMPDEST SWAP2 POP PUSH2 0x64C DUP3 PUSH2 0x60D JUMP JUMPDEST PUSH1 0x20 DUP3 ADD SWAP1 POP SWAP2 SWAP1 POP JUMP JUMPDEST PUSH0 PUSH1 0x20 DUP3 ADD SWAP1 POP DUP2 DUP2 SUB PUSH0 DUP4 ADD MSTORE PUSH2 0x66E DUP2 PUSH2 0x635 JUMP JUMPDEST SWAP1 POP SWAP2 SWAP1 POP JUMP JUMPDEST PUSH32 0x4E487B7100000000000000000000000000000000000000000000000000000000 PUSH0 MSTORE PUSH1 0x11 PUSH1 0x4 MSTORE PUSH1 0x24 PUSH0 REVERT JUMPDEST PUSH0 PUSH2 0x6AC DUP3 PUSH2 0x46A JUMP JUMPDEST SWAP2 POP PUSH2 0x6B7 DUP4 PUSH2 0x46A JUMP JUMPDEST SWAP3 POP DUP3 DUP3 SUB SWAP1 POP DUP2 DUP2 GT ISZERO PUSH2 0x6CF JUMPI PUSH2 0x6CE PUSH2 0x675 JUMP JUMPDEST JUMPDEST SWAP3 SWAP2 POP POP JUMP JUMPDEST PUSH0 PUSH2 0x6DF DUP3 PUSH2 0x46A JUMP JUMPDEST SWAP2 POP PUSH2 0x6EA DUP4 PUSH2 0x46A JUMP JUMPDEST SWAP3 POP DUP3 DUP3 ADD SWAP1 POP DUP1 DUP3 GT ISZERO PUSH2 0x702 JUMPI PUSH2 0x701 PUSH2 0x675 JUMP JUMPDEST JUMPDEST SWAP3 SWAP2 POP POP JUMP JUMPDEST PUSH32 0x41727261794C6962726172793A20696E646578206F7574206F6620626F756E64 PUSH0 DUP3 ADD MSTORE PUSH32 0x7300000000000000000000000000000000000000000000000000000000000000 PUSH1 0x20 DUP3 ADD MSTORE POP JUMP JUMPDEST PUSH0 PUSH2 0x762 PUSH1 0x21 DUP4 PUSH2 0x5FD JUMP JUMPDEST SWAP2 POP PUSH2 0x76D DUP3 PUSH2 0x708 JUMP JUMPDEST PUSH1 0x40 DUP3 ADD SWAP1 POP SWAP2 SWAP1 POP JUMP JUMPDEST PUSH0 PUSH1 0x20 DUP3 ADD SWAP1 POP DUP2 DUP2 SUB PUSH0 DUP4 ADD MSTORE PUSH2 0x78F DUP2 PUSH2 0x756 JUMP JUMPDEST SWAP1 POP SWAP2 SWAP1 POP JUMP JUMPDEST PUSH32 0x4E487B7100000000000000000000000000000000000000000000000000000000 PUSH0 MSTORE PUSH1 0x31 PUSH1 0x4 MSTORE PUSH1 0x24 PUSH0 REVERT INVALID LOG2 PUSH5 0x6970667358 0x22 SLT KECCAK256 RJUMP 0x323C SWAP9 TSTORE MLOAD 0xEB DUP4 PC MLOAD 0xD4 0xDA DUPN 0x71 0xE9 LOG4 COINBASE 0x4D PUSH21 0x2A2A26950B95E51CE39C9080ED64736F6C63430008 0x1E STOP CALLER "
				},
				"gasEstimates": {
					"creation": {
						"codeDepositCost": "408200",
						"executionCost": "441",
						"totalCost": "408641"
					},
					"external": {
						"add(uint256)": "46798",
						"find(uint256)": "infinite",
						"getAll()": "infinite",
						"remove(uint256)": "infinite",
						"sort()": "infinite"
					}
				},
				"methodIdentifiers": {
					"add(uint256)": "1003e2d2",
					"find(uint256)": "3e530e5b",
					"getAll()": "53ed5143",
					"remove(uint256)": "4cc82215",
					"sort()": "8cdc86a6"
				}
			},
			"storageLayout": {
				"storage": [
					{
						"astId": 213,
						"contract": "contracts/HW4/10_ArrayLibrary.sol:ArrayUtils",
						"label": "items",
						"offset": 0,
						"slot": "0",
						"type": "t_array(t_uint256)dyn_storage"
					}
				],
				"types": {
					"t_array(t_uint256)dyn_storage": {
						"base": "t_uint256",
						"encoding": "dynamic_array",
						"label": "uint256[]",
						"numberOfBytes": "32"
					},
					"t_uint256": {
						"encoding": "inplace",
						"label": "uint256",
						"numberOfBytes": "32"
					}
				}
			},
			"userdoc": {
				"kind": "user",
				"methods": {
					"add(uint256)": {
						"notice": "Додати елемент до масиву"
					},
					"find(uint256)": {
						"notice": "Знайти індекс значення (-1 якщо не знайдено)"
					},
					"getAll()": {
						"notice": "Отримати весь масив"
					},
					"remove(uint256)": {
						"notice": "Видалити перше входження значення з масиву"
					},
					"sort()": {
						"notice": "Відсортувати масив за зростанням"
					}
				},
				"version": 1
			}
		}
	}
}