{
	"contracts/6_ProductStore.sol": {
		"ProductStore": {
			"abi": [
				{
					"anonymous": false,
					"inputs": [
						{
							"indexed": false,
							"internalType": "uint256",
							"name": "index",
							"type": "uint256"
						},
						{
							"indexed": false,
							"internalType": "string",
							"name": "name",
							"type": "string"
						},
						{
							"indexed": false,
							"internalType": "uint256",
							"name": "price",
							"type": "uint256"
						}
					],
					"name": "ProductAdded",
					"type": "event"
				},
				{
					"anonymous": false,
					"inputs": [
						{
							"indexed": false,
							"internalType": "uint256",
							"name": "index",
							"type": "uint256"
						},
						{
							"indexed": false,
							"internalType": "address",
							"name": "buyer",
							"type": "address"
						},
						{
							"indexed": false,
							"internalType": "uint256",
							"name": "paid",
							"type": "uint256"
						}
					],
					"name": "ProductPurchased",
					"type": "event"
				},
				{
					"inputs": [
						{
							"internalType": "string",
							"name": "name",
							"type": "string"
						},
						{
							"internalType": "uint256",
							"name": "price",
							"type": "uint256"
						}
					],
					"name": "addProduct",
					"outputs": [],
					"stateMutability": "nonpayable",
					"type": "function"
				},
				{
					"inputs": [
						{
							"internalType": "uint256",
							"name": "index",
							"type": "uint256"
						}
					],
					"name": "buyProduct",
					"outputs": [],
					"stateMutability": "payable",
					"type": "function"
				},
				{
					"inputs": [],
					"name": "getProducts",
					"outputs": [
						{
							"components": [
								{
									"internalType": "string",
									"name": "name",
									"type": "string"
								},
								{
									"internalType": "uint256",
									"name": "price",
									"type": "uint256"
								}
							],
							"internalType": "struct ProductStore.Product[]",
							"name": "",
							"type": "tuple[]"
						}
					],
					"stateMutability": "view",
					"type": "function"
				}
			],
			"devdoc": {
				"details": "Магазин товарів: додавання, купівля з перевіркою балансу, перегляд",
				"kind": "dev",
				"methods": {
					"addProduct(string,uint256)": {
						"params": {
							"name": "Назва товару",
							"price": "Ціна у wei"
						}
					},
					"buyProduct(uint256)": {
						"params": {
							"index": "Індекс товару у масиві"
						}
					},
					"getProducts()": {
						"returns": {
							"_0": "Масив структур Product"
						}
					}
				},
				"title": "ProductStore",
				"version": 1
			},
			"evm": {
				"assembly": "    /* \"contracts/6_ProductStore.sol\":231:1839  contract ProductStore {... */\n  mstore(0x40, 0x80)\n  callvalue\n  dup1\n  iszero\n  tag_1\n  jumpi\n  revert(0x00, 0x00)\ntag_1:\n  pop\n  dataSize(sub_0)\n  dup1\n  dataOffset(sub_0)\n  0x00\n  codecopy\n  0x00\n  return\nstop\n\nsub_0: assembly {\n        /* \"contracts/6_ProductStore.sol\":231:1839  contract ProductStore {... */\n      mstore(0x40, 0x80)\n      jumpi(tag_1, lt(calldatasize, 0x04))\n      shr(0xe0, calldataload(0x00))\n      dup1\n      0x8642269e\n      eq\n      tag_2\n      jumpi\n      dup1\n      0xb15247d9\n      eq\n      tag_3\n      jumpi\n      dup1\n      0xc29b2f20\n      eq\n      tag_4\n      jumpi\n    tag_1:\n      revert(0x00, 0x00)\n        /* \"contracts/6_ProductStore.sol\":1102:1615  function buyProduct(uint256 index) public payable {... */\n    tag_2:\n      tag_5\n      0x04\n      dup1\n      calldatasize\n      sub\n      dup2\n      add\n      swap1\n      tag_6\n      swap2\n      swap1\n      tag_7\n      jump\t// in\n    tag_6:\n      tag_8\n      jump\t// in\n    tag_5:\n      stop\n        /* \"contracts/6_ProductStore.sol\":636:967  function addProduct(string memory name, uint256 price) public {... */\n    tag_3:\n      callvalue\n      dup1\n      iszero\n      tag_9\n      jumpi\n      revert(0x00, 0x00)\n    tag_9:\n      pop\n      tag_10\n      0x04\n      dup1\n      calldatasize\n      sub\n      dup2\n      add\n      swap1\n      tag_11\n      swap2\n      swap1\n      tag_12\n      jump\t// in\n    tag_11:\n      tag_13\n      jump\t// in\n    tag_10:\n      stop\n        /* \"contracts/6_ProductStore.sol\":1743:1837  function getProducts() public view returns (Product[] memory) {... */\n    tag_4:\n      callvalue\n      dup1\n      iszero\n      tag_14\n      jumpi\n      revert(0x00, 0x00)\n    tag_14:\n      pop\n      tag_15\n      tag_16\n      jump\t// in\n    tag_15:\n      mload(0x40)\n      tag_17\n      swap2\n      swap1\n      tag_18\n      jump\t// in\n    tag_17:\n      mload(0x40)\n      dup1\n      swap2\n      sub\n      swap1\n      return\n        /* \"contracts/6_ProductStore.sol\":1102:1615  function buyProduct(uint256 index) public payable {... */\n    tag_8:\n        /* \"contracts/6_ProductStore.sol\":1178:1186  products */\n      0x00\n        /* \"contracts/6_ProductStore.sol\":1178:1193  products.length */\n      dup1\n      sload\n      swap1\n      pop\n        /* \"contracts/6_ProductStore.sol\":1170:1175  index */\n      dup2\n        /* \"contracts/6_ProductStore.sol\":1170:1193  index < products.length */\n      lt\n        /* \"contracts/6_ProductStore.sol\":1162:1233  require(index < products.length, \"ProductStore: invalid product index\") */\n      tag_20\n      jumpi\n      mload(0x40)\n      0x08c379a000000000000000000000000000000000000000000000000000000000\n      dup2\n      mstore\n      0x04\n      add\n      tag_21\n      swap1\n      tag_22\n      jump\t// in\n    tag_21:\n      mload(0x40)\n      dup1\n      swap2\n      sub\n      swap1\n      revert\n    tag_20:\n        /* \"contracts/6_ProductStore.sol\":1243:1256  uint256 price */\n      0x00\n        /* \"contracts/6_ProductStore.sol\":1259:1267  products */\n      0x00\n        /* \"contracts/6_ProductStore.sol\":1268:1273  index */\n      dup3\n        /* \"contracts/6_ProductStore.sol\":1259:1274  products[index] */\n      dup2\n      sload\n      dup2\n      lt\n      tag_23\n      jumpi\n      tag_24\n      tag_25\n      jump\t// in\n    tag_24:\n    tag_23:\n      swap1\n      0x00\n      mstore\n      keccak256(0x00, 0x20)\n      swap1\n      0x02\n      mul\n      add\n        /* \"contracts/6_ProductStore.sol\":1259:1280  products[index].price */\n      0x01\n      add\n      sload\n        /* \"contracts/6_ProductStore.sol\":1243:1280  uint256 price = products[index].price */\n      swap1\n      pop\n        /* \"contracts/6_ProductStore.sol\":1311:1316  price */\n      dup1\n        /* \"contracts/6_ProductStore.sol\":1298:1307  msg.value */\n      callvalue\n        /* \"contracts/6_ProductStore.sol\":1298:1316  msg.value >= price */\n      lt\n      iszero\n        /* \"contracts/6_ProductStore.sol\":1290:1353  require(msg.value >= price, \"ProductStore: insufficient funds\") */\n      tag_27\n      jumpi\n      mload(0x40)\n      0x08c379a000000000000000000000000000000000000000000000000000000000\n      dup2\n      mstore\n      0x04\n      add\n      tag_28\n      swap1\n      tag_29\n      jump\t// in\n    tag_28:\n      mload(0x40)\n      dup1\n      swap2\n      sub\n      swap1\n      revert\n    tag_27:\n        /* \"contracts/6_ProductStore.sol\":1369:1415  ProductPurchased(index, msg.sender, msg.value) */\n      0xa530f889d7f1bd9a73028e48944ca013ab2c6624a31e3fa26f923f4bb719abd5\n        /* \"contracts/6_ProductStore.sol\":1386:1391  index */\n      dup3\n        /* \"contracts/6_ProductStore.sol\":1393:1403  msg.sender */\n      caller\n        /* \"contracts/6_ProductStore.sol\":1405:1414  msg.value */\n      callvalue\n        /* \"contracts/6_ProductStore.sol\":1369:1415  ProductPurchased(index, msg.sender, msg.value) */\n      mload(0x40)\n      tag_30\n      swap4\n      swap3\n      swap2\n      swap1\n      tag_31\n      jump\t// in\n    tag_30:\n      mload(0x40)\n      dup1\n      swap2\n      sub\n      swap1\n      log1\n        /* \"contracts/6_ProductStore.sol\":1488:1502  uint256 refund */\n      0x00\n        /* \"contracts/6_ProductStore.sol\":1517:1522  price */\n      dup2\n        /* \"contracts/6_ProductStore.sol\":1505:1514  msg.value */\n      callvalue\n        /* \"contracts/6_ProductStore.sol\":1505:1522  msg.value - price */\n      tag_32\n      swap2\n      swap1\n      tag_33\n      jump\t// in\n    tag_32:\n        /* \"contracts/6_ProductStore.sol\":1488:1522  uint256 refund = msg.value - price */\n      swap1\n      pop\n        /* \"contracts/6_ProductStore.sol\":1545:1546  0 */\n      0x00\n        /* \"contracts/6_ProductStore.sol\":1536:1542  refund */\n      dup2\n        /* \"contracts/6_ProductStore.sol\":1536:1546  refund > 0 */\n      gt\n        /* \"contracts/6_ProductStore.sol\":1532:1609  if (refund > 0) {... */\n      iszero\n      tag_34\n      jumpi\n        /* \"contracts/6_ProductStore.sol\":1570:1580  msg.sender */\n      caller\n        /* \"contracts/6_ProductStore.sol\":1562:1590  payable(msg.sender).transfer */\n      0xffffffffffffffffffffffffffffffffffffffff\n      and\n        /* \"contracts/6_ProductStore.sol\":1562:1598  payable(msg.sender).transfer(refund) */\n      0x08fc\n        /* \"contracts/6_ProductStore.sol\":1591:1597  refund */\n      dup3\n        /* \"contracts/6_ProductStore.sol\":1562:1598  payable(msg.sender).transfer(refund) */\n      swap1\n      dup2\n      iszero\n      mul\n      swap1\n      mload(0x40)\n      0x00\n      mload(0x40)\n      dup1\n      dup4\n      sub\n      dup2\n      dup6\n      dup9\n      dup9\n      call\n      swap4\n      pop\n      pop\n      pop\n      pop\n      iszero\n      dup1\n      iszero\n      tag_36\n      jumpi\n      returndatacopy(0x00, 0x00, returndatasize)\n      revert(0x00, returndatasize)\n    tag_36:\n      pop\n        /* \"contracts/6_ProductStore.sol\":1532:1609  if (refund > 0) {... */\n    tag_34:\n        /* \"contracts/6_ProductStore.sol\":1152:1615  {... */\n      pop\n      pop\n        /* \"contracts/6_ProductStore.sol\":1102:1615  function buyProduct(uint256 index) public payable {... */\n      pop\n      jump\t// out\n        /* \"contracts/6_ProductStore.sol\":636:967  function addProduct(string memory name, uint256 price) public {... */\n    tag_13:\n        /* \"contracts/6_ProductStore.sol\":737:738  0 */\n      0x00\n        /* \"contracts/6_ProductStore.sol\":722:726  name */\n      dup3\n        /* \"contracts/6_ProductStore.sol\":716:734  bytes(name).length */\n      mload\n        /* \"contracts/6_ProductStore.sol\":716:738  bytes(name).length > 0 */\n      gt\n        /* \"contracts/6_ProductStore.sol\":708:777  require(bytes(name).length > 0, \"ProductStore: name cannot be empty\") */\n      tag_38\n      jumpi\n      mload(0x40)\n      0x08c379a000000000000000000000000000000000000000000000000000000000\n      dup2\n      mstore\n      0x04\n      add\n      tag_39\n      swap1\n      tag_40\n      jump\t// in\n    tag_39:\n      mload(0x40)\n      dup1\n      swap2\n      sub\n      swap1\n      revert\n    tag_38:\n        /* \"contracts/6_ProductStore.sol\":803:804  0 */\n      0x00\n        /* \"contracts/6_ProductStore.sol\":795:800  price */\n      dup2\n        /* \"contracts/6_ProductStore.sol\":795:804  price > 0 */\n      gt\n        /* \"contracts/6_ProductStore.sol\":787:854  require(price > 0, \"ProductStore: price must be greater than zero\") */\n      tag_41\n      jumpi\n      mload(0x40)\n      0x08c379a000000000000000000000000000000000000000000000000000000000\n      dup2\n      mstore\n      0x04\n      add\n      tag_42\n      swap1\n      tag_43\n      jump\t// in\n    tag_42:\n      mload(0x40)\n      dup1\n      swap2\n      sub\n      swap1\n      revert\n    tag_41:\n        /* \"contracts/6_ProductStore.sol\":864:872  products */\n      0x00\n        /* \"contracts/6_ProductStore.sol\":878:898  Product(name, price) */\n      mload(0x40)\n      dup1\n      0x40\n      add\n      0x40\n      mstore\n      dup1\n        /* \"contracts/6_ProductStore.sol\":886:890  name */\n      dup5\n        /* \"contracts/6_ProductStore.sol\":878:898  Product(name, price) */\n      dup2\n      mstore\n      0x20\n      add\n        /* \"contracts/6_ProductStore.sol\":892:897  price */\n      dup4\n        /* \"contracts/6_ProductStore.sol\":878:898  Product(name, price) */\n      dup2\n      mstore\n      pop\n        /* \"contracts/6_ProductStore.sol\":864:899  products.push(Product(name, price)) */\n      swap1\n      dup1\n      0x01\n      dup2\n      sload\n      add\n      dup1\n      dup3\n      sstore\n      dup1\n      swap2\n      pop\n      pop\n      0x01\n      swap1\n      sub\n      swap1\n      0x00\n      mstore\n      keccak256(0x00, 0x20)\n      swap1\n      0x02\n      mul\n      add\n      0x00\n      swap1\n      swap2\n      swap1\n      swap2\n      swap1\n      swap2\n      pop\n      0x00\n      dup3\n      add\n      mload\n      dup2\n      0x00\n      add\n      swap1\n      dup2\n      tag_45\n      swap2\n      swap1\n      tag_46\n      jump\t// in\n    tag_45:\n      pop\n      0x20\n      dup3\n      add\n      mload\n      dup2\n      0x01\n      add\n      sstore\n      pop\n      pop\n        /* \"contracts/6_ProductStore.sol\":914:960  ProductAdded(products.length - 1, name, price) */\n      0xcca07c742c5274e8b72111ba69566aa4442450bfc50bd897ea38d0170d1accfc\n        /* \"contracts/6_ProductStore.sol\":945:946  1 */\n      0x01\n        /* \"contracts/6_ProductStore.sol\":927:935  products */\n      0x00\n        /* \"contracts/6_ProductStore.sol\":927:942  products.length */\n      dup1\n      sload\n      swap1\n      pop\n        /* \"contracts/6_ProductStore.sol\":927:946  products.length - 1 */\n      tag_47\n      swap2\n      swap1\n      tag_33\n      jump\t// in\n    tag_47:\n        /* \"contracts/6_ProductStore.sol\":948:952  name */\n      dup4\n        /* \"contracts/6_ProductStore.sol\":954:959  price */\n      dup4\n        /* \"contracts/6_ProductStore.sol\":914:960  ProductAdded(products.length - 1, name, price) */\n      mload(0x40)\n      tag_48\n      swap4\n      swap3\n      swap2\n      swap1\n      tag_49\n      jump\t// in\n    tag_48:\n      mload(0x40)\n      dup1\n      swap2\n      sub\n      swap1\n      log1\n        /* \"contracts/6_ProductStore.sol\":636:967  function addProduct(string memory name, uint256 price) public {... */\n      pop\n      pop\n      jump\t// out\n        /* \"contracts/6_ProductStore.sol\":1743:1837  function getProducts() public view returns (Product[] memory) {... */\n    tag_16:\n        /* \"contracts/6_ProductStore.sol\":1787:1803  Product[] memory */\n      0x60\n        /* \"contracts/6_ProductStore.sol\":1822:1830  products */\n      0x00\n        /* \"contracts/6_ProductStore.sol\":1815:1830  return products */\n      dup1\n      sload\n      dup1\n      0x20\n      mul\n      0x20\n      add\n      mload(0x40)\n      swap1\n      dup2\n      add\n      0x40\n      mstore\n      dup1\n      swap3\n      swap2\n      swap1\n      dup2\n      dup2\n      mstore\n      0x20\n      add\n      0x00\n      swap1\n    tag_51:\n      dup3\n      dup3\n      lt\n      iszero\n      tag_52\n      jumpi\n      dup4\n      dup3\n      swap1\n      0x00\n      mstore\n      keccak256(0x00, 0x20)\n      swap1\n      0x02\n      mul\n      add\n      mload(0x40)\n      dup1\n      0x40\n      add\n      0x40\n      mstore\n      swap1\n      dup2\n      0x00\n      dup3\n      add\n      dup1\n      sload\n      tag_54\n      swap1\n      tag_55\n      jump\t// in\n    tag_54:\n      dup1\n      0x1f\n      add\n      0x20\n      dup1\n      swap2\n      div\n      mul\n      0x20\n      add\n      mload(0x40)\n      swap1\n      dup2\n      add\n      0x40\n      mstore\n      dup1\n      swap3\n      swap2\n      swap1\n      dup2\n      dup2\n      mstore\n      0x20\n      add\n      dup3\n      dup1\n      sload\n      tag_56\n      swap1\n      tag_55\n      jump\t// in\n    tag_56:\n      dup1\n      iszero\n      tag_57\n      jumpi\n      dup1\n      0x1f\n      lt\n      tag_58\n      jumpi\n      0x0100\n      dup1\n      dup4\n      sload\n      div\n      mul\n      dup4\n      mstore\n      swap2\n      0x20\n      add\n      swap2\n      jump(tag_57)\n    tag_58:\n      dup3\n      add\n      swap2\n      swap1\n      0x00\n      mstore\n      keccak256(0x00, 0x20)\n      swap1\n    tag_59:\n      dup2\n      sload\n      dup2\n      mstore\n      swap1\n      0x01\n      add\n      swap1\n      0x20\n      add\n      dup1\n      dup4\n      gt\n      tag_59\n      jumpi\n      dup3\n      swap1\n      sub\n      0x1f\n      and\n      dup3\n      add\n      swap2\n    tag_57:\n      pop\n      pop\n      pop\n      pop\n      pop\n      dup2\n      mstore\n      0x20\n      add\n      0x01\n      dup3\n      add\n      sload\n      dup2\n      mstore\n      pop\n      pop\n      dup2\n      mstore\n      0x20\n      add\n      swap1\n      0x01\n      add\n      swap1\n      jump(tag_51)\n    tag_52:\n      pop\n      pop\n      pop\n      pop\n      swap1\n      pop\n        /* \"contracts/6_ProductStore.sol\":1743:1837  function getProducts() public view returns (Product[] memory) {... */\n      swap1\n      jump\t// out\n        /* \"#utility.yul\":7:82   */\n    tag_60:\n        /* \"#utility.yul\":40:46   */\n      0x00\n        /* \"#utility.yul\":73:75   */\n      0x40\n        /* \"#utility.yul\":67:76   */\n      mload\n        /* \"#utility.yul\":57:76   */\n      swap1\n      pop\n        /* \"#utility.yul\":7:82   */\n      swap1\n      jump\t// out\n        /* \"#utility.yul\":88:205   */\n    tag_61:\n        /* \"#utility.yul\":197:198   */\n      0x00\n        /* \"#utility.yul\":194:195   */\n      0x00\n        /* \"#utility.yul\":187:199   */\n      revert\n        /* \"#utility.yul\":211:328   */\n    tag_62:\n        /* \"#utility.yul\":320:321   */\n      0x00\n        /* \"#utility.yul\":317:318   */\n      0x00\n        /* \"#utility.yul\":310:322   */\n      revert\n        /* \"#utility.yul\":334:411   */\n    tag_63:\n        /* \"#utility.yul\":371:378   */\n      0x00\n        /* \"#utility.yul\":400:405   */\n      dup2\n        /* \"#utility.yul\":389:405   */\n      swap1\n      pop\n        /* \"#utility.yul\":334:411   */\n      swap2\n      swap1\n      pop\n      jump\t// out\n        /* \"#utility.yul\":417:539   */\n    tag_64:\n        /* \"#utility.yul\":490:514   */\n      tag_125\n        /* \"#utility.yul\":508:513   */\n      dup2\n        /* \"#utility.yul\":490:514   */\n      tag_63\n      jump\t// in\n    tag_125:\n        /* \"#utility.yul\":483:488   */\n      dup2\n        /* \"#utility.yul\":480:515   */\n      eq\n        /* \"#utility.yul\":470:533   */\n      tag_126\n      jumpi\n        /* \"#utility.yul\":529:530   */\n      0x00\n        /* \"#utility.yul\":526:527   */\n      0x00\n        /* \"#utility.yul\":519:531   */\n      revert\n        /* \"#utility.yul\":470:533   */\n    tag_126:\n        /* \"#utility.yul\":417:539   */\n      pop\n      jump\t// out\n        /* \"#utility.yul\":545:684   */\n    tag_65:\n        /* \"#utility.yul\":591:596   */\n      0x00\n        /* \"#utility.yul\":629:635   */\n      dup2\n        /* \"#utility.yul\":616:636   */\n      calldataload\n        /* \"#utility.yul\":607:636   */\n      swap1\n      pop\n        /* \"#utility.yul\":645:678   */\n      tag_128\n        /* \"#utility.yul\":672:677   */\n      dup2\n        /* \"#utility.yul\":645:678   */\n      tag_64\n      jump\t// in\n    tag_128:\n        /* \"#utility.yul\":545:684   */\n      swap3\n      swap2\n      pop\n      pop\n      jump\t// out\n        /* \"#utility.yul\":690:1019   */\n    tag_7:\n        /* \"#utility.yul\":749:755   */\n      0x00\n        /* \"#utility.yul\":798:800   */\n      0x20\n        /* \"#utility.yul\":786:795   */\n      dup3\n        /* \"#utility.yul\":777:784   */\n      dup5\n        /* \"#utility.yul\":773:796   */\n      sub\n        /* \"#utility.yul\":769:801   */\n      slt\n        /* \"#utility.yul\":766:885   */\n      iszero\n      tag_130\n      jumpi\n        /* \"#utility.yul\":804:883   */\n      tag_131\n      tag_61\n      jump\t// in\n    tag_131:\n        /* \"#utility.yul\":766:885   */\n    tag_130:\n        /* \"#utility.yul\":924:925   */\n      0x00\n        /* \"#utility.yul\":949:1002   */\n      tag_132\n        /* \"#utility.yul\":994:1001   */\n      dup5\n        /* \"#utility.yul\":985:991   */\n      dup3\n        /* \"#utility.yul\":974:983   */\n      dup6\n        /* \"#utility.yul\":970:992   */\n      add\n        /* \"#utility.yul\":949:1002   */\n      tag_65\n      jump\t// in\n    tag_132:\n        /* \"#utility.yul\":939:1002   */\n      swap2\n      pop\n        /* \"#utility.yul\":895:1012   */\n      pop\n        /* \"#utility.yul\":690:1019   */\n      swap3\n      swap2\n      pop\n      pop\n      jump\t// out\n        /* \"#utility.yul\":1025:1142   */\n    tag_66:\n        /* \"#utility.yul\":1134:1135   */\n      0x00\n        /* \"#utility.yul\":1131:1132   */\n      0x00\n        /* \"#utility.yul\":1124:1136   */\n      revert\n        /* \"#utility.yul\":1148:1265   */\n    tag_67:\n        /* \"#utility.yul\":1257:1258   */\n      0x00\n        /* \"#utility.yul\":1254:1255   */\n      0x00\n        /* \"#utility.yul\":1247:1259   */\n      revert\n        /* \"#utility.yul\":1271:1373   */\n    tag_68:\n        /* \"#utility.yul\":1312:1318   */\n      0x00\n        /* \"#utility.yul\":1363:1365   */\n      0x1f\n        /* \"#utility.yul\":1359:1366   */\n      not\n        /* \"#utility.yul\":1354:1356   */\n      0x1f\n        /* \"#utility.yul\":1347:1352   */\n      dup4\n        /* \"#utility.yul\":1343:1357   */\n      add\n        /* \"#utility.yul\":1339:1367   */\n      and\n        /* \"#utility.yul\":1329:1367   */\n      swap1\n      pop\n        /* \"#utility.yul\":1271:1373   */\n      swap2\n      swap1\n      pop\n      jump\t// out\n        /* \"#utility.yul\":1379:1559   */\n    tag_69:\n        /* \"#utility.yul\":1427:1504   */\n      0x4e487b7100000000000000000000000000000000000000000000000000000000\n        /* \"#utility.yul\":1424:1425   */\n      0x00\n        /* \"#utility.yul\":1417:1505   */\n      mstore\n        /* \"#utility.yul\":1524:1528   */\n      0x41\n        /* \"#utility.yul\":1521:1522   */\n      0x04\n        /* \"#utility.yul\":1514:1529   */\n      mstore\n        /* \"#utility.yul\":1548:1552   */\n      0x24\n        /* \"#utility.yul\":1545:1546   */\n      0x00\n        /* \"#utility.yul\":1538:1553   */\n      revert\n        /* \"#utility.yul\":1565:1846   */\n    tag_70:\n        /* \"#utility.yul\":1648:1675   */\n      tag_138\n        /* \"#utility.yul\":1670:1674   */\n      dup3\n        /* \"#utility.yul\":1648:1675   */\n      tag_68\n      jump\t// in\n    tag_138:\n        /* \"#utility.yul\":1640:1646   */\n      dup2\n        /* \"#utility.yul\":1636:1676   */\n      add\n        /* \"#utility.yul\":1778:1784   */\n      dup2\n        /* \"#utility.yul\":1766:1776   */\n      dup2\n        /* \"#utility.yul\":1763:1785   */\n      lt\n        /* \"#utility.yul\":1742:1760   */\n      0xffffffffffffffff\n        /* \"#utility.yul\":1730:1740   */\n      dup3\n        /* \"#utility.yul\":1727:1761   */\n      gt\n        /* \"#utility.yul\":1724:1786   */\n      or\n        /* \"#utility.yul\":1721:1809   */\n      iszero\n      tag_139\n      jumpi\n        /* \"#utility.yul\":1789:1807   */\n      tag_140\n      tag_69\n      jump\t// in\n    tag_140:\n        /* \"#utility.yul\":1721:1809   */\n    tag_139:\n        /* \"#utility.yul\":1829:1839   */\n      dup1\n        /* \"#utility.yul\":1825:1827   */\n      0x40\n        /* \"#utility.yul\":1818:1840   */\n      mstore\n        /* \"#utility.yul\":1608:1846   */\n      pop\n        /* \"#utility.yul\":1565:1846   */\n      pop\n      pop\n      jump\t// out\n        /* \"#utility.yul\":1852:1981   */\n    tag_71:\n        /* \"#utility.yul\":1886:1892   */\n      0x00\n        /* \"#utility.yul\":1913:1933   */\n      tag_142\n      tag_60\n      jump\t// in\n    tag_142:\n        /* \"#utility.yul\":1903:1933   */\n      swap1\n      pop\n        /* \"#utility.yul\":1942:1975   */\n      tag_143\n        /* \"#utility.yul\":1970:1974   */\n      dup3\n        /* \"#utility.yul\":1962:1968   */\n      dup3\n        /* \"#utility.yul\":1942:1975   */\n      tag_70\n      jump\t// in\n    tag_143:\n        /* \"#utility.yul\":1852:1981   */\n      swap2\n      swap1\n      pop\n      jump\t// out\n        /* \"#utility.yul\":1987:2295   */\n    tag_72:\n        /* \"#utility.yul\":2049:2053   */\n      0x00\n        /* \"#utility.yul\":2139:2157   */\n      0xffffffffffffffff\n        /* \"#utility.yul\":2131:2137   */\n      dup3\n        /* \"#utility.yul\":2128:2158   */\n      gt\n        /* \"#utility.yul\":2125:2181   */\n      iszero\n      tag_145\n      jumpi\n        /* \"#utility.yul\":2161:2179   */\n      tag_146\n      tag_69\n      jump\t// in\n    tag_146:\n        /* \"#utility.yul\":2125:2181   */\n    tag_145:\n        /* \"#utility.yul\":2199:2228   */\n      tag_147\n        /* \"#utility.yul\":2221:2227   */\n      dup3\n        /* \"#utility.yul\":2199:2228   */\n      tag_68\n      jump\t// in\n    tag_147:\n        /* \"#utility.yul\":2191:2228   */\n      swap1\n      pop\n        /* \"#utility.yul\":2283:2287   */\n      0x20\n        /* \"#utility.yul\":2277:2281   */\n      dup2\n        /* \"#utility.yul\":2273:2288   */\n      add\n        /* \"#utility.yul\":2265:2288   */\n      swap1\n      pop\n        /* \"#utility.yul\":1987:2295   */\n      swap2\n      swap1\n      pop\n      jump\t// out\n        /* \"#utility.yul\":2301:2449   */\n    tag_73:\n        /* \"#utility.yul\":2399:2405   */\n      dup3\n        /* \"#utility.yul\":2394:2397   */\n      dup2\n        /* \"#utility.yul\":2389:2392   */\n      dup4\n        /* \"#utility.yul\":2376:2406   */\n      calldatacopy\n        /* \"#utility.yul\":2440:2441   */\n      0x00\n        /* \"#utility.yul\":2431:2437   */\n      dup4\n        /* \"#utility.yul\":2426:2429   */\n      dup4\n        /* \"#utility.yul\":2422:2438   */\n      add\n        /* \"#utility.yul\":2415:2442   */\n      mstore\n        /* \"#utility.yul\":2301:2449   */\n      pop\n      pop\n      pop\n      jump\t// out\n        /* \"#utility.yul\":2455:2880   */\n    tag_74:\n        /* \"#utility.yul\":2533:2538   */\n      0x00\n        /* \"#utility.yul\":2558:2624   */\n      tag_150\n        /* \"#utility.yul\":2574:2623   */\n      tag_151\n        /* \"#utility.yul\":2616:2622   */\n      dup5\n        /* \"#utility.yul\":2574:2623   */\n      tag_72\n      jump\t// in\n    tag_151:\n        /* \"#utility.yul\":2558:2624   */\n      tag_71\n      jump\t// in\n    tag_150:\n        /* \"#utility.yul\":2549:2624   */\n      swap1\n      pop\n        /* \"#utility.yul\":2647:2653   */\n      dup3\n        /* \"#utility.yul\":2640:2645   */\n      dup2\n        /* \"#utility.yul\":2633:2654   */\n      mstore\n        /* \"#utility.yul\":2685:2689   */\n      0x20\n        /* \"#utility.yul\":2678:2683   */\n      dup2\n        /* \"#utility.yul\":2674:2690   */\n      add\n        /* \"#utility.yul\":2723:2726   */\n      dup5\n        /* \"#utility.yul\":2714:2720   */\n      dup5\n        /* \"#utility.yul\":2709:2712   */\n      dup5\n        /* \"#utility.yul\":2705:2721   */\n      add\n        /* \"#utility.yul\":2702:2727   */\n      gt\n        /* \"#utility.yul\":2699:2811   */\n      iszero\n      tag_152\n      jumpi\n        /* \"#utility.yul\":2730:2809   */\n      tag_153\n      tag_67\n      jump\t// in\n    tag_153:\n        /* \"#utility.yul\":2699:2811   */\n    tag_152:\n        /* \"#utility.yul\":2820:2874   */\n      tag_154\n        /* \"#utility.yul\":2867:2873   */\n      dup5\n        /* \"#utility.yul\":2862:2865   */\n      dup3\n        /* \"#utility.yul\":2857:2860   */\n      dup6\n        /* \"#utility.yul\":2820:2874   */\n      tag_73\n      jump\t// in\n    tag_154:\n        /* \"#utility.yul\":2539:2880   */\n      pop\n        /* \"#utility.yul\":2455:2880   */\n      swap4\n      swap3\n      pop\n      pop\n      pop\n      jump\t// out\n        /* \"#utility.yul\":2900:3240   */\n    tag_75:\n        /* \"#utility.yul\":2956:2961   */\n      0x00\n        /* \"#utility.yul\":3005:3008   */\n      dup3\n        /* \"#utility.yul\":2998:3002   */\n      0x1f\n        /* \"#utility.yul\":2990:2996   */\n      dup4\n        /* \"#utility.yul\":2986:3003   */\n      add\n        /* \"#utility.yul\":2982:3009   */\n      slt\n        /* \"#utility.yul\":2972:3094   */\n      tag_156\n      jumpi\n        /* \"#utility.yul\":3013:3092   */\n      tag_157\n      tag_66\n      jump\t// in\n    tag_157:\n        /* \"#utility.yul\":2972:3094   */\n    tag_156:\n        /* \"#utility.yul\":3130:3136   */\n      dup2\n        /* \"#utility.yul\":3117:3137   */\n      calldataload\n        /* \"#utility.yul\":3155:3234   */\n      tag_158\n        /* \"#utility.yul\":3230:3233   */\n      dup5\n        /* \"#utility.yul\":3222:3228   */\n      dup3\n        /* \"#utility.yul\":3215:3219   */\n      0x20\n        /* \"#utility.yul\":3207:3213   */\n      dup7\n        /* \"#utility.yul\":3203:3220   */\n      add\n        /* \"#utility.yul\":3155:3234   */\n      tag_74\n      jump\t// in\n    tag_158:\n        /* \"#utility.yul\":3146:3234   */\n      swap2\n      pop\n        /* \"#utility.yul\":2962:3240   */\n      pop\n        /* \"#utility.yul\":2900:3240   */\n      swap3\n      swap2\n      pop\n      pop\n      jump\t// out\n        /* \"#utility.yul\":3246:3900   */\n    tag_12:\n        /* \"#utility.yul\":3324:3330   */\n      0x00\n        /* \"#utility.yul\":3332:3338   */\n      0x00\n        /* \"#utility.yul\":3381:3383   */\n      0x40\n        /* \"#utility.yul\":3369:3378   */\n      dup4\n        /* \"#utility.yul\":3360:3367   */\n      dup6\n        /* \"#utility.yul\":3356:3379   */\n      sub\n        /* \"#utility.yul\":3352:3384   */\n      slt\n        /* \"#utility.yul\":3349:3468   */\n      iszero\n      tag_160\n      jumpi\n        /* \"#utility.yul\":3387:3466   */\n      tag_161\n      tag_61\n      jump\t// in\n    tag_161:\n        /* \"#utility.yul\":3349:3468   */\n    tag_160:\n        /* \"#utility.yul\":3535:3536   */\n      0x00\n        /* \"#utility.yul\":3524:3533   */\n      dup4\n        /* \"#utility.yul\":3520:3537   */\n      add\n        /* \"#utility.yul\":3507:3538   */\n      calldataload\n        /* \"#utility.yul\":3565:3583   */\n      0xffffffffffffffff\n        /* \"#utility.yul\":3557:3563   */\n      dup2\n        /* \"#utility.yul\":3554:3584   */\n      gt\n        /* \"#utility.yul\":3551:3668   */\n      iszero\n      tag_162\n      jumpi\n        /* \"#utility.yul\":3587:3666   */\n      tag_163\n      tag_62\n      jump\t// in\n    tag_163:\n        /* \"#utility.yul\":3551:3668   */\n    tag_162:\n        /* \"#utility.yul\":3692:3755   */\n      tag_164\n        /* \"#utility.yul\":3747:3754   */\n      dup6\n        /* \"#utility.yul\":3738:3744   */\n      dup3\n        /* \"#utility.yul\":3727:3736   */\n      dup7\n        /* \"#utility.yul\":3723:3745   */\n      add\n        /* \"#utility.yul\":3692:3755   */\n      tag_75\n      jump\t// in\n    tag_164:\n        /* \"#utility.yul\":3682:3755   */\n      swap3\n      pop\n        /* \"#utility.yul\":3478:3765   */\n      pop\n        /* \"#utility.yul\":3804:3806   */\n      0x20\n        /* \"#utility.yul\":3830:3883   */\n      tag_165\n        /* \"#utility.yul\":3875:3882   */\n      dup6\n        /* \"#utility.yul\":3866:3872   */\n      dup3\n        /* \"#utility.yul\":3855:3864   */\n      dup7\n        /* \"#utility.yul\":3851:3873   */\n      add\n        /* \"#utility.yul\":3830:3883   */\n      tag_65\n      jump\t// in\n    tag_165:\n        /* \"#utility.yul\":3820:3883   */\n      swap2\n      pop\n        /* \"#utility.yul\":3775:3893   */\n      pop\n        /* \"#utility.yul\":3246:3900   */\n      swap3\n      pop\n      swap3\n      swap1\n      pop\n      jump\t// out\n        /* \"#utility.yul\":3906:4042   */\n    tag_76:\n        /* \"#utility.yul\":3995:4001   */\n      0x00\n        /* \"#utility.yul\":4029:4034   */\n      dup2\n        /* \"#utility.yul\":4023:4035   */\n      mload\n        /* \"#utility.yul\":4013:4035   */\n      swap1\n      pop\n        /* \"#utility.yul\":3906:4042   */\n      swap2\n      swap1\n      pop\n      jump\t// out\n        /* \"#utility.yul\":4048:4254   */\n    tag_77:\n        /* \"#utility.yul\":4169:4180   */\n      0x00\n        /* \"#utility.yul\":4203:4209   */\n      dup3\n        /* \"#utility.yul\":4198:4201   */\n      dup3\n        /* \"#utility.yul\":4191:4210   */\n      mstore\n        /* \"#utility.yul\":4243:4247   */\n      0x20\n        /* \"#utility.yul\":4238:4241   */\n      dup3\n        /* \"#utility.yul\":4234:4248   */\n      add\n        /* \"#utility.yul\":4219:4248   */\n      swap1\n      pop\n        /* \"#utility.yul\":4048:4254   */\n      swap3\n      swap2\n      pop\n      pop\n      jump\t// out\n        /* \"#utility.yul\":4260:4414   */\n    tag_78:\n        /* \"#utility.yul\":4349:4353   */\n      0x00\n        /* \"#utility.yul\":4372:4375   */\n      dup2\n        /* \"#utility.yul\":4364:4375   */\n      swap1\n      pop\n        /* \"#utility.yul\":4402:4406   */\n      0x20\n        /* \"#utility.yul\":4397:4400   */\n      dup3\n        /* \"#utility.yul\":4393:4407   */\n      add\n        /* \"#utility.yul\":4385:4407   */\n      swap1\n      pop\n        /* \"#utility.yul\":4260:4414   */\n      swap2\n      swap1\n      pop\n      jump\t// out\n        /* \"#utility.yul\":4420:4519   */\n    tag_79:\n        /* \"#utility.yul\":4472:4478   */\n      0x00\n        /* \"#utility.yul\":4506:4511   */\n      dup2\n        /* \"#utility.yul\":4500:4512   */\n      mload\n        /* \"#utility.yul\":4490:4512   */\n      swap1\n      pop\n        /* \"#utility.yul\":4420:4519   */\n      swap2\n      swap1\n      pop\n      jump\t// out\n        /* \"#utility.yul\":4525:4684   */\n    tag_80:\n        /* \"#utility.yul\":4599:4610   */\n      0x00\n        /* \"#utility.yul\":4633:4639   */\n      dup3\n        /* \"#utility.yul\":4628:4631   */\n      dup3\n        /* \"#utility.yul\":4621:4640   */\n      mstore\n        /* \"#utility.yul\":4673:4677   */\n      0x20\n        /* \"#utility.yul\":4668:4671   */\n      dup3\n        /* \"#utility.yul\":4664:4678   */\n      add\n        /* \"#utility.yul\":4649:4678   */\n      swap1\n      pop\n        /* \"#utility.yul\":4525:4684   */\n      swap3\n      swap2\n      pop\n      pop\n      jump\t// out\n        /* \"#utility.yul\":4690:4829   */\n    tag_81:\n        /* \"#utility.yul\":4779:4785   */\n      dup3\n        /* \"#utility.yul\":4774:4777   */\n      dup2\n        /* \"#utility.yul\":4769:4772   */\n      dup4\n        /* \"#utility.yul\":4763:4786   */\n      mcopy\n        /* \"#utility.yul\":4820:4821   */\n      0x00\n        /* \"#utility.yul\":4811:4817   */\n      dup4\n        /* \"#utility.yul\":4806:4809   */\n      dup4\n        /* \"#utility.yul\":4802:4818   */\n      add\n        /* \"#utility.yul\":4795:4822   */\n      mstore\n        /* \"#utility.yul\":4690:4829   */\n      pop\n      pop\n      pop\n      jump\t// out\n        /* \"#utility.yul\":4835:5192   */\n    tag_82:\n        /* \"#utility.yul\":4913:4916   */\n      0x00\n        /* \"#utility.yul\":4941:4980   */\n      tag_173\n        /* \"#utility.yul\":4974:4979   */\n      dup3\n        /* \"#utility.yul\":4941:4980   */\n      tag_79\n      jump\t// in\n    tag_173:\n        /* \"#utility.yul\":4996:5057   */\n      tag_174\n        /* \"#utility.yul\":5050:5056   */\n      dup2\n        /* \"#utility.yul\":5045:5048   */\n      dup6\n        /* \"#utility.yul\":4996:5057   */\n      tag_80\n      jump\t// in\n    tag_174:\n        /* \"#utility.yul\":4989:5057   */\n      swap4\n      pop\n        /* \"#utility.yul\":5066:5131   */\n      tag_175\n        /* \"#utility.yul\":5124:5130   */\n      dup2\n        /* \"#utility.yul\":5119:5122   */\n      dup6\n        /* \"#utility.yul\":5112:5116   */\n      0x20\n        /* \"#utility.yul\":5105:5110   */\n      dup7\n        /* \"#utility.yul\":5101:5117   */\n      add\n        /* \"#utility.yul\":5066:5131   */\n      tag_81\n      jump\t// in\n    tag_175:\n        /* \"#utility.yul\":5156:5185   */\n      tag_176\n        /* \"#utility.yul\":5178:5184   */\n      dup2\n        /* \"#utility.yul\":5156:5185   */\n      tag_68\n      jump\t// in\n    tag_176:\n        /* \"#utility.yul\":5151:5154   */\n      dup5\n        /* \"#utility.yul\":5147:5186   */\n      add\n        /* \"#utility.yul\":5140:5186   */\n      swap2\n      pop\n        /* \"#utility.yul\":4917:5192   */\n      pop\n        /* \"#utility.yul\":4835:5192   */\n      swap3\n      swap2\n      pop\n      pop\n      jump\t// out\n        /* \"#utility.yul\":5198:5306   */\n    tag_83:\n        /* \"#utility.yul\":5275:5299   */\n      tag_178\n        /* \"#utility.yul\":5293:5298   */\n      dup2\n        /* \"#utility.yul\":5275:5299   */\n      tag_63\n      jump\t// in\n    tag_178:\n        /* \"#utility.yul\":5270:5273   */\n      dup3\n        /* \"#utility.yul\":5263:5300   */\n      mstore\n        /* \"#utility.yul\":5198:5306   */\n      pop\n      pop\n      jump\t// out\n        /* \"#utility.yul\":5378:5969   */\n    tag_84:\n        /* \"#utility.yul\":5481:5484   */\n      0x00\n        /* \"#utility.yul\":5517:5521   */\n      0x40\n        /* \"#utility.yul\":5512:5515   */\n      dup4\n        /* \"#utility.yul\":5508:5522   */\n      add\n        /* \"#utility.yul\":5604:5608   */\n      0x00\n        /* \"#utility.yul\":5597:5602   */\n      dup4\n        /* \"#utility.yul\":5593:5609   */\n      add\n        /* \"#utility.yul\":5587:5610   */\n      mload\n        /* \"#utility.yul\":5657:5660   */\n      dup5\n        /* \"#utility.yul\":5651:5655   */\n      dup3\n        /* \"#utility.yul\":5647:5661   */\n      sub\n        /* \"#utility.yul\":5640:5644   */\n      0x00\n        /* \"#utility.yul\":5635:5638   */\n      dup7\n        /* \"#utility.yul\":5631:5645   */\n      add\n        /* \"#utility.yul\":5624:5662   */\n      mstore\n        /* \"#utility.yul\":5683:5756   */\n      tag_180\n        /* \"#utility.yul\":5751:5755   */\n      dup3\n        /* \"#utility.yul\":5737:5749   */\n      dup3\n        /* \"#utility.yul\":5683:5756   */\n      tag_82\n      jump\t// in\n    tag_180:\n        /* \"#utility.yul\":5675:5756   */\n      swap2\n      pop\n        /* \"#utility.yul\":5532:5767   */\n      pop\n        /* \"#utility.yul\":5850:5854   */\n      0x20\n        /* \"#utility.yul\":5843:5848   */\n      dup4\n        /* \"#utility.yul\":5839:5855   */\n      add\n        /* \"#utility.yul\":5833:5856   */\n      mload\n        /* \"#utility.yul\":5869:5932   */\n      tag_181\n        /* \"#utility.yul\":5926:5930   */\n      0x20\n        /* \"#utility.yul\":5921:5924   */\n      dup7\n        /* \"#utility.yul\":5917:5931   */\n      add\n        /* \"#utility.yul\":5903:5915   */\n      dup3\n        /* \"#utility.yul\":5869:5932   */\n      tag_83\n      jump\t// in\n    tag_181:\n        /* \"#utility.yul\":5777:5942   */\n      pop\n        /* \"#utility.yul\":5959:5963   */\n      dup1\n        /* \"#utility.yul\":5952:5963   */\n      swap2\n      pop\n        /* \"#utility.yul\":5486:5969   */\n      pop\n        /* \"#utility.yul\":5378:5969   */\n      swap3\n      swap2\n      pop\n      pop\n      jump\t// out\n        /* \"#utility.yul\":5975:6219   */\n    tag_85:\n        /* \"#utility.yul\":6088:6098   */\n      0x00\n        /* \"#utility.yul\":6123:6213   */\n      tag_183\n        /* \"#utility.yul\":6209:6212   */\n      dup4\n        /* \"#utility.yul\":6201:6207   */\n      dup4\n        /* \"#utility.yul\":6123:6213   */\n      tag_84\n      jump\t// in\n    tag_183:\n        /* \"#utility.yul\":6109:6213   */\n      swap1\n      pop\n        /* \"#utility.yul\":5975:6219   */\n      swap3\n      swap2\n      pop\n      pop\n      jump\t// out\n        /* \"#utility.yul\":6225:6360   */\n    tag_86:\n        /* \"#utility.yul\":6317:6321   */\n      0x00\n        /* \"#utility.yul\":6349:6353   */\n      0x20\n        /* \"#utility.yul\":6344:6347   */\n      dup3\n        /* \"#utility.yul\":6340:6354   */\n      add\n        /* \"#utility.yul\":6332:6354   */\n      swap1\n      pop\n        /* \"#utility.yul\":6225:6360   */\n      swap2\n      swap1\n      pop\n      jump\t// out\n        /* \"#utility.yul\":6436:7523   */\n    tag_87:\n        /* \"#utility.yul\":6599:6602   */\n      0x00\n        /* \"#utility.yul\":6628:6704   */\n      tag_186\n        /* \"#utility.yul\":6698:6703   */\n      dup3\n        /* \"#utility.yul\":6628:6704   */\n      tag_76\n      jump\t// in\n    tag_186:\n        /* \"#utility.yul\":6720:6828   */\n      tag_187\n        /* \"#utility.yul\":6821:6827   */\n      dup2\n        /* \"#utility.yul\":6816:6819   */\n      dup6\n        /* \"#utility.yul\":6720:6828   */\n      tag_77\n      jump\t// in\n    tag_187:\n        /* \"#utility.yul\":6713:6828   */\n      swap4\n      pop\n        /* \"#utility.yul\":6854:6857   */\n      dup4\n        /* \"#utility.yul\":6899:6903   */\n      0x20\n        /* \"#utility.yul\":6891:6897   */\n      dup3\n        /* \"#utility.yul\":6887:6904   */\n      mul\n        /* \"#utility.yul\":6882:6885   */\n      dup6\n        /* \"#utility.yul\":6878:6905   */\n      add\n        /* \"#utility.yul\":6929:7007   */\n      tag_188\n        /* \"#utility.yul\":7001:7006   */\n      dup6\n        /* \"#utility.yul\":6929:7007   */\n      tag_78\n      jump\t// in\n    tag_188:\n        /* \"#utility.yul\":7030:7037   */\n      dup1\n        /* \"#utility.yul\":7061:7062   */\n      0x00\n        /* \"#utility.yul\":7046:7478   */\n    tag_189:\n        /* \"#utility.yul\":7071:7077   */\n      dup6\n        /* \"#utility.yul\":7068:7069   */\n      dup2\n        /* \"#utility.yul\":7065:7078   */\n      lt\n        /* \"#utility.yul\":7046:7478   */\n      iszero\n      tag_191\n      jumpi\n        /* \"#utility.yul\":7142:7151   */\n      dup5\n        /* \"#utility.yul\":7136:7140   */\n      dup5\n        /* \"#utility.yul\":7132:7152   */\n      sub\n        /* \"#utility.yul\":7127:7130   */\n      dup10\n        /* \"#utility.yul\":7120:7153   */\n      mstore\n        /* \"#utility.yul\":7193:7199   */\n      dup2\n        /* \"#utility.yul\":7187:7200   */\n      mload\n        /* \"#utility.yul\":7221:7329   */\n      tag_192\n        /* \"#utility.yul\":7324:7328   */\n      dup6\n        /* \"#utility.yul\":7309:7322   */\n      dup3\n        /* \"#utility.yul\":7221:7329   */\n      tag_85\n      jump\t// in\n    tag_192:\n        /* \"#utility.yul\":7213:7329   */\n      swap5\n      pop\n        /* \"#utility.yul\":7352:7434   */\n      tag_193\n        /* \"#utility.yul\":7427:7433   */\n      dup4\n        /* \"#utility.yul\":7352:7434   */\n      tag_86\n      jump\t// in\n    tag_193:\n        /* \"#utility.yul\":7342:7434   */\n      swap3\n      pop\n        /* \"#utility.yul\":7463:7467   */\n      0x20\n        /* \"#utility.yul\":7458:7461   */\n      dup11\n        /* \"#utility.yul\":7454:7468   */\n      add\n        /* \"#utility.yul\":7447:7468   */\n      swap10\n      pop\n        /* \"#utility.yul\":7106:7478   */\n      pop\n        /* \"#utility.yul\":7093:7094   */\n      0x01\n        /* \"#utility.yul\":7090:7091   */\n      dup2\n        /* \"#utility.yul\":7086:7095   */\n      add\n        /* \"#utility.yul\":7081:7095   */\n      swap1\n      pop\n        /* \"#utility.yul\":7046:7478   */\n      jump(tag_189)\n    tag_191:\n        /* \"#utility.yul\":7050:7064   */\n      pop\n        /* \"#utility.yul\":7494:7498   */\n      dup3\n        /* \"#utility.yul\":7487:7498   */\n      swap8\n      pop\n        /* \"#utility.yul\":7514:7517   */\n      dup8\n        /* \"#utility.yul\":7507:7517   */\n      swap6\n      pop\n        /* \"#utility.yul\":6604:7523   */\n      pop\n      pop\n      pop\n      pop\n      pop\n        /* \"#utility.yul\":6436:7523   */\n      swap3\n      swap2\n      pop\n      pop\n      jump\t// out\n        /* \"#utility.yul\":7529:7990   */\n    tag_18:\n        /* \"#utility.yul\":7716:7720   */\n      0x00\n        /* \"#utility.yul\":7754:7756   */\n      0x20\n        /* \"#utility.yul\":7743:7752   */\n      dup3\n        /* \"#utility.yul\":7739:7757   */\n      add\n        /* \"#utility.yul\":7731:7757   */\n      swap1\n      pop\n        /* \"#utility.yul\":7803:7812   */\n      dup2\n        /* \"#utility.yul\":7797:7801   */\n      dup2\n        /* \"#utility.yul\":7793:7813   */\n      sub\n        /* \"#utility.yul\":7789:7790   */\n      0x00\n        /* \"#utility.yul\":7778:7787   */\n      dup4\n        /* \"#utility.yul\":7774:7791   */\n      add\n        /* \"#utility.yul\":7767:7814   */\n      mstore\n        /* \"#utility.yul\":7831:7983   */\n      tag_195\n        /* \"#utility.yul\":7978:7982   */\n      dup2\n        /* \"#utility.yul\":7969:7975   */\n      dup5\n        /* \"#utility.yul\":7831:7983   */\n      tag_87\n      jump\t// in\n    tag_195:\n        /* \"#utility.yul\":7823:7983   */\n      swap1\n      pop\n        /* \"#utility.yul\":7529:7990   */\n      swap3\n      swap2\n      pop\n      pop\n      jump\t// out\n        /* \"#utility.yul\":7996:8165   */\n    tag_88:\n        /* \"#utility.yul\":8080:8091   */\n      0x00\n        /* \"#utility.yul\":8114:8120   */\n      dup3\n        /* \"#utility.yul\":8109:8112   */\n      dup3\n        /* \"#utility.yul\":8102:8121   */\n      mstore\n        /* \"#utility.yul\":8154:8158   */\n      0x20\n        /* \"#utility.yul\":8149:8152   */\n      dup3\n        /* \"#utility.yul\":8145:8159   */\n      add\n        /* \"#utility.yul\":8130:8159   */\n      swap1\n      pop\n        /* \"#utility.yul\":7996:8165   */\n      swap3\n      swap2\n      pop\n      pop\n      jump\t// out\n        /* \"#utility.yul\":8171:8393   */\n    tag_89:\n        /* \"#utility.yul\":8311:8345   */\n      0x50726f6475637453746f72653a20696e76616c69642070726f6475637420696e\n        /* \"#utility.yul\":8307:8308   */\n      0x00\n        /* \"#utility.yul\":8299:8305   */\n      dup3\n        /* \"#utility.yul\":8295:8309   */\n      add\n        /* \"#utility.yul\":8288:8346   */\n      mstore\n        /* \"#utility.yul\":8380:8385   */\n      0x6465780000000000000000000000000000000000000000000000000000000000\n        /* \"#utility.yul\":8375:8377   */\n      0x20\n        /* \"#utility.yul\":8367:8373   */\n      dup3\n        /* \"#utility.yul\":8363:8378   */\n      add\n        /* \"#utility.yul\":8356:8386   */\n      mstore\n        /* \"#utility.yul\":8171:8393   */\n      pop\n      jump\t// out\n        /* \"#utility.yul\":8399:8765   */\n    tag_90:\n        /* \"#utility.yul\":8541:8544   */\n      0x00\n        /* \"#utility.yul\":8562:8629   */\n      tag_199\n        /* \"#utility.yul\":8626:8628   */\n      0x23\n        /* \"#utility.yul\":8621:8624   */\n      dup4\n        /* \"#utility.yul\":8562:8629   */\n      tag_88\n      jump\t// in\n    tag_199:\n        /* \"#utility.yul\":8555:8629   */\n      swap2\n      pop\n        /* \"#utility.yul\":8638:8731   */\n      tag_200\n        /* \"#utility.yul\":8727:8730   */\n      dup3\n        /* \"#utility.yul\":8638:8731   */\n      tag_89\n      jump\t// in\n    tag_200:\n        /* \"#utility.yul\":8756:8758   */\n      0x40\n        /* \"#utility.yul\":8751:8754   */\n      dup3\n        /* \"#utility.yul\":8747:8759   */\n      add\n        /* \"#utility.yul\":8740:8759   */\n      swap1\n      pop\n        /* \"#utility.yul\":8399:8765   */\n      swap2\n      swap1\n      pop\n      jump\t// out\n        /* \"#utility.yul\":8771:9190   */\n    tag_22:\n        /* \"#utility.yul\":8937:8941   */\n      0x00\n        /* \"#utility.yul\":8975:8977   */\n      0x20\n        /* \"#utility.yul\":8964:8973   */\n      dup3\n        /* \"#utility.yul\":8960:8978   */\n      add\n        /* \"#utility.yul\":8952:8978   */\n      swap1\n      pop\n        /* \"#utility.yul\":9024:9033   */\n      dup2\n        /* \"#utility.yul\":9018:9022   */\n      dup2\n        /* \"#utility.yul\":9014:9034   */\n      sub\n        /* \"#utility.yul\":9010:9011   */\n      0x00\n        /* \"#utility.yul\":8999:9008   */\n      dup4\n        /* \"#utility.yul\":8995:9012   */\n      add\n        /* \"#utility.yul\":8988:9035   */\n      mstore\n        /* \"#utility.yul\":9052:9183   */\n      tag_202\n        /* \"#utility.yul\":9178:9182   */\n      dup2\n        /* \"#utility.yul\":9052:9183   */\n      tag_90\n      jump\t// in\n    tag_202:\n        /* \"#utility.yul\":9044:9183   */\n      swap1\n      pop\n        /* \"#utility.yul\":8771:9190   */\n      swap2\n      swap1\n      pop\n      jump\t// out\n        /* \"#utility.yul\":9196:9376   */\n    tag_25:\n        /* \"#utility.yul\":9244:9321   */\n      0x4e487b7100000000000000000000000000000000000000000000000000000000\n        /* \"#utility.yul\":9241:9242   */\n      0x00\n        /* \"#utility.yul\":9234:9322   */\n      mstore\n        /* \"#utility.yul\":9341:9345   */\n      0x32\n        /* \"#utility.yul\":9338:9339   */\n      0x04\n        /* \"#utility.yul\":9331:9346   */\n      mstore\n        /* \"#utility.yul\":9365:9369   */\n      0x24\n        /* \"#utility.yul\":9362:9363   */\n      0x00\n        /* \"#utility.yul\":9355:9370   */\n      revert\n        /* \"#utility.yul\":9382:9564   */\n    tag_91:\n        /* \"#utility.yul\":9522:9556   */\n      0x50726f6475637453746f72653a20696e73756666696369656e742066756e6473\n        /* \"#utility.yul\":9518:9519   */\n      0x00\n        /* \"#utility.yul\":9510:9516   */\n      dup3\n        /* \"#utility.yul\":9506:9520   */\n      add\n        /* \"#utility.yul\":9499:9557   */\n      mstore\n        /* \"#utility.yul\":9382:9564   */\n      pop\n      jump\t// out\n        /* \"#utility.yul\":9570:9936   */\n    tag_92:\n        /* \"#utility.yul\":9712:9715   */\n      0x00\n        /* \"#utility.yul\":9733:9800   */\n      tag_206\n        /* \"#utility.yul\":9797:9799   */\n      0x20\n        /* \"#utility.yul\":9792:9795   */\n      dup4\n        /* \"#utility.yul\":9733:9800   */\n      tag_88\n      jump\t// in\n    tag_206:\n        /* \"#utility.yul\":9726:9800   */\n      swap2\n      pop\n        /* \"#utility.yul\":9809:9902   */\n      tag_207\n        /* \"#utility.yul\":9898:9901   */\n      dup3\n        /* \"#utility.yul\":9809:9902   */\n      tag_91\n      jump\t// in\n    tag_207:\n        /* \"#utility.yul\":9927:9929   */\n      0x20\n        /* \"#utility.yul\":9922:9925   */\n      dup3\n        /* \"#utility.yul\":9918:9930   */\n      add\n        /* \"#utility.yul\":9911:9930   */\n      swap1\n      pop\n        /* \"#utility.yul\":9570:9936   */\n      swap2\n      swap1\n      pop\n      jump\t// out\n        /* \"#utility.yul\":9942:10361   */\n    tag_29:\n        /* \"#utility.yul\":10108:10112   */\n      0x00\n        /* \"#utility.yul\":10146:10148   */\n      0x20\n        /* \"#utility.yul\":10135:10144   */\n      dup3\n        /* \"#utility.yul\":10131:10149   */\n      add\n        /* \"#utility.yul\":10123:10149   */\n      swap1\n      pop\n        /* \"#utility.yul\":10195:10204   */\n      dup2\n        /* \"#utility.yul\":10189:10193   */\n      dup2\n        /* \"#utility.yul\":10185:10205   */\n      sub\n        /* \"#utility.yul\":10181:10182   */\n      0x00\n        /* \"#utility.yul\":10170:10179   */\n      dup4\n        /* \"#utility.yul\":10166:10183   */\n      add\n        /* \"#utility.yul\":10159:10206   */\n      mstore\n        /* \"#utility.yul\":10223:10354   */\n      tag_209\n        /* \"#utility.yul\":10349:10353   */\n      dup2\n        /* \"#utility.yul\":10223:10354   */\n      tag_92\n      jump\t// in\n    tag_209:\n        /* \"#utility.yul\":10215:10354   */\n      swap1\n      pop\n        /* \"#utility.yul\":9942:10361   */\n      swap2\n      swap1\n      pop\n      jump\t// out\n        /* \"#utility.yul\":10367:10485   */\n    tag_93:\n        /* \"#utility.yul\":10454:10478   */\n      tag_211\n        /* \"#utility.yul\":10472:10477   */\n      dup2\n        /* \"#utility.yul\":10454:10478   */\n      tag_63\n      jump\t// in\n    tag_211:\n        /* \"#utility.yul\":10449:10452   */\n      dup3\n        /* \"#utility.yul\":10442:10479   */\n      mstore\n        /* \"#utility.yul\":10367:10485   */\n      pop\n      pop\n      jump\t// out\n        /* \"#utility.yul\":10491:10617   */\n    tag_94:\n        /* \"#utility.yul\":10528:10535   */\n      0x00\n        /* \"#utility.yul\":10568:10610   */\n      0xffffffffffffffffffffffffffffffffffffffff\n        /* \"#utility.yul\":10561:10566   */\n      dup3\n        /* \"#utility.yul\":10557:10611   */\n      and\n        /* \"#utility.yul\":10546:10611   */\n      swap1\n      pop\n        /* \"#utility.yul\":10491:10617   */\n      swap2\n      swap1\n      pop\n      jump\t// out\n        /* \"#utility.yul\":10623:10719   */\n    tag_95:\n        /* \"#utility.yul\":10660:10667   */\n      0x00\n        /* \"#utility.yul\":10689:10713   */\n      tag_214\n        /* \"#utility.yul\":10707:10712   */\n      dup3\n        /* \"#utility.yul\":10689:10713   */\n      tag_94\n      jump\t// in\n    tag_214:\n        /* \"#utility.yul\":10678:10713   */\n      swap1\n      pop\n        /* \"#utility.yul\":10623:10719   */\n      swap2\n      swap1\n      pop\n      jump\t// out\n        /* \"#utility.yul\":10725:10843   */\n    tag_96:\n        /* \"#utility.yul\":10812:10836   */\n      tag_216\n        /* \"#utility.yul\":10830:10835   */\n      dup2\n        /* \"#utility.yul\":10812:10836   */\n      tag_95\n      jump\t// in\n    tag_216:\n        /* \"#utility.yul\":10807:10810   */\n      dup3\n        /* \"#utility.yul\":10800:10837   */\n      mstore\n        /* \"#utility.yul\":10725:10843   */\n      pop\n      pop\n      jump\t// out\n        /* \"#utility.yul\":10849:11291   */\n    tag_31:\n        /* \"#utility.yul\":10998:11002   */\n      0x00\n        /* \"#utility.yul\":11036:11038   */\n      0x60\n        /* \"#utility.yul\":11025:11034   */\n      dup3\n        /* \"#utility.yul\":11021:11039   */\n      add\n        /* \"#utility.yul\":11013:11039   */\n      swap1\n      pop\n        /* \"#utility.yul\":11049:11120   */\n      tag_218\n        /* \"#utility.yul\":11117:11118   */\n      0x00\n        /* \"#utility.yul\":11106:11115   */\n      dup4\n        /* \"#utility.yul\":11102:11119   */\n      add\n        /* \"#utility.yul\":11093:11099   */\n      dup7\n        /* \"#utility.yul\":11049:11120   */\n      tag_93\n      jump\t// in\n    tag_218:\n        /* \"#utility.yul\":11130:11202   */\n      tag_219\n        /* \"#utility.yul\":11198:11200   */\n      0x20\n        /* \"#utility.yul\":11187:11196   */\n      dup4\n        /* \"#utility.yul\":11183:11201   */\n      add\n        /* \"#utility.yul\":11174:11180   */\n      dup6\n        /* \"#utility.yul\":11130:11202   */\n      tag_96\n      jump\t// in\n    tag_219:\n        /* \"#utility.yul\":11212:11284   */\n      tag_220\n        /* \"#utility.yul\":11280:11282   */\n      0x40\n        /* \"#utility.yul\":11269:11278   */\n      dup4\n        /* \"#utility.yul\":11265:11283   */\n      add\n        /* \"#utility.yul\":11256:11262   */\n      dup5\n        /* \"#utility.yul\":11212:11284   */\n      tag_93\n      jump\t// in\n    tag_220:\n        /* \"#utility.yul\":10849:11291   */\n      swap5\n      swap4\n      pop\n      pop\n      pop\n      pop\n      jump\t// out\n        /* \"#utility.yul\":11297:11477   */\n    tag_97:\n        /* \"#utility.yul\":11345:11422   */\n      0x4e487b7100000000000000000000000000000000000000000000000000000000\n        /* \"#utility.yul\":11342:11343   */\n      0x00\n        /* \"#utility.yul\":11335:11423   */\n      mstore\n        /* \"#utility.yul\":11442:11446   */\n      0x11\n        /* \"#utility.yul\":11439:11440   */\n      0x04\n        /* \"#utility.yul\":11432:11447   */\n      mstore\n        /* \"#utility.yul\":11466:11470   */\n      0x24\n        /* \"#utility.yul\":11463:11464   */\n      0x00\n        /* \"#utility.yul\":11456:11471   */\n      revert\n        /* \"#utility.yul\":11483:11677   */\n    tag_33:\n        /* \"#utility.yul\":11523:11527   */\n      0x00\n        /* \"#utility.yul\":11543:11563   */\n      tag_223\n        /* \"#utility.yul\":11561:11562   */\n      dup3\n        /* \"#utility.yul\":11543:11563   */\n      tag_63\n      jump\t// in\n    tag_223:\n        /* \"#utility.yul\":11538:11563   */\n      swap2\n      pop\n        /* \"#utility.yul\":11577:11597   */\n      tag_224\n        /* \"#utility.yul\":11595:11596   */\n      dup4\n        /* \"#utility.yul\":11577:11597   */\n      tag_63\n      jump\t// in\n    tag_224:\n        /* \"#utility.yul\":11572:11597   */\n      swap3\n      pop\n        /* \"#utility.yul\":11621:11622   */\n      dup3\n        /* \"#utility.yul\":11618:11619   */\n      dup3\n        /* \"#utility.yul\":11614:11623   */\n      sub\n        /* \"#utility.yul\":11606:11623   */\n      swap1\n      pop\n        /* \"#utility.yul\":11645:11646   */\n      dup2\n        /* \"#utility.yul\":11639:11643   */\n      dup2\n        /* \"#utility.yul\":11636:11647   */\n      gt\n        /* \"#utility.yul\":11633:11670   */\n      iszero\n      tag_225\n      jumpi\n        /* \"#utility.yul\":11650:11668   */\n      tag_226\n      tag_97\n      jump\t// in\n    tag_226:\n        /* \"#utility.yul\":11633:11670   */\n    tag_225:\n        /* \"#utility.yul\":11483:11677   */\n      swap3\n      swap2\n      pop\n      pop\n      jump\t// out\n        /* \"#utility.yul\":11683:11904   */\n    tag_98:\n        /* \"#utility.yul\":11823:11857   */\n      0x50726f6475637453746f72653a206e616d652063616e6e6f7420626520656d70\n        /* \"#utility.yul\":11819:11820   */\n      0x00\n        /* \"#utility.yul\":11811:11817   */\n      dup3\n        /* \"#utility.yul\":11807:11821   */\n      add\n        /* \"#utility.yul\":11800:11858   */\n      mstore\n        /* \"#utility.yul\":11892:11896   */\n      0x7479000000000000000000000000000000000000000000000000000000000000\n        /* \"#utility.yul\":11887:11889   */\n      0x20\n        /* \"#utility.yul\":11879:11885   */\n      dup3\n        /* \"#utility.yul\":11875:11890   */\n      add\n        /* \"#utility.yul\":11868:11897   */\n      mstore\n        /* \"#utility.yul\":11683:11904   */\n      pop\n      jump\t// out\n        /* \"#utility.yul\":11910:12276   */\n    tag_99:\n        /* \"#utility.yul\":12052:12055   */\n      0x00\n        /* \"#utility.yul\":12073:12140   */\n      tag_229\n        /* \"#utility.yul\":12137:12139   */\n      0x22\n        /* \"#utility.yul\":12132:12135   */\n      dup4\n        /* \"#utility.yul\":12073:12140   */\n      tag_88\n      jump\t// in\n    tag_229:\n        /* \"#utility.yul\":12066:12140   */\n      swap2\n      pop\n        /* \"#utility.yul\":12149:12242   */\n      tag_230\n        /* \"#utility.yul\":12238:12241   */\n      dup3\n        /* \"#utility.yul\":12149:12242   */\n      tag_98\n      jump\t// in\n    tag_230:\n        /* \"#utility.yul\":12267:12269   */\n      0x40\n        /* \"#utility.yul\":12262:12265   */\n      dup3\n        /* \"#utility.yul\":12258:12270   */\n      add\n        /* \"#utility.yul\":12251:12270   */\n      swap1\n      pop\n        /* \"#utility.yul\":11910:12276   */\n      swap2\n      swap1\n      pop\n      jump\t// out\n        /* \"#utility.yul\":12282:12701   */\n    tag_40:\n        /* \"#utility.yul\":12448:12452   */\n      0x00\n        /* \"#utility.yul\":12486:12488   */\n      0x20\n        /* \"#utility.yul\":12475:12484   */\n      dup3\n        /* \"#utility.yul\":12471:12489   */\n      add\n        /* \"#utility.yul\":12463:12489   */\n      swap1\n      pop\n        /* \"#utility.yul\":12535:12544   */\n      dup2\n        /* \"#utility.yul\":12529:12533   */\n      dup2\n        /* \"#utility.yul\":12525:12545   */\n      sub\n        /* \"#utility.yul\":12521:12522   */\n      0x00\n        /* \"#utility.yul\":12510:12519   */\n      dup4\n        /* \"#utility.yul\":12506:12523   */\n      add\n        /* \"#utility.yul\":12499:12546   */\n      mstore\n        /* \"#utility.yul\":12563:12694   */\n      tag_232\n        /* \"#utility.yul\":12689:12693   */\n      dup2\n        /* \"#utility.yul\":12563:12694   */\n      tag_99\n      jump\t// in\n    tag_232:\n        /* \"#utility.yul\":12555:12694   */\n      swap1\n      pop\n        /* \"#utility.yul\":12282:12701   */\n      swap2\n      swap1\n      pop\n      jump\t// out\n        /* \"#utility.yul\":12707:12939   */\n    tag_100:\n        /* \"#utility.yul\":12847:12881   */\n      0x50726f6475637453746f72653a207072696365206d7573742062652067726561\n        /* \"#utility.yul\":12843:12844   */\n      0x00\n        /* \"#utility.yul\":12835:12841   */\n      dup3\n        /* \"#utility.yul\":12831:12845   */\n      add\n        /* \"#utility.yul\":12824:12882   */\n      mstore\n        /* \"#utility.yul\":12916:12931   */\n      0x746572207468616e207a65726f00000000000000000000000000000000000000\n        /* \"#utility.yul\":12911:12913   */\n      0x20\n        /* \"#utility.yul\":12903:12909   */\n      dup3\n        /* \"#utility.yul\":12899:12914   */\n      add\n        /* \"#utility.yul\":12892:12932   */\n      mstore\n        /* \"#utility.yul\":12707:12939   */\n      pop\n      jump\t// out\n        /* \"#utility.yul\":12945:13311   */\n    tag_101:\n        /* \"#utility.yul\":13087:13090   */\n      0x00\n        /* \"#utility.yul\":13108:13175   */\n      tag_235\n        /* \"#utility.yul\":13172:13174   */\n      0x2d\n        /* \"#utility.yul\":13167:13170   */\n      dup4\n        /* \"#utility.yul\":13108:13175   */\n      tag_88\n      jump\t// in\n    tag_235:\n        /* \"#utility.yul\":13101:13175   */\n      swap2\n      pop\n        /* \"#utility.yul\":13184:13277   */\n      tag_236\n        /* \"#utility.yul\":13273:13276   */\n      dup3\n        /* \"#utility.yul\":13184:13277   */\n      tag_100\n      jump\t// in\n    tag_236:\n        /* \"#utility.yul\":13302:13304   */\n      0x40\n        /* \"#utility.yul\":13297:13300   */\n      dup3\n        /* \"#utility.yul\":13293:13305   */\n      add\n        /* \"#utility.yul\":13286:13305   */\n      swap1\n      pop\n        /* \"#utility.yul\":12945:13311   */\n      swap2\n      swap1\n      pop\n      jump\t// out\n        /* \"#utility.yul\":13317:13736   */\n    tag_43:\n        /* \"#utility.yul\":13483:13487   */\n      0x00\n        /* \"#utility.yul\":13521:13523   */\n      0x20\n        /* \"#utility.yul\":13510:13519   */\n      dup3\n        /* \"#utility.yul\":13506:13524   */\n      add\n        /* \"#utility.yul\":13498:13524   */\n      swap1\n      pop\n        /* \"#utility.yul\":13570:13579   */\n      dup2\n        /* \"#utility.yul\":13564:13568   */\n      dup2\n        /* \"#utility.yul\":13560:13580   */\n      sub\n        /* \"#utility.yul\":13556:13557   */\n      0x00\n        /* \"#utility.yul\":13545:13554   */\n      dup4\n        /* \"#utility.yul\":13541:13558   */\n      add\n        /* \"#utility.yul\":13534:13581   */\n      mstore\n        /* \"#utility.yul\":13598:13729   */\n      tag_238\n        /* \"#utility.yul\":13724:13728   */\n      dup2\n        /* \"#utility.yul\":13598:13729   */\n      tag_101\n      jump\t// in\n    tag_238:\n        /* \"#utility.yul\":13590:13729   */\n      swap1\n      pop\n        /* \"#utility.yul\":13317:13736   */\n      swap2\n      swap1\n      pop\n      jump\t// out\n        /* \"#utility.yul\":13742:13922   */\n    tag_102:\n        /* \"#utility.yul\":13790:13867   */\n      0x4e487b7100000000000000000000000000000000000000000000000000000000\n        /* \"#utility.yul\":13787:13788   */\n      0x00\n        /* \"#utility.yul\":13780:13868   */\n      mstore\n        /* \"#utility.yul\":13887:13891   */\n      0x22\n        /* \"#utility.yul\":13884:13885   */\n      0x04\n        /* \"#utility.yul\":13877:13892   */\n      mstore\n        /* \"#utility.yul\":13911:13915   */\n      0x24\n        /* \"#utility.yul\":13908:13909   */\n      0x00\n        /* \"#utility.yul\":13901:13916   */\n      revert\n        /* \"#utility.yul\":13928:14248   */\n    tag_55:\n        /* \"#utility.yul\":13972:13978   */\n      0x00\n        /* \"#utility.yul\":14009:14010   */\n      0x02\n        /* \"#utility.yul\":14003:14007   */\n      dup3\n        /* \"#utility.yul\":13999:14011   */\n      div\n        /* \"#utility.yul\":13989:14011   */\n      swap1\n      pop\n        /* \"#utility.yul\":14056:14057   */\n      0x01\n        /* \"#utility.yul\":14050:14054   */\n      dup3\n        /* \"#utility.yul\":14046:14058   */\n      and\n        /* \"#utility.yul\":14077:14095   */\n      dup1\n        /* \"#utility.yul\":14067:14148   */\n      tag_241\n      jumpi\n        /* \"#utility.yul\":14133:14137   */\n      0x7f\n        /* \"#utility.yul\":14125:14131   */\n      dup3\n        /* \"#utility.yul\":14121:14138   */\n      and\n        /* \"#utility.yul\":14111:14138   */\n      swap2\n      pop\n        /* \"#utility.yul\":14067:14148   */\n    tag_241:\n        /* \"#utility.yul\":14195:14197   */\n      0x20\n        /* \"#utility.yul\":14187:14193   */\n      dup3\n        /* \"#utility.yul\":14184:14198   */\n      lt\n        /* \"#utility.yul\":14164:14182   */\n      dup2\n        /* \"#utility.yul\":14161:14199   */\n      sub\n        /* \"#utility.yul\":14158:14242   */\n      tag_242\n      jumpi\n        /* \"#utility.yul\":14214:14232   */\n      tag_243\n      tag_102\n      jump\t// in\n    tag_243:\n        /* \"#utility.yul\":14158:14242   */\n    tag_242:\n        /* \"#utility.yul\":13979:14248   */\n      pop\n        /* \"#utility.yul\":13928:14248   */\n      swap2\n      swap1\n      pop\n      jump\t// out\n        /* \"#utility.yul\":14254:14395   */\n    tag_103:\n        /* \"#utility.yul\":14303:14307   */\n      0x00\n        /* \"#utility.yul\":14326:14329   */\n      dup2\n        /* \"#utility.yul\":14318:14329   */\n      swap1\n      pop\n        /* \"#utility.yul\":14349:14352   */\n      dup2\n        /* \"#utility.yul\":14346:14347   */\n      0x00\n        /* \"#utility.yul\":14339:14353   */\n      mstore\n        /* \"#utility.yul\":14383:14387   */\n      0x20\n        /* \"#utility.yul\":14380:14381   */\n      0x00\n        /* \"#utility.yul\":14370:14388   */\n      keccak256\n        /* \"#utility.yul\":14362:14388   */\n      swap1\n      pop\n        /* \"#utility.yul\":14254:14395   */\n      swap2\n      swap1\n      pop\n      jump\t// out\n        /* \"#utility.yul\":14401:14494   */\n    tag_104:\n        /* \"#utility.yul\":14438:14444   */\n      0x00\n        /* \"#utility.yul\":14485:14487   */\n      0x20\n        /* \"#utility.yul\":14480:14482   */\n      0x1f\n        /* \"#utility.yul\":14473:14478   */\n      dup4\n        /* \"#utility.yul\":14469:14483   */\n      add\n        /* \"#utility.yul\":14465:14488   */\n      div\n        /* \"#utility.yul\":14455:14488   */\n      swap1\n      pop\n        /* \"#utility.yul\":14401:14494   */\n      swap2\n      swap1\n      pop\n      jump\t// out\n        /* \"#utility.yul\":14500:14607   */\n    tag_105:\n        /* \"#utility.yul\":14544:14552   */\n      0x00\n        /* \"#utility.yul\":14594:14599   */\n      dup3\n        /* \"#utility.yul\":14588:14592   */\n      dup3\n        /* \"#utility.yul\":14584:14600   */\n      shl\n        /* \"#utility.yul\":14563:14600   */\n      swap1\n      pop\n        /* \"#utility.yul\":14500:14607   */\n      swap3\n      swap2\n      pop\n      pop\n      jump\t// out\n        /* \"#utility.yul\":14613:15006   */\n    tag_106:\n        /* \"#utility.yul\":14682:14688   */\n      0x00\n        /* \"#utility.yul\":14732:14733   */\n      0x08\n        /* \"#utility.yul\":14720:14730   */\n      dup4\n        /* \"#utility.yul\":14716:14734   */\n      mul\n        /* \"#utility.yul\":14755:14852   */\n      tag_248\n        /* \"#utility.yul\":14785:14851   */\n      0xffffffffffffffffffffffffffffffffffffffffffffffffffffffffffffffff\n        /* \"#utility.yul\":14774:14783   */\n      dup3\n        /* \"#utility.yul\":14755:14852   */\n      tag_105\n      jump\t// in\n    tag_248:\n        /* \"#utility.yul\":14873:14912   */\n      tag_249\n        /* \"#utility.yul\":14903:14911   */\n      dup7\n        /* \"#utility.yul\":14892:14901   */\n      dup4\n        /* \"#utility.yul\":14873:14912   */\n      tag_105\n      jump\t// in\n    tag_249:\n        /* \"#utility.yul\":14861:14912   */\n      swap6\n      pop\n        /* \"#utility.yul\":14945:14949   */\n      dup1\n        /* \"#utility.yul\":14941:14950   */\n      not\n        /* \"#utility.yul\":14934:14939   */\n      dup5\n        /* \"#utility.yul\":14930:14951   */\n      and\n        /* \"#utility.yul\":14921:14951   */\n      swap4\n      pop\n        /* \"#utility.yul\":14994:14998   */\n      dup1\n        /* \"#utility.yul\":14984:14992   */\n      dup7\n        /* \"#utility.yul\":14980:14999   */\n      and\n        /* \"#utility.yul\":14973:14978   */\n      dup5\n        /* \"#utility.yul\":14970:15000   */\n      or\n        /* \"#utility.yul\":14960:15000   */\n      swap3\n      pop\n        /* \"#utility.yul\":14689:15006   */\n      pop\n      pop\n        /* \"#utility.yul\":14613:15006   */\n      swap4\n      swap3\n      pop\n      pop\n      pop\n      jump\t// out\n        /* \"#utility.yul\":15012:15072   */\n    tag_107:\n        /* \"#utility.yul\":15040:15043   */\n      0x00\n        /* \"#utility.yul\":15061:15066   */\n      dup2\n        /* \"#utility.yul\":15054:15066   */\n      swap1\n      pop\n        /* \"#utility.yul\":15012:15072   */\n      swap2\n      swap1\n      pop\n      jump\t// out\n        /* \"#utility.yul\":15078:15220   */\n    tag_108:\n        /* \"#utility.yul\":15128:15137   */\n      0x00\n        /* \"#utility.yul\":15161:15214   */\n      tag_252\n        /* \"#utility.yul\":15179:15213   */\n      tag_253\n        /* \"#utility.yul\":15188:15212   */\n      tag_254\n        /* \"#utility.yul\":15206:15211   */\n      dup5\n        /* \"#utility.yul\":15188:15212   */\n      tag_63\n      jump\t// in\n    tag_254:\n        /* \"#utility.yul\":15179:15213   */\n      tag_107\n      jump\t// in\n    tag_253:\n        /* \"#utility.yul\":15161:15214   */\n      tag_63\n      jump\t// in\n    tag_252:\n        /* \"#utility.yul\":15148:15214   */\n      swap1\n      pop\n        /* \"#utility.yul\":15078:15220   */\n      swap2\n      swap1\n      pop\n      jump\t// out\n        /* \"#utility.yul\":15226:15301   */\n    tag_109:\n        /* \"#utility.yul\":15269:15272   */\n      0x00\n        /* \"#utility.yul\":15290:15295   */\n      dup2\n        /* \"#utility.yul\":15283:15295   */\n      swap1\n      pop\n        /* \"#utility.yul\":15226:15301   */\n      swap2\n      swap1\n      pop\n      jump\t// out\n        /* \"#utility.yul\":15307:15576   */\n    tag_110:\n        /* \"#utility.yul\":15417:15456   */\n      tag_257\n        /* \"#utility.yul\":15448:15455   */\n      dup4\n        /* \"#utility.yul\":15417:15456   */\n      tag_108\n      jump\t// in\n    tag_257:\n        /* \"#utility.yul\":15478:15569   */\n      tag_258\n        /* \"#utility.yul\":15527:15568   */\n      tag_259\n        /* \"#utility.yul\":15551:15567   */\n      dup3\n        /* \"#utility.yul\":15527:15568   */\n      tag_109\n      jump\t// in\n    tag_259:\n        /* \"#utility.yul\":15519:15525   */\n      dup5\n        /* \"#utility.yul\":15512:15516   */\n      dup5\n        /* \"#utility.yul\":15506:15517   */\n      sload\n        /* \"#utility.yul\":15478:15569   */\n      tag_106\n      jump\t// in\n    tag_258:\n        /* \"#utility.yul\":15472:15476   */\n      dup3\n        /* \"#utility.yul\":15465:15570   */\n      sstore\n        /* \"#utility.yul\":15383:15576   */\n      pop\n        /* \"#utility.yul\":15307:15576   */\n      pop\n      pop\n      pop\n      jump\t// out\n        /* \"#utility.yul\":15582:15655   */\n    tag_111:\n        /* \"#utility.yul\":15627:15630   */\n      0x00\n        /* \"#utility.yul\":15648:15649   */\n      0x00\n        /* \"#utility.yul\":15641:15649   */\n      swap1\n      pop\n        /* \"#utility.yul\":15582:15655   */\n      swap1\n      jump\t// out\n        /* \"#utility.yul\":15661:15850   */\n    tag_112:\n        /* \"#utility.yul\":15738:15770   */\n      tag_262\n      tag_111\n      jump\t// in\n    tag_262:\n        /* \"#utility.yul\":15779:15844   */\n      tag_263\n        /* \"#utility.yul\":15837:15843   */\n      dup2\n        /* \"#utility.yul\":15829:15835   */\n      dup5\n        /* \"#utility.yul\":15823:15827   */\n      dup5\n        /* \"#utility.yul\":15779:15844   */\n      tag_110\n      jump\t// in\n    tag_263:\n        /* \"#utility.yul\":15714:15850   */\n      pop\n        /* \"#utility.yul\":15661:15850   */\n      pop\n      pop\n      jump\t// out\n        /* \"#utility.yul\":15856:16042   */\n    tag_113:\n        /* \"#utility.yul\":15916:16036   */\n    tag_265:\n        /* \"#utility.yul\":15933:15936   */\n      dup2\n        /* \"#utility.yul\":15926:15931   */\n      dup2\n        /* \"#utility.yul\":15923:15937   */\n      lt\n        /* \"#utility.yul\":15916:16036   */\n      iszero\n      tag_267\n      jumpi\n        /* \"#utility.yul\":15987:16026   */\n      tag_268\n        /* \"#utility.yul\":16024:16025   */\n      0x00\n        /* \"#utility.yul\":16017:16022   */\n      dup3\n        /* \"#utility.yul\":15987:16026   */\n      tag_112\n      jump\t// in\n    tag_268:\n        /* \"#utility.yul\":15960:15961   */\n      0x01\n        /* \"#utility.yul\":15953:15958   */\n      dup2\n        /* \"#utility.yul\":15949:15962   */\n      add\n        /* \"#utility.yul\":15940:15962   */\n      swap1\n      pop\n        /* \"#utility.yul\":15916:16036   */\n      jump(tag_265)\n    tag_267:\n        /* \"#utility.yul\":15856:16042   */\n      pop\n      pop\n      jump\t// out\n        /* \"#utility.yul\":16048:16591   */\n    tag_114:\n        /* \"#utility.yul\":16149:16151   */\n      0x1f\n        /* \"#utility.yul\":16144:16147   */\n      dup3\n        /* \"#utility.yul\":16141:16152   */\n      gt\n        /* \"#utility.yul\":16138:16584   */\n      iszero\n      tag_270\n      jumpi\n        /* \"#utility.yul\":16183:16221   */\n      tag_271\n        /* \"#utility.yul\":16215:16220   */\n      dup2\n        /* \"#utility.yul\":16183:16221   */\n      tag_103\n      jump\t// in\n    tag_271:\n        /* \"#utility.yul\":16267:16296   */\n      tag_272\n        /* \"#utility.yul\":16285:16295   */\n      dup5\n        /* \"#utility.yul\":16267:16296   */\n      tag_104\n      jump\t// in\n    tag_272:\n        /* \"#utility.yul\":16257:16265   */\n      dup2\n        /* \"#utility.yul\":16253:16297   */\n      add\n        /* \"#utility.yul\":16450:16452   */\n      0x20\n        /* \"#utility.yul\":16438:16448   */\n      dup6\n        /* \"#utility.yul\":16435:16453   */\n      lt\n        /* \"#utility.yul\":16432:16481   */\n      iszero\n      tag_273\n      jumpi\n        /* \"#utility.yul\":16471:16479   */\n      dup2\n        /* \"#utility.yul\":16456:16479   */\n      swap1\n      pop\n        /* \"#utility.yul\":16432:16481   */\n    tag_273:\n        /* \"#utility.yul\":16494:16574   */\n      tag_274\n        /* \"#utility.yul\":16550:16572   */\n      tag_275\n        /* \"#utility.yul\":16568:16571   */\n      dup6\n        /* \"#utility.yul\":16550:16572   */\n      tag_104\n      jump\t// in\n    tag_275:\n        /* \"#utility.yul\":16540:16548   */\n      dup4\n        /* \"#utility.yul\":16536:16573   */\n      add\n        /* \"#utility.yul\":16523:16534   */\n      dup3\n        /* \"#utility.yul\":16494:16574   */\n      tag_113\n      jump\t// in\n    tag_274:\n        /* \"#utility.yul\":16153:16584   */\n      pop\n      pop\n        /* \"#utility.yul\":16138:16584   */\n    tag_270:\n        /* \"#utility.yul\":16048:16591   */\n      pop\n      pop\n      pop\n      jump\t// out\n        /* \"#utility.yul\":16597:16714   */\n    tag_115:\n        /* \"#utility.yul\":16651:16659   */\n      0x00\n        /* \"#utility.yul\":16701:16706   */\n      dup3\n        /* \"#utility.yul\":16695:16699   */\n      dup3\n        /* \"#utility.yul\":16691:16707   */\n      shr\n        /* \"#utility.yul\":16670:16707   */\n      swap1\n      pop\n        /* \"#utility.yul\":16597:16714   */\n      swap3\n      swap2\n      pop\n      pop\n      jump\t// out\n        /* \"#utility.yul\":16720:16889   */\n    tag_116:\n        /* \"#utility.yul\":16764:16770   */\n      0x00\n        /* \"#utility.yul\":16797:16848   */\n      tag_278\n        /* \"#utility.yul\":16845:16846   */\n      0x00\n        /* \"#utility.yul\":16841:16847   */\n      not\n        /* \"#utility.yul\":16833:16838   */\n      dup5\n        /* \"#utility.yul\":16830:16831   */\n      0x08\n        /* \"#utility.yul\":16826:16839   */\n      mul\n        /* \"#utility.yul\":16797:16848   */\n      tag_115\n      jump\t// in\n    tag_278:\n        /* \"#utility.yul\":16793:16849   */\n      not\n        /* \"#utility.yul\":16878:16882   */\n      dup1\n        /* \"#utility.yul\":16872:16876   */\n      dup4\n        /* \"#utility.yul\":16868:16883   */\n      and\n        /* \"#utility.yul\":16858:16883   */\n      swap2\n      pop\n        /* \"#utility.yul\":16771:16889   */\n      pop\n        /* \"#utility.yul\":16720:16889   */\n      swap3\n      swap2\n      pop\n      pop\n      jump\t// out\n        /* \"#utility.yul\":16894:17189   */\n    tag_117:\n        /* \"#utility.yul\":16970:16974   */\n      0x00\n        /* \"#utility.yul\":17116:17145   */\n      tag_280\n        /* \"#utility.yul\":17141:17144   */\n      dup4\n        /* \"#utility.yul\":17135:17139   */\n      dup4\n        /* \"#utility.yul\":17116:17145   */\n      tag_116\n      jump\t// in\n    tag_280:\n        /* \"#utility.yul\":17108:17145   */\n      swap2\n      pop\n        /* \"#utility.yul\":17178:17181   */\n      dup3\n        /* \"#utility.yul\":17175:17176   */\n      0x02\n        /* \"#utility.yul\":17171:17182   */\n      mul\n        /* \"#utility.yul\":17165:17169   */\n      dup3\n        /* \"#utility.yul\":17162:17183   */\n      or\n        /* \"#utility.yul\":17154:17183   */\n      swap1\n      pop\n        /* \"#utility.yul\":16894:17189   */\n      swap3\n      swap2\n      pop\n      pop\n      jump\t// out\n        /* \"#utility.yul\":17194:18589   */\n    tag_46:\n        /* \"#utility.yul\":17311:17348   */\n      tag_282\n        /* \"#utility.yul\":17344:17347   */\n      dup3\n        /* \"#utility.yul\":17311:17348   */\n      tag_79\n      jump\t// in\n    tag_282:\n        /* \"#utility.yul\":17413:17431   */\n      0xffffffffffffffff\n        /* \"#utility.yul\":17405:17411   */\n      dup2\n        /* \"#utility.yul\":17402:17432   */\n      gt\n        /* \"#utility.yul\":17399:17455   */\n      iszero\n      tag_283\n      jumpi\n        /* \"#utility.yul\":17435:17453   */\n      tag_284\n      tag_69\n      jump\t// in\n    tag_284:\n        /* \"#utility.yul\":17399:17455   */\n    tag_283:\n        /* \"#utility.yul\":17479:17517   */\n      tag_285\n        /* \"#utility.yul\":17511:17515   */\n      dup3\n        /* \"#utility.yul\":17505:17516   */\n      sload\n        /* \"#utility.yul\":17479:17517   */\n      tag_55\n      jump\t// in\n    tag_285:\n        /* \"#utility.yul\":17564:17631   */\n      tag_286\n        /* \"#utility.yul\":17624:17630   */\n      dup3\n        /* \"#utility.yul\":17616:17622   */\n      dup3\n        /* \"#utility.yul\":17610:17614   */\n      dup6\n        /* \"#utility.yul\":17564:17631   */\n      tag_114\n      jump\t// in\n    tag_286:\n        /* \"#utility.yul\":17658:17659   */\n      0x00\n        /* \"#utility.yul\":17682:17686   */\n      0x20\n        /* \"#utility.yul\":17669:17686   */\n      swap1\n      pop\n        /* \"#utility.yul\":17714:17716   */\n      0x1f\n        /* \"#utility.yul\":17706:17712   */\n      dup4\n        /* \"#utility.yul\":17703:17717   */\n      gt\n        /* \"#utility.yul\":17731:17732   */\n      0x01\n        /* \"#utility.yul\":17726:18344   */\n      dup2\n      eq\n      tag_288\n      jumpi\n        /* \"#utility.yul\":18388:18389   */\n      0x00\n        /* \"#utility.yul\":18405:18411   */\n      dup5\n        /* \"#utility.yul\":18402:18479   */\n      iszero\n      tag_289\n      jumpi\n        /* \"#utility.yul\":18454:18463   */\n      dup3\n        /* \"#utility.yul\":18449:18452   */\n      dup8\n        /* \"#utility.yul\":18445:18464   */\n      add\n        /* \"#utility.yul\":18439:18465   */\n      mload\n        /* \"#utility.yul\":18430:18465   */\n      swap1\n      pop\n        /* \"#utility.yul\":18402:18479   */\n    tag_289:\n        /* \"#utility.yul\":18505:18572   */\n      tag_290\n        /* \"#utility.yul\":18565:18571   */\n      dup6\n        /* \"#utility.yul\":18558:18563   */\n      dup3\n        /* \"#utility.yul\":18505:18572   */\n      tag_117\n      jump\t// in\n    tag_290:\n        /* \"#utility.yul\":18499:18503   */\n      dup7\n        /* \"#utility.yul\":18492:18573   */\n      sstore\n        /* \"#utility.yul\":18361:18583   */\n      pop\n        /* \"#utility.yul\":17696:18583   */\n      jump(tag_287)\n        /* \"#utility.yul\":17726:18344   */\n    tag_288:\n        /* \"#utility.yul\":17778:17782   */\n      0x1f\n        /* \"#utility.yul\":17774:17783   */\n      not\n        /* \"#utility.yul\":17766:17772   */\n      dup5\n        /* \"#utility.yul\":17762:17784   */\n      and\n        /* \"#utility.yul\":17812:17849   */\n      tag_291\n        /* \"#utility.yul\":17844:17848   */\n      dup7\n        /* \"#utility.yul\":17812:17849   */\n      tag_103\n      jump\t// in\n    tag_291:\n        /* \"#utility.yul\":17871:17872   */\n      0x00\n        /* \"#utility.yul\":17885:18093   */\n    tag_292:\n        /* \"#utility.yul\":17899:17906   */\n      dup3\n        /* \"#utility.yul\":17896:17897   */\n      dup2\n        /* \"#utility.yul\":17893:17907   */\n      lt\n        /* \"#utility.yul\":17885:18093   */\n      iszero\n      tag_294\n      jumpi\n        /* \"#utility.yul\":17978:17987   */\n      dup5\n        /* \"#utility.yul\":17973:17976   */\n      dup10\n        /* \"#utility.yul\":17969:17988   */\n      add\n        /* \"#utility.yul\":17963:17989   */\n      mload\n        /* \"#utility.yul\":17955:17961   */\n      dup3\n        /* \"#utility.yul\":17948:17990   */\n      sstore\n        /* \"#utility.yul\":18029:18030   */\n      0x01\n        /* \"#utility.yul\":18021:18027   */\n      dup3\n        /* \"#utility.yul\":18017:18031   */\n      add\n        /* \"#utility.yul\":18007:18031   */\n      swap2\n      pop\n        /* \"#utility.yul\":18076:18078   */\n      0x20\n        /* \"#utility.yul\":18065:18074   */\n      dup6\n        /* \"#utility.yul\":18061:18079   */\n      add\n        /* \"#utility.yul\":18048:18079   */\n      swap5\n      pop\n        /* \"#utility.yul\":17922:17926   */\n      0x20\n        /* \"#utility.yul\":17919:17920   */\n      dup2\n        /* \"#utility.yul\":17915:17927   */\n      add\n        /* \"#utility.yul\":17910:17927   */\n      swap1\n      pop\n        /* \"#utility.yul\":17885:18093   */\n      jump(tag_292)\n    tag_294:\n        /* \"#utility.yul\":18121:18127   */\n      dup7\n        /* \"#utility.yul\":18112:18119   */\n      dup4\n        /* \"#utility.yul\":18109:18128   */\n      lt\n        /* \"#utility.yul\":18106:18285   */\n      iszero\n      tag_295\n      jumpi\n        /* \"#utility.yul\":18179:18188   */\n      dup5\n        /* \"#utility.yul\":18174:18177   */\n      dup10\n        /* \"#utility.yul\":18170:18189   */\n      add\n        /* \"#utility.yul\":18164:18190   */\n      mload\n        /* \"#utility.yul\":18222:18270   */\n      tag_296\n        /* \"#utility.yul\":18264:18268   */\n      0x1f\n        /* \"#utility.yul\":18256:18262   */\n      dup10\n        /* \"#utility.yul\":18252:18269   */\n      and\n        /* \"#utility.yul\":18241:18250   */\n      dup3\n        /* \"#utility.yul\":18222:18270   */\n      tag_116\n      jump\t// in\n    tag_296:\n        /* \"#utility.yul\":18214:18220   */\n      dup4\n        /* \"#utility.yul\":18207:18271   */\n      sstore\n        /* \"#utility.yul\":18129:18285   */\n      pop\n        /* \"#utility.yul\":18106:18285   */\n    tag_295:\n        /* \"#utility.yul\":18331:18332   */\n      0x01\n        /* \"#utility.yul\":18327:18328   */\n      0x02\n        /* \"#utility.yul\":18319:18325   */\n      dup9\n        /* \"#utility.yul\":18315:18329   */\n      mul\n        /* \"#utility.yul\":18311:18333   */\n      add\n        /* \"#utility.yul\":18305:18309   */\n      dup9\n        /* \"#utility.yul\":18298:18334   */\n      sstore\n        /* \"#utility.yul\":17733:18344   */\n      pop\n      pop\n      pop\n        /* \"#utility.yul\":17696:18583   */\n    tag_287:\n      pop\n        /* \"#utility.yul\":17286:18589   */\n      pop\n      pop\n      pop\n        /* \"#utility.yul\":17194:18589   */\n      pop\n      pop\n      jump\t// out\n        /* \"#utility.yul\":18595:18972   */\n    tag_118:\n        /* \"#utility.yul\":18683:18686   */\n      0x00\n        /* \"#utility.yul\":18711:18750   */\n      tag_298\n        /* \"#utility.yul\":18744:18749   */\n      dup3\n        /* \"#utility.yul\":18711:18750   */\n      tag_79\n      jump\t// in\n    tag_298:\n        /* \"#utility.yul\":18766:18837   */\n      tag_299\n        /* \"#utility.yul\":18830:18836   */\n      dup2\n        /* \"#utility.yul\":18825:18828   */\n      dup6\n        /* \"#utility.yul\":18766:18837   */\n      tag_88\n      jump\t// in\n    tag_299:\n        /* \"#utility.yul\":18759:18837   */\n      swap4\n      pop\n        /* \"#utility.yul\":18846:18911   */\n      tag_300\n        /* \"#utility.yul\":18904:18910   */\n      dup2\n        /* \"#utility.yul\":18899:18902   */\n      dup6\n        /* \"#utility.yul\":18892:18896   */\n      0x20\n        /* \"#utility.yul\":18885:18890   */\n      dup7\n        /* \"#utility.yul\":18881:18897   */\n      add\n        /* \"#utility.yul\":18846:18911   */\n      tag_81\n      jump\t// in\n    tag_300:\n        /* \"#utility.yul\":18936:18965   */\n      tag_301\n        /* \"#utility.yul\":18958:18964   */\n      dup2\n        /* \"#utility.yul\":18936:18965   */\n      tag_68\n      jump\t// in\n    tag_301:\n        /* \"#utility.yul\":18931:18934   */\n      dup5\n        /* \"#utility.yul\":18927:18966   */\n      add\n        /* \"#utility.yul\":18920:18966   */\n      swap2\n      pop\n        /* \"#utility.yul\":18687:18972   */\n      pop\n        /* \"#utility.yul\":18595:18972   */\n      swap3\n      swap2\n      pop\n      pop\n      jump\t// out\n        /* \"#utility.yul\":18978:19511   */\n    tag_49:\n        /* \"#utility.yul\":19147:19151   */\n      0x00\n        /* \"#utility.yul\":19185:19187   */\n      0x60\n        /* \"#utility.yul\":19174:19183   */\n      dup3\n        /* \"#utility.yul\":19170:19188   */\n      add\n        /* \"#utility.yul\":19162:19188   */\n      swap1\n      pop\n        /* \"#utility.yul\":19198:19269   */\n      tag_303\n        /* \"#utility.yul\":19266:19267   */\n      0x00\n        /* \"#utility.yul\":19255:19264   */\n      dup4\n        /* \"#utility.yul\":19251:19268   */\n      add\n        /* \"#utility.yul\":19242:19248   */\n      dup7\n        /* \"#utility.yul\":19198:19269   */\n      tag_93\n      jump\t// in\n    tag_303:\n        /* \"#utility.yul\":19316:19325   */\n      dup2\n        /* \"#utility.yul\":19310:19314   */\n      dup2\n        /* \"#utility.yul\":19306:19326   */\n      sub\n        /* \"#utility.yul\":19301:19303   */\n      0x20\n        /* \"#utility.yul\":19290:19299   */\n      dup4\n        /* \"#utility.yul\":19286:19304   */\n      add\n        /* \"#utility.yul\":19279:19327   */\n      mstore\n        /* \"#utility.yul\":19344:19422   */\n      tag_304\n        /* \"#utility.yul\":19417:19421   */\n      dup2\n        /* \"#utility.yul\":19408:19414   */\n      dup6\n        /* \"#utility.yul\":19344:19422   */\n      tag_118\n      jump\t// in\n    tag_304:\n        /* \"#utility.yul\":19336:19422   */\n      swap1\n      pop\n        /* \"#utility.yul\":19432:19504   */\n      tag_305\n        /* \"#utility.yul\":19500:19502   */\n      0x40\n        /* \"#utility.yul\":19489:19498   */\n      dup4\n        /* \"#utility.yul\":19485:19503   */\n      add\n        /* \"#utility.yul\":19476:19482   */\n      dup5\n        /* \"#utility.yul\":19432:19504   */\n      tag_93\n      jump\t// in\n    tag_305:\n        /* \"#utility.yul\":18978:19511   */\n      swap5\n      swap4\n      pop\n      pop\n      pop\n      pop\n      jump\t// out\n\n    auxdata: 0xa2646970667358221220e613a758d9f366d8850ad6238f6bf7e26462895685d16bcb2538eca0d0fd1dd964736f6c634300081e0033\n}\n",
				"bytecode": {
					"linkReferences": {},
					"object": "6080604052348015600e575f5ffd5b50610e458061001c5f395ff3fe608060405260043610610033575f3560e01c80638642269e14610037578063b15247d914610053578063c29b2f201461007b575b5f5ffd5b610051600480360381019061004c9190610458565b6100a5565b005b34801561005e575f5ffd5b50610079600480360381019061007491906105bf565b6101f0565b005b348015610086575f5ffd5b5061008f610320565b60405161009c919061077d565b60405180910390f35b5f8054905081106100eb576040517f08c379a00000000000000000000000000000000000000000000000000000000081526004016100e29061081d565b60405180910390fd5b5f5f82815481106100ff576100fe61083b565b5b905f5260205f20906002020160010154905080341015610154576040517f08c379a000000000000000000000000000000000000000000000000000000000815260040161014b906108b2565b60405180910390fd5b7fa530f889d7f1bd9a73028e48944ca013ab2c6624a31e3fa26f923f4bb719abd58233346040516101879392919061091e565b60405180910390a15f813461019c9190610980565b90505f8111156101eb573373ffffffffffffffffffffffffffffffffffffffff166108fc8290811502906040515f60405180830381858888f193505050501580156101e9573d5f5f3e3d5ffd5b505b505050565b5f825111610233576040517f08c379a000000000000000000000000000000000000000000000000000000000815260040161022a90610a23565b60405180910390fd5b5f8111610275576040517f08c379a000000000000000000000000000000000000000000000000000000000815260040161026c90610ab1565b60405180910390fd5b5f604051806040016040528084815260200183815250908060018154018082558091505060019003905f5260205f2090600202015f909190919091505f820151815f0190816102c49190610ccc565b506020820151816001015550507fcca07c742c5274e8b72111ba69566aa4442450bfc50bd897ea38d0170d1accfc60015f805490506103039190610980565b838360405161031493929190610dd3565b60405180910390a15050565b60605f805480602002602001604051908101604052809291908181526020015f905b8282101561040b578382905f5260205f2090600202016040518060400160405290815f8201805461037290610afc565b80601f016020809104026020016040519081016040528092919081815260200182805461039e90610afc565b80156103e95780601f106103c0576101008083540402835291602001916103e9565b820191905f5260205f20905b8154815290600101906020018083116103cc57829003601f168201915b5050505050815260200160018201548152505081526020019060010190610342565b50505050905090565b5f604051905090565b5f5ffd5b5f5ffd5b5f819050919050565b61043781610425565b8114610441575f5ffd5b50565b5f813590506104528161042e565b92915050565b5f6020828403121561046d5761046c61041d565b5b5f61047a84828501610444565b91505092915050565b5f5ffd5b5f5ffd5b5f601f19601f8301169050919050565b7f4e487b71000000000000000000000000000000000000000000000000000000005f52604160045260245ffd5b6104d18261048b565b810181811067ffffffffffffffff821117156104f0576104ef61049b565b5b80604052505050565b5f610502610414565b905061050e82826104c8565b919050565b5f67ffffffffffffffff82111561052d5761052c61049b565b5b6105368261048b565b9050602081019050919050565b828183375f83830152505050565b5f61056361055e84610513565b6104f9565b90508281526020810184848401111561057f5761057e610487565b5b61058a848285610543565b509392505050565b5f82601f8301126105a6576105a5610483565b5b81356105b6848260208601610551565b91505092915050565b5f5f604083850312156105d5576105d461041d565b5b5f83013567ffffffffffffffff8111156105f2576105f1610421565b5b6105fe85828601610592565b925050602061060f85828601610444565b9150509250929050565b5f81519050919050565b5f82825260208201905092915050565b5f819050602082019050919050565b5f81519050919050565b5f82825260208201905092915050565b8281835e5f83830152505050565b5f61067482610642565b61067e818561064c565b935061068e81856020860161065c565b6106978161048b565b840191505092915050565b6106ab81610425565b82525050565b5f604083015f8301518482035f8601526106cb828261066a565b91505060208301516106e060208601826106a2565b508091505092915050565b5f6106f683836106b1565b905092915050565b5f602082019050919050565b5f61071482610619565b61071e8185610623565b93508360208202850161073085610633565b805f5b8581101561076b578484038952815161074c85826106eb565b9450610757836106fe565b925060208a01995050600181019050610733565b50829750879550505050505092915050565b5f6020820190508181035f830152610795818461070a565b905092915050565b5f82825260208201905092915050565b7f50726f6475637453746f72653a20696e76616c69642070726f6475637420696e5f8201527f6465780000000000000000000000000000000000000000000000000000000000602082015250565b5f61080760238361079d565b9150610812826107ad565b604082019050919050565b5f6020820190508181035f830152610834816107fb565b9050919050565b7f4e487b71000000000000000000000000000000000000000000000000000000005f52603260045260245ffd5b7f50726f6475637453746f72653a20696e73756666696369656e742066756e64735f82015250565b5f61089c60208361079d565b91506108a782610868565b602082019050919050565b5f6020820190508181035f8301526108c981610890565b9050919050565b6108d981610425565b82525050565b5f73ffffffffffffffffffffffffffffffffffffffff82169050919050565b5f610908826108df565b9050919050565b610918816108fe565b82525050565b5f6060820190506109315f8301866108d0565b61093e602083018561090f565b61094b60408301846108d0565b949350505050565b7f4e487b71000000000000000000000000000000000000000000000000000000005f52601160045260245ffd5b5f61098a82610425565b915061099583610425565b92508282039050818111156109ad576109ac610953565b5b92915050565b7f50726f6475637453746f72653a206e616d652063616e6e6f7420626520656d705f8201527f7479000000000000000000000000000000000000000000000000000000000000602082015250565b5f610a0d60228361079d565b9150610a18826109b3565b604082019050919050565b5f6020820190508181035f830152610a3a81610a01565b9050919050565b7f50726f6475637453746f72653a207072696365206d75737420626520677265615f8201527f746572207468616e207a65726f00000000000000000000000000000000000000602082015250565b5f610a9b602d8361079d565b9150610aa682610a41565b604082019050919050565b5f6020820190508181035f830152610ac881610a8f565b9050919050565b7f4e487b71000000000000000000000000000000000000000000000000000000005f52602260045260245ffd5b5f6002820490506001821680610b1357607f821691505b602082108103610b2657610b25610acf565b5b50919050565b5f819050815f5260205f209050919050565b5f6020601f8301049050919050565b5f82821b905092915050565b5f60088302610b887fffffffffffffffffffffffffffffffffffffffffffffffffffffffffffffffff82610b4d565b610b928683610b4d565b95508019841693508086168417925050509392505050565b5f819050919050565b5f610bcd610bc8610bc384610425565b610baa565b610425565b9050919050565b5f819050919050565b610be683610bb3565b610bfa610bf282610bd4565b848454610b59565b825550505050565b5f5f905090565b610c11610c02565b610c1c818484610bdd565b505050565b5b81811015610c3f57610c345f82610c09565b600181019050610c22565b5050565b601f821115610c8457610c5581610b2c565b610c5e84610b3e565b81016020851015610c6d578190505b610c81610c7985610b3e565b830182610c21565b50505b505050565b5f82821c905092915050565b5f610ca45f1984600802610c89565b1980831691505092915050565b5f610cbc8383610c95565b9150826002028217905092915050565b610cd582610642565b67ffffffffffffffff811115610cee57610ced61049b565b5b610cf88254610afc565b610d03828285610c43565b5f60209050601f831160018114610d34575f8415610d22578287015190505b610d2c8582610cb1565b865550610d93565b601f198416610d4286610b2c565b5f5b82811015610d6957848901518255600182019150602085019450602081019050610d44565b86831015610d865784890151610d82601f891682610c95565b8355505b6001600288020188555050505b505050505050565b5f610da582610642565b610daf818561079d565b9350610dbf81856020860161065c565b610dc88161048b565b840191505092915050565b5f606082019050610de65f8301866108d0565b8181036020830152610df88185610d9b565b9050610e0760408301846108d0565b94935050505056fea2646970667358221220e613a758d9f366d8850ad6238f6bf7e26462895685d16bcb2538eca0d0fd1dd964736f6c634300081e0033",
					"opcodes": "PUSH1 0x80 PUSH1 0x40 MSTORE CALLVALUE DUP1 ISZERO PUSH1 0xE JUMPI PUSH0 PUSH0 REVERT JUMPDEST POP PUSH2 0xE45 DUP1 PUSH2 0x1C PUSH0 CODECOPY PUSH0 RETURN INVALID PUSH1 0x80 PUSH1 0x40 MSTORE PUSH1 0x4 CALLDATASIZE LT PUSH2 0x33 JUMPI PUSH0 CALLDATALOAD PUSH1 0xE0 SHR DUP1 PUSH4 0x8642269E EQ PUSH2 0x37 JUMPI DUP1 PUSH4 0xB15247D9 EQ PUSH2 0x53 JUMPI DUP1 PUSH4 0xC29B2F20 EQ PUSH2 0x7B JUMPI JUMPDEST PUSH0 PUSH0 REVERT JUMPDEST PUSH2 0x51 PUSH1 0x4 DUP1 CALLDATASIZE SUB DUP2 ADD SWAP1 PUSH2 0x4C SWAP2 SWAP1 PUSH2 0x458 JUMP JUMPDEST PUSH2 0xA5 JUMP JUMPDEST STOP JUMPDEST CALLVALUE DUP1 ISZERO PUSH2 0x5E JUMPI PUSH0 PUSH0 REVERT JUMPDEST POP PUSH2 0x79 PUSH1 0x4 DUP1 CALLDATASIZE SUB DUP2 ADD SWAP1 PUSH2 0x74 SWAP2 SWAP1 PUSH2 0x5BF JUMP JUMPDEST PUSH2 0x1F0 JUMP JUMPDEST STOP JUMPDEST CALLVALUE DUP1 ISZERO PUSH2 0x86 JUMPI PUSH0 PUSH0 REVERT JUMPDEST POP PUSH2 0x8F PUSH2 0x320 JUMP JUMPDEST PUSH1 0x40 MLOAD PUSH2 0x9C SWAP2 SWAP1 PUSH2 0x77D JUMP JUMPDEST PUSH1 0x40 MLOAD DUP1 SWAP2 SUB SWAP1 RETURN JUMPDEST PUSH0 DUP1 SLOAD SWAP1 POP DUP2 LT PUSH2 0xEB JUMPI PUSH1 0x40 MLOAD PUSH32 0x8C379A000000000000000000000000000000000000000000000000000000000 DUP2 MSTORE PUSH1 0x4 ADD PUSH2 0xE2 SWAP1 PUSH2 0x81D JUMP JUMPDEST PUSH1 0x40 MLOAD DUP1 SWAP2 SUB SWAP1 REVERT JUMPDEST PUSH0 PUSH0 DUP3 DUP2 SLOAD DUP2 LT PUSH2 0xFF JUMPI PUSH2 0xFE PUSH2 0x83B JUMP JUMPDEST JUMPDEST SWAP1 PUSH0 MSTORE PUSH1 0x20 PUSH0 KECCAK256 SWAP1 PUSH1 0x2 MUL ADD PUSH1 0x1 ADD SLOAD SWAP1 POP DUP1 CALLVALUE LT ISZERO PUSH2 0x154 JUMPI PUSH1 0x40 MLOAD PUSH32 0x8C379A000000000000000000000000000000000000000000000000000000000 DUP2 MSTORE PUSH1 0x4 ADD PUSH2 0x14B SWAP1 PUSH2 0x8B2 JUMP JUMPDEST PUSH1 0x40 MLOAD DUP1 SWAP2 SUB SWAP1 REVERT JUMPDEST PUSH32 0xA530F889D7F1BD9A73028E48944CA013AB2C6624A31E3FA26F923F4BB719ABD5 DUP3 CALLER CALLVALUE PUSH1 0x40 MLOAD PUSH2 0x187 SWAP4 SWAP3 SWAP2 SWAP1 PUSH2 0x91E JUMP JUMPDEST PUSH1 0x40 MLOAD DUP1 SWAP2 SUB SWAP1 LOG1 PUSH0 DUP2 CALLVALUE PUSH2 0x19C SWAP2 SWAP1 PUSH2 0x980 JUMP JUMPDEST SWAP1 POP PUSH0 DUP2 GT ISZERO PUSH2 0x1EB JUMPI CALLER PUSH20 0xFFFFFFFFFFFFFFFFFFFFFFFFFFFFFFFFFFFFFFFF AND PUSH2 0x8FC DUP3 SWAP1 DUP2 ISZERO MUL SWAP1 PUSH1 0x40 MLOAD PUSH0 PUSH1 0x40 MLOAD DUP1 DUP4 SUB DUP2 DUP6 DUP9 DUP9 CALL SWAP4 POP POP POP POP ISZERO DUP1 ISZERO PUSH2 0x1E9 JUMPI RETURNDATASIZE PUSH0 PUSH0 RETURNDATACOPY RETURNDATASIZE PUSH0 REVERT JUMPDEST POP JUMPDEST POP POP POP JUMP JUMPDEST PUSH0 DUP3 MLOAD GT PUSH2 0x233 JUMPI PUSH1 0x40 MLOAD PUSH32 0x8C379A000000000000000000000000000000000000000000000000000000000 DUP2 MSTORE PUSH1 0x4 ADD PUSH2 0x22A SWAP1 PUSH2 0xA23 JUMP JUMPDEST PUSH1 0x40 MLOAD DUP1 SWAP2 SUB SWAP1 REVERT JUMPDEST PUSH0 DUP2 GT PUSH2 0x275 JUMPI PUSH1 0x40 MLOAD PUSH32 0x8C379A000000000000000000000000000000000000000000000000000000000 DUP2 MSTORE PUSH1 0x4 ADD PUSH2 0x26C SWAP1 PUSH2 0xAB1 JUMP JUMPDEST PUSH1 0x40 MLOAD DUP1 SWAP2 SUB SWAP1 REVERT JUMPDEST PUSH0 PUSH1 0x40 MLOAD DUP1 PUSH1 0x40 ADD PUSH1 0x40 MSTORE DUP1 DUP5 DUP2 MSTORE PUSH1 0x20 ADD DUP4 DUP2 MSTORE POP SWAP1 DUP1 PUSH1 0x1 DUP2 SLOAD ADD DUP1 DUP3 SSTORE DUP1 SWAP2 POP POP PUSH1 0x1 SWAP1 SUB SWAP1 PUSH0 MSTORE PUSH1 0x20 PUSH0 KECCAK256 SWAP1 PUSH1 0x2 MUL ADD PUSH0 SWAP1 SWAP2 SWAP1 SWAP2 SWAP1 SWAP2 POP PUSH0 DUP3 ADD MLOAD DUP2 PUSH0 ADD SWAP1 DUP2 PUSH2 0x2C4 SWAP2 SWAP1 PUSH2 0xCCC JUMP JUMPDEST POP PUSH1 0x20 DUP3 ADD MLOAD DUP2 PUSH1 0x1 ADD SSTORE POP POP PUSH32 0xCCA07C742C5274E8B72111BA69566AA4442450BFC50BD897EA38D0170D1ACCFC PUSH1 0x1 PUSH0 DUP1 SLOAD SWAP1 POP PUSH2 0x303 SWAP2 SWAP1 PUSH2 0x980 JUMP JUMPDEST DUP4 DUP4 PUSH1 0x40 MLOAD PUSH2 0x314 SWAP4 SWAP3 SWAP2 SWAP1 PUSH2 0xDD3 JUMP JUMPDEST PUSH1 0x40 MLOAD DUP1 SWAP2 SUB SWAP1 LOG1 POP POP JUMP JUMPDEST PUSH1 0x60 PUSH0 DUP1 SLOAD DUP1 PUSH1 0x20 MUL PUSH1 0x20 ADD PUSH1 0x40 MLOAD SWAP1 DUP2 ADD PUSH1 0x40 MSTORE DUP1 SWAP3 SWAP2 SWAP1 DUP2 DUP2 MSTORE PUSH1 0x20 ADD PUSH0 SWAP1 JUMPDEST DUP3 DUP3 LT ISZERO PUSH2 0x40B JUMPI DUP4 DUP3 SWAP1 PUSH0 MSTORE PUSH1 0x20 PUSH0 KECCAK256 SWAP1 PUSH1 0x2 MUL ADD PUSH1 0x40 MLOAD DUP1 PUSH1 0x40 ADD PUSH1 0x40 MSTORE SWAP1 DUP2 PUSH0 DUP3 ADD DUP1 SLOAD PUSH2 0x372 SWAP1 PUSH2 0xAFC JUMP JUMPDEST DUP1 PUSH1 0x1F ADD PUSH1 0x20 DUP1 SWAP2 DIV MUL PUSH1 0x20 ADD PUSH1 0x40 MLOAD SWAP1 DUP2 ADD PUSH1 0x40 MSTORE DUP1 SWAP3 SWAP2 SWAP1 DUP2 DUP2 MSTORE PUSH1 0x20 ADD DUP3 DUP1 SLOAD PUSH2 0x39E SWAP1 PUSH2 0xAFC JUMP JUMPDEST DUP1 ISZERO PUSH2 0x3E9 JUMPI DUP1 PUSH1 0x1F LT PUSH2 0x3C0 JUMPI PUSH2 0x100 DUP1 DUP4 SLOAD DIV MUL DUP4 MSTORE SWAP2 PUSH1 0x20 ADD SWAP2 PUSH2 0x3E9 JUMP JUMPDEST DUP3 ADD SWAP2 SWAP1 PUSH0 MSTORE PUSH1 0x20 PUSH0 KECCAK256 SWAP1 JUMPDEST DUP2 SLOAD DUP2 MSTORE SWAP1 PUSH1 0x1 ADD SWAP1 PUSH1 0x20 ADD DUP1 DUP4 GT PUSH2 0x3CC JUMPI DUP3 SWAP1 SUB PUSH1 0x1F AND DUP3 ADD SWAP2 JUMPDEST POP POP POP POP POP DUP2 MSTORE PUSH1 0x20 ADD PUSH1 0x1 DUP3 ADD SLOAD DUP2 MSTORE POP POP DUP2 MSTORE PUSH1 0x20 ADD SWAP1 PUSH1 0x1 ADD SWAP1 PUSH2 0x342 JUMP JUMPDEST POP POP POP POP SWAP1 POP SWAP1 JUMP JUMPDEST PUSH0 PUSH1 0x40 MLOAD SWAP1 POP SWAP1 JUMP JUMPDEST PUSH0 PUSH0 REVERT JUMPDEST PUSH0 PUSH0 REVERT JUMPDEST PUSH0 DUP2 SWAP1 POP SWAP2 SWAP1 POP JUMP JUMPDEST PUSH2 0x437 DUP2 PUSH2 0x425 JUMP JUMPDEST DUP2 EQ PUSH2 0x441 JUMPI PUSH0 PUSH0 REVERT JUMPDEST POP JUMP JUMPDEST PUSH0 DUP2 CALLDATALOAD SWAP1 POP PUSH2 0x452 DUP2 PUSH2 0x42E JUMP JUMPDEST SWAP3 SWAP2 POP POP JUMP JUMPDEST PUSH0 PUSH1 0x20 DUP3 DUP5 SUB SLT ISZERO PUSH2 0x46D JUMPI PUSH2 0x46C PUSH2 0x41D JUMP JUMPDEST JUMPDEST PUSH0 PUSH2 0x47A DUP5 DUP3 DUP6 ADD PUSH2 0x444 JUMP JUMPDEST SWAP2 POP POP SWAP3 SWAP2 POP POP JUMP JUMPDEST PUSH0 PUSH0 REVERT JUMPDEST PUSH0 PUSH0 REVERT JUMPDEST PUSH0 PUSH1 0x1F NOT PUSH1 0x1F DUP4 ADD AND SWAP1 POP SWAP2 SWAP1 POP JUMP JUMPDEST PUSH32 0x4E487B7100000000000000000000000000000000000000000000000000000000 PUSH0 MSTORE PUSH1 0x41 PUSH1 0x4 MSTORE PUSH1 0x24 PUSH0 REVERT JUMPDEST PUSH2 0x4D1 DUP3 PUSH2 0x48B JUMP JUMPDEST DUP2 ADD DUP2 DUP2 LT PUSH8 0xFFFFFFFFFFFFFFFF DUP3 GT OR ISZERO PUSH2 0x4F0 JUMPI PUSH2 0x4EF PUSH2 0x49B JUMP JUMPDEST JUMPDEST DUP1 PUSH1 0x40 MSTORE POP POP POP JUMP JUMPDEST PUSH0 PUSH2 0x502 PUSH2 0x414 JUMP JUMPDEST SWAP1 POP PUSH2 0x50E DUP3 DUP3 PUSH2 0x4C8 JUMP JUMPDEST SWAP2 SWAP1 POP JUMP JUMPDEST PUSH0 PUSH8 0xFFFFFFFFFFFFFFFF DUP3 GT ISZERO PUSH2 0x52D JUMPI PUSH2 0x52C PUSH2 0x49B JUMP JUMPDEST JUMPDEST PUSH2 0x536 DUP3 PUSH2 0x48B JUMP JUMPDEST SWAP1 POP PUSH1 0x20 DUP2 ADD SWAP1 POP SWAP2 SWAP1 POP JUMP JUMPDEST DUP3 DUP2 DUP4 CALLDATACOPY PUSH0 DUP4 DUP4 ADD MSTORE POP POP POP JUMP JUMPDEST PUSH0 PUSH2 0x563 PUSH2 0x55E DUP5 PUSH2 0x513 JUMP JUMPDEST PUSH2 0x4F9 JUMP JUMPDEST SWAP1 POP DUP3 DUP2 MSTORE PUSH1 0x20 DUP2 ADD DUP5 DUP5 DUP5 ADD GT ISZERO PUSH2 0x57F JUMPI PUSH2 0x57E PUSH2 0x487 JUMP JUMPDEST JUMPDEST PUSH2 0x58A DUP5 DUP3 DUP6 PUSH2 0x543 JUMP JUMPDEST POP SWAP4 SWAP3 POP POP POP JUMP JUMPDEST PUSH0 DUP3 PUSH1 0x1F DUP4 ADD SLT PUSH2 0x5A6 JUMPI PUSH2 0x5A5 PUSH2 0x483 JUMP JUMPDEST JUMPDEST DUP2 CALLDATALOAD PUSH2 0x5B6 DUP5 DUP3 PUSH1 0x20 DUP7 ADD PUSH2 0x551 JUMP JUMPDEST SWAP2 POP POP SWAP3 SWAP2 POP POP JUMP JUMPDEST PUSH0 PUSH0 PUSH1 0x40 DUP4 DUP6 SUB SLT ISZERO PUSH2 0x5D5 JUMPI PUSH2 0x5D4 PUSH2 0x41D JUMP JUMPDEST JUMPDEST PUSH0 DUP4 ADD CALLDATALOAD PUSH8 0xFFFFFFFFFFFFFFFF DUP2 GT ISZERO PUSH2 0x5F2 JUMPI PUSH2 0x5F1 PUSH2 0x421 JUMP JUMPDEST JUMPDEST PUSH2 0x5FE DUP6 DUP3 DUP7 ADD PUSH2 0x592 JUMP JUMPDEST SWAP3 POP POP PUSH1 0x20 PUSH2 0x60F DUP6 DUP3 DUP7 ADD PUSH2 0x444 JUMP JUMPDEST SWAP2 POP POP SWAP3 POP SWAP3 SWAP1 POP JUMP JUMPDEST PUSH0 DUP2 MLOAD SWAP1 POP SWAP2 SWAP1 POP JUMP JUMPDEST PUSH0 DUP3 DUP3 MSTORE PUSH1 0x20 DUP3 ADD SWAP1 POP SWAP3 SWAP2 POP POP JUMP JUMPDEST PUSH0 DUP2 SWAP1 POP PUSH1 0x20 DUP3 ADD SWAP1 POP SWAP2 SWAP1 POP JUMP JUMPDEST PUSH0 DUP2 MLOAD SWAP1 POP SWAP2 SWAP1 POP JUMP JUMPDEST PUSH0 DUP3 DUP3 MSTORE PUSH1 0x20 DUP3 ADD SWAP1 POP SWAP3 SWAP2 POP POP JUMP JUMPDEST DUP3 DUP2 DUP4 MCOPY PUSH0 DUP4 DUP4 ADD MSTORE POP POP POP JUMP JUMPDEST PUSH0 PUSH2 0x674 DUP3 PUSH2 0x642 JUMP JUMPDEST PUSH2 0x67E DUP2 DUP6 PUSH2 0x64C JUMP JUMPDEST SWAP4 POP PUSH2 0x68E DUP2 DUP6 PUSH1 0x20 DUP7 ADD PUSH2 0x65C JUMP JUMPDEST PUSH2 0x697 DUP2 PUSH2 0x48B JUMP JUMPDEST DUP5 ADD SWAP2 POP POP SWAP3 SWAP2 POP POP JUMP JUMPDEST PUSH2 0x6AB DUP2 PUSH2 0x425 JUMP JUMPDEST DUP3 MSTORE POP POP JUMP JUMPDEST PUSH0 PUSH1 0x40 DUP4 ADD PUSH0 DUP4 ADD MLOAD DUP5 DUP3 SUB PUSH0 DUP7 ADD MSTORE PUSH2 0x6CB DUP3 DUP3 PUSH2 0x66A JUMP JUMPDEST SWAP2 POP POP PUSH1 0x20 DUP4 ADD MLOAD PUSH2 0x6E0 PUSH1 0x20 DUP7 ADD DUP3 PUSH2 0x6A2 JUMP JUMPDEST POP DUP1 SWAP2 POP POP SWAP3 SWAP2 POP POP JUMP JUMPDEST PUSH0 PUSH2 0x6F6 DUP4 DUP4 PUSH2 0x6B1 JUMP JUMPDEST SWAP1 POP SWAP3 SWAP2 POP POP JUMP JUMPDEST PUSH0 PUSH1 0x20 DUP3 ADD SWAP1 POP SWAP2 SWAP1 POP JUMP JUMPDEST PUSH0 PUSH2 0x714 DUP3 PUSH2 0x619 JUMP JUMPDEST PUSH2 0x71E DUP2 DUP6 PUSH2 0x623 JUMP JUMPDEST SWAP4 POP DUP4 PUSH1 0x20 DUP3 MUL DUP6 ADD PUSH2 0x730 DUP6 PUSH2 0x633 JUMP JUMPDEST DUP1 PUSH0 JUMPDEST DUP6 DUP2 LT ISZERO PUSH2 0x76B JUMPI DUP5 DUP5 SUB DUP10 MSTORE DUP2 MLOAD PUSH2 0x74C DUP6 DUP3 PUSH2 0x6EB JUMP JUMPDEST SWAP5 POP PUSH2 0x757 DUP4 PUSH2 0x6FE JUMP JUMPDEST SWAP3 POP PUSH1 0x20 DUP11 ADD SWAP10 POP POP PUSH1 0x1 DUP2 ADD SWAP1 POP PUSH2 0x733 JUMP JUMPDEST POP DUP3 SWAP8 POP DUP8 SWAP6 POP POP POP POP POP POP SWAP3 SWAP2 POP POP JUMP JUMPDEST PUSH0 PUSH1 0x20 DUP3 ADD SWAP1 POP DUP2 DUP2 SUB PUSH0 DUP4 ADD MSTORE PUSH2 0x795 DUP2 DUP5 PUSH2 0x70A JUMP JUMPDEST SWAP1 POP SWAP3 SWAP2 POP POP JUMP JUMPDEST PUSH0 DUP3 DUP3 MSTORE PUSH1 0x20 DUP3 ADD SWAP1 POP SWAP3 SWAP2 POP POP JUMP JUMPDEST PUSH32 0x50726F6475637453746F72653A20696E76616C69642070726F6475637420696E PUSH0 DUP3 ADD MSTORE PUSH32 0x6465780000000000000000000000000000000000000000000000000000000000 PUSH1 0x20 DUP3 ADD MSTORE POP JUMP JUMPDEST PUSH0 PUSH2 0x807 PUSH1 0x23 DUP4 PUSH2 0x79D JUMP JUMPDEST SWAP2 POP PUSH2 0x812 DUP3 PUSH2 0x7AD JUMP JUMPDEST PUSH1 0x40 DUP3 ADD SWAP1 POP SWAP2 SWAP1 POP JUMP JUMPDEST PUSH0 PUSH1 0x20 DUP3 ADD SWAP1 POP DUP2 DUP2 SUB PUSH0 DUP4 ADD MSTORE PUSH2 0x834 DUP2 PUSH2 0x7FB JUMP JUMPDEST SWAP1 POP SWAP2 SWAP1 POP JUMP JUMPDEST PUSH32 0x4E487B7100000000000000000000000000000000000000000000000000000000 PUSH0 MSTORE PUSH1 0x32 PUSH1 0x4 MSTORE PUSH1 0x24 PUSH0 REVERT JUMPDEST PUSH32 0x50726F6475637453746F72653A20696E73756666696369656E742066756E6473 PUSH0 DUP3 ADD MSTORE POP JUMP JUMPDEST PUSH0 PUSH2 0x89C PUSH1 0x20 DUP4 PUSH2 0x79D JUMP JUMPDEST SWAP2 POP PUSH2 0x8A7 DUP3 PUSH2 0x868 JUMP JUMPDEST PUSH1 0x20 DUP3 ADD SWAP1 POP SWAP2 SWAP1 POP JUMP JUMPDEST PUSH0 PUSH1 0x20 DUP3 ADD SWAP1 POP DUP2 DUP2 SUB PUSH0 DUP4 ADD MSTORE PUSH2 0x8C9 DUP2 PUSH2 0x890 JUMP JUMPDEST SWAP1 POP SWAP2 SWAP1 POP JUMP JUMPDEST PUSH2 0x8D9 DUP2 PUSH2 0x425 JUMP JUMPDEST DUP3 MSTORE POP POP JUMP JUMPDEST PUSH0 PUSH20 0xFFFFFFFFFFFFFFFFFFFFFFFFFFFFFFFFFFFFFFFF DUP3 AND SWAP1 POP SWAP2 SWAP1 POP JUMP JUMPDEST PUSH0 PUSH2 0x908 DUP3 PUSH2 0x8DF JUMP JUMPDEST SWAP1 POP SWAP2 SWAP1 POP JUMP JUMPDEST PUSH2 0x918 DUP2 PUSH2 0x8FE JUMP JUMPDEST DUP3 MSTORE POP POP JUMP JUMPDEST PUSH0 PUSH1 0x60 DUP3 ADD SWAP1 POP PUSH2 0x931 PUSH0 DUP4 ADD DUP7 PUSH2 0x8D0 JUMP JUMPDEST PUSH2 0x93E PUSH1 0x20 DUP4 ADD DUP6 PUSH2 0x90F JUMP JUMPDEST PUSH2 0x94B PUSH1 0x40 DUP4 ADD DUP5 PUSH2 0x8D0 JUMP JUMPDEST SWAP5 SWAP4 POP POP POP POP JUMP JUMPDEST PUSH32 0x4E487B7100000000000000000000000000000000000000000000000000000000 PUSH0 MSTORE PUSH1 0x11 PUSH1 0x4 MSTORE PUSH1 0x24 PUSH0 REVERT JUMPDEST PUSH0 PUSH2 0x98A DUP3 PUSH2 0x425 JUMP JUMPDEST SWAP2 POP PUSH2 0x995 DUP4 PUSH2 0x425 JUMP JUMPDEST SWAP3 POP DUP3 DUP3 SUB SWAP1 POP DUP2 DUP2 GT ISZERO PUSH2 0x9AD JUMPI PUSH2 0x9AC PUSH2 0x953 JUMP JUMPDEST JUMPDEST SWAP3 SWAP2 POP POP JUMP JUMPDEST PUSH32 0x50726F6475637453746F72653A206E616D652063616E6E6F7420626520656D70 PUSH0 DUP3 ADD MSTORE PUSH32 0x7479000000000000000000000000000000000000000000000000000000000000 PUSH1 0x20 DUP3 ADD MSTORE POP JUMP JUMPDEST PUSH0 PUSH2 0xA0D PUSH1 0x22 DUP4 PUSH2 0x79D JUMP JUMPDEST SWAP2 POP PUSH2 0xA18 DUP3 PUSH2 0x9B3 JUMP JUMPDEST PUSH1 0x40 DUP3 ADD SWAP1 POP SWAP2 SWAP1 POP JUMP JUMPDEST PUSH0 PUSH1 0x20 DUP3 ADD SWAP1 POP DUP2 DUP2 SUB PUSH0 DUP4 ADD MSTORE PUSH2 0xA3A DUP2 PUSH2 0xA01 JUMP JUMPDEST SWAP1 POP SWAP2 SWAP1 POP JUMP JUMPDEST PUSH32 0x50726F6475637453746F72653A207072696365206D7573742062652067726561 PUSH0 DUP3 ADD MSTORE PUSH32 0x746572207468616E207A65726F00000000000000000000000000000000000000 PUSH1 0x20 DUP3 ADD MSTORE POP JUMP JUMPDEST PUSH0 PUSH2 0xA9B PUSH1 0x2D DUP4 PUSH2 0x79D JUMP JUMPDEST SWAP2 POP PUSH2 0xAA6 DUP3 PUSH2 0xA41 JUMP JUMPDEST PUSH1 0x40 DUP3 ADD SWAP1 POP SWAP2 SWAP1 POP JUMP JUMPDEST PUSH0 PUSH1 0x20 DUP3 ADD SWAP1 POP DUP2 DUP2 SUB PUSH0 DUP4 ADD MSTORE PUSH2 0xAC8 DUP2 PUSH2 0xA8F JUMP JUMPDEST SWAP1 POP SWAP2 SWAP1 POP JUMP JUMPDEST PUSH32 0x4E487B7100000000000000000000000000000000000000000000000000000000 PUSH0 MSTORE PUSH1 0x22 PUSH1 0x4 MSTORE PUSH1 0x24 PUSH0 REVERT JUMPDEST PUSH0 PUSH1 0x2 DUP3 DIV SWAP1 POP PUSH1 0x1 DUP3 AND DUP1 PUSH2 0xB13 JUMPI PUSH1 0x7F DUP3 AND SWAP2 POP JUMPDEST PUSH1 0x20 DUP3 LT DUP2 SUB PUSH2 0xB26 JUMPI PUSH2 0xB25 PUSH2 0xACF JUMP JUMPDEST JUMPDEST POP SWAP2 SWAP1 POP JUMP JUMPDEST PUSH0 DUP2 SWAP1 POP DUP2 PUSH0 MSTORE PUSH1 0x20 PUSH0 KECCAK256 SWAP1 POP SWAP2 SWAP1 POP JUMP JUMPDEST PUSH0 PUSH1 0x20 PUSH1 0x1F DUP4 ADD DIV SWAP1 POP SWAP2 SWAP1 POP JUMP JUMPDEST PUSH0 DUP3 DUP3 SHL SWAP1 POP SWAP3 SWAP2 POP POP JUMP JUMPDEST PUSH0 PUSH1 0x8 DUP4 MUL PUSH2 0xB88 PUSH32 0xFFFFFFFFFFFFFFFFFFFFFFFFFFFFFFFFFFFFFFFFFFFFFFFFFFFFFFFFFFFFFFFF DUP3 PUSH2 0xB4D JUMP JUMPDEST PUSH2 0xB92 DUP7 DUP4 PUSH2 0xB4D JUMP JUMPDEST SWAP6 POP DUP1 NOT DUP5 AND SWAP4 POP DUP1 DUP7 AND DUP5 OR SWAP3 POP POP POP SWAP4 SWAP3 POP POP POP JUMP JUMPDEST PUSH0 DUP2 SWAP1 POP SWAP2 SWAP1 POP JUMP JUMPDEST PUSH0 PUSH2 0xBCD PUSH2 0xBC8 PUSH2 0xBC3 DUP5 PUSH2 0x425 JUMP JUMPDEST PUSH2 0xBAA JUMP JUMPDEST PUSH2 0x425 JUMP JUMPDEST SWAP1 POP SWAP2 SWAP1 POP JUMP JUMPDEST PUSH0 DUP2 SWAP1 POP SWAP2 SWAP1 POP JUMP JUMPDEST PUSH2 0xBE6 DUP4 PUSH2 0xBB3 JUMP JUMPDEST PUSH2 0xBFA PUSH2 0xBF2 DUP3 PUSH2 0xBD4 JUMP JUMPDEST DUP5 DUP5 SLOAD PUSH2 0xB59 JUMP JUMPDEST DUP3 SSTORE POP POP POP POP JUMP JUMPDEST PUSH0 PUSH0 SWAP1 POP SWAP1 JUMP JUMPDEST PUSH2 0xC11 PUSH2 0xC02 JUMP JUMPDEST PUSH2 0xC1C DUP2 DUP5 DUP5 PUSH2 0xBDD JUMP JUMPDEST POP POP POP JUMP JUMPDEST JUMPDEST DUP2 DUP2 LT ISZERO PUSH2 0xC3F JUMPI PUSH2 0xC34 PUSH0 DUP3 PUSH2 0xC09 JUMP JUMPDEST PUSH1 0x1 DUP2 ADD SWAP1 POP PUSH2 0xC22 JUMP JUMPDEST POP POP JUMP JUMPDEST PUSH1 0x1F DUP3 GT ISZERO PUSH2 0xC84 JUMPI PUSH2 0xC55 DUP2 PUSH2 0xB2C JUMP JUMPDEST PUSH2 0xC5E DUP5 PUSH2 0xB3E JUMP JUMPDEST DUP2 ADD PUSH1 0x20 DUP6 LT ISZERO PUSH2 0xC6D JUMPI DUP2 SWAP1 POP JUMPDEST PUSH2 0xC81 PUSH2 0xC79 DUP6 PUSH2 0xB3E JUMP JUMPDEST DUP4 ADD DUP3 PUSH2 0xC21 JUMP JUMPDEST POP POP JUMPDEST POP POP POP JUMP JUMPDEST PUSH0 DUP3 DUP3 SHR SWAP1 POP SWAP3 SWAP2 POP POP JUMP JUMPDEST PUSH0 PUSH2 0xCA4 PUSH0 NOT DUP5 PUSH1 0x8 MUL PUSH2 0xC89 JUMP JUMPDEST NOT DUP1 DUP4 AND SWAP2 POP POP SWAP3 SWAP2 POP POP JUMP JUMPDEST PUSH0 PUSH2 0xCBC DUP4 DUP4 PUSH2 0xC95 JUMP JUMPDEST SWAP2 POP DUP3 PUSH1 0x2 MUL DUP3 OR SWAP1 POP SWAP3 SWAP2 POP POP JUMP JUMPDEST PUSH2 0xCD5 DUP3 PUSH2 0x642 JUMP JUMPDEST PUSH8 0xFFFFFFFFFFFFFFFF DUP2 GT ISZERO PUSH2 0xCEE JUMPI PUSH2 0xCED PUSH2 0x49B JUMP JUMPDEST JUMPDEST PUSH2 0xCF8 DUP3 SLOAD PUSH2 0xAFC JUMP JUMPDEST PUSH2 0xD03 DUP3 DUP3 DUP6 PUSH2 0xC43 JUMP JUMPDEST PUSH0 PUSH1 0x20 SWAP1 POP PUSH1 0x1F DUP4 GT PUSH1 0x1 DUP2 EQ PUSH2 0xD34 JUMPI PUSH0 DUP5 ISZERO PUSH2 0xD22 JUMPI DUP3 DUP8 ADD MLOAD SWAP1 POP JUMPDEST PUSH2 0xD2C DUP6 DUP3 PUSH2 0xCB1 JUMP JUMPDEST DUP7 SSTORE POP PUSH2 0xD93 JUMP JUMPDEST PUSH1 0x1F NOT DUP5 AND PUSH2 0xD42 DUP7 PUSH2 0xB2C JUMP JUMPDEST PUSH0 JUMPDEST DUP3 DUP2 LT ISZERO PUSH2 0xD69 JUMPI DUP5 DUP10 ADD MLOAD DUP3 SSTORE PUSH1 0x1 DUP3 ADD SWAP2 POP PUSH1 0x20 DUP6 ADD SWAP5 POP PUSH1 0x20 DUP2 ADD SWAP1 POP PUSH2 0xD44 JUMP JUMPDEST DUP7 DUP4 LT ISZERO PUSH2 0xD86 JUMPI DUP5 DUP10 ADD MLOAD PUSH2 0xD82 PUSH1 0x1F DUP10 AND DUP3 PUSH2 0xC95 JUMP JUMPDEST DUP4 SSTORE POP JUMPDEST PUSH1 0x1 PUSH1 0x2 DUP9 MUL ADD DUP9 SSTORE POP POP POP JUMPDEST POP POP POP POP POP POP JUMP JUMPDEST PUSH0 PUSH2 0xDA5 DUP3 PUSH2 0x642 JUMP JUMPDEST PUSH2 0xDAF DUP2 DUP6 PUSH2 0x79D JUMP JUMPDEST SWAP4 POP PUSH2 0xDBF DUP2 DUP6 PUSH1 0x20 DUP7 ADD PUSH2 0x65C JUMP JUMPDEST PUSH2 0xDC8 DUP2 PUSH2 0x48B JUMP JUMPDEST DUP5 ADD SWAP2 POP POP SWAP3 SWAP2 POP POP JUMP JUMPDEST PUSH0 PUSH1 0x60 DUP3 ADD SWAP1 POP PUSH2 0xDE6 PUSH0 DUP4 ADD DUP7 PUSH2 0x8D0 JUMP JUMPDEST DUP2 DUP2 SUB PUSH1 0x20 DUP4 ADD MSTORE PUSH2 0xDF8 DUP2 DUP6 PUSH2 0xD9B JUMP JUMPDEST SWAP1 POP PUSH2 0xE07 PUSH1 0x40 DUP4 ADD DUP5 PUSH2 0x8D0 JUMP JUMPDEST SWAP5 SWAP4 POP POP POP POP JUMP INVALID LOG2 PUSH5 0x6970667358 0x22 SLT KECCAK256 DUPN 0x13 0xA7 PC 0xD9 RETURN PUSH7 0xD8850AD6238F6B 0xF7 0xE2 PUSH5 0x62895685D1 PUSH12 0xCB2538ECA0D0FD1DD964736F PUSH13 0x634300081E0033000000000000 "
				},
				"gasEstimates": {
					"creation": {
						"codeDepositCost": "730600",
						"executionCost": "764",
						"totalCost": "731364"
					},
					"external": {
						"addProduct(string,uint256)": "infinite",
						"buyProduct(uint256)": "infinite",
						"getProducts()": "infinite"
					}
				},
				"methodIdentifiers": {
					"addProduct(string,uint256)": "b15247d9",
					"buyProduct(uint256)": "8642269e",
					"getProducts()": "c29b2f20"
				}
			},
			"storageLayout": {
				"storage": [
					{
						"astId": 11,
						"contract": "contracts/6_ProductStore.sol:ProductStore",
						"label": "products",
						"offset": 0,
						"slot": "0",
						"type": "t_array(t_struct(Product)7_storage)dyn_storage"
					}
				],
				"types": {
					"t_array(t_struct(Product)7_storage)dyn_storage": {
						"base": "t_struct(Product)7_storage",
						"encoding": "dynamic_array",
						"label": "struct ProductStore.Product[]",
						"numberOfBytes": "32"
					},
					"t_string_storage": {
						"encoding": "bytes",
						"label": "string",
						"numberOfBytes": "32"
					},
					"t_struct(Product)7_storage": {
						"encoding": "inplace",
						"label": "struct ProductStore.Product",
						"members": [
							{
								"astId": 4,
								"contract": "contracts/6_ProductStore.sol:ProductStore",
								"label": "name",
								"offset": 0,
								"slot": "0",
								"type": "t_string_storage"
							},
							{
								"astId": 6,
								"contract": "contracts/6_ProductStore.sol:ProductStore",
								"label": "price",
								"offset": 0,
								"slot": "1",
								"type": "t_uint256"
							}
						],
						"numberOfBytes": "64"
					},
					"t_uint256": {
						"encoding": "inplace",
						"label": "uint256",
						"numberOfBytes": "32"
					}
				}
			},
			"userdoc": {
				"kind": "user",
				"methods": {
					"addProduct(string,uint256)": {
						"notice": "Додати новий товар"
					},
					"buyProduct(uint256)": {
						"notice": "Купити товар, надіславши ETH"
					},
					"getProducts()": {
						"notice": "Отримати список усіх товарів"
					}
				},
				"version": 1
			}
		}
	}
}